:020000042000DA
:100000000000012099020020090300200B030020BA
:100010000D0300200F03002011030020000000004A
:10002000000000000000000000000000130300209A
:100030001503002000000000170300201903002012
:100040001B0300201D0300201F03002021030020AC
:10005000230300202503002027030020290300207C
:100060002B0300202D030020BD210020E9210020CA
:10007000392D0020652D0020370300203903002092
:100080003B0300203D0300203F03002041030020EC
:10009000C119002045030020470300204903002028
:1000A0004B030020000000000000000000000000E2
:1000B0000000000000000000000000004D030020D0
:1000C0004F0300205103002053030020550300205C
:1000D00057030020590300205B0300205D0300202C
:1000E0005F030020610300206303002065030020FC
:1000F00067030020690300206B0300206D030020CC
:100100006F0300207103002073030020750300209B
:1001100077030020790300207B0300207D0300206B
:100120007F0300208103002083030020850300203B
:1001300087030020890300208B0300208D0300200B
:100140008F030020910300209303002095030020DB
:1001500097030020990300209B0300209D030020AB
:100160009F030020A1030020A3030020A50300207B
:10017000A7030020A9030020AB030020AD0300204B
:10018000AF030020B1030020B3030020B50300201B
:10019000B7030020B9030020BB030020BD030020EB
:1001A000BF030020C1030020C3030020C5030020BB
:1001B000C7030020C9030020CB030020CD0300208B
:1001C000CF030020D1030020D3030020D50300205B
:1001D000D7030020D9030020DB030020DD0300202B
:1001E000DF030020E1030020E3030020E5030020FB
:1001F000E7030020E9030020EB030020ED030020CB
:10020000EF030020F1030020F3030020F50300209A
:10021000F7030020F90300200135002029350020D4
:100220005135002079350020A1350020C935002046
:10023000F1350020193600204136002069360020B3
:1002400091360020B9360020E13600200937002021
:10025000313700205937002081370020A93700208E
:10026000D1370020F93700202138002049380020FC
:100270007138002099380020C1380020E93800206A
:1002800011390020393900206139002089390020D6
:10029000B1390020D93900206848804768480028D3
:1002A0000BD168486849694A884206D091421CBF10
:1002B00050F8043B41F8043BF8D165486549664A6B
:1002C000884206D091421CBF50F8043B41F8043BE1
:1002D000F8D162486249634A914218BF41F8040B61
:1002E000FAD1000000000000000000000000000043
:1002F000DFF874010FF2030E00474FF000004FF0DB
:100300000001DFF868F1FEE7FEE7FEE7FEE7FEE743
:10031000FEE7FEE7FEE7FEE7FEE7FEE7FEE7FEE7B5
:10032000FEE7FEE7FEE7FEE7FEE7FEE7FEE7FEE7A5
:10033000FEE7FEE7FEE7FEE7FEE7FEE7FEE7FEE795
:10034000FEE7FEE7FEE7FEE7FEE7FEE7FEE7FEE785
:10035000FEE7FEE7FEE7FEE7FEE7FEE7FEE7FEE775
:10036000FEE7FEE7FEE7FEE7FEE7FEE7FEE7FEE765
:10037000FEE7FEE7FEE7FEE7FEE7FEE7FEE7FEE755
:10038000FEE7FEE7FEE7FEE7FEE7FEE7FEE7FEE745
:10039000FEE7FEE7FEE7FEE7FEE7FEE7FEE7FEE735
:1003A000FEE7FEE7FEE7FEE7FEE7FEE7FEE7FEE725
:1003B000FEE7FEE7FEE7FEE7FEE7FEE7FEE7FEE715
:1003C000FEE7FEE7FEE7FEE7FEE7FEE7FEE7FEE705
:1003D000FEE7FEE7FEE7FEE7FEE7FEE7FEE7FEE7F5
:1003E000FEE7FEE7FEE7FEE7FEE7FEE7FEE7FEE7E5
:1003F000FEE7FEE7FEE7FEE7FEE7FEE7FEE7FEE7D5
:10040000FEE7FEE7FEE7FEE7FEE7FEE7FEE7FEE7C4
:10041000FEE7FEE7FEE7FEE7FEE7FEE7FEE7FEE7B4
:10042000FEE7FEE7FEE7FEE7FEE7FEE7FEE7FEE7A4
:10043000FEE7FEE7FEE7FEE7FEE70000AD30002046
:10044000000000000000002000000020A0BF0020ED
:10045000A0BF0020A0BF0020D8C4002000000000E2
:10046000D8C4002030C70020D1460020FD0C002059
:100470004CF2D843C2F200031A780AB9012018706E
:10048000704700BF4BF6A070C2F2000008B50368C9
:100490002BB140F20003C0F2000303B1984708BD3E
:1004A00008B54AF69830C0F2020000F0B9FF40F2F9
:1004B0005412C4F205021368002BFCD14EF648001A
:1004C000C0F2010000F0ACFF4FF0FA0001F018FAA2
:1004D00044F6F010C0F2020000F0A2FF08BD00BF19
:1004E00010B5037813F020040CD00A7802F0200233
:1004F000D2B23AB940F24812C4F205024FF00004F9
:10050000146022E003F01002D2B262B10A7802F065
:100510001002D2B262B940F24C12C4F205024FF09E
:100520000004146011E00A7802F01002D2B22AB975
:100530005CB90A7802F02002D2B232B140F2441221
:10054000C4F205024FF00004146013F040020CD016
:100550000C7804F04004E4B23CB940F20813C4F251
:1005600005034FF000021A6022E013F080030CD064
:100570000C7804F08004E4B23CB940F20C13C4F2ED
:1005800005034FF000021A6012E022B90A7802F067
:100590004002D2B22AB95BB90B7803F08003DBB218
:1005A00033B140F20413C4F205034FF000021A60A5
:1005B00090F9022091F902309A4205D190F9032076
:1005C00091F903309A420CD04CF2DC44C2F20004A0
:1005D000214600F005FF206800F010FF606800F081
:1005E0001FFF10BD70B504464BF67410C2F2000038
:1005F000214604F0ADFCC4F34005C4F3800604F0CA
:1006000001044BF68810C2F2000021462A46334608
:1006100004F09EFC4FF00400214602F02BFC4FF04A
:100620000500294602F026FC4FF00600314602F094
:1006300021FC70BD38B5037813F0010F79D00B7829
:1006400013F0010F75D14CF20053C2F200031B7876
:100650006BB34CF2E443C2F200034FF001025A7153
:100660004EF64804C0F20104204600F0D9FE2046B0
:1006700000F0C4FE4FF0FA0001F042F940F24413DA
:10068000C4F205034FF000041C604FF06E0001F04F
:1006900037F940F20413C4F205031C604CF2005316
:1006A000C2F200031C702046FFF79CFF38BD4CF2DD
:1006B0000053C2F200034FF001021A704FF0040021
:1006C000FFF790FF4DF2A820C0F2020000F096FE66
:1006D0004AF69830C0F2020000F0A2FE40F2541236
:1006E000C4F2050240F21011C4F2050140F24414B4
:1006F000C4F205044FF0000040F20415C4F20505F1
:1007000005E0136803B920600B6803B9286013681B
:10071000002BF6D10B68002BF3D140F20413C4F286
:1007200005034FF000021A6040F24413C4F20503BF
:100730001A6038BD38B504460D464CF2EC43C2F29F
:1007400000031B78CBB9037803F00803DBB26BBB63
:100750000B7803F00803DBB243B34CF2EC43C2F274
:1007600000034FF001001870FFF73CFF4BF6A41098
:10077000C2F2000004F05AFC18E0037803F008030A
:10078000DBB29BB90B7803F00803DBB273B14CF218
:10079000EC43C2F200034FF000001870FFF722FF95
:1007A0004BF6C810C2F2000004F040FC637803F07E
:1007B0004003DBB2CBB16B7803F04003DBB2A3B9EB
:1007C0004CF20153C2F200031B783BB14CF20153CF
:1007D000C2F200034FF000021A7038BD4CF2015310
:1007E000C2F200034FF001021A7038BD08B502F0E2
:1007F000EDFA4FF004004FF0050102F01DFB4FF041
:100800000500014602F018FB4FF006004FF005010D
:1008100002F012FB4FF004004FF0000102F02AFB3F
:100820004FF005004FF0000102F024FB4FF00600EE
:100830004FF0000102F01EFB08BD00BF10B50446DA
:100840004FF00100014602F015FB204601F058F878
:100850004FF001004FF0000102F00CFB4FF4FA7072
:1008600001F04EF810BD00BF08B54CF2EC43C2F2E7
:1008700000031B7833B94BF6E010C2F2000004F01D
:10088000D5FB08BD4CF2E443C2F200034FF0000276
:100890005A714CF2C450C2F2000000F083FE00F026
:1008A000A3FF4FF00300FFF79DFE4FF06400FFF73A
:1008B000C5FFFFF7F5FD4CF20153C2F200031B78B0
:1008C0007BB94CF2EC43C2F200034FF00000187009
:1008D000FFF788FE4BF6C810C2F2000004F0A6FB3A
:1008E00008BD4FF00100FFF77DFE08BD00000000CD
:1008F0002DE9F04F8DB005460E464CF2EC43C2F2A6
:1009000000031B78002B00F0AD81437803F008034F
:10091000DBB2002B00F0A6814B7803F00803DBB2BA
:10092000002B40F09F814BF61820C2F2000004F02B
:100930007DFB4FF00200FFF755FE40F20412C4F2B7
:1009400005024FF00003136040F24412C4F20502A6
:1009500013604CF2E442C2F2000293719A46019392
:10096000029344F6F017C0F20207B8464FF00102B6
:1009700005924CF2F84BC2F2000B40F20413C4F2A1
:1009800005030793D14640F24413C4F205030893CC
:10099000CDF818A0CDF824A00BA800F0D7FCB0F13A
:1009A000FF3F14D14FF0050000F0AAFF0AF1010A41
:1009B000BAF1140F40F0098144F6F014C0F20204B9
:1009C000204600F01BFD204600F02AFDFDE04BF61E
:1009D0004020C2F20000BDF92C10BDF92E2004F019
:1009E000B7FABDF82C301AB2A32A12DCC2F1A40166
:1009F00045F67852C0F202024FF4C87000FB0122A3
:100A00004AF6983CC0F2020C624528BF6246049246
:100A100015E01AB2A42A12DD10464FF67061CFF627
:100A2000FF7143F67862C0F2030201FB00224EF62A
:100A3000480CC0F2010C624538BF62460492A3F133
:100A400093039BB2222B88BFCDF808900AD8029A54
:100A500002F10103DBB202934BF65020C2F2000018
:100A600004F0E4FA404603F00DF982A3D3E9002331
:100A700003F07EF903F08EFB0446049803F002F9BC
:100A80007EA3D3E9002303F073F903F083FB00EBAB
:100A90000408BDF82E301AB2692A11DC114646F658
:100AA0003072C0F201024FF4FA7000FB01224EF6E0
:100AB000480CC0F2010C624538BF6246039213E055
:100AC0001AB26A2A10DD114648F67062C0F20102BD
:100AD0004FF4FA7000FB01224AF6983CC0F2020C77
:100AE000624528BF62460392A3F15B039BB21E2BB3
:100AF00088BFCDF804900AD84BF66020C2F20000FF
:100B000004F094FA019A02F10103DBB20193384632
:100B100003F0B8F857A3D3E9002303F029F903F051
:100B200039FB0446039803F0ADF854A3D3E900233E
:100B300003F01EF903F02EFB00EB0407404600F023
:100B40005DFC384600F06CFCBDF82C0000F082FC27
:100B50004CF2FC44C2F200042070BDF82E0000F0FC
:100B600087FC60704CF2E443C2F200031C604CF25C
:100B7000F043C2F20003C3F800B04CF2C450C2F21A
:100B8000000000F00FFD00F02FFE019A0A2A94BF2A
:100B900000230123029A0A2A94BF002303F00103D1
:100BA0000BB9CA4611E04BF67020C2F2000004F007
:100BB0003DFAFFF759FE079BC3F80090089AC2F868
:100BC0000090DDF818A0099B05934CF2FC43C2F29B
:100BD00000031B68ABF800304FEA1343244A13703C
:100BE0002B7803F00203DBB243B3337803F0020344
:100BF000DBB21BBB40F20413C4F205034FF0000448
:100C00001C6040F24413C4F205031C604CF2EC4338
:100C1000C2F200031C704BF68C20C2F2000004F0FC
:100C200005FA2046FFF7DEFC304629464FF0040265
:100C300004F058F8284600F0A1FB0CE030462946A5
:100C40004FF0040204F04EF8284600F097FB059B95
:100C5000002B7FF4A1AE4CF2E443C2F200034FF04C
:100C600000029A710DB0BDE8F08F00BFAFF30080B5
:100C7000FAC40020333333333333EB3F333333336E
:100C80003333C33FAFF3008008B54CF2EC43C2F2FC
:100C900000031B788BB1037803F00403DBB263B16C
:100CA0000B7803F00403DBB23BB94BF6C020C2F271
:100CB000000004F0BBF9FFF7D7FD08BD08B502F04E
:100CC00085F84FF001004FF0050102F0B5F84FF044
:100CD00001004FF0000102F0CDF808BD08B502F0A8
:100CE000E9F84FF0000001460246034602F0EAF838
:100CF0004FF0000002F0B6F908BD00BF30B583B078
:100D000002F064F84FF000004FF0050102F094F893
:100D10004FF00000014602F0ADF8FFF7CFFF00F002
:100D200037FB00F03DFB684600F028FBFFF75EFD57
:100D30004FF00000FFF756FC00F0A2F9FFF7CEFFDE
:100D40004BF6E820C2F2000004F070F900F0FEFC5F
:100D50004EF20010C0F2F55000F09EFD4CF2E4425D
:100D6000C2F200024FF0000191714CF2C453C2F282
:100D700000031A60596001AC204600F0FFFA2046DB
:100D80006946FFF7D7FC20466946FFF77DFF2046FE
:100D90006946FFF7A5FB20466946FFF7A9FD2046F7
:100DA0006946FFF747FC019B0093E5E710B586B065
:100DB0004FF07C0C8DF814C04FF0030C8DF810C070
:100DC0008DF80C008DF808108DF804208DF8003097
:100DD0004CF2D454C2F20004204605A94FF001029F
:100DE00001F000F8204604A94FF0010200F0FAFFDC
:100DF000204603A94FF0010200F0F4FF204602A9AB
:100E00004FF0010200F0EEFF204601A94FF0010271
:100E100000F0E8FF204669464FF0010200F0E2FFD3
:100E200006B010BD10B588B04FF07C0C8DF81CC01A
:100E30004FF00C0C8DF818C08DF814008DF81010C0
:100E40008DF80C208DF808300A9B8DF804304CF298
:100E5000D454C2F20004204607A94FF0010200F06A
:100E6000C1FF204606A94FF0010200F0BBFF20465B
:100E700005A94FF0010200F0B5FF204604A94FF08C
:100E8000010200F0AFFF204603A94FF0010200F07D
:100E9000A9FF204602A94FF0010200F0A3FF20465F
:100EA00001A94FF0010200F09DFF08B010BD00BF86
:100EB0002DE9F04188B005460C4616461F460E9BAC
:100EC000002B38D04FF07C038DF81C304FF00F030F
:100ED0008DF818308DF814008DF810108DF80C2056
:100EE0008DF808704CF2D454C2F20004204607A9D1
:100EF0004FF0010200F076FF204606A94FF00102F4
:100F000000F070FF204605A94FF0010200F06AFFD3
:100F1000204604A94FF0010200F064FF204603A917
:100F20004FF0010200F05EFF204602A94FF00102DF
:100F300000F058FF1FE04FF00008CDF800802A466F
:100F40003B46FFF76FFFCDF800802846214632462A
:100F50002346FFF767FFCDF8008028463946324622
:100F60003B46FFF75FFFCDF8008030462146324612
:100F70003B46FFF757FF08B0BDE8F08110B584B0DD
:100F80004FF07C038DF80C304FF019038DF80830CA
:100F90008DF804004CF2D454C2F20004204603A998
:100FA0004FF0010200F01EFF204602A94FF001029F
:100FB00000F018FF204601A94FF0010200F012FFD7
:100FC00004B010BD10B584B04FF07C038DF80C3028
:100FD0004FF018038DF808308DF804004CF2D4540B
:100FE000C2F20004204603A94FF0010200F0FAFE0D
:100FF000204602A94FF0010200F0F4FE204601A9AC
:101000004FF0010200F0EEFE04B010BD10B50C462A
:10101000FFF7D8FF2046FFF7B1FF10BD10B582B033
:101020004FF07C038DF804304FF000038DF8003052
:101030004CF2D454C2F20004204601A94FF0010240
:1010400000F0D0FE204669464FF0010200F0CAFED3
:1010500002B010BD08B501464CF2D450C2F20000F7
:1010600000F032FF08BD00BF08B54CF2D450C2F208
:1010700000004FF4E1314FF0030200F0B1FD08BD74
:1010800010B582B04FF4966003F052FB4CF2CC5393
:10109000C2F2000318604CF22464C2F2000420463D
:1010A00001F010F94FF00803009320464FF00001C3
:1010B0000A464FF0070301F04FFA02B010BD00BF1F
:1010C00038B505464CF22464C2F2000420464FF0C5
:1010D000000101F0D1FA2046294601F099FB0546AE
:1010E00020464FF0000101F04BFBE8B238BD00BFD5
:1010F00010B54CF20353C2F200031B782BB34FF030
:101100005B00FFF7DDFF4CF20253C2F200031978D7
:101110004CF20852C2F20002525C01F10101C9B264
:1011200019704CF20353C2F2000393F800C00CF1A3
:10113000FF3C83F800C040290DD14CF20253C2F2AB
:1011400000034FF00001197005E04FF05A00FFF75F
:10115000B7FF4FF000024FEA0024A4B21046FFF799
:10116000AFFF40EA040080B210BD00BF2DE9F0419E
:10117000FFF7BEFF4FF6FF744AF655254AF656278D
:1011800045F2AA564FF0000806E0FFF7B1FF44EA27
:1011900000039BB2002B2CD0AC4214BF00240124CE
:1011A000A84214BF002304F0010353B14CF2D05302
:1011B000C2F200034FF000021A704FF00100BDE8C8
:1011C000F081B84214BF002404F0010444B14CF291
:1011D000D053C2F200034FF001001870BDE8F08157
:1011E000B04218BF0446D0D14046FFF769FF3446ED
:1011F000CBE74FF00000BDE8F08100BF2DE9F04FD4
:1012000083B000904CF20453C2F200031B681BB978
:10121000FFF7ACFF38B992E04CF20453C2F200037E
:101220004FF000021A604FF000064CF2CC5BC2F2A5
:10123000000B4CF2D057C2F200074BF64032C2F21C
:10124000000201926EE0FFF753FF80464AF65523F5
:1012500098420ED14CF20453C2F200034FF0010247
:101260001A604CF2D053C2F200034FF000021A7021
:1012700067E04AF6562290420CD14CF20453C2F277
:1012800000034FF001021A604CF2D053C2F2000387
:101290001A7056E0002854D006EB4609DBF80030FF
:1012A00003EB8909FFF724FFA9F8000005464FF07A
:1012B0000104C246B0464E463A78042CD4BF0023FF
:1012C0000123002A14BF002303F0010333B1464673
:1012D000D0464FF00003A9F80A300BE0FFF708FFF3
:1012E0000544ADB226F8140004F10104062CE3D144
:1012F0004646D046454504BF0136B6B202D00198F5
:1013000003F094FEFFF7F4FE4AF65522904204BF24
:1013100000233B7006D04AF65622904211D14FF07E
:1013200001033B70632E8CBF00230123009A964279
:101330002CBF002303F00103002B84D102E04FF007
:101340000006304603B0BDE8F08F00BF10B504467C
:101350004FF00100FFF752FF10B94FF0FF3010BD02
:101360004CF2CC53C2F200031A68528822801B68E8
:101370009B8863804FF0000010BD00BF08B540F2AD
:101380000001C4F205014FF0040203F0ABFC08BDFC
:1013900040F20003C4F205034FF0FF021A607047E9
:1013A00040F20003C4F205034FF001021A607047D7
:1013B00000F1060303F0FF030C2B98BF00206FF031
:1013C0004F039842B8BF18465028A8BF502044F693
:1013D000F013C0F202034FF4FA7202FB10307047B0
:1013E00038B505460C4690F90200FFF7E1FF206092
:1013F00095F90300FFF7DCFF606038BD4BF6A4737E
:10140000C2F200031B68984209D040F20013C4F2F4
:10141000050318604BF6A473C2F20003186070470E
:101420004BF6A873C2F200031B68984209D040F241
:101430004013C4F2050318604BF6A873C2F2000310
:10144000186070474CF2C053C2F200034FF0000224
:101450001A70704708B502F073FF41F64931C3F6C0
:10146000A26102F0C5FF03F013F9C0B208BD00BFCE
:1014700008B502F065FF4FF62441C3F6E46102F0BF
:10148000B7FF03F005F9C0B208BD00BF08B5037887
:10149000012B4FF007004FF0480108D1FFF7B6FDD0
:1014A0004BF65030C2F20000FFF7D4FD08BDFFF745
:1014B000ADFD4BF65830C2F20000FFF7CBFD08BD82
:1014C00010B504784FF007004FF06601FFF79EFD5E
:1014D000012C07BF4BF66030C2F200004BF66830BB
:1014E000C2F20000FFF7B6FD10BD00BF30B583B0FB
:1014F00005784FF007004FF02A01FFF787FD01AC98
:1015000020464BF67031C2F200012A4603F0AAFDD4
:101510002046FFF79FFD03B030BD00BFF0B583B09C
:10152000036845681E785F784BF67034C2F2000499
:1015300001A82146324603F095FD684621463A4609
:1015400003F090FD6DB1287800F13600697801F163
:101550002201C0B2C9B24FF003024FF00003FFF7FF
:1015600025FC4FF060004FF00F01FFF74FFD01A881
:10157000FFF770FD4FF088004FF00F01FFF746FDB9
:101580006846FFF767FD06F1360007F12201C0B299
:10159000C9B24FF003024FF00103FFF707FC03B09D
:1015A000F0BD00BF2DE9F84F4CF2C053C2F200036A
:1015B0001B780246D0F1010038BF0020002B0CBF81
:1015C000034640F00103002B40F0BD804CF2C053B5
:1015D000C2F200034FF0010119704CF26453C2F2E1
:1015E000000392E8030083E8030003460C460679F3
:1015F000477990F806A04CF24850C2F200001968F2
:101600004FF0030203F06EFBC4B14CF25455C2F22A
:101610000005284621684FF0030203F063FB94F8AD
:10162000048094F8059094F806B04CF24853C2F246
:1016300000031A782B789A4228D11BE006F10108A2
:101640005FFA88F8D7F1010938BF4FF000090AF1B5
:10165000010B5FFA8BFB4CF25C50C2F200004CF2C3
:101660004853C2F2000303604FF000034360FFF7EA
:1016700055FF1BE04CF24852C2F200024CF25453A8
:10168000C2F2000352785B789A420FD04CF25C5061
:10169000C2F200004CF24853C2F2000303604CF265
:1016A0005453C2F200034360FFF738FF464508BFBA
:1016B000052412D04CF24C54C2F2000426704FF0B4
:1016C000050000F0EFF8024641F2ED40C2F20000E2
:1016D000214600F00FF94FF00A044F4512D04CF2AA
:1016E0005855C2F200052F70204600F0DBF8024684
:1016F00041F2C140C2F20000294600F0FBF804F1BB
:101700000504E4B2DA4513D04CF25055C2F200059C
:1017100085F800A0204600F0C5F8024641F28D4051
:10172000C2F20000294600F0E5F804F10504E4B235
:1017300041F24540C2F200004CF26451C2F2000195
:10174000224600F0D7F8BDE8F88F00BF10B582B090
:10175000FFF78AFCFFF762FC4FF0010400944FF0A2
:1017600032004FF01E014FF09F024FF07F03FFF752
:101770009FFB4FF04E004FF00F01FFF747FC4BF679
:101780007830C2F20000FFF765FC4FF076004FF0B2
:101790000F01FFF73BFC4BF67C30C2F20000FFF775
:1017A00059FC20464FF03201FFF730FC4BF68030F9
:1017B000C2F20000FFF74EFC20464FF06E01FFF72B
:1017C00025FC4BF68830C2F20000FFF743FC2046B0
:1017D0004FF05001FFF71AFC4BF69430C2F20000B4
:1017E000FFF738FC02B010BD30B44EF20012CEF25A
:1017F00000024FF48014C2F8804042F20003CEF29F
:101800000403196B21F04001196345F20001C4F291
:1018100000014FF00000486540F20003C4F20A23C3
:10182000C3F88001C3F888014FF00100C3F88401B8
:101830000861C2F880414CF26C55C2F200052D6877
:101840006D684D60C3F88001C3F88801146030BC36
:10185000704700BF10B44CF26C53C2F200031A6818
:101860002AB94CF26C53C2F20003186012E04468CB
:1018700053689C4207D202614CF26C53C2F20003DF
:10188000186007E01A46136913B159688C42F9D8F9
:101890000361106110BC70474CF27053C2F2000338
:1018A000186070474CF27053C2F200034FF47A7222
:1018B000B2FBF0F21868B0FBF2F070474CF2D15373
:1018C000C2F200034FF000021A707047F8B50546E7
:1018D0000F4614461E464FF0180002F029FF05601F
:1018E00044608460C6604FF0000202614761FFF708
:1018F000B1FFF8BD08B54FF00103FFF7E7FF08BDE2
:1019000008B54CF2D153C2F200034FF001021A7035
:10191000FFF7C8FF024641F6BD00C2F200004FF0DB
:101920000001FFF7E7FFFFF75FFF4CF2D152C2F271
:1019300000021378002BFCD108BD00BF2DE9F8454B
:101940004CF26C53C2F200031B68596833B15A68F9
:10195000C1EB02025A601B69002BF8D14FF000085E
:1019600047464CF26C55C2F200054FF00C0A464651
:101970001EE0504602F0DCFE044606604660B8F108
:10198000000F01D1804600E07860286803692B6071
:10199000036823604369A360C368012B02D102F08E
:1019A000BFFE04E0836843600661FFF753FF2746EC
:1019B0002B685B68002BDCD04046BDE8F88500BF93
:1019C00038B5FFF7BBFF044645F20003C4F200033D
:1019D0004FF001021A61BFF34F8F4CF26C53C2F209
:1019E00000031B686BB15A6845F20003C4F20003A0
:1019F0005A6040F20003C4F20A234FF00102C3F818
:101A000080214CB12368A06898476568204602F0A1
:101A100087FE0DB12C46F5E738BD00BF80B483B01A
:101A200000AF78604FF0FF33184607F10C07BD4652
:101A300080BC704780B483B000AF7860FEE700BF21
:101A400080B483B000AF786039603B684FF40052D7
:101A50005A604FF00003184607F10C07BD4680BCE2
:101A6000704700BF80B483B000AF78604FF00103CF
:101A7000184607F10C07BD4680BC704780B485B09E
:101A800000AFF860B9607A604FF00003184607F1C4
:101A90001407BD4680BC704780B485B000AFF860C5
:101AA000B9607A604FF00003184607F11407BD468D
:101AB00080BC704780B584B000AFF860B9607A60D0
:101AC0003B604CF27453C2F200031B68002B10D130
:101AD0004CF2FC50C2F200004FF461414FF003029F
:101AE00000F07EF84CF27453C2F200034FF0010292
:101AF0001A603B684CF2FC50C2F2000079681A464A
:101B000000F070F93B68184607F11007BD4680BD2C
:101B100080B584B000AF78604CF27853C2F2000315
:101B20001B68002B08D14CF27853C2F200034CF230
:101B30003072C2F200021A604CF27853C2F2000313
:101B40001B68BB60EFF30883FB604CF27853C2F272
:101B500000031A687B681A44FB689A420FD94FF059
:101B600000004FF001014BF69C32C2F200024FF030
:101B70001903FFF79FFF4FF00100FFF75BFF4CF2E7
:101B80007853C2F200031A687B681A444CF2785307
:101B9000C2F200031A60BB68184607F11007BD4681
:101BA00080BD00BF80B483B000AF0346FB804EF21F
:101BB0000013CEF20003B7F906204FEA5212F9885B
:101BC00001F01F014FF0010000FA01F102F1600283
:101BD00043F8221007F10C07BD4680BC704700BFD8
:101BE00080B588B000AFF860B9601346FB714FF064
:101BF0000103FB824FF00003BB61FA684CF2FC5317
:101C0000C2F200039A4207D0FA684CF2D453C2F2EF
:101C100000039A4200D000BEBB68002B00D100BE7A
:101C200001F04AFAFA684CF2FC53C2F200039A42FD
:101C30002ED1FB684FF080421A60FB684FF084425F
:101C40005A60FB684FF00A021A814BF6B473C2F275
:101C500000031B68BB6142F20003CEF2040342F2B0
:101C60000002CEF20402126B42F080021A634FF0BF
:101C70000A00FFF797FF42F20003CEF2040342F29C
:101C80000002CEF20402126B22F080021A6331E0ED
:101C9000FA6840F20003C4F201031360FA6840F2EC
:101CA0000003C4F220235360FB684FF00B021A813B
:101CB0004BF6B873C2F200031B68BB6142F200032B
:101CC000CEF2040342F20002CEF20402126B42F49E
:101CD00080721A634FF00B00FFF764FF42F20003BB
:101CE000CEF2040342F20002CEF20402126B22F49E
:101CF00080721A63FB681B684FF000021A71BB68A0
:101D0000002B21D0BA69BB68B2FBF3F3FB61FB691E
:101D100003F00803002B06D0FB694FEA131303F10D
:101D20000103FB6103E0FB694FEA1313FB61FA69EE
:101D30004FF6FF739A4200D900BEFA694FF6FF735F
:101D40009A4201D8FB69FB82FB685B684FF0010295
:101D5000C3F89C21FB681B68FA8A4FEA122292B2F0
:101D6000D2B21A71FB681B68FA8AD2B21A70FB6889
:101D70005B684FF00002C3F89C21FB681B68FA798E
:101D80001A73FB681B684FF00E021A72FB685B68DF
:101D90004FF00002C3F81022FB684FF000021A61F6
:101DA000FB684FF00002DA60FB684FF000025A61F6
:101DB000FB684FF00002DA61FA6842F2B503C2F242
:101DC00000031362FB684FF000029A61FB684FF05A
:101DD00000025A62FB684FF000029A7207F1200776
:101DE000BD4680BD80B489B000AFF860B9607A604C
:101DF0004FF000033B61FA684CF2FC53C2F200035F
:101E00009A4207D0FA684CF2D453C2F200039A42C5
:101E100000D000BEBB68002B00D100BE7B68002B49
:101E200000D100BEFA684CF2FC53C2F200039A42A1
:101E300006D0FA684CF2D453C2F200039A423DD164
:101E4000BB68002B3AD07B68002B37D0FB681B683F
:101E50001B7DFB76FB689A7AFB7E42EA0303DAB2CB
:101E6000FB689A72FB7E03F02003002B23D04FF017
:101E70001003FB617B680F2B01D87B68FB614FF07F
:101E800000037B610EE0FB681B68B9683A690A448D
:101E900012781A703B6903F101033B617B6903F11E
:101EA00001037B617A69FB699A42ECD37A687B69AA
:101EB000C3EB02037B607B68002BC7D107F12407CB
:101EC000BD4680BC704700BF80B487B000AF78606B
:101ED00039604FF00003BB607A684CF2FC53C2F2E9
:101EE00000039A4207D07A684CF2D453C2F200033E
:101EF0009A4200D000BE3B68002B00D100BE7A6839
:101F00004CF2FC53C2F200039A4206D07A684CF2BB
:101F1000D453C2F200039A4238D13B68002B35D02B
:101F20003A68BB6813441B783B612CE07B681B68F4
:101F30001B7DFB757B689A7AFB7D42EA0303DAB26C
:101F40007B689A72FB7D03F02003002BEED04FF0EC
:101F50000003FB6011E07B681B683A69D2B21A701B
:101F6000FB6803F10103FB60BB6803F10103BB6085
:101F70003A68BB6813441B783B613B69002B02D075
:101F8000FB680F2BE7D93B69002BCFD107F11C076A
:101F9000BD4680BC704700BF80B584B000AF78609C
:101FA0007A684CF2FC53C2F200039A4207D07A6876
:101FB0004CF2D453C2F200039A4200D000BE7A68B9
:101FC0004CF2FC53C2F200039A4206D07A684CF2FB
:101FD000D453C2F200039A4267D17B681B681B7A14
:101FE000DBB203F00F03FB73FB7B0C2B54D801A275
:101FF00052F823F0292000209920002045200020BD
:102000009920002061200020992000207D200020C0
:10201000992000209920002099200020992000205C
:1020200099200020612000207B685B6A002B00D192
:1020300000BE7B685B6A002B30D07B685B6A786887
:10204000984732E07B681B6A002B00D100BE7B689A
:102050001B6A002B24D07B681B6A7868984724E0B1
:102060007B68DB69002B00D100BE7B68DB69002B3D
:1020700018D07B68DB697868984716E07B689B69B5
:10208000002B00D100BE7B689B69002B0CD07B68C5
:102090009B697868984708E000BE06E000BF04E04E
:1020A00000BF02E000BF00E000BF07F11007BD461F
:1020B00080BD00BF80B487B000AF78607A684CF212
:1020C000FC53C2F200039A4207D07A684CF2D45310
:1020D000C2F200039A4200D000BE7B68DB68002B8E
:1020E00000D100BE7B681B69002B00D100BE7A685E
:1020F0004CF2FC53C2F200039A4206D07A684CF2CA
:10210000D453C2F200039A4252D17B68DB68002BA1
:102110004ED07B681B69002B4AD07B681B681B7DF7
:10212000FB727B689A7AFB7A42EA0303DAB27B6835
:102130009A72FB7A03F02003002B29D04FF0100392
:102140003B617B681A697B685B69C3EB02037B6157
:102150007B690F2B01D87B693B614FF00003FB606B
:1021600012E07B681B687A68D1687A6852690A4411
:1021700012781A707B685B6903F101027B685A610F
:10218000FB6803F10103FB60FA683B699A42E8D3FC
:102190007B685A697B681B699A4209D17B684FF05A
:1021A00000021A617B685B684FF00002C3F884206C
:1021B00007F11C07BD4680BC704700BF684620F091
:1021C00007018D4689B500AF4CF2FC50C2F2000009
:1021D000FFF7E2FE4FF00A00FFF7E4FCBD46BDE862
:1021E00089408546704700BF684620F007018D464C
:1021F00089B500AF4CF2D450C2F20000FFF7CCFE1C
:102200004FF00B00FFF7CEFCBD46BDE88940854688
:10221000704700BF80B483B000AF0346FB804EF22E
:102220000013CEF20003B7F906204FEA5212F988E4
:1022300001F01F014FF0010000FA01F143F82210F4
:1022400007F10C07BD4680BC704700BF80B483B067
:1022500000AF0346FB804EF20013CEF20003B7F945
:1022600006204FEA5212F98801F01F014FF00100D9
:1022700000FA01F102F1200243F8221007F10C07E5
:10228000BD4680BC704700BF80B483B000AF03463A
:10229000FB804EF20013CEF20003B7F906204FEA9E
:1022A0005212F98801F01F014FF0010000FA01F10C
:1022B00002F1600243F8221007F10C07BD4680BC12
:1022C000704700BF80B584B000AF78607A684CF288
:1022D000A863C2F200039A4207D07A684CF22463E2
:1022E000C2F200039A4200D000BE7B689B881BB2FA
:1022F0001846FFF7ABFF78684FF000014FF08402FB
:1023000002F0B8FD7B684FF001025A624FF0000303
:10231000FB810DE0FB897A6803F106034FEAC303F2
:1023200013444FF0FF325A60FB8903F10103FB8134
:10233000FB89072BEED97A684CF2A863C2F200033E
:102340009A4226D17A6841F20003C4F20003136076
:102350007B684FF00C029A8042F20003CEF2040335
:1023600042F20002CEF20402126B42F400721A63CF
:102370004FF00C00FFF788FF42F20003CEF2040397
:1023800042F20002CEF20402126B22F400721A63CF
:1023900025E07A6841F20003C4F2010313607B6810
:1023A0004FF00D029A8042F20003CEF2040342F293
:1023B0000002CEF20402126B42F480621A634FF004
:1023C0000D00FFF761FF42F20003CEF2040342F278
:1023D0000002CEF20402126B22F480621A637B6860
:1023E0001B687A681268126822F000421A6007F1CE
:1023F0001007BD4680BD00BF80B58AB000AF7860D1
:102400007B681B681B68FB607B681B689B693B6182
:102410007B681B685B687B617B681B689B6ABB6130
:102420007B681B681B6BFB617B681B685B6B3B629B
:102430007B681B68DB697B627A684CF2A863C2F236
:1024400000039A422ED17A6841F20003C4F20003DD
:1024500013607B684FF00C029A8042F20003CEF2C8
:10246000040342F20002CEF20402126B42F4007244
:102470001A634FF00C00FFF707FF42F20003CEF2A1
:10248000040342F20002CEF20402126B22F4007244
:102490001A637B681B687A681268126822F000422F
:1024A0001A602DE07A6841F20003C4F20103136060
:1024B0007B684FF00D029A8042F20003CEF20403D3
:1024C00042F20002CEF20402126B42F480621A63FE
:1024D0004FF00D00FFF7D8FE42F20003CEF20403E6
:1024E00042F20002CEF20402126B22F480621A63FE
:1024F0007B681B687A681268126822F000421A60D2
:10250000FB6823F00103FB607B681B68FA681A60B4
:102510007B681B683A699A617B681B687A695A60B4
:102520007B681B687A681268126842F001021A60C0
:102530007B681B68BA699A627B681B68FA691A63D0
:102540007B681B683A6A5A637B681B687A6ADA613F
:1025500007F12807BD4680BD80B584B000AFF860A4
:102560007A600A46FA72FB70FA684CF2A863C2F20B
:1025700000039A4207D0FA684CF22463C2F20003C7
:102580009A4200D000BEFB7A072B00D900BE3B7EEA
:10259000202B00D900BEFB689B881BB21846FFF7B2
:1025A00055FEFB684FF0000283F88020FB681B6833
:1025B000FA681268126822F001021A60FB681B6850
:1025C000FA681268126842F002021A60FB681B681F
:1025D000FA681268126842F001021A60FB7A072B4F
:1025E0003FD87B68002B0BD07B68B3F1007F07D00E
:1025F0007B68B3F1807F03D07B68B3F1407F0FD15C
:10260000FA7A796840F20213C2F2004341EA030306
:10261000F96802F106024FEAC2020A4453600EE072
:10262000FA7A796840F20213C2F2000341EA030326
:10263000F96802F106024FEAC2020A445360FB7ACB
:10264000FA6803F106034FEAC30313443A7E1A7291
:10265000FB7AFA6803F106034FEAC3031344FA78DE
:102660005A72FB689B881BB21846FFF7D3FD07F12F
:102670001007BD4680BD00BF80B584B000AF786054
:102680000B46FB707A684CF2A863C2F200039A42D0
:1026900007D07A684CF22463C2F200039A4200D059
:1026A00000BE7B681B681B6803F00203002B00D18F
:1026B00000BEFB787A6803F106034FEAC3031344B4
:1026C0005B68B3F1FF3F00D100BE7B689B881BB203
:1026D0001846FFF7BBFD7B681B689B6803F004038B
:1026E000FB60FB68002B02D07868FFF785FE7B68F3
:1026F0001B687A681268126822F001021A607B680F
:102700001A68FB78796803F106034FEAC3030B44A8
:102710005B6813607B681A68FB78796803F10603CD
:102720004FEAC3030B445B7A93617B681A68FB78BA
:10273000796803F106034FEAC3030B441B7A536025
:102740007B681B687A681268126842F001021A609E
:102750007B681B687A681268D169FA784FF00100CB
:1027600000FA02F241EA0202DA617B689B881BB23E
:102770001846FFF74FFD07F11007BD4680BD00BFAB
:1027800080B584B000AF78600B46FB707A684CF27D
:10279000A863C2F200039A4207D07A684CF224631D
:1027A000C2F200039A4200D000BE7B681B681B681F
:1027B00003F00203002B00D100BE7B689B881BB294
:1027C0001846FFF743FD7B681B689B6803F0040312
:1027D000FB60FB68002B02D07868FFF70DFE7B687A
:1027E0001B687A681268D169FA784FF0010000FA24
:1027F00002F26FEA020201EA0202DA617B689B8858
:102800001BB21846FFF706FD07F11007BD4680BD55
:1028100080B487B000AF786039607A684CF2A86302
:10282000C2F200039A4207D07A684CF22463C2F2E3
:1028300000039A4200D000BE7B681B681B6803F04F
:102840000203002B00D100BE7B681A687B681B68FE
:10285000196840F2FF03CFF6007301EA030343F463
:10286000807313607B681B687A681268D26A42F0D2
:102870000C02DA627B681B689B6803F04003FB6014
:102880000BE07B681B681B69BB60BB68BB607B6837
:102890001B689B6803F04003FB60FB68002BF0D0D3
:1028A0007B681B683A685A617B681B689B6803F009
:1028B00001037B6105E07B681B689B6803F00103F3
:1028C0007B617B69002BF6D07B681B689B6803F0FB
:1028D00002033B6105E07B681B689B6803F0020311
:1028E0003B613B69002BF6D07B681B681B6918466F
:1028F00007F11C07BD4680BC704700BF80B485B09F
:1029000000AF78604FF00003FB600EE07B681B684F
:102910007A6891687A6812690A4412785A617B6809
:102920001B6903F101027B681A617B681B689B6865
:1029300003F48073002B05D17B681A697B68DB6820
:102940009A42E3D37B681A697B68DB689A421CD39E
:102950000EE07B681B687A6851697A68D2690A441C
:1029600012785A617B68DB6903F101027B68DA61E6
:102970007B681B689B6803F48073002B05D17B6820
:10298000DA697B689B699A42E3D37B685B6A002BB8
:102990001FD07B681A697B68DB689A4219D37B6811
:1029A000DA697B689B699A4213D308E07B681B68ED
:1029B0004FF000025A61FB6803F10103FB607B6882
:1029C0001B689B6803F48073002B02D1FB681F2BEC
:1029D000ECD907F11407BD4680BC704780B584B0C0
:1029E00000AF78607B6893F88030022B15D10CE043
:1029F0007B681B681B69FB607B685B6F002B04D0E6
:102A00007B685B6FFA68104698477B681B689B6819
:102A100003F04003002BEBD032E07B6893F880306A
:102A2000012B25D117E07B681B681B69FB607B6865
:102A30001A6B7B68DB6A9A4207D27B689A6A7B686A
:102A40001B6B1344FA68D2B21A707B681B6B03F1DC
:102A500001027B681A637B681B689B6803F0400374
:102A6000002BE0D00CE07B681B681B69FB6000E07A
:102A700000BF7B681B689B6803F04003002BF2D00B
:102A800007F11007BD4680BD80B586B000AF786005
:102A90007B681B6803F120033B617A684CF2A863F2
:102AA000C2F200039A4207D07A684CF22463C2F261
:102AB00000039A4200D000BE3B691B6803F002038A
:102AC000002B52D07B6893F88030022B15D10CE09C
:102AD0007B681B681B69FB607B685B6F002B04D005
:102AE0007B685B6FFA68104698477B681B689B6839
:102AF00003F04003002BEBD032E07B6893F880308A
:102B0000012B25D117E07B681B681B69FB607B6884
:102B10001A6B7B68DB6A9A4207D27B689A6A7B6889
:102B20001B6B1344FA68D2B21A707B681B6B03F1FB
:102B300001027B681A637B681B689B6803F0400393
:102B4000002BE0D00CE07B681B681B69FB6000E099
:102B500000BF7B681B689B6803F04003002BF2D02A
:102B60007B681B684FF00202DA603B691B6803F068
:102B70000103DBB2002B12D07B6893F88030022B6C
:102B800005D17B681B687A68926F5A6102E07868A9
:102B9000FFF7B4FE7B681B684FF00102DA603B6907
:102BA0001B6803F01003002B23D07868FFF716FF93
:102BB0007B681B6A002B0BD07B681B6A7A68916A62
:102BC0007A68126B0846114698477868FFF796FEB8
:102BD0007B684FF001025A627B681B687A68126852
:102BE000926A22F010029A627B681B684FF0100212
:102BF000DA603B691B6803F00403002B0FD07B688D
:102C00001B687A681268D26A42F00402DA62786855
:102C1000FFF7F2FB7B681B684FF00402DA603B6948
:102C20001B6803F00803002B31D07B681B687A68AF
:102C30001268D26A42F00802DA627B6893F8803048
:102C4000022B13D17B681A687B681B68196840F2F5
:102C5000FF03CFF6007301EA030343F480731360AC
:102C60007B681B687A68926F5A610BE07B6893F807
:102C70008030012B06D17B684FF000021A61786822
:102C8000FFF73CFE7B681B684FF00802DA603B6987
:102C90001B6803F02003002B49D07868FFF79EFEE5
:102CA0007B681B6B7B617B681B6A002B1CD07B687D
:102CB0004FF000025A627B684FF000025A617B6855
:102CC0004FF000029A617B684FF00002DA617B6886
:102CD0001B684FF01002DA607B681B687A68126824
:102CE000926A42F010029A627B684FF000021A6109
:102CF0007B681B687A681268D26A42F00C02DA625A
:102D00007868FFF7FBFD7B684FF000021A637B6871
:102D1000DB6F002B06D07B68DB6F7A68926A104607
:102D2000796998477B681B684FF02002DA6007F1E9
:102D30001807BD4680BD00BF684620F007018D46DC
:102D400089B500AF4CF2A860C2F20000FFF79CFE0C
:102D50004FF00C00FFF798FABD46BDE88940854664
:102D6000704700BF684620F007018D4689B500AF67
:102D70004CF22460C2F20000FFF786FE4FF00D0017
:102D8000FFF782FABD46BDE889408546704700BF1F
:102D900080B483B000AF0346FB804EF20013CEF246
:102DA0000003B7F906204FEA5212F98801F01F011B
:102DB0004FF0010000FA01F102F1600243F8221025
:102DC00007F10C07BD4680BC704700BF80B582B0DC
:102DD00000AF42F20003CEF2040342F20002CEF250
:102DE0000402126B42F480421A634FF000037B60CE
:102DF0000EE07A684BF63843C2F2000333F8123023
:102E00001BB21846FFF7C4FF7B6803F101037B6028
:102E10007B681F2BEDD942F20003CEF2040342F28D
:102E20000002CEF20402126B22F480421A6307F110
:102E30000807BD4680BD00BF80B485B000AF034623
:102E40003960FB71FB79FB60FB681F2B00D900BE6A
:102E5000FB681F2B08D8FA684BF6B833C2F20003A0
:102E600053F822303A681A6007F11407BD4680BC57
:102E7000704700BF80B485B000AF02460B46FA71C0
:102E8000BB71FB79FB60FB681F2B00D900BEFB68A0
:102E90001F2B09D840F20003C4F22623FA68B9793F
:102EA00002F5886243F8221007F11407BD4680BC82
:102EB000704700BF80B500AF00F012FB00F018FAB9
:102EC00080BD00BF90B486B000AFF871B9717A715F
:102ED0003B71FB79022B00D900BEFB79022B00F27B
:102EE000BC804BF69442C2F2000207F10C03126858
:102EF0001146198003F102034FEA12421A704FF093
:102F00000103BB744FF00003FB74FB7907F1180257
:102F1000134413F80C3C7B7440F20003C4F2020328
:102F2000D3F8C8307B6140F20003C4F202034FF0D3
:102F30000002C3F8C82040F20002C4F20202797C09
:102F40000B464FEA43030B444FEA0313134403F5C4
:102F500006737A791A717B7903F00103DBB2002BD7
:102F600002D04FF00003BB747B7903F00203002B07
:102F700002D04FF00103FB7440F20002C4F20202DF
:102F8000797C4BF69043C2F200031B68FC7997F8FA
:102F900012C0F87C4FEA4404A4444FEA4C0C60444D
:102FA000034403F1800318790B464FEA43030B44B3
:102FB0004FEA0313134403F5047302461A7140F2F7
:102FC0000003C4F202037A69C3F8C820FA794BF609
:102FD0007843C2F2000353F82230BA791A60FA79C2
:102FE0004BF67843C2F2000353F82220F9794BF6EE
:102FF0007843C2F2000353F821301B6843F04003CA
:1030000013603B79002B15D140F20003C4F2020398
:1030100040F20002C4F202021169F8794BF68442D0
:10302000C2F2000252F820206FEA020201EA020214
:103030001A6112E040F20003C4F2020340F20002FF
:10304000C4F202021169F8794BF68442C2F200021E
:1030500052F8202041EA02021A6107F11807BD4622
:1030600090BC704780B483B000AF0346FB71FB791E
:10307000022B00D900BEFB79022B11D8FA794BF64E
:103080007843C2F2000353F82220F9794BF67843D3
:10309000C2F2000353F821301B6843F02003136091
:1030A00007F10C07BD4680BC704700BF80B400AF7D
:1030B000BD4680BC704700BF80B58AB000AF4BF6FC
:1030C0009843C2F20003BC460FCB8CE80F0042F2DB
:1030D0000003CEF204039B6C4FEA930303F0030357
:1030E0004FEA830307F12802134453F8283C3B615D
:1030F00042F20003CEF204039B6C4FEA131303F079
:1031000003034FEA830307F12802134453F8283CD2
:103110007B6142F20003CEF204039B6C4FEA9313EF
:1031200003F003034FEA830307F12802134453F823
:10313000283CBB6142F20003CEF20403DB6C4FEA91
:10314000132303F01F033B6242F20003CEF2040399
:10315000DB6C4FEA533303F001037B623B6A03F1FC
:103160000103FB617B6A002B03D0FB694FEA430339
:10317000FB6100F049F802464BF6B073C2F200035F
:103180001A604BF6B073C2F200031A683B69B2FBD7
:10319000F3F24BF6B473C2F200031A604BF6B0734D
:1031A000C2F200031A687B69B2FBF3F24BF6B87304
:1031B000C2F200031A604BF6B073C2F200031A6841
:1031C000BB69B2FBF3F24BF6BC73C2F200031A60A8
:1031D0004BF6B073C2F200031A68FB69B2FBF3F25C
:1031E0004BF6C073C2F200031A604BF6B073C2F222
:1031F00000031A684BF6AC73C2F200031A6007F1C1
:103200002807BD4680BD00BF80B48BB000AF4FF033
:1032100000037B6040F61C03C6F20803BB6040F26B
:103220003023C6F20803FB60FB681B6823F0704381
:103230003B613A6941F2CF13C0F2A1539A4208D1DF
:103240004EF62C73C6F201037B617B691B687B60C1
:103250003DE0BB681A6844F24133C4F654439A42D5
:1032600035D140F64003C6F20803BB61BB691B6859
:10327000FB61FB6923F07F43FB61FA6940F2003395
:10328000C0F201039A4222D9FA694FF6FF73C0F2E5
:1032900001039A4208D841F22C63C6F208033B624C
:1032A0003B6A1B687B6012E0FA694FF6FF73C0F25D
:1032B00002039A4208D841F6AC63C6F208037B6267
:1032C0007B6A1B687B6002E04FF000037B607B68D9
:1032D000002B05D100BE47F64003C0F27D137B6092
:1032E0007B68184607F12C07BD4680BC704700BFBD
:1032F00080B487B000AF40F20003C4F20203D3F8F9
:10330000C830FB6040F20003C4F202034FF0000239
:10331000C3F8C8204FF00003FB7139E0FB794FEA96
:1033200053037B7440F20002C4F20202797C0B4624
:103330004FEA43030B444FEA0313134403F50873A6
:103340001B79BB74FB7903F00103FB74FB7C002B3E
:103350000DD0F979BB7C4FEA5313DBB21A4602F069
:1033600003024CF27C53C2F200035A540CE0F97988
:10337000BB7C4FEA5303DBB21A4602F003024CF265
:103380007C53C2F200035A54FB7903F10103FB7131
:10339000FB79092BC2D94FF00003BB6073E0BA6818
:1033A0004BF6C473C2F200034FEA021213441B79B6
:1033B000BB75BA7D4BF6E043C2F200039B5C3B75E4
:1033C000BA7D4BF6B043C2F200039B5C012B07D0E1
:1033D000022B27D0002B47D14FF00003FB7547E0AD
:1033E0003B7DFF2B00D100BE40F20002C4F202027E
:1033F000397D0B464FEA43030B444FEA0313134452
:1034000003F508731B7A7B757B7D03F00103DBB248
:10341000002B03D04FF00003FB7529E04FF00103B0
:10342000FB7525E03B7DFF2B00D100BE40F2000282
:10343000C4F20202397D0B464FEA43030B444FEAC4
:103440000313134403F50A731B797B757B7D03F02B
:103450000103DBB2002B03D04FF00003FB7507E044
:103460004FF00203FB7503E000BE4FF00003FB7555
:10347000BA684CF28853C2F20003F97D9954BB68D4
:1034800003F10103BB60BB68002B88DD40F2000341
:10349000C4F20203FA68C3F8C82007F11C07BD464E
:1034A00080BC704780B483B000AF0346FB804EF20F
:1034B0000013CEF20003B7F906204FEA5212F98842
:1034C00001F01F014FF0010000FA01F102F160026A
:1034D00043F8221007F10C07BD4680BC704700BFBF
:1034E00080B400AFBD4680BC704700BF80B483B0DD
:1034F00000AF0346FB7107F10C07BD4680BC704767
:10350000684620F007018D4689B500AF4FF00000F6
:10351000FFF7ECFF4FF07600FFF7C4FFBD46BDE8B4
:1035200089408546704700BF684620F007018D46F8
:1035300089B500AF4FF00100FFF7D8FF4FF07700DB
:10354000FFF7B0FFBD46BDE889408546704700BF24
:10355000684620F007018D4689B500AF4FF00200A4
:10356000FFF7C4FF4FF07800FFF79CFFBD46BDE8B2
:1035700089408546704700BF684620F007018D46A8
:1035800089B500AF4FF00300FFF7B0FF4FF07900AF
:10359000FFF788FFBD46BDE889408546704700BFFC
:1035A000684620F007018D4689B500AF4FF0040052
:1035B000FFF79CFF4FF07A00FFF774FFBD46BDE8B0
:1035C00089408546704700BF684620F007018D4658
:1035D00089B500AF4FF00500FFF788FF4FF07B0083
:1035E000FFF760FFBD46BDE889408546704700BFD4
:1035F000684620F007018D4689B500AF4FF0060000
:10360000FFF774FF4FF07C00FFF74CFFBD46BDE8AD
:1036100089408546704700BF684620F007018D4607
:1036200089B500AF4FF00700FFF760FF4FF07D0056
:10363000FFF738FFBD46BDE889408546704700BFAB
:10364000684620F007018D4689B500AF4FF00800AD
:10365000FFF74CFF4FF07E00FFF724FFBD46BDE8AB
:1036600089408546704700BF684620F007018D46B7
:1036700089B500AF4FF00900FFF738FF4FF07F002A
:10368000FFF710FFBD46BDE889408546704700BF83
:10369000684620F007018D4689B500AF4FF00A005B
:1036A000FFF724FF4FF08000FFF7FCFEBD46BDE8AA
:1036B00089408546704700BF684620F007018D4667
:1036C00089B500AF4FF00B00FFF710FF4FF08100FE
:1036D000FFF7E8FEBD46BDE889408546704700BF5C
:1036E000684620F007018D4689B500AF4FF00C0009
:1036F000FFF7FCFE4FF08200FFF7D4FEBD46BDE8A9
:1037000089408546704700BF684620F007018D4616
:1037100089B500AF4FF00D00FFF7E8FE4FF08300D2
:10372000FFF7C0FEBD46BDE889408546704700BF33
:10373000684620F007018D4689B500AF4FF00E00B6
:10374000FFF7D4FE4FF08400FFF7ACFEBD46BDE8A6
:1037500089408546704700BF684620F007018D46C6
:1037600089B500AF4FF00F00FFF7C0FE4FF08500A6
:10377000FFF798FEBD46BDE889408546704700BF0B
:10378000684620F007018D4689B500AF4FF0100064
:10379000FFF7ACFE4FF08600FFF784FEBD46BDE8A4
:1037A00089408546704700BF684620F007018D4676
:1037B00089B500AF4FF01100FFF798FE4FF087007A
:1037C000FFF770FEBD46BDE889408546704700BFE3
:1037D000684620F007018D4689B500AF4FF0120012
:1037E000FFF784FE4FF08800FFF75CFEBD46BDE8A2
:1037F00089408546704700BF684620F007018D4626
:1038000089B500AF4FF01300FFF770FE4FF089004D
:10381000FFF748FEBD46BDE889408546704700BFBA
:10382000684620F007018D4689B500AF4FF01400BF
:10383000FFF75CFE4FF08A00FFF734FEBD46BDE89F
:1038400089408546704700BF684620F007018D46D5
:1038500089B500AF4FF01500FFF748FE4FF08B0021
:10386000FFF720FEBD46BDE889408546704700BF92
:10387000684620F007018D4689B500AF4FF016006D
:10388000FFF734FE4FF08C00FFF70CFEBD46BDE89D
:1038900089408546704700BF684620F007018D4685
:1038A00089B500AF4FF01700FFF720FE4FF08D00F5
:1038B000FFF7F8FDBD46BDE889408546704700BF6B
:1038C000684620F007018D4689B500AF4FF018001B
:1038D000FFF70CFE4FF08E00FFF7E4FDBD46BDE89C
:1038E00089408546704700BF684620F007018D4635
:1038F00089B500AF4FF01900FFF7F8FD4FF08F00CA
:10390000FFF7D0FDBD46BDE889408546704700BF42
:10391000684620F007018D4689B500AF4FF01A00C8
:10392000FFF7E4FD4FF09000FFF7BCFDBD46BDE89A
:1039300089408546704700BF684620F007018D46E4
:1039400089B500AF4FF01B00FFF7D0FD4FF091009D
:10395000FFF7A8FDBD46BDE889408546704700BF1A
:10396000684620F007018D4689B500AF4FF01C0076
:10397000FFF7BCFD4FF09200FFF794FDBD46BDE898
:1039800089408546704700BF684620F007018D4694
:1039900089B500AF4FF01D00FFF7A8FD4FF0930071
:1039A000FFF780FDBD46BDE889408546704700BFF2
:1039B000684620F007018D4689B500AF4FF01E0024
:1039C000FFF794FD4FF09400FFF76CFDBD46BDE896
:1039D00089408546704700BF684620F007018D4644
:1039E00089B500AF4FF01F00FFF780FD4FF0950045
:1039F000FFF758FDBD46BDE889408546704700BFCA
:103A000081F0004102E000BF83F0004330B54FEA8F
:103A100041044FEA430594EA050F08BF90EA020FFC
:103A20001FBF54EA000C55EA020C7FEA645C7FEA8F
:103A3000655C00F0E2804FEA5454D4EB5555B8BFB2
:103A40006D420CDD2C4480EA020281EA030382EA23
:103A5000000083EA010180EA020281EA0303362DB5
:103A600088BF30BD11F0004F4FEA01314FF4801C88
:103A70004CEA113102D0404261EB410113F0004F9A
:103A80004FEA03334CEA133302D0524263EB430351
:103A900094EA050F00F0A780A4F10104D5F1200EEF
:103AA0000DDB02FA0EFC22FA05F2801841F100014A
:103AB00003FA0EF2801843FA05F359410EE0A5F11E
:103AC00020050EF1200E012A03FA0EFC28BF4CF04F
:103AD000020C43FA05F3C01851EBE37101F0004505
:103AE00007D54FF0000EDCF1000C7EEB00006EEB12
:103AF0000101B1F5801F1BD3B1F5001F0CD349089C
:103B00005FEA30004FEA3C0C04F101044FEA4452F2
:103B100012F5800F80F09A80BCF1004F08BF5FEA79
:103B2000500C50F1000041EB045141EA050130BD59
:103B30005FEA4C0C404141EB010111F4801FA4F1FC
:103B40000104E9D191F0000F04BF01460020B1FA51
:103B500081F308BF2033A3F10B03B3F120020CDA89
:103B60000C3208DD02F1140CC2F10C0201FA0CF067
:103B700021FA02F10CE002F11402D8BFC2F1200CCC
:103B800001FA02F120FA0CFCDCBF41EA0C01904082
:103B9000E41AA2BF01EB0451294330BD6FEA0404CB
:103BA0001F3C1CDA0C340EDC04F11404C4F12002B6
:103BB00020FA04F001FA02F340EA030021FA04F3C8
:103BC00045EA030130BDC4F10C04C4F1200220FA1F
:103BD00002F001FA04F340EA0300294630BD21FA5D
:103BE00004F0294630BD94F0000F83F4801306BF23
:103BF00081F480110134013D4EE77FEA645C18BF17
:103C00007FEA655C29D094EA050F08BF90EA020FAD
:103C100005D054EA000C04BF1946104630BD91EAA5
:103C2000030F1EBF0021002030BD5FEA545C05D1A8
:103C30004000494128BF41F0004130BD14F58004E7
:103C40003CBF01F5801130BD01F0004545F0FE415B
:103C500041F470014FF0000030BD7FEA645C1ABF90
:103C6000194610467FEA655C1CBF0B46024650EAC7
:103C7000013406BF52EA033591EA030F41F40021F3
:103C800030BD00BF90F0000F04BF0021704730B579
:103C90004FF4806404F132044FF000054FF000014E
:103CA00050E700BF90F0000F04BF0021704730B50F
:103CB0004FF4806404F1320410F0004548BF4042E4
:103CC0004FF000013EE700BF42004FEAE2014FEA39
:103CD00031014FEA02701FBF12F07F4393F07F4F14
:103CE00081F06051704792F0000F14BF93F07F4F46
:103CF000704730B54FF4607401F0004521F0004189
:103D000020E700BF50EA010208BF704730B54FF00E
:103D100000050AE050EA010208BF704730B511F013
:103D2000004502D5404261EB41014FF4806404F14B
:103D300032045FEA915C3FF4DCAE4FF003025FEACD
:103D4000DC0C18BF03325FEADC0C18BF033202EB55
:103D5000DC02C2F1200300FA03FC20FA02F001FAAF
:103D600003FE40EA0E0021FA02F11444C1E600BF4E
:103D700070B54FF0FF0C4CF4E06C1CEA11541DBF01
:103D80001CEA135594EA0C0F95EA0C0F00F0DEF8CC
:103D90002C4481EA030621EA4C5123EA4C5350EAB1
:103DA000013518BF52EA033541F4801143F4801302
:103DB00038D0A0FB02CE4FF00005E1FB02E506F093
:103DC0000042E0FB03E54FF00006E1FB03569CF0E8
:103DD000000F18BF4EF0010EA4F1FF04B6F5007FEE
:103DE00064F5407404D25FEA4E0E6D4146EB060660
:103DF00042EAC62141EA55514FEAC52040EA5E50E9
:103E00004FEACE2EB4F1FD0C88BFBCF5E06F1ED892
:103E1000BEF1004F08BF5FEA500E50F1000041EBC9
:103E2000045170BD06F0004646EA010140EA020076
:103E300081EA0301B4EB5C04C2BFD4EB0C0541EA98
:103E4000045170BD41F480114FF0000E013C00F3AD
:103E5000AB8014F1360FDEBF002001F0004170BDD1
:103E6000C4F10004203C35DA0C341BDC04F11404EA
:103E7000C4F1200500FA05F320FA04F001FA05F276
:103E800040EA020001F0004221F0004110EBD37043
:103E900021FA04F642EB06015EEA430E08BF20EA6F
:103EA000D37070BDC4F10C04C4F1200500FA04F312
:103EB00020FA05F001FA04F240EA020001F00041A4
:103EC00010EBD37041F100015EEA430E08BF20EA17
:103ED000D37070BDC4F1200500FA05F24EEA020E5F
:103EE00020FA04F301FA05F243EA020321FA04F08E
:103EF00001F0004121FA04F220EA020000EBD37045
:103F00005EEA430E08BF20EAD37070BD94F0000F44
:103F10000FD101F00046400041EB010111F4801F78
:103F200008BF013CF7D041EA060195F0000F18BF29
:103F3000704703F00046520043EB030313F4801F65
:103F400008BF013DF7D043EA0603704794EA0C0F1F
:103F50000CEA135518BF95EA0C0F0CD050EA410635
:103F600018BF52EA4306D1D181EA030101F00041B2
:103F70004FF0000070BD50EA410606BF10461946DA
:103F800052EA430619D094EA0C0F02D150EA0136E6
:103F900013D195EA0C0F05D152EA03361CBF104627
:103FA00019460AD181EA030101F0004141F0FE41C6
:103FB00041F470014FF0000070BD41F0FE4141F44A
:103FC000780170BD70B54FF0FF0C4CF4E06C1CEA4A
:103FD00011541DBF1CEA135594EA0C0F95EA0C0FFF
:103FE00000F0A7F8A4EB050481EA030E52EA0335BA
:103FF0004FEA013100F088804FEA03334FF08055DB
:1040000045EA131343EA12634FEA022245EA111507
:1040100045EA10654FEA00260EF000419D4208BFB8
:10402000964244F1FD0404F5407402D25B084FEA65
:104030003202B61A65EB03055B084FEA32024FF411
:1040400080104FF4002CB6EB020E75EB030E22BF6E
:10405000B61A754640EA0C005B084FEA3202B6EB2E
:10406000020E75EB030E22BFB61A754640EA5C00DD
:104070005B084FEA3202B6EB020E75EB030E22BF6D
:10408000B61A754640EA9C005B084FEA3202B6EB6E
:10409000020E75EB030E22BFB61A754640EADC002D
:1040A00055EA060E18D04FEA051545EA16754FEA8F
:1040B00006164FEAC30343EA52734FEAC2025FEAAD
:1040C0001C1CC0D111F4801F0BD141EA00014FF03C
:1040D00000004FF0004CB6E711F4801F04BF01430D
:1040E0000020B4F1FD0C88BFBCF5E06F3FF6AFAE29
:1040F000B5EB030C04BFB6EB020C5FEA500C50F1B9
:10410000000041EB045170BD0EF0004E4EEA11313B
:1041100014EB5C04C2BFD4EB0C0541EA045170BD42
:1041200041F480114FF0000E013C90E645EA060E86
:104130008DE60CEA135594EA0C0F08BF95EA0C0FB4
:104140003FF43BAF94EA0C0F0AD150EA01347FF4FC
:1041500034AF95EA0C0F7FF425AF104619462CE7D3
:1041600095EA0C0F06D152EA03353FF4FDAE104636
:10417000194622E750EA410618BF52EA43067FF487
:10418000C5AE50EA41047FF40DAF52EA43057FF417
:10419000EBAE12E74A0011D212F5001211D20DD582
:1041A0006FF47873B3EB62520ED44FEAC12343F03D
:1041B000004343EA505323FA02F070474FF00000E7
:1041C000704750EA013002D14FF0FF3070474FF096
:1041D0000000704780F0004002E000BF81F0004125
:1041E00042001FBF5FEA410392EA030F7FEA226C9D
:1041F0007FEA236C6AD04FEA1262D2EB1363C1BF2D
:10420000D218414048404140B8BF5B42192B88BF9B
:10421000704710F0004F40F4000020F07F4018BFBE
:10422000404211F0004F41F4000121F07F4118BFDE
:10423000494292EA030F3FD0A2F1010241FA03FC86
:1042400010EB0C00C3F1200301FA03F100F000436E
:1042500002D5494260EB4000B0F5000F13D3B0F136
:10426000807F06D340084FEA310102F10102FE2AA5
:1042700051D2B1F1004F40EBC25008BF20F0010015
:1042800040EA03007047490040EB000010F4000FC3
:10429000A2F10102EDD1B0FA80FCACF1080CB2EB56
:1042A0000C0200FA0CF0AABF00EBC25052421843B5
:1042B000BCBFD0401843704792F0000F81F400015A
:1042C00006BF80F400000132013BB5E74FEA41032D
:1042D0007FEA226C18BF7FEA236C21D092EA030F99
:1042E00004D092F0000F08BF0846704790EA010F13
:1042F0001CBF0020704712F07F4F04D1400028BF40
:1043000040F00040704712F100723CBF00F5000021
:10431000704700F0004343F0FE4040F40000704757
:104320007FEA226216BF08467FEA23630146420203
:1043300006BF5FEA412390EA010F40F48000704716
:104340004FF0000304E000BF10F0004348BF4042BC
:104350005FEA000C08BF704743F0964301464FF0F8
:1043600000001CE050EA010208BF70474FF0000354
:104370000AE000BF50EA010208BF704711F0004395
:1043800002D5404261EB41015FEA010C02BF844665
:104390000146002043F0B64308BFA3F18053A3F5C4
:1043A0000003BCFA8CF2083AA3EBC25310DB01FA0B
:1043B00002FC634400FA02FCC2F12002BCF1004F8F
:1043C00020FA02F243EB020008BF20F00100704720
:1043D00002F1200201FA02FCC2F1200250EA4C0074
:1043E00021FA02F243EB020008BF20EADC707047BA
:1043F0004FF0FF0C1CEAD0521EBF1CEAD15392EAC8
:104400000C0F93EA0C0F6FD01A4480EA010C4002A3
:1044100018BF5FEA41211ED04FF0006343EA5010FD
:1044200043EA5111A0FB01310CF00040B1F5000F3F
:104430003EBF490041EAD3715B0040EA010062F1EE
:104440007F02FD2A1DD8B3F1004F40EBC25008BFD8
:1044500020F00100704790F0000F0CF0004C08BFF6
:1044600049024CEA502040EA51207F3AC2BFD2F1C3
:10447000FF0340EAC250704740F400004FF00003D1
:10448000013A5DDC12F1190FDCBF00F0004070470B
:10449000C2F10002410021FA02F1C2F1200200FA49
:1044A00002FC5FEA310040F1000053EA4C0308BF10
:1044B00020EADC70704792F0000F00F0004C02BF61
:1044C000400010F4000F013AF9D040EA0C0093F0DC
:1044D000000F01F0004C02BF490011F4000F013B36
:1044E000F9D041EA0C018FE70CEAD15392EA0C0FA4
:1044F00018BF93EA0C0F0AD030F0004C18BF31F00F
:10450000004CD8D180EA010000F00040704790F0E4
:10451000000F17BF90F0004F084691F0000F91F088
:10452000004F14D092EA0C0F01D142020FD193EA4E
:104530000C0F03D14B0218BF084608D180EA0100D6
:1045400000F0004040F0FE4040F40000704740F0B2
:10455000FE4040F4400070474FF0FF0C1CEAD05280
:104560001EBF1CEAD15392EA0C0F93EA0C0F69D0DC
:10457000A2EB030280EA010C49024FEA402037D047
:104580004FF0805343EA111143EA10130CF000403E
:104590008B4238BF5B0042F17D024FF4000C8B422E
:1045A00024BF5B1A40EA0C00B3EB510F24BFA3EB0E
:1045B000510340EA5C00B3EB910F24BFA3EB9103DE
:1045C00040EA9C00B3EBD10F24BFA3EBD10340EA38
:1045D000DC001B0118BF5FEA1C1CE0D1FD2A3FF67E
:1045E00050AF8B4240EBC25008BF20F00100704733
:1045F0000CF0004C4CEA50207F32C2BFD2F1FF03D6
:1046000040EAC250704740F400004FF00003013A06
:1046100037E792F0000F00F0004C02BF400010F4AA
:10462000000F013AF9D040EA0C0093F0000F01F0BE
:10463000004C02BF490011F4000F013BF9D041EAE0
:104640000C0195E70CEAD15392EA0C0F08D1420213
:104650007FF47DAF93EA0C0F7FF470AF084676E7E6
:1046600093EA0C0F04D14B023FF44CAF08466EE7BF
:1046700030F0004C18BF31F0004CCAD130F000428D
:104680007FF45CAF31F000437FF43CAF5FE700BFE5
:1046900042000ED2B2F1FE4F0BD34FF09E03B3EBAC
:1046A000126209D44FEA002343F0004323FA02F0D8
:1046B00070474FF00000704712F1610F01D14202C4
:1046C00002D14FF0FF3070474FF00000704700BF3D
:1046D00070B54BF690764BF69075C2F20006C2F2BA
:1046E0000005761BB61006D0002455F8243001349E
:1046F0009847A642F9D84BF690754BF69476C2F2DD
:104700000005C2F20006761B07F036FCB61006D094
:10471000002455F8243001349847A642F9D870BDDA
:104720004BF6D4730146C2F20003186804F0DCBEF5
:104730004BF6D4730146C2F20003186800F000B8CB
:104740002DE9F04F01F10B04162C83B006462FD84B
:10475000002310248C422CBF194643F0010100298C
:1047600030D1304600F0F0FBB4F5FC7F2ED24FEA9A
:10477000D40E4CF2C805C2F2000505EBCE02D36898
:10478000934200F006825A6803F10805D968304662
:1047900022F0030C9A6863445C688A6044F0010468
:1047A000D1605C6000F0D2FB284603B0BDE8F08F1A
:1047B00024F00704E30F8C422CBF194643F001019B
:1047C0000029CED00C2300253360EDE75FEA542E9C
:1047D00004BF4FEAD40E4FEACE0040F090804CF276
:1047E000C805C2F200052818C368984206D10DE03A
:1047F000002A80F26F81DB68984207D0596821F067
:1048000003010A1B0F2AF3DD0EF1FF3E0EF1010E2C
:104810004CF2C807C2F2000707F108018B68994201
:1048200008BF7A6826D05A6822F0030CC4EB0C0249
:104830000F2A00F39481002AC960896080F2998070
:10484000BCF5007F80F065814FEADC0C4FF0010A77
:104850007A6807EBCC004FEAAC0C0AFA0CFCD86083
:10486000D0F808804CEA02027A60C3F80880C8F8E1
:104870000C3083604FF0010C4FEAAE030CFA03FCDE
:10488000944500F2828012EA0C0F08D12EF0030E3C
:104890004FEA4C0C0EF1040E12EA0C0FF8D007EBA5
:1048A000CE09F246C846D8F80C30984507D168E1E1
:1048B000002A80F27881DB68984500F062815868B0
:1048C00020F00300021B0F2AF2DD1D461F19D3F84A
:1048D0000CC044F0010E55F8084F3046BA5042F073
:1048E0000102C3F804E0CCF80840C4F80CC08F60A3
:1048F000CF607A60B960F96000F028FB54E7BEF140
:10490000040F9EBF4FEA941E0EF1380E4FEACE0000
:104910007FF665AFBEF1140F9CBF0EF15B0E4FEA40
:10492000CE007FF65CAFBEF1540F9EBF4FEA143E3F
:104930000EF16E0E4FEACE007FF651AFBEF5AA7FA4
:104940009EBF4FEAD43E0EF1770E4FEACE007FF6BF
:1049500046AF40F254539E4595BF4FEA944E4FF4F4
:104960007C700EF17C0E4FF07E0E98BF4FEACE00A9
:1049700035E703EB0C0203F108053046536843F0BA
:104980000103536000F0E2FA0EE7D7F80880D8F888
:10499000043023F00309C4EB09024C4594BF002303
:1049A00001230F2AD8BF43F00103002B00F0A180A0
:1049B0004CF28C5BD5F80824C2F2000BDBF8003017
:1049C00010331B19B2F1FF3F06D003F57E631F338E
:1049D00023F47E6323F01F0319463046019300F051
:1049E0002DFB019BB0F1FF3F824600F0F48008EB05
:1049F0000901814200F2EC80DBF804209A1851454D
:104A0000CBF8042000F04581D5F808544CF2C800DA
:104A1000C2F20000B5F1FF3F08BFC0F808A403D000
:104A20005244511ACBF804101AF00705304617BF4C
:104A3000C5F108054FF48055AA4405F58055534447
:104A40001B051B0DED1A294600F0F8FAB0F1FF3FE7
:104A500000F02C81CAEB0001491941F00101DBF89B
:104A600004204CF28C53C7F808A0C2F20003AA1825
:104A7000B845CBF80420CAF8041017D0B9F10F0FCD
:104A800040F2DF80A9F10C01052521F0070108EBB8
:104A900001000F2985604560D8F8040000F001008E
:104AA00041EA0000C8F8040000F2AC80D0464CF2A5
:104AB0008C53DBF82C10C2F200038A42DBF8301072
:104AC00088BFDA624CF28C53C2F200038A4288BF7C
:104AD0001A6382E05C189A68D9683046666803F108
:104AE00008058A6046F00103D160636000F02EFA89
:104AF0005AE608EB040342F0010244F00104304698
:104B0000C8F8044008F108055A60BB6000F01EFABE
:104B10004AE64FEA5C22042A54D9142A00F289801A
:104B20005B324FEAC208A8444CF2C807C2F2000741
:104B3000D8F80800404503D16FE08068804504D074
:104B4000426822F003029445F7D3D0F80CC0C3F8B2
:104B50000CC098607A68C360CCF808308AE61F19E8
:104B6000304644F00104CF605C6003F10805BA50A0
:104B700042F001028F607A60B960F96000F0E6F9F6
:104B800012E60AF1010A1AF0030F5FD003F10808D8
:104B900089E603F10802D3689A4208BF0EF1020EBB
:104BA0003FF436AEEFE51D461918DA68304655F881
:104BB000083F4C68936044F00104DA604C6000F0F8
:104BC000C5F9F1E54FEA9C1238324FEAC208AAE76C
:104BD000B8453FF411AFD7F80880D8F8042022F088
:104BE0000302944294BF00230123121B0F2AD8BF53
:104BF00043F00103002B3FF47CAF3046002500F06A
:104C0000A5F9D1E508F108013046019304F06CFCE8
:104C1000019BD7F808805A6849E74FF0010AD7F896
:104C20000480921084460AFA02F248EA02027A608C
:104C30008DE7542A24D84FEA1C326E324FEAC2085C
:104C400071E70123D046CAF80430C6E74A461EF091
:104C5000030F13460EF1FF3E33D053F808299A4252
:104C6000F5D07B684FEA4C0C9C453FF68EAEBCF10C
:104C7000000F3FF48AAE1CEA030F27D0D6460EE69B
:104C8000B2F5AA7F15D84FEADC3277324FEAC20874
:104C900049E70805000D00287FF4B6AED7F8088074
:104CA0004B4443F00103C8F8043000E7012100251C
:104CB000D5E640F2545082420DD94FF47C787E22E2
:104CC00031E77B6823EA0C037B60CBE74FEA4C0CAF
:104CD0000AF1040ACFE74FEA9C427C324FEAC2084D
:104CE00021E700BF032A2DE9F0070BD83AB10023D2
:104CF00011F803C000F803C001339342F8D1BDE8B6
:104D0000F007704782180C46034603E014F8011CB4
:104D100003F8011C03F003061946A44601330134CD
:104D2000002EF3D11CF00304634608BFC1EB020C54
:104D300068D06542C4F1040A0CEB050733464FEA1C
:104D4000CA0A5CF805604FEAC408551A08E057F82B
:104D5000044F264604FA0AF449EA0404CC5004330A
:104D60005C18032D26FA08F9A5F104050CEB0306DF
:104D7000EDDC002302E0F15CE154013319199142AA
:104D8000F9D3BCE753F8404C41F8404C53F83C4C45
:104D900041F83C4C53F8384C41F8384C53F8344CFB
:104DA00041F8344C53F8304C41F8304C53F82C4C0B
:104DB00041F82C4C53F8284C41F8284C53F8244C1B
:104DC00041F8244C53F8204C41F8204C53F81C4C2B
:104DD00041F81C4C53F8184C41F8184C53F8144C3B
:104DE00041F8144C53F8104C41F8104C53F80C4C4B
:104DF00041F80C4C53F8084C41F8084C53F8044C5B
:104E000041F8044C1C460D4640334031BCF13F0F85
:104E1000ACF1400CB6DC21462B46541B0FE051F898
:104E2000105C43F8105C51F80C5C43F80C5C51F8D2
:104E3000085C43F8085C51F8045C43F8045C0F2CF0
:104E40000D469C4601F1100103F11003A4F110047A
:104E5000E5DCCCEB0201002303E0EC584CF8034006
:104E600004335E19032903EB0C04A1F10401F4DC03
:104E70007FE700BF032AC9B230B407D822B10023AC
:104E8000C15401339342FBD130BC704700EB020C9C
:104E9000034601E003F8011C03F003041A46013342
:104EA000002CF7D14FF00133C2EB0C0403FB01F3EC
:104EB0001FE042F8403C42F83C3C42F8383C42F8A3
:104EC000343C42F8303C42F82C3C42F8283C42F852
:104ED000243C42F8203C42F81C3C42F8183C42F882
:104EE000143C42F8103C42F80C3C42F8083C42F8B2
:104EF000043C154640323F2CA4F14004D9DC2A463C
:104F0000C5EB0C0407E042F8103C42F80C3C42F8B8
:104F1000083C42F8043C154610320F2CA4F1100452
:104F2000F1DC2A46C5EB0C0501E042F8043C1446CE
:104F30000432032DA5F10405F7DC01E004F8011BA0
:104F40006445FBD3A0E700BF704700BF704700BFB8
:104F50000FB44BF6D473C2F2000310B51C6882B0D4
:104F600024B1A36913B9204604F03AFA204605ACEF
:104F7000049A23468168019401F0D0FB02B0BDE899
:104F8000104004B0704700BF0EB410B5044683B0A3
:104F900018B183690BB904F023FA204606AC059AD0
:104FA00023468168019401F0B9FB03B0BDE81040CD
:104FB00003B0704730B5044689B008460D4600F08E
:104FC0009BF84BF63C330195C2F200030393029029
:104FD000431C07930123049301AB0593022306931B
:104FE0000CB1A369EBB14BF6D4732046C2F20003B7
:104FF0001B689B689A8912F4005F01BF42F400525B
:105000009A81596E21F40052A16808BF5A6605AA18
:1050100004F04AFB002814BF4FF0FF300A2009B00B
:1050200030BD204604F0DCF9DDE700BF4BF6D47359
:105030000146C2F200031868BCE700BF38B54CF265
:105040002C74C2F200040546084600232360FCF7D6
:105050005FFDB0F1FF3F00D038BD2368002BFBD0CF
:105060002B6038BD0EB44BF6D47330B59CB01FAC7A
:10507000C2F20003054601A954F8042B4FF0FF3C8F
:1050800018684FF40273ADF810302346059501956A
:105090006FF00045ADF812C0069503951B9400F023
:1050A000E9F8019B00221A701CB0BDE8304003B043
:1050B000704700BF0CB40B4610B59CB01EAC01A9E4
:1050C00005934FF4027C54F8042B01934FF0FF3307
:1050D000ADF8123023461B946FF00044ADF810C0B9
:1050E0000694039400F0C6F8019B00221A701CB0CD
:1050F000BDE8104002B0704720F0030110F003003B
:10510000C0F1000051F8043B00F1040C4FEACC0C54
:105110006FF000021CBF22FA0CF213434FF0010C97
:105120004CEA0C2C4CEA0C4CA3EB0C0222EA0302D6
:1051300012EACC1204BF51F8043B0430F4D013F04F
:10514000FF0F1FBF013013F47F4F013013F47F0FA7
:1051500018BF0130704700BF2DE9F04F85B092466F
:105160000C46039090681768002800F081804FF08B
:1051700000090B684D46002D54D0A668B542B046D4
:105180003EBF18462E46A8463CD3A08910F4906F27
:1051900008BF184636D06269216902EB420B5B1AE0
:1051A00003F1010C0BEBDB7BAC444FEA6B0BE345EB
:1051B0005A463CBFE3465A4610F4806F37D011463A
:1051C00003980193FFF7BCFA019B00283BD01A46D5
:1051D000216901930290FFF785FDA289019BDDF80B
:1051E00008C022F4906242F08002A2812E46A846B6
:1051F000C3EB0B020CEB0300A260C4F810C02060EC
:10520000C4F814B04246494604F01AFDA268236867
:10521000961BA660DAF8082043442360551BCAF8A1
:105220000850FDB1D7F800907D680837A3E70398D0
:10523000019305F00DFA019B84460028D6D103980E
:10524000216904F051F9039A0C234FF0FF301360E9
:105250000023A289CAF8043042F04002CAF808309C
:10526000A28102E02846CAF8045005B0BDE8F08FDC
:105270005060FAE72DE9F04FC5B00E469A46154644
:10528000099004F001FCB38913F0800F00681B90B3
:1052900003D03369002B01F08C800DF17409B34603
:1052A0004C46002210920023189217921A920D92E7
:1052B0002DAA199328320DF1F703169207930023B4
:1052C000CDF8DC90389339932B78B3F1250218BFD1
:1052D0000122002B0CBF002202F0010202B32E4675
:1052E00016F8013F1A1E18BF0122252B0CBF002201
:1052F00002F00102002AF3D1771B08BF35460FD018
:105300006760389B399A01332560D219072B39928F
:10531000389379DC08340D983546C0190D903378F0
:10532000002B00F0378700214FF00002CDF828A0B5
:105330006B1C0C914FF0FF388DF80F218A466A786C
:105340002B204FF0200C5D1CA2F12003582B00F203
:105350001982DFE813F0290217021702350217023B
:10536000170217021702170217023C02480217021F
:10537000C802CF021702EF02F602F602F602F602A8
:10538000F602F602F602F602F602170217021702FA
:1053900017021702170217021702170217024F020D
:1053A0008802170288021702170217021702C102A9
:1053B00017021702EE03170217021702170217024D
:1053C000930317021702AD03170217021702170201
:1053D000170217021702170217021702C703D80392
:1053E0008802880288020B03D803170217020F03F2
:1053F0001702190329033E038C03170259031702EE
:10540000840317021702EA000998594637AAFFF7E2
:10541000A3FE00287CD14C467DE71899012940F372
:105420005284119A01236360389B2260399A0133B8
:1054300038930132072B399200F396850834012303
:105440006360389B399A01331B980132072B3992DC
:105450002060389300F37D850834109800220023E3
:10546000199905F0B9FE002840F003851899119BA1
:105470004A1E6260591C389B216039990133389368
:105480008A18072B399200F32F8408341A9A1A9835
:1054900062603EAA389B2260399A01333893121811
:1054A000072B399200F34F8104F108031AF0040F1F
:1054B00000F056810C990B9A8E1A002E40F3508101
:1054C000102E4BF61857D8BFC2F2000740F3DE8308
:1054D0001024C2F200070DF1DC08DDF824A003E07F
:1054E000103E102E40F3D2835C60389A3999013215
:1054F0001F601031072A399103F108033892EFDD5C
:10550000504659464246FFF727FE4B460028E7D053
:105510005E46B3890D9813F0400F18BF4FF0FF306F
:105520000D900D9845B0BDE8F08F1AF0200F4BF6A6
:105530005C50C2F200001492179000F0C3820A99E6
:10554000CB1D23F0070303F108020A92D3E9006799
:1055500056EA07010CBF002201221AEA020F40F0AE
:10556000BC8402234FF000018DF80F11B8F1000F39
:10557000A8BF2AF0800AB8F1000F18BF42F001025C
:10558000002A00F06081012B00F03484022B00F02F
:1055900017841699CDF82C8011914FEAD6084FEA5E
:1055A000D70C48EA477806F0070067464646303091
:1055B00056EA070201F8010DEFD11AF0010FDDF8EC
:1055C0002C80119140F0DB84169B5B1A0E930E9B8E
:1055D000CDF854804345B8BF43460B939DF80F3137
:1055E00013B10B9901310B911AF00202139202D000
:1055F0000B9B02330B931AF08400129038D10C9954
:105600000B9A8E1A002E33DD102E4BF61857D8BF8A
:10561000C2F2000720DD4FF01008C2F2000702E0DE
:10562000103E102E18DDC4F80480389B399A0133DF
:1056300027601032072B399204F108043893EFDD0C
:105640000998594637AA4C46FFF786FD00287FF493
:105650005FAF103E102EE6DC6660389B27605A1C58
:10566000399B38929B19072A399300F3F783083442
:105670009DF80F3173B101236360389B43AA033255
:105680002260399A013338930132072B399200F3A3
:1056900040830834139B6BB102236360389B43AA99
:1056A0002260399A013338930232072B399200F382
:1056B0003A8308341298802800F0B28215980E9B25
:1056C000C61A002E2EDD102EA74FC8BF4FF01008AF
:1056D00003DC1BE0103E102E18DDC4F80480389B5C
:1056E000399A013327601032072B399204F10804EC
:1056F0003893EFDD0998594637AA4C46FFF72CFD41
:1057000000287FF405AF103E102EE6DC6660389B63
:1057100027605A1C399B38929B19072A399300F34A
:10572000EE8208341AF4807F40F019820E99119AA3
:105730006160389B2260399A013338935218072BE5
:1057400039927FF7B1AE0998594637AAFFF704FDA1
:1057500000287FF4DDAE1AF0040F4B467FF4AAAEAA
:10576000399B0D980B9A0C998A42ACBF801840184F
:105770000D90002B40F09E820023DDF828A0389386
:105780004C46A1E51492002A00F0048501208DF812
:10579000B4204FF000012DAA0B908DF80F1111923B
:1057A0000E90002115911FE79DF80F31002B40F05E
:1057B0000C840A992B468DF80FC12A780A91C2E50C
:1057C0000A994AF0010A2A782B460A91BBE50A9BFE
:1057D0000A9A1B68111D002B0C93C0F2B2852A781F
:1057E0002B460A91AFE50A992B468DF80F012A78CE
:1057F0000A91A8E54AF0100A14921AF0200F00F05E
:1058000087810A98C31D23F0070303F108010A9159
:10581000D3E90067002E77F10000C0F2768356EAE4
:1058200007014FF001030CBF00220122B8F1000F65
:10583000A8BF2AF0800AB8F1000F18BF42F0010299
:10584000002A7FF4A0AE002B40F0E5811AF0010F92
:1058500000F0E18130238DF8DB302DAB01202733C0
:105860000E901193B3E61AF0080F149200F0BF8364
:105870000A98C31D23F0070303F108010A915E682B
:105880001F68199610973846314605F0BBF8034655
:10589000002800F09384384600220023314605F0AA
:1058A000A5FC002840F015849DF80F3103204BF62D
:1058B00050524BF64C510B901498C2F20001C2F2B8
:1058C00000022AF0800A4728D8BF0A460321119215
:1058D00000220E91159283E60A994AF0080A2A7866
:1058E0002B460A912FE50A992A784AF0040A2B469A
:1058F0000A9128E52B4613F8012B2A2A00F0CF86BF
:10590000A2F13001092988BF4FF0000810D80235F4
:105910004FF0000815F8012C08EB88082B460135DC
:1059200001EB4808A2F130010929F3D948EAE878E7
:105930001D4609E50A994AF0800A2A782B460A9101
:1059400001E5A2F1300100262B4606EB860613F88E
:10595000012B01EB4606A2F130011D460929F3D9BE
:105960000C961D46F0E400BF28BD00204AF0400A16
:105970000A9934E72A786C2A00F018840A994AF0C8
:10598000100A2B460A91DEE41AF0200F00F0238360
:105990000A990D9A0B6810464FEAE0710A9AC3E91A
:1059A000000102F1040A8FE41AF02003149200F0BF
:1059B000C7800A9BDA1D002322F0070202F10800CB
:1059C0000A90D2E9006756EA07010CBF00220122C3
:1059D000C8E50A9A4BF65C500A997823C2F2000097
:1059E0001493166804318DF80D314AF0020A302301
:1059F000321E18BF01228DF80C3136464FF00007D9
:105A0000179002230A91ADE50A9B14924FF0000211
:105A1000181D8DF80F211B680A901193002B00F0C0
:105A20004D85B8F1000F1198C0F22A850021424639
:105A300004F0CCF80346002800F06E8511981B1A7C
:105A40000E93434540F38284CDF83880002128EA44
:105A5000E8789DF80F31CDF82C801591C0E51AF04B
:105A6000200F149210D00A9BDA1D0123A4E70A9993
:105A70004AF0200A2A782B460A9164E44AF0100A78
:105A800014921AF0200FEED11AF0100F40F0548249
:105A90001AF0400F00F050820A980123011D0A916C
:105AA0000688321E18BF012236464FF0000759E51E
:105AB0001AF0200F14924BF63852C2F200021792DD
:105AC0007FF43DAD1AF0100F40F02D821AF0400F18
:105AD00000F029820A990A1D0A920E8836464FF074
