S0250000616E74735F6D61737465725F4D53535F4D53535F434D335F305F6170702E7372656369
S315200000000000012099020020090300200B03002094
S315200000100D0300200F030020110300200000000024
S315200000200000000000000000000000001303002074
S3152000003015030020000000001703002019030020EC
S315200000401B0300201D0300201F0300202103002086
S315200000502303002025030020270300202903002056
S315200000602B0300202D030020011100202D1100203C
S31520000070311700205D1700203703002039030020A8
S315200000803B0300203D0300203F03002041030020C6
S315200000904303002045030020470300204903002096
S315200000A04B030020000000000000000000000000BC
S315200000B00000000000000000000000004D030020AA
S315200000C04F03002051030020530300205503002036
S315200000D057030020590300205B0300205D03002006
S315200000E05F030020610300206303002065030020D6
S315200000F067030020690300206B0300206D030020A6
S315200001006F03002071030020730300207503002075
S3152000011077030020790300207B0300207D03002045
S315200001207F03002081030020830300208503002015
S3152000013087030020890300208B0300208D030020E5
S315200001408F030020910300209303002095030020B5
S3152000015097030020990300209B0300209D03002085
S315200001609F030020A1030020A3030020A503002055
S31520000170A7030020A9030020AB030020AD03002025
S31520000180AF030020B1030020B3030020B5030020F5
S31520000190B7030020B9030020BB030020BD030020C5
S315200001A0BF030020C1030020C3030020C503002095
S315200001B0C7030020C9030020CB030020CD03002065
S315200001C0CF030020D1030020D3030020D503002035
S315200001D0D7030020D9030020DB030020DD03002005
S315200001E0DF030020E1030020E3030020E5030020D5
S315200001F0E7030020E9030020EB030020ED030020A5
S31520000200EF030020F1030020F3030020F503002074
S31520000210F7030020F9030020FB030020FD03002044
S31520000220FF03002001040020030400200504002011
S3152000023007040020090400200B0400200D040020E0
S315200002400F040020110400201304002015040020B0
S3152000025017040020190400201B0400201D04002080
S315200002601F04002021040020230400202504002050
S3152000027027040020290400202B0400202D04002020
S315200002802F040020310400203304002035040020F0
S315200002903704002039040020684880476848002831
S315200002A00BD168486849694A884206D091421CBFEA
S315200002B050F8043B41F8043BF8D165486549664A45
S315200002C0884206D091421CBF50F8043B41F8043BBB
S315200002D0F8D162486249634A914218BF41F8040B3B
S315200002E0FAD100000000000000000000000000001D
S315200002F0DFF874010FF2030E00474FF000004FF0B5
S315200003000001DFF868F1FEE7FEE7FEE7FEE7FEE71D
S31520000310FEE7FEE7FEE7FEE7FEE7FEE7FEE7FEE78F
S31520000320FEE7FEE7FEE7FEE7FEE7FEE7FEE7FEE77F
S31520000330FEE7FEE7FEE7FEE7FEE7FEE7FEE7FEE76F
S31520000340FEE7FEE7FEE7FEE7FEE7FEE7FEE7FEE75F
S31520000350FEE7FEE7FEE7FEE7FEE7FEE7FEE7FEE74F
S31520000360FEE7FEE7FEE7FEE7FEE7FEE7FEE7FEE73F
S31520000370FEE7FEE7FEE7FEE7FEE7FEE7FEE7FEE72F
S31520000380FEE7FEE7FEE7FEE7FEE7FEE7FEE7FEE71F
S31520000390FEE7FEE7FEE7FEE7FEE7FEE7FEE7FEE70F
S315200003A0FEE7FEE7FEE7FEE7FEE7FEE7FEE7FEE7FF
S315200003B0FEE7FEE7FEE7FEE7FEE7FEE7FEE7FEE7EF
S315200003C0FEE7FEE7FEE7FEE7FEE7FEE7FEE7FEE7DF
S315200003D0FEE7FEE7FEE7FEE7FEE7FEE7FEE7FEE7CF
S315200003E0FEE7FEE7FEE7FEE7FEE7FEE7FEE7FEE7BF
S315200003F0FEE7FEE7FEE7FEE7FEE7FEE7FEE7FEE7AF
S31520000400FEE7FEE7FEE7FEE7FEE7FEE7FEE7FEE79E
S31520000410FEE7FEE7FEE7FEE7FEE7FEE7FEE7FEE78E
S31520000420FEE7FEE7FEE7FEE7FEE7FEE7FEE7FEE77E
S31520000430FEE7FEE7FEE7FEE7FEE70000AD18002038
S31520000440000000000000002000000020888400201A
S315200004508884002088840020B089002000000000C5
S31520000460B0890020508B0020F11A00200D050020B5
S3152000047048F6B013C2F200031A780AB901201870A0
S31520000480704700BF48F28840C2F2000008B50368F2
S315200004902BB140F20003C0F2000303B1984708BD18
S315200004A080B500AF01F08EF94FF001004FF0050145
S315200004B001F0BEF94FF001004FF0000101F0D6F92E
S315200004C080BD00BF80B584B000AF78604FF00100DA
S315200004D04FF0010101F0CAF94FF00003FB6003E081
S315200004E0FB6803F10103FB607B6842F2107202FB9A
S315200004F003F2FB689A42F3D84FF001004FF0000157
S3152000050001F0B4F907F11007BD4680BD80B584B06F
S3152000051000AF01F057F94FF000004FF0050101F050
S3152000052087F94FF000004FF0000101F09FF9FFF727
S31520000530B7FF4FF00103FB7300F0D4F900F0E4F9A4
S3152000054007F10403184600F0B5F94FF000033B60AD
S3152000055047F6E860C2F2000001F078FF07F10803D1
S31520000560184600F0A7F907F1080207F10403104620
S31520000570194600F055F807F1080207F10403104662
S31520000580194600F0DBF83B7A03F00103002B2FD04D
S315200005903B7903F00103002B2AD147F60C70C2F2F7
S315200005A0000001F0E5FEFB7B002B0FD14FF001038D
S315200005B0FB7347F61870C2F2000001F047FF4FF0B8
S315200005C000004FF0010101F051F911E0FB7B012BF6
S315200005D00ED14FF00003FB7347F63070C2F20000D5
S315200005E001F034FF4FF000004FF0000101F03EF91A
S315200005F007F10803184600F099F903E03B6803F178
S3152000060001033B603A6849F27F63C0F298039A423D
S31520000610F4DD4FF000033B60BB687B609EE700BFC4
S3152000062080B582B000AF786039607B681B7803F0B4
S315200006300403002B13D03B681B7803F00403002B24
S315200006400DD147F65070C2F2000001F0FFFE48F2CD
S315200006508C43C2F200031B681846FFF733FF7B6802
S315200006605B7803F01003002B21D03B685B7803F006
S315200006701003002B1BD148F28C43C2F200031A68E8
S3152000068048F29043C2F200031B681A4448F28C4396
S31520000690C2F200031A6048F28C43C2F200031B68C0
S315200006A047F67870C2F20000194601F061FE7B68B9
S315200006B05B7803F02003002B3BD03B685B7803F08C
S315200006C02003002B35D148F28C43C2F200031A686E
S315200006D048F29043C2F200031B689A420CD848F2B3
S315200006E08C43C2F200031B6847F6A070C2F20000DA
S315200006F0194601F03DFE1CE048F28C43C2F200038D
S315200007001A6848F29043C2F200031B68C3EB020248
S3152000071048F28C43C2F200031A6048F28C43C2F2BC
S3152000072000031B6847F6D070C2F20000194601F09C
S315200007301FFE07F10807BD4680BD00BF80B582B009
S3152000074000AF786039607B681B7803F01003002BBC
S3152000075013D03B681B7803F01003002B0DD140F219
S315200007601213C4F205034FF000021A6047F6F87020
S31520000770C2F2000001F06AFE3EE07B681B7803F0BF
S315200007802003002B13D03B681B7803F02003002B9B
S315200007900DD140F21313C4F205034FF000021A6084
S315200007A048F21000C2F2000001F050FE24E07B68FF
S315200007B01B7803F01003002B05D13B681B7803F050
S315200007C01003002B0BD17B681B7803F02003002B32
S315200007D012D13B681B7803F02003002B0CD040F28B
S315200007E01113C4F205034FF000021A6048F22800E4
S315200007F0C2F2000001F02AFE7B681B7803F040035A
S31520000800002B13D03B681B7803F04003002B0DD13F
S3152000081040F20213C4F205034FF000021A6048F2B8
S315200008204000C2F2000001F011FE3EE07B681B781A
S3152000083003F08003002B13D03B681B7803F0800362
S31520000840002B0DD140F20313C4F205034FF0000232
S315200008501A6048F25800C2F2000001F0F7FD24E0C9
S315200008607B681B7803F04003002B05D13B681B787F
S3152000087003F04003002B0BD17B681B7803F0800329
S31520000880002B12D13B681B7803F08003002B0CD081
S3152000089040F20113C4F205034FF000021A6048F239
S315200008A07000C2F2000001F0D1FD07F10807BD4635
S315200008B080BD00BF80B584B000AF786040F20003F1
S315200008C0C4F20503FB607A68FB6811461A464FF0AE
S315200008D00403084611461A4601F014FC07F11007D6
S315200008E0BD4680BD80B483B000AF40F20003C4F2A1
S315200008F005037B607B684FF0FF021A6007F10C0747
S31520000900BD4680BC704700BF80B483B000AF40F2C4
S315200009100003C4F205037B607B684FF001021A6076
S3152000092007F10C07BD4680BC704700BF2DE9F04F8C
S3152000093093B00EAFF860FB681B78C3F30003DBB2FD
S315200009401D46FB681B78C3F34003DBB21C46FB68DD
S315200009501B78C3F38003DBB29E46FB681B78C3F388
S31520000960C003DBB21846FB681B78C3F30013DBB267
S315200009709C46FB681B78C3F34013DBB23B60FB68E5
S315200009801B78C3F38013DBB27B60FB681B78C3F351
S31520000990C013DBB2BB60FB685B78C3F38003DBB2BA
S315200009A09B46FB685B78C3F3C003DBB29946FB68C2
S315200009B05B78C3F30013DBB29A46FB685B78C3F31C
S315200009C04013DBB29846FB685B78C3F38013DBB237
S315200009D01E46FB685B78C3F3C013DBB21946FB687F
S315200009E09B781A46FB68DB780090CDF804C03868FF
S315200009F0029078680390B8680490CDF814B0CDF8CA
S31520000A001890CDF81CA0CDF8208009960A910B925B
S31520000A100C9348F28800C2F200002946224673460B
S31520000A2001F0A6FC07F11407BD46BDE8F08F00BF14
S31520000A3080B483B000AF78604FF0FF33184607F1DB
S31520000A400C07BD4680BC704780B483B000AF786089
S31520000A50FEE700BF80B483B000AF786039603B68A2
S31520000A604FF400525A604FF00003184607F10C0766
S31520000A70BD4680BC704700BF80B483B000AF7860AD
S31520000A804FF00103184607F10C07BD4680BC70479E
S31520000A9080B485B000AFF860B9607A604FF000038B
S31520000AA0184607F11407BD4680BC704780B485B050
S31520000AB000AFF860B9607A604FF00003184607F17E
S31520000AC01407BD4680BC704780B584B000AFF8607F
S31520000AD0B9607A603B6048F6B413C2F200031B6823
S31520000AE0002B10D148F61820C2F200004FF46141C5
S31520000AF04FF0030200F07EF848F6B413C2F200036A
S31520000B004FF001021A603B6848F61820C2F2000036
S31520000B1079681A4600F070F93B68184607F1100705
S31520000B20BD4680BD80B584B000AF786048F6B81366
S31520000B30C2F200031B68002B08D148F6B813C2F294
S31520000B40000348F65032C2F200021A6048F6B81383
S31520000B50C2F200031B68BB60EFF30883FB6048F614
S31520000B60B813C2F200031A687B681A44FB689A42DB
S31520000B700FD94FF000004FF0010148F22812C2F2BF
S31520000B8000024FF01903FFF79FFF4FF00100FFF718
S31520000B905BFF48F6B813C2F200031A687B681A4452
S31520000BA048F6B813C2F200031A60BB68184607F16C
S31520000BB01007BD4680BD00BF80B483B000AF03469A
S31520000BC0FB804EF20013CEF20003B7F906204FEA5F
S31520000BD05212F98801F01F014FF0010000FA01F1CD
S31520000BE002F1600243F8221007F10C07BD4680BCD3
S31520000BF0704700BF80B588B000AFF860B960134673
S31520000C00FB714FF00103FB824FF00003BB61FA68D2
S31520000C1048F61823C2F200039A4207D0FA6848F62B
S31520000C20F013C2F200039A4200D000BEBB68002B2C
S31520000C3000D100BE00F040FEFA6848F61823C2F242
S31520000C4000039A422ED1FB684FF080421A60FB685F
S31520000C504FF084425A60FB684FF00A021A8148F22C
S31520000C609C43C2F200031B68BB6142F20003CEF232
S31520000C70040342F20002CEF20402126B42F080021A
S31520000C801A634FF00A00FFF797FF42F20003CEF2F5
S31520000C90040342F20002CEF20402126B22F080021A
S31520000CA01A6331E0FA6840F20003C4F201031360CC
S31520000CB0FA6840F20003C4F220235360FB684FF029
S31520000CC00B021A8148F2A043C2F200031B68BB61E3
S31520000CD042F20003CEF2040342F20002CEF20402F4
S31520000CE0126B42F480721A634FF00B00FFF764FF19
S31520000CF042F20003CEF2040342F20002CEF20402D4
S31520000D00126B22F480721A63FB681B684FF0000294
S31520000D101A71BB68002B21D0BA69BB68B2FBF3F30A
S31520000D20FB61FB6903F00803002B06D0FB694FEA41
S31520000D30131303F10103FB6103E0FB694FEA13136D
S31520000D40FB61FA694FF6FF739A4200D900BEFA6931
S31520000D504FF6FF739A4201D8FB69FB82FB685B68FA
S31520000D604FF00102C3F89C21FB681B68FA8A4FEA00
S31520000D70122292B2D2B21A71FB681B68FA8AD2B2D8
S31520000D801A70FB685B684FF00002C3F89C21FB6871
S31520000D901B68FA791A73FB681B684FF00E021A72E9
S31520000DA0FB685B684FF00002C3F81022FB684FF027
S31520000DB000021A61FB684FF00002DA60FB684FF010
S31520000DC000025A61FB684FF00002DA61FA6840F6C9
S31520000DD0F973C2F200031362FB684FF000029A61B6
S31520000DE0FB684FF000025A62FB684FF000029A72CD
S31520000DF007F12007BD4680BD80B489B000AFF860FA
S31520000E00B9607A604FF000033B61FA6848F6182310
S31520000E10C2F200039A4207D0FA6848F6F013C2F2EB
S31520000E2000039A4200D000BEBB68002B00D100BE52
S31520000E307B68002B00D100BEFA6848F61823C2F260
S31520000E4000039A4206D0FA6848F6F013C2F200036D
S31520000E509A423DD1BB68002B3AD07B68002B37D015
S31520000E60FB681B681B7DFB76FB689A7AFB7E42EA51
S31520000E700303DAB2FB689A72FB7E03F02003002B91
S31520000E8023D04FF01003FB617B680F2B01D87B68C2
S31520000E90FB614FF000037B610EE0FB681B68B968BD
S31520000EA03A690A4412781A703B6903F101033B61DF
S31520000EB07B6903F101037B617A69FB699A42ECD372
S31520000EC07A687B69C3EB02037B607B68002BC7D102
S31520000ED007F12407BD4680BC704700BF80B584B0AB
S31520000EE000AF78607A6848F61823C2F200039A4267
S31520000EF007D07A6848F6F013C2F200039A4200D06F
S31520000F0000BE7A6848F61823C2F200039A4206D039
S31520000F107A6848F6F013C2F200039A4267D17B68DA
S31520000F201B681B7ADBB203F00F03FB73FB7B0C2BD6
S31520000F3054D801A252F823F06D0F0020DD0F0020B7
S31520000F40890F0020DD0F0020A50F0020DD0F0020D7
S31520000F50C10F0020DD0F0020DD0F0020DD0F002057
S31520000F60DD0F0020DD0F0020A50F00207B685B6AC7
S31520000F70002B00D100BE7B685B6A002B30D07B68DB
S31520000F805B6A7868984732E07B681B6A002B00D141
S31520000F9000BE7B681B6A002B24D07B681B6A78689E
S31520000FA0984724E07B68DB69002B00D100BE7B6874
S31520000FB0DB69002B18D07B68DB697868984716E0D8
S31520000FC07B689B69002B00D100BE7B689B69002B48
S31520000FD00CD07B689B697868984708E000BE06E0DD
S31520000FE000BF04E000BF02E000BF00E000BF07F141
S31520000FF01007BD4680BD00BF80B487B000AF7860C3
S315200010007A6848F61823C2F200039A4207D07A6813
S3152000101048F6F013C2F200039A4200D000BE7B6865
S31520001020DB68002B00D100BE7B681B69002B00D13A
S3152000103000BE7A6848F61823C2F200039A4206D008
S315200010407A6848F6F013C2F200039A4252D17B68BE
S31520001050DB68002B4ED07B681B69002B4AD07B684F
S315200010601B681B7DFB727B689A7AFB7A42EA030334
S31520001070DAB27B689A72FB7A03F02003002B29D020
S315200010804FF010033B617B681A697B685B69C3EB91
S3152000109002037B617B690F2B01D87B693B614FF093
S315200010A00003FB6012E07B681B687A68D1687A6867
S315200010B052690A4412781A707B685B6903F101024F
S315200010C07B685A61FB6803F10103FB60FA683B69A0
S315200010D09A42E8D37B685A697B681B699A4209D190
S315200010E07B684FF000021A617B685B684FF0000254
S315200010F0C3F8842007F11C07BD4680BC704700BF9B
S31520001100684620F007018D4689B500AF48F61820BD
S31520001110C2F20000FFF7E2FE4FF00A00FFF74CFD97
S31520001120BD46BDE889408546704700BF684620F029
S3152000113007018D4689B500AF48F6F010C2F20000CF
S31520001140FFF7CCFE4FF00B00FFF736FDBD46BDE89E
S3152000115089408546704700BF80B483B000AF034600
S31520001160FB804EF20013CEF20003B7F906204FEAB9
S315200011705212F98801F01F014FF0010000FA01F127
S3152000118002F1600243F8221007F10C07BD4680BC2D
S31520001190704700BF80B58AB000AF78607B681B6857
S315200011A01B68FB607B681B689B693B617B681B68CF
S315200011B05B687B617B681B689B6ABB617B681B687D
S315200011C01B6BFB617B681B685B6B3B627B681B68E8
S315200011D0DB697B627A6848F6C423C2F200039A422E
S315200011E02ED17A6841F20003C4F2000313607B68B3
S315200011F04FF00C029A8042F20003CEF2040342F230
S315200012000002CEF20402126B42F400721A634FF00F
S315200012100C00FFF7A1FF42F20003CEF2040342F2D4
S315200012200002CEF20402126B22F400721A637B686B
S315200012301B687A681268126822F000421A602DE054
S315200012407A6841F20003C4F2010313607B684FF011
S315200012500D029A8042F20003CEF2040342F200020B
S31520001260CEF20402126B42F480621A634FF00D0034
S31520001270FFF772FF42F20003CEF2040342F20002AD
S31520001280CEF20402126B22F480621A637B681B681A
S315200012907A681268126822F000421A60FB6823F00E
S315200012A00103FB607B681B68FA681A607B681B6811
S315200012B03A699A617B681B687A695A607B681B6801
S315200012C07A681268126842F001021A607B681B680D
S315200012D0BA699A627B681B68FA691A637B681B681D
S315200012E03A6A5A637B681B687A6ADA6107F12807CB
S315200012F0BD4680BD80B485B000AF78604FF0000356
S31520001300FB600EE07B681B687A6891687A681269D0
S315200013100A4412785A617B681B6903F101027B68D3
S315200013201A617B681B689B6803F48073002B05D1C8
S315200013307B681A697B68DB689A42E3D37B681A6903
S315200013407B68DB689A421CD30EE07B681B687A6850
S3152000135051697A68D2690A4412785A617B68DB69D6
S3152000136003F101027B68DA617B681B689B6803F4E2
S315200013708073002B05D17B68DA697B689B699A426A
S31520001380E3D37B685B6A002B1FD07B681A697B6876
S31520001390DB689A4219D37B68DA697B689B699A4233
S315200013A013D308E07B681B684FF000025A61FB6884
S315200013B003F10103FB607B681B689B6803F4807361
S315200013C0002B02D1FB681F2BECD907F11407BD4671
S315200013D080BC704780B584B000AF78607B6893F896
S315200013E08030022B15D10CE07B681B681B69FB60E3
S315200013F07B685B6F002B04D07B685B6FFA681046B6
S3152000140098477B681B689B6803F04003002BEBD052
S3152000141032E07B6893F88030012B25D117E07B687A
S315200014201B681B69FB607B681A6B7B68DB6A9A42C8
S3152000143007D27B689A6A7B681B6B1344FA68D2B220
S315200014401A707B681B6B03F101027B681A637B6849
S315200014501B689B6803F04003002BE0D00CE07B6800
S315200014601B681B69FB6000E000BF7B681B689B68EC
S3152000147003F04003002BF2D007F11007BD4680BDD4
S3152000148080B586B000AF78607B681B6803F12003C7
S315200014903B617A6848F6C423C2F200039A4207D019
S315200014A07A6848F64023C2F200039A4200D000BE72
S315200014B03B691B6803F00203002B52D07B6893F82C
S315200014C08030022B15D10CE07B681B681B69FB6002
S315200014D07B685B6F002B04D07B685B6FFA681046D5
S315200014E098477B681B689B6803F04003002BEBD072
S315200014F032E07B6893F88030012B25D117E07B689A
S315200015001B681B69FB607B681A6B7B68DB6A9A42E7
S3152000151007D27B689A6A7B681B6B1344FA68D2B23F
S315200015201A707B681B6B03F101027B681A637B6868
S315200015301B689B6803F04003002BE0D00CE07B681F
S315200015401B681B69FB6000E000BF7B681B689B680B
S3152000155003F04003002BF2D07B681B684FF0020299
S31520001560DA603B691B6803F00103DBB2002B12D063
S315200015707B6893F88030022B05D17B681B687A68DC
S31520001580926F5A6102E07868FFF7B4FE7B681B68A9
S315200015904FF00102DA603B691B6803F01003002B51
S315200015A023D07868FFF716FF7B681B6A002B0BD0C9
S315200015B07B681B6A7A68916A7A68126B08461146BC
S315200015C098477868FFF796FE7B684FF001025A62CB
S315200015D07B681B687A681268926A22F010029A6207
S315200015E07B681B684FF01002DA603B691B6803F0CA
S315200015F00403002B0FD07B681B687A681268D26AB6
S3152000160042F00402DA627868FFF7C4FD7B681B6843
S315200016104FF00402DA603B691B6803F00803002BD5
S3152000162031D07B681B687A681268D26A42F0080259
S31520001630DA627B6893F88030022B13D17B681A68B4
S315200016407B681B68196840F2FF03CFF6007301EA36
S31520001650030343F4807313607B681B687A68926F78
S315200016605A610BE07B6893F88030012B06D17B68AA
S315200016704FF000021A617868FFF73CFE7B681B6812
S315200016804FF00802DA603B691B6803F02003002B49
S3152000169049D07868FFF79EFE7B681B6B7B617B6871
S315200016A01B6A002B1CD07B684FF000025A627B68B5
S315200016B04FF000025A617B684FF000029A617B6806
S315200016C04FF00002DA617B681B684FF01002DA6087
S315200016D07B681B687A681268926A42F010029A62E6
S315200016E07B684FF000021A617B681B687A68126873
S315200016F0D26A42F00C02DA627868FFF7FBFD7B685B
S315200017004FF000021A637B68DB6F002B06D07B68E4
S31520001710DB6F7A68926A1046796998477B681B68FE
S315200017204FF02002DA6007F11807BD4680BD00BFE2
S31520001730684620F007018D4689B500AF48F6C420DB
S31520001740C2F20000FFF79CFE4FF00C00FFF704FDED
S31520001750BD46BDE889408546704700BF684620F0F3
S3152000176007018D4689B500AF48F64020C2F2000039
S31520001770FFF786FE4FF00D00FFF7EEFCBD46BDE8F5
S3152000178089408546704700BF80B483B000AF0346CA
S31520001790FB804EF20013CEF20003B7F906204FEA83
S315200017A05212F98801F01F014FF0010000FA01F1F1
S315200017B002F1600243F8221007F10C07BD4680BCF7
S315200017C0704700BF80B582B000AF42F20003CEF270
S315200017D0040342F20002CEF20402126B42F480426B
S315200017E01A634FF000037B600EE07A6848F2C41358
S315200017F0C2F2000333F812301BB21846FFF7C4FFBB
S315200018007B6803F101037B607B681F2BEDD942F2D5
S315200018100003CEF2040342F20002CEF20402126B5F
S3152000182022F480421A6307F10807BD4680BD00BF37
S3152000183080B485B000AF03463960FB71FB79FB604D
S31520001840FB681F2B00D900BEFB681F2B08D8FA683F
S3152000185048F24413C2F2000353F822303A681A6061
S3152000186007F11407BD4680BC704700BF80B485B021
S3152000187000AF02460B46FA71BB71FB79FB60FB6831
S315200018801F2B00D900BEFB681F2B09D840F200038E
S31520001890C4F22623FA68B97902F5886243F8221041
S315200018A007F11407BD4680BC704700BF80B400AF67
S315200018B0BD4680BC704700BF80B58AB000AF48F2F5
S315200018C00423C2F20003BC460FCB8CE80F0042F281
S315200018D00003CEF204039B6C4FEA930303F0030349
S315200018E04FEA830307F12802134453F8283C3B614F
S315200018F042F20003CEF204039B6C4FEA131303F06B
S3152000190003034FEA830307F12802134453F8283CC4
S315200019107B6142F20003CEF204039B6C4FEA9313E1
S3152000192003F003034FEA830307F12802134453F815
S31520001930283CBB6142F20003CEF20403DB6C4FEA83
S31520001940132303F01F033B6242F20003CEF204038B
S31520001950DB6C4FEA533303F001037B623B6A03F1EE
S315200019600103FB617B6A002B03D0FB694FEA43032B
S31520001970FB6100F049F8024648F29843C2F20003A0
S315200019801A6048F29843C2F200031A683B69B2FB18
S31520001990F3F248F29C43C2F200031A6048F29843DD
S315200019A0C2F200031A687B69B2FBF3F248F2A04345
S315200019B0C2F200031A6048F29843C2F200031A6882
S315200019C0BB69B2FBF3F248F2A443C2F200031A60E9
S315200019D048F29843C2F200031A68FB69B2FBF3F29D
S315200019E048F2A843C2F200031A6048F29843C2F2B2
S315200019F000031A6848F29443C2F200031A6007F102
S31520001A002807BD4680BD00BF80B48BB000AF4FF025
S31520001A1000037B6040F61C03C6F20803BB6040F25D
S31520001A203023C6F20803FB60FB681B6823F0704373
S31520001A303B613A6941F2CF13C0F2A1539A4208D1D1
S31520001A404EF62C73C6F201037B617B691B687B60B3
S31520001A503DE0BB681A6844F24133C4F654439A42C7
S31520001A6035D140F64003C6F20803BB61BB691B684B
S31520001A70FB61FB6923F07F43FB61FA6940F2003387
S31520001A80C0F201039A4222D9FA694FF6FF73C0F2D7
S31520001A9001039A4208D841F22C63C6F208033B623E
S31520001AA03B6A1B687B6012E0FA694FF6FF73C0F24F
S31520001AB002039A4208D841F6AC63C6F208037B6259
S31520001AC07B6A1B687B6002E04FF000037B607B68CB
S31520001AD0002B05D100BE47F64003C0F27D137B6084
S31520001AE07B68184607F12C07BD4680BC704700BFAF
S31520001AF070B548F2784648F27845C2F20006C2F23E
S31520001B000005761BB61006D0002455F82430013483
S31520001B109847A642F9D848F2784548F27C46C2F260
S31520001B200005C2F20006761B06F09AFCB61006D017
S31520001B30002455F8243001349847A642F9D870BDC0
S31520001B4048F2AC430146C2F20003186803F0BCBB5E
S31520001B5048F2AC430146C2F20003186800F000B810
S31520001B602DE9F04F01F10B04162C83B006462FD831
S31520001B70002310248C422CBF194643F00101002972
S31520001B8030D1304600F0F0FBB4F5FC7F2ED24FEA80
S31520001B90D40E48F2A055C2F2000505EBCE02D3685A
S31520001BA0934200F006825A6803F10805D968304648
S31520001BB022F0030C9A6863445C688A6044F001044E
S31520001BC0D1605C6000F0D2FB284603B0BDE8F08F00
S31520001BD024F00704E30F8C422CBF194643F0010181
S31520001BE00029CED00C2300253360EDE75FEA542E82
S31520001BF004BF4FEAD40E4FEACE0040F0908048F260
S31520001C00A055C2F200052818C368984206D10DE0F7
S31520001C10002A80F26F81DB68984207D0596821F04C
S31520001C2003010A1B0F2AF3DD0EF1FF3E0EF1010E12
S31520001C3048F2A057C2F2000707F108018B689942C3
S31520001C4008BF7A6826D05A6822F0030CC4EB0C022F
S31520001C500F2A00F39481002AC960896080F2998056
S31520001C60BCF5007F80F065814FEADC0C4FF0010A5D
S31520001C707A6807EBCC004FEAAC0C0AFA0CFCD86069
S31520001C80D0F808804CEA02027A60C3F80880C8F8C7
S31520001C900C3083604FF0010C4FEAAE030CFA03FCC4
S31520001CA0944500F2828012EA0C0F08D12EF0030E22
S31520001CB04FEA4C0C0EF1040E12EA0C0FF8D007EB8B
S31520001CC0CE09F246C846D8F80C30984507D168E1C7
S31520001CD0002A80F27881DB68984500F06281586896
S31520001CE020F00300021B0F2AF2DD1D461F19D3F830
S31520001CF00CC044F0010E55F8084F3046BA5042F059
S31520001D000102C3F804E0CCF80840C4F80CC08F6088
S31520001D10CF607A60B960F96000F028FB54E7BEF125
S31520001D20040F9EBF4FEA941E0EF1380E4FEACE00E6
S31520001D307FF665AFBEF1140F9CBF0EF15B0E4FEA26
S31520001D40CE007FF65CAFBEF1540F9EBF4FEA143E25
S31520001D500EF16E0E4FEACE007FF651AFBEF5AA7F8A
S31520001D609EBF4FEAD43E0EF1770E4FEACE007FF6A5
S31520001D7046AF40F254539E4595BF4FEA944E4FF4DA
S31520001D807C700EF17C0E4FF07E0E98BF4FEACE008F
S31520001D9035E703EB0C0203F108053046536843F0A0
S31520001DA00103536000F0E2FA0EE7D7F80880D8F86E
S31520001DB0043023F00309C4EB09024C4594BF0023E9
S31520001DC001230F2AD8BF43F00103002B00F0A18086
S31520001DD048F6BC1BD5F80824C2F2000BDBF800300D
S31520001DE010331B19B2F1FF3F06D003F57E631F3374
S31520001DF023F47E6323F01F0319463046019300F037
S31520001E002DFB019BB0F1FF3F824600F0F48008EBEA
S31520001E100901814200F2EC80DBF804209A18514532
S31520001E20CBF8042000F04581D5F8085448F2A0509C
S31520001E30C2F20000B5F1FF3F08BFC0F808A403D0E6
S31520001E405244511ACBF804101AF00705304617BF32
S31520001E50C5F108054FF48055AA4405F5805553442D
S31520001E601B051B0DED1A294600F0F8FAB0F1FF3FCD
S31520001E7000F02C81CAEB0001491941F00101DBF881
S31520001E80042048F6BC13C7F808A0C2F20003AA181B
S31520001E90B845CBF80420CAF8041017D0B9F10F0FB3
S31520001EA040F2DF80A9F10C01052521F0070108EB9E
S31520001EB001000F2985604560D8F8040000F0010074
S31520001EC041EA0000C8F8040000F2AC80D04648F68B
S31520001ED0BC13DBF82C10C2F200038A42DBF8301068
S31520001EE088BFDA6248F6BC13C2F200038A4288BF72
S31520001EF01A6382E05C189A68D9683046666803F1EE
S31520001F0008058A6046F00103D160636000F02EFA6E
S31520001F105AE608EB040342F0010244F0010430467D
S31520001F20C8F8044008F108055A60BB6000F01EFAA4
S31520001F304AE64FEA5C22042A54D9142A00F2898000
S31520001F405B324FEAC208A84448F2A057C2F2000703
S31520001F50D8F80800404503D16FE08068804504D05A
S31520001F60426822F003029445F7D3D0F80CC0C3F898
S31520001F700CC098607A68C360CCF808308AE61F19CE
S31520001F80304644F00104CF605C6003F10805BA5086
S31520001F9042F001028F607A60B960F96000F0E6F9DC
S31520001FA012E60AF1010A1AF0030F5FD003F10808BE
S31520001FB089E603F10802D3689A4208BF0EF1020EA1
S31520001FC03FF436AEEFE51D461918DA68304655F867
S31520001FD0083F4C68936044F00104DA604C6000F0DE
S31520001FE0C5F9F1E54FEA9C1238324FEAC208AAE752
S31520001FF0B8453FF411AFD7F80880D8F8042022F06E
S315200020000302944294BF00230123121B0F2AD8BF38
S3152000201043F00103002B3FF47CAF3046002500F04F
S31520002020A5F9D1E508F108013046019303F04CF9F2
S31520002030019BD7F808805A6849E74FF0010AD7F87C
S315200020400480921084460AFA02F248EA02027A6072
S315200020508DE7542A24D84FEA1C326E324FEAC20842
S3152000206071E70123D046CAF80430C6E74A461EF077
S31520002070030F13460EF1FF3E33D053F808299A4238
S31520002080F5D07B684FEA4C0C9C453FF68EAEBCF1F2
S31520002090000F3FF48AAE1CEA030F27D0D6460EE681
S315200020A0B2F5AA7F15D84FEADC3277324FEAC2085A
S315200020B049E70805000D00287FF4B6AED7F808805A
S315200020C04B4443F00103C8F8043000E70121002502
S315200020D0D5E640F2545082420DD94FF47C787E22C8
S315200020E031E77B6823EA0C037B60CBE74FEA4C0C95
S315200020F00AF1040ACFE74FEA9C427C324FEAC20833
S3152000210021E700BF032A2DE9F0070BD83AB10023B7
S3152000211011F803C000F803C001339342F8D1BDE89B
S31520002120F007704782180C46034603E014F8011C9A
S3152000213003F8011C03F003061946A44601330134B3
S31520002140002EF3D11CF00304634608BFC1EB020C3A
S3152000215068D06542C4F1040A0CEB050733464FEA02
S31520002160CA0A5CF805604FEAC408551A08E057F811
S31520002170044F264604FA0AF449EA0404CC500433F0
S315200021805C18032D26FA08F9A5F104050CEB0306C5
S31520002190EDDC002302E0F15CE15401331919914290
S315200021A0F9D3BCE753F8404C41F8404C53F83C4C2B
S315200021B041F83C4C53F8384C41F8384C53F8344CE1
S315200021C041F8344C53F8304C41F8304C53F82C4CF1
S315200021D041F82C4C53F8284C41F8284C53F8244C01
S315200021E041F8244C53F8204C41F8204C53F81C4C11
S315200021F041F81C4C53F8184C41F8184C53F8144C21
S3152000220041F8144C53F8104C41F8104C53F80C4C30
S3152000221041F80C4C53F8084C41F8084C53F8044C40
S3152000222041F8044C1C460D4640334031BCF13F0F6B
S31520002230ACF1400CB6DC21462B46541B0FE051F87E
S31520002240105C43F8105C51F80C5C43F80C5C51F8B8
S31520002250085C43F8085C51F8045C43F8045C0F2CD6
S315200022600D469C4601F1100103F11003A4F1100460
S31520002270E5DCCCEB0201002303E0EC584CF80340EC
S3152000228004335E19032903EB0C04A1F10401F4DCE9
S315200022907FE700BF032AC9B230B407D822B1002392
S315200022A0C15401339342FBD130BC704700EB020C82
S315200022B0034601E003F8011C03F003041A46013328
S315200022C0002CF7D14FF00133C2EB0C0403FB01F3D2
S315200022D01FE042F8403C42F83C3C42F8383C42F889
S315200022E0343C42F8303C42F82C3C42F8283C42F838
S315200022F0243C42F8203C42F81C3C42F8183C42F868
S31520002300143C42F8103C42F80C3C42F8083C42F897
S31520002310043C154640323F2CA4F14004D9DC2A4621
S31520002320C5EB0C0407E042F8103C42F80C3C42F89E
S31520002330083C42F8043C154610320F2CA4F1100438
S31520002340F1DC2A46C5EB0C0501E042F8043C1446B4
S315200023500432032DA5F10405F7DC01E004F8011B86
S315200023606445FBD3A0E700BF704700BF704700BF9E
S315200023700FB448F2AC43C2F2000310B51C6882B019
S3152000238024B1A36913B9204602F01AFF204605ACF2
S31520002390049A23468168019400F0B2F802B0BDE8A1
S315200023A0104004B0704700BF0EB410B5044683B089
S315200023B018B183690BB902F003FF204606AC059AD3
S315200023C023468168019400F09BF803B0BDE81040D5
S315200023D003B0704730B5044689B008460D4600F074
S315200023E051F848F21C230195C2F200030393029090
S315200023F0431C07930123049301AB05930223069301
S315200024000CB1A369EBB148F2AC432046C2F20003FB
S315200024101B689B689A8912F4005F01BF42F4005240
S315200024209A81596E21F40052A16808BF5A6605AAFE
S3152000243003F02AF8002814BF4FF0FF300A2009B015
S3152000244030BD204602F0BCFEDDE700BF48F2AC43BB
S315200024500146C2F200031868BCE700BF38B548F64B
S315200024604834C2F200040546084600232360FEF7DE
S3152000247059FBB0F1FF3F00D038BD2368002BFBD0BD
S315200024802B6038BD20F0030110F00300C0F10000DE
S3152000249051F8043B00F1040C4FEACC0C6FF000021B
S315200024A01CBF22FA0CF213434FF0010C4CEA0C2C01
S315200024B04CEA0C4CA3EB0C0222EA030212EACC12E1
S315200024C004BF51F8043B0430F4D013F0FF0F1FBFB4
S315200024D0013013F47F4F013013F47F0F18BF013002
S315200024E0704700BF936810B5144613B95360184659
S315200024F010BD02F0C9FF00236360A36010BD00BFBA
S315200025002DE9F04FADF5AE6D83B00E4615469A46D1
S31520002510814603F0A9F900681D90B9F1000F04D097
S31520002520D9F81830002B00F05A8148F29423C2F2D1
S3152000253000039E4208BFD9F8046010D048F2B423A5
S31520002540C2F200039E4208BFD9F8086007D048F2BD
S31520002550D423C2F200039E4208BFD9F80C60B6F815
S315200025600CC01FFA8CF313F4005F09D14CF4005C05
S31520002570726EA6F80CC01FFA8CF322F40052726613
S3152000258013F0080F01F001833269002A01F0FD8261
S3152000259003F01A030A2B00F0E080002212921A920E
S315200025A000231C920DF59C641192043419920DF5AA
S315200025B0A4621B9304320DF59063283203331892DC
S315200025C007930023CDF84C45CDF85035CDF854353A
S315200025D02B781A1E18BF0122252B0CBF002202F0D1
S315200025E0010232B32F4617F8013F1A1E18BF0122E7
S315200025F0252B0CBF002202F00102002AF3D1B7EBF3
S31520002600050808BF3D4614D0C4F80480DDF85035CF
S31520002610DDF8542501332560072B4244CDF850358B
S31520002620CDF8542578DC083411983D464044119065
S315200026303B78002B7CD06B1C4FF0FF372B204FF0C4
S31520002640200C00214FF000020F918DF87725CDF850
S315200026502CA06A780A915D1CA2F12003582B00F267
S315200026608682DFE813F0980284028402A4028402A0
S3152000267084028402840284028402AD02BA028402A5
S31520002680C102CA028402E702F002F002F002F0025E
S31520002690F002F002F002F002F002840284028402C8
S315200026A08402840284028402840284028402040353
S315200026B026038402260384028402840284026A0397
S315200026C084028402810484028402840284028402B5
S315200026D01404840284022F04840284028402840265
S315200026E08402840284028402840284024F046504E4
S315200026F026032603260373036504840284027903D2
S31520002700840285039603AD030A048402CC03840263
S31520002710F40384028402C0000DF5A86248463146BF
S315200027200C32FFF7DFFE58B90DF59C6404347BE7C5
S31520002730DDF85435002B41F092810023CDF8503539
S31520002740B38913F0400F02D04FF0FF30119011984B
S315200027505FB00DF5806DBDE8F08FB6F90E30002B19
S31520002760FFF61BAF376A2CF0020CD6F828E00DF5E1
S315200027708E64ADF888C40C34B6F80EC02A4653468B
S31520002780484621461FADCDF89C740027CDF88C54C1
S31520002790CDF87C544FF48065CDF8A4E4ADF88AC416
S315200027A0CDF89054CDF89474CDF88454FFF7A8FE54
S315200027B00028119009DB2146484602F091FB119929
S315200027C0B84218BF4FF0FF311191BDF8883413F08D
S315200027D0400FBCD0B38943F04003B381B7E74846E6
S315200027E002F0EEFCA1E60A9848F2642CC2F2000C34
S315200027F0169210F0200FCDF864C000F06E830B996E
S31520002800CB1D23F0070303F108020B92D3E900AB9B
S315200028105AEA0B020A9B0CBF00220122134240F007
S315200028206B8602234FF000018DF87715002FA2BF8B
S31520002830DDF828C02CF0800CCDF828C0002F18BF5A
S3152000284042F00102002A00F01E84012B00F0DE85F2
S31520002850022B00F0C185189913914FEADA084FEA46
S31520002860DB0C48EA4B780AF00700E346C2463030D4
S315200028705AEA0B0201F8010DEFD1DDF828C01391B9
S315200028801CF0010F40F08C861898401A10909DF885
S315200028907735109A1797BA42B8BF3A460C9213B1B9
S315200028A00C9A01320C920A9B0A9813F00203159394
S315200028B01EBFDDF830C00CF1020CCDF830C010F090
S315200028C0840014904DD10F990C9A8F1A002F48DD51
S315200028D0102F48F22028D8BFC2F2000830DDC2F2FD
S315200028E000080DF5A86B43464FF0100AA8460BF1D9
S315200028F00C0B1D4602E0103F102F1EDDC4F804A06D
S31520002900DDF85035DDF85425013325601032072BCC
S31520002910CDF8542504F10804CDF85035EBDD0DF53E
S315200029209C64484631465A460434FFF7DBFD0028AE
S315200029307FF406AF103F102FE0DC2B464546984625
S315200029406760DDF85035C4F800805A1CDDF8543530
S31520002950CDF85025DB19072ACDF8543500F38A85A2
S3152000296008349DF877359BB101236360DDF8503537
S315200029700DF5AE6207322260DDF854250133CDF81D
S3152000298050350132072BCDF8542500F3B684083490
S31520002990159B9BB102236360DDF850350DF5AE62C1
S315200029A004322260DDF854250133CDF85035023249
S315200029B0072BCDF8542500F3AF840834DDF850C03A
S315200029C0BCF1800F00F07683179B109A9F1A002F78
S315200029D043DD102FDFF88C8B2EDD43460DF5A86BDB
S315200029E0A8464FF0100A0BF10C0B1D4602E0103FD3
S315200029F0102F1EDDC4F804A0DDF85035DDF854256F
S31520002A00013325601032072BCDF8542504F1080434
S31520002A10CDF85035EBDD0DF59C64484631465A46D7
S31520002A200434FFF75FFD00287FF48AAE103F102F95
S31520002A30E0DC2B46454698466760DDF85035DDF8E4
S31520002A4054250133C4F80080D219072BCDF854251C
S31520002A50CDF8503500F342840834DDF828C01CF444
S31520002A60807F40F09D82109813996060DDF8503584
S31520002A70DDF85425013321601218072BCDF8503587
S31520002A80D8BF04F10803CDF8542500F39B830A9997
S31520002A9011F0040F55D00F9ADDF830C0CCEB0207A9
S31520002AA0002F4EDD102F48F22028D8BFC2F2000892
S31520002AB02EDDC2F200080DF5A86A42461024A8466B
S31520002AC00AF10C0A154602E0103F102F1DDD5C604E
S31520002AD0DDF85025DDF8541501321D601031072A26
S31520002AE0CDF8541503F10803CDF85025ECDD484602
S31520002AF031465246FFF7F6FC0DF59C630433002859
S31520002B007FF41EAE103F102FE1DC2A464546904644
S31520002B105F60DDF85025C3F80080DDF854350132BA
S31520002B20CDF85025FB18072ACDF854350BDD0DF5C9
S31520002B30A862484631460C32FFF7D4FC00287FF4C1
S31520002B40FFADDDF8543511980C9A0F998A42ACBF27
S31520002B50801840181190002B40F042830DF59C649C
S31520002B600023DDF82CA00434CDF8503530E516923C
S31520002B70002A3FF4DDAD0DF5A46001234FF0000CD3
S31520002B8004300C938DF824258DF877C51390109377
S31520002B900021179187E69DF87735002B40F02B858D
S31520002BA00B992B468DF877C52A780B9153E50B990F
S31520002BB00A9B43F001030A932B462A780B914AE598
S31520002BC00B990B9A09680F91111D0F9B002BC0F2D0
S31520002BD080872A782B460B913DE50B992B468DF85D
S31520002BE077052A780B9136E50B990A9B43F0040367
S31520002BF00A932B462A780B912DE52B4613F8012BA9
S31520002C002A2A01F0CD80A2F13001092901F237806C
S31520002C100235002715F8012C07EB87072B460135CF
S31520002C2001EB4707A2F130010929F3D947EAE777F3
S31520002C301D4611E50B992B460A9A42F080020A920C
S31520002C402A780B9107E5A2F130014FF000082B46B8
S31520002C5008EB880813F8012B01EB4808A2F1300194
S31520002C601D460929F3D9CDF83C801D46F4E40A9B7C
S31520002C70169243F010030A93DDF828C01CF0200FAB
S31520002C8000F05D810B98C31D23F0070303F10801B3
S31520002C900B91D3E900ABBAF1000F7BF10002C0F231
S31520002CA09B845AEA0B034FF001030CBF002201223A
S31520002CB0BCE50A98169210F0080F00F0ED840B99E7
S31520002CC0CB1D23F0070303F108020B92D3F80480EF
S31520002CD0D3F800A0CDF86C80CDF848A050464146E8
S31520002CE003F080FD8346002800F099855046002297
S31520002CF00023414604F034FD002840F00B859DF862
S31520002D00773548F2582148F254221698C2F200012B
S31520002D10C2F200024FF0030C4728D8BF1146139188
S31520002D200A99CDF830C021F08001CDF840C00A9133
S31520002D304FF0000CCDF85CC0B1E50B990A9B43F02F
S31520002D4008030A932B462A780B9184E40A9941F0CA
S31520002D5040010A910B993CE72A786C2A00F05585A8
S31520002D600B990A9B0B9143F010030A932B4672E4AE
S31520002D700A9A12F0200F00F082840B98119A0368A9
S31520002D8010464FEAE0710B9AC3E9000102F1040AEA
S31520002D901EE416920A9A12F0200300F0EF800B9B95
S31520002DA0DA1D002322F0070202F1080CCDF82CC010
S31520002DB0D2E900AB5AEA0B000CBF0022012231E512
S31520002DC00B987821DDF828C01691036848F2642014
S31520002DD08DF8751530218DF874154CF0020C0B9971
S31520002DE01A1E18BF0122C2F200009A464FF0000BAD
S31520002DF00431CDF828C0199002230B9112E50B9BC4
S31520002E0016924FF00002181D8DF877251B680B903F
S31520002E101393002B00F0C686002F1398C0F28F86DE
S31520002E2000213A4602F0C2FD0346002800F0F5864E
S31520002E3013981B1A1093BB4240F3BE8510970021AE
S31520002E4027EAE7779DF877350C97179127E5DDF880
S31520002E5028C016921CF0200F23D00B980123C21DE8
S31520002E6022F0070202F108010B91D2E900AB5AEADF
S31520002E700B020CBF00220122D4E40A992B4641F012
S31520002E8020010A910B992A780B91FFF7E4BB0A9B44
S31520002E90169243F010030A93DDF828C01CF0200F89
S31520002EA0DBD10A9B13F0100F00F0D5830B9801237A
S31520002EB0021D0B9201680A1E18BF01228A464FF096
S31520002EC0000BAFE40A98169248F2402210F0200F29
S31520002ED0C2F2000219927FF492AC0A9B13F0100FF3
S31520002EE040F01A830A9A12F0400F00F015830B9BCC
S31520002EF003F1040CCDF82CC0B3F800A0D2464FF055
S31520002F00000B85E416920DF5A4610B9A4FF0010C87
S31520002F104FF000000431CDF830C0136804328DF82C
S31520002F2077050B921391CDF840C08DF824352FE606
S31520002F30DDF828C016921CF0200F7FF4A3AE0A9A63
S31520002F4012F0100F40F0F1820A9A12F0400F00F0B2
S31520002F50EC820B9B03F1040CCDF82CC0B3F900A036
S31520002F60D2464FEAEA7B96E60A99169241F010017C
S31520002F700A910A9A12F020037FF411AF0A9911F0F0
S31520002F80100200F054830B9A02F1040CCDF82CC0E9
S31520002F9011680A1E18BF01228A464FF0000B41E431
S31520002FA0169A652A40F328811298002200231B993D
S31520002FB004F0CCFB002800F0BE8101236360DDF81D
S31520002FC0502548F28023C2F200032360DDF85435F1
S31520002FD00132CDF850250133072ACDF85435D8BF14
S31520002FE004F1080300F39B83DDF870251A988242CA
S31520002FF004DB0A9911F0010F3FF449AD01225A6012
S31520003000DDF85025DDF8541501321D980131072AC7
S31520003010CDF854151860CDF8502500F35F85083398
S315200030201A994F1E002F7FF732AD102FDFF8348507
S3152000303040F3EA8242460DF5A86AA84610240AF112
S315200030400C0A154603E0103F102F40F3DA825C602D
S31520003050DDF85025DDF8541501321D601031072AA0
S31520003060CDF8541503F10803CDF85025EBDD48467D
S3152000307031465246FFF736FA0DF59C630433002895
S31520003080E1D0FFF75DBB7BB90A9911F0010F0BD098
S315200030900DF5A462302304328DF84B3527320123F7
S315200030A013921093FFF7F3BB1898002110911390F9
S315200030B0FFF7EDBB0F980C99471A002F7FF784ACCA
S315200030C0102FDFF8A0842EDD43460DF5A86BA84609
S315200030D04FF0100A0BF10C0B1D4602E0103F102F8B
S315200030E01EDDC4F804A0DDF85035DDF85425013383
S315200030F025601032072BCDF8542504F10804CDF8AD
S315200031005035EBDD0DF59C64484631465A4604346D
S31520003110FFF7E8F900287FF413AB103F102FE0DC0F
S315200031202B46454698466760DDF85035C4F8008042
S315200031305A1CDDF85435CDF85025DB19072ACDF871
S31520003140543500F33A8208343EE413996360DDF87F
S3152000315050252160DDF854150132CDF85025CB18C5
S31520003160072ACDF8543500F3498508341D9A0123E2
S31520003170DDF870756360DDF850352260DDF8542582
S315200031800133CDF850350132072BCDF85425D8BF61
S3152000319004F1080300F323851398DDF87025C71979
S315200031A01A981F60811A5960DDF854158A1ADDF8BD
S315200031B050151218CDF854250131CDF85015072990
S315200031C040F332820DF5A862484631460C32FFF7AD
S315200031D089F900287FF4B4AA0DF59C63043356E4DC
S315200031E00DF5A862484631460C32FFF77BF90028D8
S315200031F03FF4B4ACFFF7A4BA1A9901294CDD012398
S315200032006360DDF85035DDF854250133139801321B
S31520003210072BCDF854252060CDF8503500F3B28128
S31520003220083401236360DDF85035DDF85425013379
S315200032301D990132072BCDF854252160CDF8503544
S3152000324000F3928108341298002200231B9904F07F
S315200032507DFA002840F01D811A9B13985A1E626041
S31520003260DDF85035411C2160DDF854150133CDF8C9
S3152000327050358A18072BCDF8542521DC08341C9BA1
S315200032800DF5AC621C9822606360DDF85035DDF8E0
S3152000329054250133FFF7F0BB0A9A12F0010FAED185
S315200032A0139A01236360DDF850352260DDF854253A
S315200032B00133CDF850350132072BCDF85425DDDD0D
S315200032C00DF5A862484631460C32FFF70BF9002867
S315200032D07FF436AA0DF59C640434D0E70DF5A86278
S315200032E0484631460C32FFF7FDF800287FF428AA1D
S315200032F00DF59C640434FFF7B0BB0DF5A862484673
S3152000330031460C32FFF7EEF800287FF419AA0DF5A6
S315200033109C640434FFF73CBB0DF5A8624846314651
S315200033200C32FFF7DFF800287FF40AAA0DF59C641B
S315200033300434FFF743BBDDF87035002B40F3FD81E5
S315200033401A998B42FFF601AF139A6160DDF850356A
S315200033502260DDF854250133CDF850355218072B5D
S31520003360CDF85425D8BF04F1080300F32984DDF8ED
S3152000337070451A98241A002C40F3B381102CDFF8DC
S31520003380E48140F39D8142460DF5A86AA8461027A0
S315200033900AF10C0A154603E0103C102C40F38D81EF
S315200033A05F60DDF85025DDF8541501321D601031BF
S315200033B0072ACDF8541503F10803CDF85025EBDD87
S315200033C0484631465246FFF78DF80DF59C63043387
S315200033D00028E1D0FFF7B4B9189A1998134613922A
S315200033E00AF00F024FEA1A1141EA0B714FEA1B1C31
S315200033F0825C8A46E3465AEA0B0C03F8012DEFD18C
S3152000340018981393C01A1090FFF741BA0922002387
S31520003410524573EB0B00DDF860801FD223464446ED
S31520003420B8461F46504659460A22002304F0E8F9BA
S3152000343000235046594602F1300C0A2204F801CDE9
S3152000344004F0DEF90922002382468B46524573EBAF
S315200034500B03E7D33B464746A0461C4608F1FF3000
S315200034600AF1300A139008F801AC1899091A10913C
S31520003470FFF70DBA0DF5A862484631460C32FFF724
S3152000348031F800287FF45CA90DF59C640434FFF71D
S3152000349068BA1A994F1E002F7FF7F1AE102FDFF86A
S315200034A0C4804EDD43460DF5A86BA8464FF0100AA2
S315200034B00BF10C0B1D4602E0103F102F3EDDC4F829
S315200034C004A0DDF85035DDF854250133256010328F
S315200034D0072BCDF8542504F10804CDF85035EBDD43
S315200034E00DF59C64484631465A460434FEF7FAFFE9
S315200034F00028E1D0FFF724B916983021DDF828C03E
S31520003500012202238DF874154CF0020C8DF87505F6
S31520003510CDF828C0FFF786B90B98011D03680B91DB
S315200035209A464FF0000BFFF773B90B98011D0368FD
S315200035300B919A464FEAEA7BFFF7ADBB2B464546F1
S3152000354098466760DDF85035DDF854250133C4F818
S315200035500080D219072BCDF85425CDF850357FF7AA
S315200035608DAEADE6308200200DF5A8624846314684
S315200035700C32FEF7B7FF00287FF4E2A80DF59C6415
S31520003580043460E60DF5A862484631460C32FEF753
S31520003590A9FF00287FF4D4A80DF59C64043440E6E6
S315200035A0302800F0EC821398302300F8013D18995A
S315200035B01390091A1091FFF76AB90DF5A8624846CB
S315200035C031460C32FEF78EFF00287FF4B9A80DF5A0
S315200035D09C640434FFF7F8B9DAF1000A6BEB4B0B65
S315200035E02D235AEA0B0C8DF877350CBF00220122C9
S315200035F00123FFF71BB90B992B462A780B91FFF76E
S315200036002AB82A46454690465F60DDF85025DDF803
S3152000361054150132C3F80080C919072ACDF854156C
S31520003620CDF850253FF7CEAD0833FFF730BA0A98CC
S3152000363010F0400300F0ED810B9913460A1D0B9202
S31520003640B1F800A0BAF1000218BF0122D2464FF00D
S31520003650000BFFF7E7B80A9B13F0400F00F0CC8170
S315200036600B980123011D0B91B0F800A0BAF10002BE
S3152000367018BF0122D2464FF0000BFFF7D3B80A9BA2
S3152000368013F0100F00F0A4810B98119900F1040A91
S3152000369003681960FEF79CBF0B98C31D23F0070330
S315200036A003F108010B91D3F80480D3F800A0CDF8DC
S315200036B06C80CDF848A0FFF711BB2A4645469046B8
S315200036C05C60DDF85025DDF854150132C3F8008022
S315200036D00919072ACDF85415CDF8502500F3EA82AA
S315200036E008330A9911F0010F3FF4D1A901225A603B
S315200036F0DDF85025DDF8541501321D980131072AD1
S31520003700CDF854151860CDF850253FF75BAD08333A
S31520003710FFF7BDB92D238DF87735FFF7F2BA0DF5F2
S31520003720A862484631460C32FEF7DCFE00287FF4BC
S3152000373007A80DF59C63043356E401236360DDF886
S31520003740502548F28023C2F200032360DDF8543569
S315200037500132CDF850250133072ACDF85435D8BF8C
S3152000376004F1080300F38781DDF870253AB91A9A27
S315200037702AB9DDF828C01CF0010F3FF488A90122E0
S315200037805A60DDF85025DDF8541501321D980131B7
S31520003790072ACDF854151860CDF8502500F3798105
S315200037A00833DDF870757F42002F40F3B381102F68
S315200037B0DFF8508640F3D28142460DF5A86AA84626
S315200037C010240AF10C0A154603E0103F102F40F38F
S315200037D0C2815C60DDF85025DDF8541501321D608C
S315200037E01031072ACDF8541503F10803CDF85025DA
S315200037F0EBDD484631465246FEF774FE0DF59C63D6
S3152000380004330028E1D0FEF79BBF0B996B1C0A9A64
S3152000381042F020020A926A780B91FEF71CBF5046AE
S31520003820414602F0F1FF002840F0FF80B7F1FF3F4C
S3152000383000F051821698672814BF002301234728D9
S3152000384008BF43F0010313B1002F08BF01270DF570
S31520003850AB60434652460A99C0E90023DDF85C3541
S3152000386041F480710A91002BC0F2648200211791E5
S315200038701698662814BF00230123462808BF43F064
S3152000388001031093002B00F0D181BC460323CDF811
S3152000389030A00DF5AE61CDF83480484600930291F4
S315200038A00DF5AC61DDE90C230C31CDF804C0039194
S315200038B00DF5AD61CDF824C0049100F0C5FB169A34
S315200038C0DDF824C0B2F1670318BF0123472A0CBFD5
S315200038D0002303F00103139033B90A9B13F0010F61
S315200038E008BFDDF868B516D01398109900EB0C0BBD
S315200038F031B10378302B00F0DA80DDF870359B4447
S31520003900504600220023414603F020FF002800F005
S31520003910C281CDF868B5169A1398672A14BF00237A
S315200039200123472A08BF43F00103C0EB0B001A907E
S31520003930002B00F08A81DDF8701511F1030F10912C
S3152000394002DB8F4280F28C81169A023A16921099E7
S31520003950169A4B1ECDF87035002B8DF86025C0F2D7
S3152000396034822B228DF86125092B00F3B6810DF5C3
S31520003970AC62303304328DF8633530238DF86235EE
S315200039800DF5AC631A981A99D31A18181C930129A5
S31520003990109040F3108210980130109020EAE071C8
S315200039A00C911798002800F06E812D2300218DF8A8
S315200039B077351791FEF774BF109A4FF0000C9DF8DB
S315200039C0773522EAE272CDF85CC00C92FEF767BF2B
S315200039D00A9A12F0400F17BF0B980B9A119900F113
S315200039E0040A11BF036802F1040A1368119814BF70
S315200039F019801860FEF7ECBD0B9A131D0B93116806
S31520003A0001230A1E18BF01228A464FF0000BFEF73B
S31520003A1009BF0B98021D0B9201680A1E18BF0122CE
S31520003A208A464FF0000BFEF7FDBE48F2602248F2B0
S31520003A305C231699C2F20003C2F200020320472932
S31520003A40D8BF1A4613920A9A0C9022F08002CDF81B
S31520003A505CB00A929DF877351090FEF720BF0DF5E1
S31520003A60A862484631460C32FEF73CFD00287EF41B
S31520003A7067AEFEF762BE0DF5A862484631460C32A7
S31520003A80FEF730FD00287EF45BAE0DF59C63043313
S31520003A906AE60DF5A862484631460C32FEF722FD4D
S31520003AA000287EF44DAE0DF59C63043379E650462E
S31520003AB0002200234146CDF824C003F047FEDDF85E
S31520003AC024C000287FF419AFCCF10103CDF870355E
S31520003AD015E70F9A52420F92FFF787B80DF5A862A5
S31520003AE0484631460C32FEF7FDFC00287EF428AE0F
S31520003AF00DF59C630433FFF793BA0DF5A86248468B
S31520003B0031460C32FEF7EEFC00287EF419AE0DF598
S31520003B109C6304331A9913985960DDF85025DDF813
S31520003B205415186001321A98CDF850250918072A1D
S31520003B30CDF854153FF746AB0833FEF7A8BF002152
S31520003B401791FEF79FFC9DF8773520EAE0721090DA
S31520003B500C92FEF7A4BE2A46454690465F60DDF8E5
S31520003B605025DDF854150132C3F80080C919072AFB
S31520003B70CDF85415CDF85025BFDC0833CAE7189A7E
S31520003B801399511A1091FEF782BE4846314600F02D
S31520003B9049F900287EF4D8ADB6F80CC01FFA8CF38C
S31520003BA0FEF7F6BC062F28BF062748F27821C2F278
S31520003BB0000127EAE772109713910C92FEF7E8BFEF
S31520003BC00DF5A862484631460C32FEF78BFC0028DC
S31520003BD07EF4B6AD0DF59C630433FFF7C8BB0DF537
S31520003BE0A862484631460C32FEF77CFC00287EF45B
S31520003BF0A7AD0DF59C630433FFF7CEBA0DF5A86289
S31520003C00484631460C32FEF76DFC00287EF498AD0E
S31520003C100DF59C640434FFF7A9BA109727EAE777D5
S31520003C2017900C979DF87735FEF739BE16996529BA
S31520003C3014BF00230123452908BF43F00103002BAD
S31520003C4046D007F1010C022321E6169B652B76DD73
S31520003C50169A662A1CBFDDF87035109300F0838013
S31520003C601A9B109883426EDC0A9911F0010F40F0DE
S31520003C708E8020EAE07267230C92169391E6002745
S31520003C801D46FEF7E9BC10999DF8773521EAE171CA
S31520003C900C91FEF704BEDDF868359B4598BF9B4620
S31520003CA07FF639AE302203F8012B9B45CDF86835D7
S31520003CB0F9D830E60DF5A862484631460C32FEF7B3
S31520003CC011FC00287EF43CAD0DF59C63043308E519
S31520003CD0BC460233DBE50737B9E546F2676C0DF5DE
S31520003CE090610331C6F2666C8CFB0320DA17C2EBB7
S31520003CF0A00202EB8200A3EB400013463030092AD3
S31520003D0001F8010DF0DC3033481EDAB201F8012C3F
S31520003D10079B83426AD90DF5AC63033301E011F8A2
S31520003D20012B03F8012C1A46DDF81CC001338C4503
S31520003D30F5D825E62D2208F10048179298E5DDF8FA
S31520003D407005109003E6109B1A99002BDABF109885
S31520003D50C0F1020301235B186722109323EAE37361
S31520003D6016920C931DE6DDF870050028109031DDC3
S31520003D701FB90A9911F0010F0ED0109866211691DD
S31520003D80431CDB19109323EAE3720C9209E6109880
S31520003D90672116910130109020EAE0720C9200E61D
S31520003DA00B991A780F6804310B91002FB8BF4FF08A
S31520003DB0FF37FEF750BC0A9A12F0010F04BF20EA23
S31520003DC0E0730C933FF4EDADE5E52D225B428DF8D3
S31520003DD06125C9E577B90A9B13F0010F0AD14FF087
S31520003DE0010CCDF830C0CDF840C0DAE50DF5AC6257
S31520003DF00232C5E50237662127EAE7721097169147
S31520003E000C92CEE53082002010B448F2AC44C2F2C7
S31520003E1000048C46134601466246206810BCFEF715
S31520003E206FBB00BF70B548F2AC45C2F2000506462E
S31520003E300C46286810B18369002B36D048F29423AB
S31520003E40C2F200039C4238D048F2B423C2F20003E7
S31520003E509C4241D048F2D423C2F200039C4204BFC4
S31520003E602B68DC68A289114693B213F0080F184616
S31520003E7018BF226933D01AB313F0010107D0636942
S31520003E800021A1605B42A36142B1002070BD13F006
S31520003E90020F08BF6169A160002AF6D1A38913F039
S31520003EA0800FF2D04FF0FF3070BD01F089F948F253
S31520003EB09423C2F200039C42C6D12B685C68D1E7EA
S31520003EC003F42071B1F5007FD6D03046214601F0AB
S31520003ED0FFFCA3892269CFE72B689C68C2E713F011
S31520003EE0100FDFD013F0040F08BF226917D0616BC3
S31520003EF051B104F14403994203D0304601F0E4F96C
S31520003F00A28990B20023636322694FF6DB71C0F267
S31520003F100001002300EA01016360A181226041F0D3
S31520003F200803A3819BB2A6E72DE9F84F03690E6922
S31520003F30824689469E4200F38380F21C01F11405D5
S31520003F4000F11404013E92008B18121803F10408A4
S31520003F5059685068013102F09BFE0746002839D087
S31520003F6000239C461A46E958E0581FFA81FE4FEA7C
S31520003F70114B81B20EFB07CE51180BFB07FC0CEB45
S31520003F801E4C1FFA8EFECEEB01011FFA8CF24FEA71
S31520003F901C4CC2EB10421FFA81FE02EB21424EEA74
S31520003FA00241E1500433121459198845DBD2321DDF
S31520003FB00AEB8203596869B99C4209D25AF8222031
S31520003FC012B105E01A681AB9043B013E9C42F9D3A6
S31520003FD0CAF810604946504601F0D0FD00282CDB77
S31520003FE0002301379C46EA58E05891B2120C1FFA7A
S31520003FF080F9C2EB1042C1EB0901614402EB214278
S3152000400089B241EA0241E15004334FEA224C5A195F
S315200040109045E8D2321D0AEB8203596869B99C4261
S3152000402009D25AF8222012B105E01A681AB9043BBF
S31520004030013E9C42F9D3CAF810603846BDE8F88F95
S315200040400020BDE8F88F00BF2DE9F04F466AA1B0E9
S315200040500446904699462D9D002E00F02384326812
S3152000406082B1616A4FF0010C766820460B68566073
S315200040704A6819460CFA02F29A6001F0B9FE636AA0
S3152000408000221A60B9F1000638DB00232B6040F2CB
S315200040900003C7F6F0731A4606EA0303934217D0C5
S315200040A00022002340464946CDE9068903F04EFB0F
S315200040B0002829D02C9801232E990360002900F08E
S315200040C0D080794B581E2E9A136021B0BDE8F08F10
S315200040D02C9842F20F730360B8F1000F00F0958020
S315200040E048F29020C2F200002E990029EDD0C27825
S315200040F0C31C002AE7D000F10803E4E726F00046B7
S315200041000123B1462B60C2E72046DDE906231EA91E
S3152000411000911FA9019101F0BDFEC6F30A55834601
S31520004120002D7ED0DDE90601A5F57E751F9F073D92
S3152000413021F07F4323F4700343F07E51002341F4A2
S31520004140E001199340F200030022C3F6F87302F04F
S31520004150E1FE4FA3D3E9002303F090F84EA3D3E961
S31520004160002302F0D9FECDE90801284603F020F805
S315200041704BA3D3E9002303F081F802460B46DDE981
S31520004180080102F0C9FECDE9080103F011FB002267
S3152000419000230646DDE9080103F0E2FA40B1304685
S315200041A003F006F8DDE9082303F0D0FA00B9013E52
S315200041B0162E5BD901231893013FB7EB050A42BFA0
S315200041C0CAF1000ACDF83CA04FF0000A01D4002223
S315200041D00F92002EC0F27183B244002317961593D6
S315200041E02A9B092B62D8052B40F377862A9800272D
S315200041F004382A902A998B1E032B00F2DD83DFE8F0
S3152000420013F0A503D803D503C40326F07F4626F46E
S315200042107006002E7FF464AF48F28420C2F20000BC
S3152000422062E71F9F1E9BFB1803F586639D1C202DAE
S31520004230DCBFC5F1200008FA00F008DD1E3BC5F101
S31520004240400216FA02F228FA03F342EA030002F0C9
S315200042509FFFA5F586650122033D1992A1F1F8710C
S3152000426070E748F28020C2F200002EE748F2383389
S31520004270DDE90601C2F2000303EBC603D3E90023FE
S3152000428003F06EFA002840F02083189094E700BFD0
S3152000429061436F63A787D23FB3C8608B288AC63F26
S315200042A0FB799F501344D33F8182002000234FF097
S315200042B0FF301F4601212A931190169108902B93C7
S315200042C0656A00236B602046696801F0ADFD636A6C
S315200042D028601B681093002F00F05B81002E40F3AE
S315200042E02A8448F2383306F00F02C2F20003351151
S315200042F003EBC20315F0100FD3E90001CDE90C0141
S3152000430000F0E78248F21043DDE90601C2F200031D
S3152000431005F00F054FF00308D3E9082303F0D8F87A
S31520004320CDE91201BDB148F21047DDE90C23C2F2F6
S31520004330000715F0010F1046194607D0D7E90023CC
S3152000434008F1010802F09AFF02460B4608376D1065
S31520004350EFD1CDE90C23DDE90C23DDE9120103F0D1
S31520004360B7F8CDE90C011899002900F0DE8040F25B
S315200043700003DDE90C010022C3F6F0734FF00005BF
S3152000438003F0EEF908B14FF00105089A002AD4BFD0
S31520004390002505F00105002D00F0C780119B002B9C
S315200043A040F3F58040F200030022C4F22403DDE945
S315200043B00C0102F063FFCDE90C0108F10100711E2A
S315200043C0129102F0F5FE02460B46DDE90C0102F0E1
S315200043D055FF40F200030022C4F21C0302F09CFDAC
S315200043E0DDF844C08046A1F15079169B002B00F0E1
S315200043F0AD8348F2383340F20001C2F200030020B8
S3152000440003EBCC03C3F6E071CDF80CC053E90223CD
S3152000441003F05EF842464B46109D02F07BFD804637
S315200044208946DDE90C0103F0C3F9074602F0C0FE18
S3152000443002460B46DDE90C0102F06CFD07F1300364
S31520004440CDE90C01404605F8013B4946DDE90C2340
S3152000445003F0A4F9002840F0138240F20001DDE9C0
S315200044600C230020C3F6F07102F054FD02460B46E1
S315200044704046494603F092F9DDF80CC0002840F08A
S31520004480E783BCF1010F40F38280CDF868B00127A5
S31520004490CDF870A01D966646DDE90CAB0C9410E0B5
S315200044A040F200010020C3F6F07102F033FD4246CF
S315200044B04B4603F055F9002840F0C783B74280F2F7
S315200044C08B8440F20003404649460022C4F224036E
S315200044D0013502F0D3FE40F200030022C4F2240389
S315200044E0804689465046594602F0C8FE8B4682468B
S315200044F003F05EF9044602F05BFE303402460B46BA
S315200045005046594602F006FD109A4B46D45542466F
S31520004510013782468B4603F023F952465B46002834
S31520004520BED0DDF868B00C9CAAE1404602F040FE01
S31520004530DDE90C2302F0A2FE40F200030022C4F2C1
S315200045401C0302F0E9FC089AA1F150758046A946A1
S31520004550002A40F0EC8240F20003DDE90C01002243
S31520004560C4F2140302F0D6FC42462B46CDE90C01D8
S3152000457003F014F9002840F04A824246DDE90C0196
S3152000458005F1004303F0ECF8002840F0D581DDE981
S3152000459006891E9B6FEA03074FEAD7770E2ECCBFFC
S315200045A0002707F00107002F00F0B7802B9848F26C
S315200045B03833C2F20003089903EBC603C20F002961
S315200045C0CCBF002202F00102D3E90001CDE90401AB
S315200045D0002A40F0A08102460B464046494602F09A
S315200045E077FF109D03F0E4F8824602F0E1FDDDE955
S315200045F0042302F043FE02460B464046494602F09B
S3152000460089FC0AF1300305F8013B089A012A804605
S31520004610894652D040F200030022C4F2240302F05D
S315200046202DFE00220023CDE9060103F08FF8002895
S3152000463040F0EB8110984FF00108CDF82CB0A3463E
S31520004640871C0F96DDF82090DDE906450AE002F08A
S3152000465015FE0022002304460D4603F077F80028B5
S3152000466040F0CE81DDE904232046294608F10108E1
S3152000467002F02EFF3E4603F09BF8824602F098FD9C
S31520004680DDE9042302F0FAFD02460B4620462946C0
S3152000469002F040FC00220AF1300C07F801CC013769
S315200046A0C14540F20003C4F22403D0D135465C460E
S315200046B00F9E8046DDF82CB0894642464B46404642
S315200046C0494602F029FC804689464246DDE9040136
S315200046D04B4603F045F860B9DDE9040142464B46F6
S315200046E003F034F8002800F090811AF0010F00F052
S315200046F08C81109900E01D4615F8012C6B1E392A75
S3152000470040F067838B42F6D110993023013631224F
S315200047100B70109B1A701296B2E0169A002A40F07F
S31520004720DF80159F0F9D0C92002DD4BF00230123FF
S31520004730BAF1000FD4BF002303F001034BB1AA4501
S31520004740B4BF53462B460F98C3EB0A0AED1AC01A7C
S315200047500F90159900291CDD169A002A00F0E9828F
S31520004760002F12DD0C993A46204601F0BDFD5A462F
S315200047700C9020460C9901F0CFFC59460346204662
S31520004780039301F035FB039B9B46159BDA1B40F0F8
S3152000479011830121204601F059FD06901798002823
S315200047A005DD06992046179A01F09EFD06902A9966
S315200047B0012940F30A810027179B002B40F06182D4
S315200047C00123534413F01F0340F02A811C230F9A20
S315200047D09A44ED18D2180F920F9B002B05DD5946EF
S315200047E01A46204601F03AFC8346BAF1000F05DD51
S315200047F006995246204601F031FC0690189800286A
S3152000480040F029822A9808990228D4BF0023012340
S315200048100029CCBF002303F00103002B00F00C81FC
S31520004820002940F08C8005220699089B204601F03D
S3152000483017FD06905846069901F0A0F900287EDD5E
S31520004840109D01360027DDF830A0312305F8013B05
S315200048500699204601F0CCFABAF1000F00F0D58077
S315200048603B1E18BF012357450CBF002303F001034D
S31520004870002B40F0D0805146204601F0B9FA12961E
S315200048802046594601F0B4FA129A531C00222A7087
S315200048902C982E990360002900F0D4812E9A109826
S315200048A0156012E41020FDF753F9C6604660866055
S315200048B0066006466062FFF7D2BB0F98714200225F
S315200048C01591801B17920F908AE40021013E1891C2
S315200048D072E4DDE906234FF00208CDE9122321E533
S315200048E02A98012840F36C82089A1598531E9842FC
S315200048F0C0F25882C71A089B002BA8BF0F9DC0F292
S3152000490073820F9A204601219A44D2180F9201F001
S315200049109DFC0C9008E7089B73B940F20003002227
S31520004920C4F21403DDE9040102F0A8FC42464B461A
S3152000493002F02AFF00286AD0002206920C922B9BB6
S315200049400027DDF830A0DE43109D81E70021169177
S315200049502B98002840F39F812B98014611900890B0
S31520004960656A002217296A6040F2AB8204235B0045
S31520004970013203F114008842F9D9089B6A600E2B94
S315200049808CBF002707F001079DE4012216922B9B7E
S31520004990F3181193591C0029C8BF0891E0DC0E2991
S315200049A08CBF002707F00107089189E4012316939D
S315200049B0CEE700221692EAE74FF0FF3300270120C8
S315200049C01193169008932B977AE4B8F1000F7FF491
S315200049D0F2AE29F07F4323F47003002B7FF4EBAE75
S315200049E040F20003C7F6F07309EA0303002B3FF4F5
S315200049F0E2AE0F9A0AF1010A012701320F92DBE695
S31520004A0035465C460F9EDDF82CB0129638E700201E
S31520004A1006900C9014E73946204601F0E9F92AE77A
S31520004A20C3F12003042B40F354820F99043B9A448C
S31520004A30ED18C9180F91CFE61699002900F031819B
S31520004A40002D05DD0C992A46204601F007FB0C9027
S31520004A50002F40F0EA81DDF830A0109D012308F0F8
S31520004A6001000C9F11900F951D460C9606995846ED
S31520004A70FFF75AFA394630300B90584601F07EF847
S31520004A80069952460646204601F06CFAC3688046CF
S31520004A90002B3DD04FF001094146204601F0A8F9F0
S31520004AA02A9959EA010103D1119A002A00F0EB81D3
S31520004AB0002EC0F29E812A9A324303D1119B002BED
S31520004AC000F09781B9F1000F00F3CE810F990B9A70
S31520004AD001F8012B089B0F919D4200F0C281594697
S31520004AE00A220023204601F0BBFB57453946834660
S31520004AF014D00A2200232046013501F0B1FB51468D
S31520004B000A2200230746204601F0AAFB8246ADE78B
S31520004B105846414601F032F88146BDE720460A2232
S31520004B200023013501F09CFB074682469EE712963C
S31520004B30DDF820C059E47542002D40F00181DDE901
S31520004B4006014FF00208CDE90C010CE448F2383199
S31520004B504246C2F200014B4601EBCC01CDF80CC017
S31520004B60109D51E9020102F089FBCDE91A01DDE928
S31520004B700C0102F01DFE074602F01AFB0B46024608
S31520004B80DDE90C0102F0C6F907F13003CDE90C018D
S31520004B9005F8013BDDF80CC0BCF1010F29D0D14648
S31520004BA0DDE90C01B246109E1C9501276546A046FC
S31520004BB040F200030022C4F2240302F05FFBCDE999
S31520004BC00C0102F0F5FD044602F0F2FA30340246FA
S31520004BD00B46DDE90C0102F09DF9F4550137AF4291
S31520004BE0E6D11C9D013F56464446CA46ED19CDE9FD
S31520004BF00C0140F200030022C3F6E073DDE91A013E
S31520004C0002F08AF902460B46DDE90C0102F0C6FDE8
S31520004C10F0B940F20001DDE91A230020C3F6E07165
S31520004C2002F078F902460B46DDE90C0102F098FD08
S31520004C3000283FF4ACAC2B461D4613F8012D302A34
S31520004C40FAD01DE61098FFF740BADDF868B00C9C44
S31520004C50129E109950E55846069900F08FFF0028BD
S31520004C60BFF6D0AD594620460A22002301F0F8FAB5
S31520004C701699013E8346002940F01981119A08921F
S31520004C80C0E50698036900EB8303186900F024FF4A
S31520004C90C0F1200395E50121119108912B91FFF791
S31520004CA00FBB109DB146169FAA46DDF81880089EB8
S31520004CB002E001F0D5FA834641465846FFF734F91B
S31520004CC001350A220023594600F1300C0AF807C0A4
S31520004CD001372046BE42ECDCDDF830A04E460027E8
S31520004CE0CDF82CC059460122204601F0B7F9069985
S31520004CF0834600F043FF00280FDD109900E01D4693
S31520004D0015F8012C6B1E392A40F08C808B42F6D187
S31520004D101099312301360B709AE503D10B9810F0C8
S31520004D20010FEAD12B461D4613F8012D302AFAD061
S31520004D308EE55946159A204601F0D6FA834628E58F
S31520004D4005F00F0348F23832C2F20002DDE906010F
S31520004D5002EBC303D3E9002302F090FA2D1108BF1A
S31520004D604FF00208CDE90C013FF4FDAA48F21047A6
S31520004D70DDE90C234FF00208C2F2000715F0010FFF
S31520004D801046194607D0D7E9002308F1010802F09A
S31520004D9075FA02460B4608376D10EFD1CDE90C2384
S31520004DA0FFF7E1BA1599179A5B1AC918D218159107
S31520004DB01792A0E55946204601F096FA8346E8E484
S31520004DC01999002947D003F58663159F03330F9D54
S31520004DD097E50132D2B29DE4DDF868B0DDF870A027
S31520004DE01D9E0C9CFFF7D3BB0F99002308980D1A24
S31520004DF087E5B9F1000F0F9D0C9E0FDD5946012264
S31520004E00204601F02BF90699834600F0B7FE0028CC
S31520004E1047DD0B99392931D001310B910B9A05F8D1
S31520004E20012B15E501321A7012E50C9A20465168BD
S31520004E3000F0FAFF0C9B03F10C011A690232920072
S31520004E4005460C30FDF75EF920462946012201F081
S31520004E5005F9824601E61F9B159F0F9DC3F1360378
S31520004E604FE50F9D0C9E3DE70B9B0F9D392B0C9E0E
S31520004E7004D00B98431C05F8013BE9E4392305F8D7
S31520004E80013B10993CE70B9833460F9D39280C9E21
S31520004E90F4D0002B01DD01300B900B9905F8011B96
S31520004EA0D6E4BBD10B9810F0010FB7D0B1E70023A1
S31520004EB00C9920460A2201F0D3F9119B08930C90F5
S31520004EC0A0E408990E298CBF002707F00107FFF7F9
S31520004ED0FAB93FF481AC1C3379E40127FFF78AB98C
S31520004EE00B692DE9F0410C468046002B71D010B19C
S31520004EF08369002B78D048F29423C2F200039C42A7
S31520004F0008BFD8F8044010D048F2B423C2F20003F8
S31520004F109C4208BFD8F8084007D048F2D423C2F2F2
S31520004F2000039C4208BFD8F80C40A3891AB212F09D
S31520004F30080F35D1626843F40063A381002A5EDD41
S31520004F40E66A002E45D09BB213F4805218BF656DD9
S31520004F5059D013F0040F4AD100234046216A2A462D
S31520004F60B047854238D1A1894FF2FF732269C0F23A
S31520004F70000301EA03030021616013F4805F616B83
S31520004F80A381226018BF656519B304F144039942D1
S31520004F9002D0404600F098F900206063BDE8F08119
S31520004FA02669B6B125682660AD1B12F0030F0CBF2B
S31520004FB063690023A3600AE032462B46A76A40466F
S31520004FC0216AB8470028C0EB0505064404DD002DFC
S31520004FD0F2DC0020BDE8F081A3894FF0FF3043F0DA
S31520004FE04003A381BDE8F08100F0EAF883E7626818
S31520004FF0636BAD1A002BAFD0236CED1AACE7226C95
S31520005000002A9DDCE5E701234046216AB047B0F13E
S31520005010FF3F054602D0A389E66A9AE7D8F8003012
S315200050201D2BD6D0A38943F04003A381BDE8F08190
S31520005030014628B148F2AC43C2F2000318684FE794
S3152000504048F2142344F6E161C2F20003C2F20001E1
S31520005050186800F0B3BB00BF704700BF704700BFA1
S31520005060704700BF704700BF002070470020704780
S3152000507048F2AC4345F26D01C2F20003C2F20001D0
S31520005080186800F0C5BB00BF48F2AC4345F2690181
S31520005090C2F20003C2F20001186800F0B9BB00BFDB
S315200050A046F6D131C2F2000100F0B2BB48F2142319
S315200050B0C2F200031868F3E710B5044600235C30FB
S315200050C0A1811946E281082223606360A36063669A
S315200050D023616361A361FDF7DDF846F6910046F68C
S315200050E0550146F62D0246F62503C2F20000C2F20D
S315200050F00001C2F20002C2F200036062A162E26213
S315200051002363246210BD00BF70B568250E4605FBDB
S3152000511001F505F10C01FCF723FD044648B100F129
S315200051200C03002146602A4618462160A360FDF73D
S31520005130B1F8204670BD00BF48F21423C2F2000326
S3152000514070B51D680646AB69002B2AD0D8356B682A
S31520005150AC68013B03D520E06834013B1DD4B4F98B
S315200051600C20002AF8D100254FF0FF33656604F1A4
S315200051705C00E38129464FF001032560A3810822C4
S31520005180A560656025616561A561FDF783F8E56425
S315200051906563A563A564204670BD286828B10546C9
S315200051A0D5E7284600F00CF8D0E730460421FFF773
S315200051B0ABFF28600028F2D10C2304463360EAE7CF
S315200051C070B58669044606B170BD45F2A103012576
S315200051D0C2F20003C0F8D8608362C0F8DC60C0F871
S315200051E0E0608561FFF7A8FF60602046FFF7A4FF17
S315200051F0A0602046FFF7A0FF324604212346E06048
S315200052006068FFF759FF2A46A06809212346FFF761
S3152000521053FF2346E06812210222BDE870404BE787
S31520005220F8B548F2A054C2F200040F460546FDF731
S315200052309BF8A3685E6826F0030606F57E630F33A7
S31520005240DF1B3F0B013F3F03B7F5805F07DB0021E4
S315200052502846FDF703F9A368F318834204D02846AD
S31520005260FDF784F80020F8BD79422846FDF7F6F8C8
S31520005270B0F1FF3F10D0A26848F6C013C2F2000377
S31520005280F61B46F00106284656601A68D71B1F6093
S31520005290FDF76CF80120F8BD00212846FDF7DEF861
S315200052A0A368C21A0F2ADADD48F6A81448F6C011F8
S315200052B0C2F20004C2F2000142F001022468001B7F
S315200052C008605A60CBE700BF2DE9F04105460C4641
S315200052D0002900F08880FDF747F8A4F1080248F27B
S315200052E0A0505668C2F2000026F00103D0F808C08C
S315200052F0D1188C454F6827F0030700F0958016F0EB
S3152000530001064F605FD00026CC19646814F0010FA7
S3152000531006D1DB19002E7AD08C68C9688C60E160D2
S3152000532043F00101D3505160002E47D1B3F5007FE1
S315200053305BD3590A04299EBF4FEA931C0CF1380C03
S315200053404FEACC0428D914299CBF01F15B0C4FEA03
S31520005350CC0421D954299EBF4FEA133C0CF16E0C84
S315200053604FEACC0418D9B1F5AA7F9EBF4FEAD33CA9
S315200053700CF1770C4FEACC040ED940F2545C61450F
S3152000538095BF4FEA934C4FF47C740CF17C0C4FF094
S315200053907E0C98BF4FEACC040419A168A14203D120
S315200053A064E089688C4204D0486820F00300834278
S315200053B0F7D3CB68D3609160CA609A602846BDE86F
S315200053C0F041FCF7D3BF54F8084C00F1080C121B2F
S315200053D01B199468644547D0D2F80CC0CCF8084015
S315200053E0C4F80CC090E7BDE8F081DB084FF0010C53
S315200053F0466800EBC3019B100CFA03F3D1608C685E
S3152000540046EA030343609460E2608A60D6E78C68CC
S315200054101C4FBC4281D1D35043F00103E260A2600D
S3152000542053609460D460C9E7FB1816F0010F07D1CA
S3152000543054F8081C521A5B18D4689168A160CC6095
S3152000544048F6AC118260C2F2000143F001005060C0
S315200054500A689342B2D348F6BC132846C2F2000328
S315200054601968FFF7DDFEA9E701264DE70126446806
S315200054704FEAAC0C0B4606FA0CFC44EA0C044460DA
S3152000548098E700BFA88500202DE9F04F936885B0E6
S3152000549090460C460390002B64D088891FFA80FA28
S315200054A01AF0080F00F0A0800B69002B00F09C80FA
S315200054B01AF0020BD8F800501CBF4FF0000A5746CE
S315200054C036D11AF0010A1DBFDC46D9465F4656463C
S315200054D052D126B380B2A76810F4007F00F08F80E7
S315200054E0BE42BB4680F0A78020683746B3465A4660
S315200054F0514600F095FAA2682368B146D71BA760EB
