:020000042000DA
:100000000000012099020020090300200B030020BA
:100010000D0300200F03002011030020000000004A
:10002000000000000000000000000000130300209A
:100030001503002000000000170300201903002012
:100040001B0300201D0300201F03002021030020AC
:10005000230300202503002027030020290300207C
:100060002B0300202D03002075220020A122002058
:10007000F12D00201D2E0020370300203903002021
:100080003B0300203D0300203F03002041030020EC
:100090009517002045030020470300204903002056
:1000A0004B030020000000000000000000000000E2
:1000B0000000000000000000000000004D030020D0
:1000C0004F0300205103002053030020550300205C
:1000D00057030020590300205B0300205D0300202C
:1000E0005F030020610300206303002065030020FC
:1000F00067030020690300206B0300206D030020CC
:100100006F0300207103002073030020750300209B
:1001100077030020790300207B0300207D0300206B
:100120007F0300208103002083030020850300203B
:1001300087030020890300208B0300208D0300200B
:100140008F030020910300209303002095030020DB
:1001500097030020990300209B0300209D030020AB
:100160009F030020A1030020A3030020A50300207B
:10017000A7030020A9030020AB030020AD0300204B
:10018000AF030020B1030020B3030020B50300201B
:10019000B7030020B9030020BB030020BD030020EB
:1001A000BF030020C1030020C3030020C5030020BB
:1001B000C7030020C9030020CB030020CD0300208B
:1001C000CF030020D1030020D3030020D50300205B
:1001D000D7030020D9030020DB030020DD0300202B
:1001E000DF030020E1030020E3030020E5030020FB
:1001F000E7030020E9030020EB030020ED030020CB
:10020000EF030020F1030020F3030020F50300209A
:10021000F7030020F90300200132002029320020DA
:100220005132002079320020A1320020C932002052
:10023000F1320020193300204133002069330020BF
:1002400091330020B9330020E1330020093400202D
:10025000313400205934002081340020A93400209A
:10026000D1340020F9340020213500204935002008
:100270007135002099350020C1350020E935002076
:1002800011360020393600206136002089360020E2
:10029000B1360020D93600206848804768480028D9
:1002A0000BD168486849694A884206D091421CBF10
:1002B00050F8043B41F8043BF8D165486549664A6B
:1002C000884206D091421CBF50F8043B41F8043BE1
:1002D000F8D162486249634A914218BF41F8040B61
:1002E000FAD1000000000000000000000000000043
:1002F000DFF874010FF2030E00474FF000004FF0DB
:100300000001DFF868F1FEE7FEE7FEE7FEE7FEE743
:10031000FEE7FEE7FEE7FEE7FEE7FEE7FEE7FEE7B5
:10032000FEE7FEE7FEE7FEE7FEE7FEE7FEE7FEE7A5
:10033000FEE7FEE7FEE7FEE7FEE7FEE7FEE7FEE795
:10034000FEE7FEE7FEE7FEE7FEE7FEE7FEE7FEE785
:10035000FEE7FEE7FEE7FEE7FEE7FEE7FEE7FEE775
:10036000FEE7FEE7FEE7FEE7FEE7FEE7FEE7FEE765
:10037000FEE7FEE7FEE7FEE7FEE7FEE7FEE7FEE755
:10038000FEE7FEE7FEE7FEE7FEE7FEE7FEE7FEE745
:10039000FEE7FEE7FEE7FEE7FEE7FEE7FEE7FEE735
:1003A000FEE7FEE7FEE7FEE7FEE7FEE7FEE7FEE725
:1003B000FEE7FEE7FEE7FEE7FEE7FEE7FEE7FEE715
:1003C000FEE7FEE7FEE7FEE7FEE7FEE7FEE7FEE705
:1003D000FEE7FEE7FEE7FEE7FEE7FEE7FEE7FEE7F5
:1003E000FEE7FEE7FEE7FEE7FEE7FEE7FEE7FEE7E5
:1003F000FEE7FEE7FEE7FEE7FEE7FEE7FEE7FEE7D5
:10040000FEE7FEE7FEE7FEE7FEE7FEE7FEE7FEE7C4
:10041000FEE7FEE7FEE7FEE7FEE7FEE7FEE7FEE7B4
:10042000FEE7FEE7FEE7FEE7FEE7FEE7FEE7FEE7A4
:10043000FEE7FEE7FEE7FEE7FEE700006D2F002087
:1004400000000000000000200000002048A1002063
:1004500048A1002048A1002070A600200000000054
:1004600070A6002070A80020D53E0020FD040020CA
:100470004AF27063C2F200031A780AB901201870B8
:10048000704700BF4AF24810C2F2000008B5036886
:100490002BB140F20003C0F2000303B1984708BD3E
:1004A00080B500AF02F0EEFC4FF001004FF0050107
:1004B00002F01EFD4FF001004FF0000102F036FD8A
:1004C00080BD00BF80B582B000AF78604FF0010002
:1004D0004FF0010102F02AFD786801F0D5FA4FF0E3
:1004E00001004FF0000102F021FD4FF4FA7001F01D
:1004F000CBFA07F10807BD4680BD00BF80B582B0CA
:1005000000AF02F0BFFC4FF000004FF0050102F019
:10051000EFFC4FF000004FF0000102F007FDFFF785
:10052000BFFF00F047FF00F057FF3B46184600F0C2
:1005300029FF01F007F84EF20010C0F2F55001F06B
:10054000F5F949F63C30C2F2000004F071F900F010
:10055000AFFD07F10403184600F014FF07F1040291
:100560003B461046194600F019F807F104023B46D5
:100570001046194600F0A0F807F104023B46104669
:10058000194600F0BDF807F104023B461046194633
:1005900000F098F97B683B60DBE700BF80B582B074
:1005A00000AF786039604AF27163C2F200031B78D1
:1005B000002B19D17B681B7803F00803002B13D1A3
:1005C0003B681B7803F00803002B0DD04AF27163DF
:1005D000C2F200034FF001021A7049F66030C2F215
:1005E000000004F025F91FE04AF27163C2F2000333
:1005F0001B78002B18D07B681B7803F00803002BB6
:1006000012D13B681B7803F00803002B0CD04AF290
:100610007163C2F200034FF000021A7049F67C3099
:10062000C2F2000004F004F907F10807BD4680BDDE
:1006300080B500AF4AF69830C0F2020000F058FFD3
:1006400040F25413C4F205031B68002BF8D14EF698
:100650004800C0F2010000F04BFF4FF0FA0001F03B
:1006600013FA44F6F010C0F2020000F041FF80BD22
:1006700080B500AF4AF27163C2F200031B78002B11
:1006800006D149F69430C2F2000004F0D1F812E02D
:100690004FF06400FFF716FFFFF7CAFF4AF27163DD
:1006A000C2F200034FF000021A7049F67C30C2F229
:1006B000000004F0BDF880BD80B582B000AF786066
:1006C00039604AF27163C2F200031B78002B13D029
:1006D0007B681B7803F00403002B0DD03B681B786C
:1006E00003F00403002B07D149F6CC30C2F200001E
:1006F00004F09EF8FFF7BCFF07F10807BD4680BD78
:1007000080B582B000AF786039607B681B7803F0F9
:100710002003002B13D03B681B7803F02003002B31
:100720000DD140F24813C4F205034FF000021A60E5
:1007300049F6F430C2F2000004F07AF83EE07B683B
:100740001B7803F01003002B13D03B681B7803F0D9
:100750001003002B0DD140F24C13C4F205034FF0EF
:1007600000021A6049F60C40C2F2000004F060F882
:1007700024E07B681B7803F01003002B05D13B6855
:100780001B7803F01003002B0BD17B681B7803F060
:100790002003002B12D13B681B7803F02003002BB1
:1007A0000CD040F24413C4F205034FF000021A606B
:1007B00049F62440C2F2000004F03AF87B681B7846
:1007C00003F04003002B13D03B681B7803F0400379
:1007D000002B0DD140F20813C4F205034FF00002C4
:1007E0001A6049F63C40C2F2000004F021F83EE0F5
:1007F0007B681B7803F08003002B13D03B681B78C9
:1008000003F08003002B0DD140F20C13C4F205035A
:100810004FF000021A6049F65440C2F2000004F0A2
:1008200007F824E07B681B7803F04003002B05D118
:100830003B681B7803F04003002B0BD17B681B78CF
:1008400003F08003002B12D13B681B7803F0800378
:10085000002B0CD040F20413C4F205034FF0000249
:100860001A6049F66C40C2F2000003F0E1FF7B68B9
:100870009A783B689B7852B25BB29A4207D17B6808
:10088000DA783B68DB7852B25BB29A4216D078686D
:100890004AF27461C2F2000100F0E4FD4AF27463AE
:1008A000C2F200031B68184600F0F8FD4AF27463B8
:1008B000C2F200035B68184600F01AFE07F1080751
:1008C000BD4680BD90B58BB000AF786039604AF20C
:1008D0007163C2F200031B78002B00F0A6817B68D5
:1008E0005B7803F00803002B00F0A1813B685B7884
:1008F00003F00803002B40F09C8149F68440C2F2CB
:10090000000003F095FF40F20413C4F205034FF01A
:1009100000021A6040F24413C4F205034FF00002D3
:100920001A604FF00103FB6044F6F013C0F20203BB
:100930003B6144F6F013C0F202037B614FF0000309
:1009400087F822304FF0000387F823304FF0000380
:100950007B6265E107F10803184600F0EBFC0346F3
:10096000B3F1FF3F18D14FF0050001F08DF87B6A1D
:1009700003F101037B627B6A142B40F0188144F67B
:10098000F010C0F2020000F089FD44F6F010C0F251
:10099000020000F0ADFD0BE13B891AB27B891BB26E
:1009A00049F6AC40C2F2000011461A4603F0D2FEEE
:1009B0004FF000037B623B891BB29A2B0FDC3B8913
:1009C0001BB24FF4167202FB03F303F5664303F107
:1009D0007803BB614FF0000387F8223024E03B89A5
:1009E0001BB2A52B0FDD3B891BB24FF4167202FB25
:1009F00003F303F5464303F59C73BB614FF000031B
:100A000087F8223010E044F6F013C0F20203BB6115
:100A100097F8223003F1010387F8223049F6BC40F1
:100A2000C2F2000003F004FFB86902F0ABFF024617
:100A30000B46104619464FF000024FF07E5303F567
:100A4000A00303F015F802460B461046194603F0C2
:100A500021FA0446386902F095FF02460B4610461B
:100A600019464FF000024FF07E5303F5D00302F019
:100A7000FFFF02460B461046194603F00BFA0346E9
:100A800023443B617B891BB2632B18DC7B891BB23F
:100A90004FF4FA7202FB03F303F5BC3303F53A7328
:100AA000FB61FA6941F61033C0F202039A4238BF83
:100AB0001346FB614FF0000387F823301BE07B896E
:100AC0001BB2642B17DD7B891BB24FF4FA7202FB59
:100AD00003F303F5923303F1F803FB61FA6947F27C
:100AE000E843C0F202039A4228BF1346FB614FF06D
:100AF000000387F823307B891BB25F2B0FDD7B89D6
:100B00001BB2682B0BDC49F6CC40C2F2000003F0AC
:100B10008FFE97F8233003F1010387F82330F8693B
:100B200002F030FF02460B46104619464FF0000215
:100B30004FF07E5303F5A00302F09AFF02460B46E6
:100B40001046194603F0A6F90446786902F01AFF28
:100B500002460B46104619464FF000024FF07E53F6
:100B600003F5D00302F084FF02460B4610461946F7
:100B700003F090F9034623447B61386900F08EFC52
:100B8000786900F0B5FC97F82230052B10D997F85A
:100B90002330052B0CD949F6DC40C2F2000003F0EB
:100BA00047FEFFF765FD4FF00003FB6000E000BF6C
:100BB0007B681B7803F00203002B23D03B681B7873
:100BC00003F00203002B1DD14FF00003FB6040F245
:100BD0000413C4F205034FF000021A6040F24413FC
:100BE000C4F205034FF000021A604AF27163C2F2C8
:100BF00000034FF000021A7049F6F840C2F20000FC
:100C000003F016FE3A687B6811461A464FF004035B
:100C1000084611461A4603F067FC786800F0B2FBFC
:100C2000FB68002B7FF496AE04E000BF02E000BF3B
:100C300000E000BF07F12C07BD4690BD80B500AFB6
:100C40004AF21070C2F200004FF4E1314FF003029B
:100C500001F022F880BD00BF80B582B000AF78609F
:100C60004AF21070C2F20000796801F089F907F1C8
:100C70000807BD4680BD00BF80B582B000AF4FF011
:100C80007C033B714FF000033B7007F104034AF211
:100C90001070C2F2000019464FF0010201F0FEF898
:100CA0003B464AF21070C2F2000019464FF00102B2
:100CB00001F0F4F807F10807BD4680BD80B586B0A5
:100CC00000AF78604FF07C033B754FF018033B7426
:100CD0007B68DBB23B7307F114034AF21070C2F277
:100CE000000019464FF0010201F0D8F807F1100397
:100CF0004AF21070C2F2000019464FF0010201F0F2
:100D0000CDF807F10C034AF21070C2F20000194648
:100D10004FF0010201F0C2F807F11807BD4680BD8F
:100D200080B586B000AF78604FF07C033B754FF024
:100D300019033B747B68DBB23B7307F114034AF27F
:100D40001070C2F2000019464FF0010201F0A6F83F
:100D500007F110034AF21070C2F2000019464FF07A
:100D6000010201F09BF807F10C034AF21070C2F285
:100D7000000019464FF0010201F090F807F1180742
:100D8000BD4680BD80B582B000AF02460B46FA7109
:100D9000BB71FB791846FFF791FFBB791846FFF747
:100DA000BFFF07F10807BD4680BD00BF80B58CB00E
:100DB00000AFF860B9607A603B604FF07C0387F861
:100DC0002C304FF00C0387F82830FB68DBB287F833
:100DD0002430BB68DBB287F820307B68DBB23B771E
:100DE0003B68DBB23B76BB6BDBB23B7507F12C0398
:100DF0004AF21070C2F2000019464FF0010201F0F1
:100E00004DF807F128034AF21070C2F200001946AB
:100E10004FF0010201F042F807F124034AF210708A
:100E2000C2F2000019464FF0010201F037F807F155
:100E300020034AF21070C2F2000019464FF001027E
:100E400001F02CF807F11C034AF21070C2F2000006
:100E500019464FF0010201F021F807F118034AF298
:100E60001070C2F2000019464FF0010201F016F8AE
:100E700007F114034AF21070C2F2000019464FF055
:100E8000010201F00BF807F13007BD4680BD00BF3D
:100E900080B58CB002AFF860B9607A603B603B6BA4
:100EA000002B56D04FF07C0387F824304FF00F030F
:100EB00087F82030FB68DBB23B77BB68DBB23B7660
:100EC0007B68DBB23B753B68DBB23B7407F1240304
:100ED0004AF21070C2F2000019464FF0010200F011
:100EE000DDFF07F120034AF21070C2F2000019463C
:100EF0004FF0010200F0D2FF07F11C034AF210701C
:100F0000C2F2000019464FF0010200F0C7FF07F1DE
:100F100018034AF21070C2F2000019464FF00102A5
:100F200000F0BCFF07F114034AF21070C2F2000097
:100F300019464FF0010200F0B1FF07F110034AF229
:100F40001070C2F2000019464FF0010200F0A6FF37
:100F500023E04FF000030093F868B968FA683B6833
:100F6000FFF724FF4FF000030093F868B9687A6830
:100F7000BB68FFF71BFF4FF000030093F868396868
:100F80007A683B68FFF712FF4FF000030093786820
:100F9000B9687A683B68FFF709FF07F12807BD4683
:100FA00080BD00BF80B584B000AF0346FB714AF23C
:100FB0006070C2F200004FF0000101F0B9FBFB7954
:100FC0004AF26070C2F20000194601F07DFC03464F
:100FD000FB734AF26070C2F200004FF0000101F0B2
:100FE0002BFCFB7B184607F11007BD4680BD00BFF8
:100FF00080B582B000AF4FF00003FB714AF2BC63D2
:10100000C2F200031B78002B35D04FF05B00FFF7D6
:10101000C9FF0346BB804AF2BD63C2F200031A78DF
:1010200011464AF27C63C2F200035B5CFB7102F181
:101030000103DAB24AF2BD63C2F200031A704AF247
:10104000BC63C2F200031B7803F1FF33DAB24AF249
:10105000BC63C2F200031A704AF2BD63C2F200031D
:101060001B78402B0ED14AF2BD63C2F200034FF051
:1010700000021A7007E04FF05A00FFF793FF034693
:10108000BB8000E000BFBB884FEA0323BB80FB7935
:101090001846FFF787FF0346BB71BA79BB8842EA5F
:1010A0000303BB80BB88184607F10807BD4680BD17
:1010B00080B584B002AF4FF4966002F03BFF034668
:1010C0001A464AF20873C2F200031A604FF008038E
:1010D000FB714AF26070C2F2000001F04FF9FB7937
:1010E00000934AF26070C2F200004FF000014FF02E
:1010F00000024FF0070301F08BFA07F10807BD4625
:1011000080BD00BF80B582B000AF4FF6FF73FB809B
:10111000FFF76EFF0346BB80BB88002B05D1FB8821
:10112000002B02D14FF0000333E0BA884AF6552372
:101130009A420ED1FA884AF655239A4209D14AF2C8
:101140000C73C2F200034FF000021A704FF001035B
:101150001FE0BA884AF656239A420ED1FA884AF618
:1011600055239A4209D14AF20C73C2F200034FF0A0
:1011700001021A704FF001030BE0BA8845F2AA533E
:101180009A4203D14FF00000FFF70CFFBB88FB80B1
:10119000BEE7184607F10807BD4680BD80B586B09A
:1011A00000AF0346FB804AF2C063C2F200031B6833
:1011B000002B07D1FFF7A6FF0346002B0AD14FF003
:1011C0000003B1E04AF2C063C2F200034FF0000234
:1011D0001A6000E000BF4FF00003FB819BE0FFF7C7
:1011E00007FF03463B823A8A4AF655239A420FD1BB
:1011F0004AF2C063C2F200034FF001021A604AF2E1
:101200000C73C2F200034FF000021A70FB898BE0EE
:101210003A8A4AF656239A420FD14AF2C063C2F282
:1012200000034FF001021A604AF20C73C2F200038D
:101230004FF001021A70FB8976E03B8A002B01D146
:10124000FB8971E04AF20873C2F200031968FA8957
:1012500013464FEA430313444FEA83030B447B6175
:101260004FF00003FB724FF000037B8221E04AF253
:101270000C73C2F200031B78002B07D1FB7A042BFE
:1012800004D97B694FF000025A8115E0FFF7B0FEE8
:101290000346BB817A8ABB8913447B827A69FB7AD5
:1012A0004FEA43031344BA891A80FB7A03F101031E
:1012B000FB72FB7A052BDAD93A8A7B8A9A4204D1EF
:1012C000FB8903F10103FB8105E049F62C50C2F2D2
:1012D000000003F0ADFAFFF78BFE0346BB81BA892D
:1012E0004AF655239A4207D14AF20C73C2F2000320
:1012F0004FF000021A700EE0BA894AF656239A425D
:1013000007D14AF20C73C2F200034FF001021A70C7
:1013100001E0FB8908E0FA89FB889A4203D2FB8945
:10132000632B7FF65CAFFFE7184607F11807BD4651
:1013300080BD00BF80B582B000AF78604FF0010083
:10134000FFF72CFF0346002B02D14FF0FF3313E0D1
:101350004AF20873C2F200031B685B881A467B6876
:101360001A804AF20873C2F200031B689B881A466F
:101370007B685A804FF00003184607F10807BD4606
:1013800080BD00BF80B584B000AF786040F200033C
:10139000C4F20503FB607A68FB6811461A464FF0F9
:1013A0000403084611461A4603F09EF807F1100799
:1013B000BD4680BD80B483B000AF40F20003C4F2EC
:1013C00005037B607B684FF0FF021A6007F10C0792
:1013D000BD4680BC704700BF80B483B000AF40F210
:1013E0000003C4F205037B607B684FF001021A60C2
:1013F00007F10C07BD4680BC704700BF80B485B0C4
:1014000000AF0346FB7197F90730062B07DC97F90D
:10141000073013F1060F02DB4FF00003FB7197F961
:101420000730502B03DD4FF05003FB7107E097F9B5
:10143000073013F1500F02DA6FF04F03FB7197F989
:1014400007304FF4FA7202FB03F3FB60FB68C3F54D
:10145000123303F5F873184607F11407BD4680BC34
:10146000704700BF80B582B000AF786039607B689C
:101470009B785BB21846FFF7C1FF02463B681A60D3
:101480007B68DB785BB21846FFF7B8FF02463B6823
:101490005A6007F10807BD4680BD00BF80B582B025
:1014A00000AF78604AF25013C2F200031B687A68FA
:1014B0009A4218D040F20013C4F205037A681A6009
:1014C0004AF25013C2F200037A681A604AF25013CB
:1014D000C2F200031B6849F67050C2F200001946C0
:1014E00003F038F900E000BF07F10807BD4680BDF2
:1014F00080B582B000AF78604AF24C13C2F20003AC
:101500001B687A689A4218D040F24013C4F205036F
:101510007A681A604AF24C13C2F200037A681A60C1
:101520004AF24C13C2F200031B6849F68850C2F21B
:101530000000194603F00EF900E000BF07F10807AC
:10154000BD4680BD80B582B002AFFFF777FBFFF7E5
:1015500093FB4FF0010300934FF045004FF025013E
:101560004FF09F024FF07F03FFF792FC4FF04E00C9
:101570004FF01F01FFF706FC49F6A050C2F2000031
:10158000FFF76AFB4FF076004FF01F01FFF7FAFB01
:1015900049F6A450C2F20000FFF75EFB4FF00300D3
:1015A0004FF03201FFF7EEFB49F6A850C2F20000FF
:1015B000FFF752FB4FF003004FF06E01FFF7E2FB25
:1015C00049F6B450C2F20000FFF746FB4FF00300AB
:1015D0004FF05001FFF7D6FB49F6BC50C2F20000B5
:1015E000FFF73AFBBD4680BD80B483B000AF034631
:1015F000FB804EF20013CEF20003B7F906204FEA4B
:101600005212F98801F01F014FF0010000FA01F1B8
:1016100043F8221007F10C07BD4680BC704700BF9D
:1016200080B483B000AF0346FB804EF20013CEF2CD
:101630000003B7F906204FEA5212F98801F01F01A2
:101640004FF0010000FA01F102F1200243F82210EC
:1016500007F10C07BD4680BC704700BF80B483B063
:1016600000AF0346FB804EF20013CEF20003B7F941
:1016700006204FEA5212F98801F01F014FF00100D5
:1016800000FA01F102F1600243F8221007F10C07A1
:10169000BD4680BC704700BF80B582B000AF034636
:1016A000FB714FF01400FFF7BBFF42F20003CEF2D4
:1016B000040342F20002CEF20402126B22F0400256
:1016C0001A6345F20003C4F200034FF000025A65AA
:1016D00040F20003C4F20A234FF00002C3F8802155
:1016E00040F20003C4F20A234FF00002C3F888213D
:1016F00040F20003C4F20A23FA79C3F8842145F2C8
:101700000003C4F200034FF001021A614FF014000D
:10171000FFF7A4FF07F10807BD4680BD80B400AF06
:1017200040F20003C4F20A234FF00102C3F8802103
:10173000BD4680BC704700BF80B483B000AF786006
:1017400045F20003C4F200037A685A6007F10C07FF
:10175000BD4680BC704700BF80B500AF40F20003BB
:10176000C4F20A234FF00102C3F888214FF014009D
:10177000FFF73AFF80BD00BF80B400AF45F2000321
:10178000C4F200034FF001021A61BFF34F8FBD4650
:1017900080BC704780B582B000AF00F0EFF8034620
:1017A0003B60FFF7E9FF4AF2C463C2F200031B6823
:1017B000002B19D04AF2C463C2F200031B685B68B5
:1017C0001846FFF7B9FFFFF7A9FF0DE03B681B685C
:1017D0003A689268104698473B687B603B685B6854
:1017E0003B60786802F09EFB3B68002BEED107F16E
:1017F0000807BD4680BD00BF80B500AF4FF00100B7
:10180000FFF74AFF4AF2C463C2F200031B685B6839
:101810001846FFF791FFFFF781FFFFF79DFF80BD9F
:1018200080B485B000AF78604AF2C463C2F20003AE
:101830001B68002B06D14AF2C463C2F200037A6827
:101840001A6033E07B685A684AF2C463C2F200034C
:101850001B685B689A420DD24AF2C463C2F200036D
:101860001A687B681A614AF2C463C2F200037A689C
:101870001A601BE04AF2C463C2F200031B68FB60FB
:1018800002E0FB681B69FB60FB681B69002B06D04C
:10189000FB681B695A687B685B689A42F1D3FB68F6
:1018A0001A697B681A61FB687A681A6107F1140784
:1018B000BD4680BC704700BF80B586B000AFF86001
:1018C000B9607A603B604FF0180002F033FB0346CA
:1018D0007B617B69FA681A607B697A685A607B6908
:1018E0007A689A607B693A68DA607B694FF0000237
:1018F0001A617B69BA685A617869FFF791FF07F14D
:101900001807BD4680BD00BF80B584B000AFF86049
:10191000B9607A60F868B9687A684FF00103FFF738
:10192000CBFF07F11007BD4680BD00BF80B483B078
:1019300000AF78604AF2C863C2F200037A681A60A6
:1019400007F10C07BD4680BC704700BF80B485B06E
:1019500000AF78604AF2C863C2F200031A684FF41D
:101960007A717B68B1FBF3F3B2FBF3F3FB60FB68C6
:10197000184607F11407BD4680BC704780B586B095
:1019800000AF4AF2C463C2F200031B683B604AF234
:10199000C463C2F200031B685B687B6009E03B68BC
:1019A0005A687B68C3EB02023B685A603B681B695C
:1019B0003B603B68002BF2D14FF00003BB604FF05F
:1019C0000003FB6042E04FF00C0002F0B3FA034664
:1019D0003B613B694FF000021A603B694FF0000227
:1019E0005A60BB68002B04D13B69BB603B69FB605C
:1019F00004E0FB683A695A603B69FB604AF2C463E1
:101A0000C2F200031B687B617B691A694AF2C463F6
:101A1000C2F200031A607B691A683B691A607B692D
:101A20005A693B699A607B69DB68012B03D178694D
:101A300002F078FA0AE07B699A687B695A607B69F0
:101A40004FF000021A617869FFF7EAFE4AF2C463B8
:101A5000C2F200031B685B68002BB4D0BB68184659
:101A600007F11807BD4680BD80B483B000AF786031
:101A70004AF20D73C2F200034FF000021A7007F130
:101A80000C07BD4680BC704780B582B000AF78605F
:101A90004AF20D73C2F200034FF001021A70786827
:101AA000FFF754FF034641F66920C2F200004FF0F1
:101AB00000011A46FFF728FFFFF79EFE4AF20D735A
:101AC000C2F200031B78002BF8D107F10807BD46CE
:101AD00080BD00BF80B483B000AF78604FF0FF33AB
:101AE000184607F10C07BD4680BC704780B483B030
:101AF00000AF7860FEE700BF80B483B000AF7860CD
:101B000039603B684FF400525A604FF000031846AA
:101B100007F10C07BD4680BC704700BF80B483B09E
:101B200000AF78604FF00103184607F10C07BD467F
:101B300080BC704780B485B000AFF860B9607A604F
:101B40004FF00003184607F11407BD4680BC7047EC
:101B500080B485B000AFF860B9607A604FF00003E0
:101B6000184607F11407BD4680BC704780B584B0A5
:101B700000AFF860B9607A603B604AF2CC63C2F2B1
:101B800000031B68002B10D14AF23870C2F200002B
:101B90004FF461414FF0030200F07EF84AF2CC634B
:101BA000C2F200034FF001021A603B684AF238703B
:101BB000C2F2000079681A4600F070F93B681846D6
:101BC00007F11007BD4680BD80B584B000AF7860D6
:101BD0004AF2D063C2F200031B68002B08D14AF21C
:101BE000D063C2F200034AF67002C2F200021A6029
:101BF0004AF2D063C2F200031B68BB60EFF30883B4
:101C0000FB604AF2D063C2F200031A687B681A4490
:101C1000FB689A420FD94FF000004FF0010149F6DE
:101C2000E452C2F200024FF01903FFF79FFF4FF09A
:101C30000100FFF75BFF4AF2D063C2F200031A68AB
:101C40007B681A444AF2D063C2F200031A60BB6890
:101C5000184607F11007BD4680BD00BF80B483B0B1
:101C600000AF0346FB804EF20013CEF20003B7F93B
:101C700006204FEA5212F98801F01F014FF00100CF
:101C800000FA01F102F1600243F8221007F10C079B
:101C9000BD4680BC704700BF80B588B000AFF8601B
:101CA000B9601346FB714FF00103FB824FF0000354
:101CB000BB61FA684AF23873C2F200039A4207D055
:101CC000FA684AF21073C2F200039A4200D000BED2
:101CD000BB68002B00D100BE01F04EF9FA684AF251
:101CE0003873C2F200039A422ED1FB684FF0804253
:101CF0001A60FB684FF084425A60FB684FF00A029A
:101D00001A814AF25C13C2F200031B68BB6142F203
:101D10000003CEF2040342F20002CEF20402126B80
:101D200042F080021A634FF00A00FFF797FF42F279
:101D30000003CEF2040342F20002CEF20402126B60
:101D400022F080021A6331E0FA6840F20003C4F224
:101D500001031360FA6840F20003C4F220235360C9
:101D6000FB684FF00B021A814AF26013C2F20003C3
:101D70001B68BB6142F20003CEF2040342F2000290
:101D8000CEF20402126B42F480721A634FF00B0021
:101D9000FFF764FF42F20003CEF2040342F20002B6
:101DA000CEF20402126B22F480721A63FB681B6885
:101DB0004FF000021A71BB68002B21D0BA69BB68D2
:101DC000B2FBF3F3FB61FB6903F00803002B06D0C1
:101DD000FB694FEA131303F10103FB6103E0FB69A5
:101DE0004FEA1313FB61FA694FF6FF739A4200D969
:101DF00000BEFA694FF6FF739A4201D8FB69FB8275
:101E0000FB685B684FF00102C3F89C21FB681B680C
:101E1000FA8A4FEA122292B2D2B21A71FB681B6898
:101E2000FA8AD2B21A70FB685B684FF00002C3F8FE
:101E30009C21FB681B68FA791A73FB681B684FF0DA
:101E40000E021A72FB685B684FF00002C3F81022A2
:101E5000FB684FF000021A61FB684FF00002DA6085
:101E6000FB684FF000025A61FB684FF00002DA6134
:101E7000FA6842F26D13C2F200031362FB684FF07E
:101E800000029A61FB684FF000025A62FB684FF053
:101E900000029A7207F12007BD4680BD80B489B068
:101EA00000AFF860B9607A604FF000033B61FA68F8
:101EB0004AF23873C2F200039A4207D0FA684AF233
:101EC0001073C2F200039A4200D000BEBB68002B20
:101ED00000D100BE7B68002B00D100BEFA684AF238
:101EE0003873C2F200039A4206D0FA684AF21073BD
:101EF000C2F200039A423DD1BB68002B3AD07B6806
:101F0000002B37D0FB681B681B7DFB76FB689A7A39
:101F1000FB7E42EA0303DAB2FB689A72FB7E03F0AF
:101F20002003002B23D04FF01003FB617B680F2BA5
:101F300001D87B68FB614FF000037B610EE0FB681A
:101F40001B68B9683A690A4412781A703B6903F150
:101F500001033B617B6903F101037B617A69FB69E2
:101F60009A42ECD37A687B69C3EB02037B607B689F
:101F7000002BC7D107F12407BD4680BC704700BFC6
:101F800080B487B000AF786039604FF00003BB6069
:101F90007A684AF23873C2F200039A4207D07A682C
:101FA0004AF21073C2F200039A4200D000BE3B68AE
:101FB000002B00D100BE7A684AF23873C2F20003E7
:101FC0009A4206D07A684AF21073C2F200039A422B
:101FD00038D13B68002B35D03A68BB6813441B7876
:101FE0003B612CE07B681B681B7DFB757B689A7AE4
:101FF000FB7D42EA0303DAB27B689A72FB7D03F051
:102000002003002BEED04FF00003FB6011E07B6853
:102010001B683A69D2B21A70FB6803F10103FB60D6
:10202000BB6803F10103BB603A68BB6813441B78CB
:102030003B613B69002B02D0FB680F2BE7D93B6962
:10204000002BCFD107F11C07BD4680BC704700BFF5
:1020500080B584B000AF78607A684AF23873C2F213
:1020600000039A4207D07A684AF21073C2F2000362
:102070009A4200D000BE7A684AF23873C2F2000376
:102080009A4206D07A684AF21073C2F200039A426A
:1020900067D17B681B681B7ADBB203F00F03FB730D
:1020A000FB7B0C2B54D801A252F823F0E120002036
:1020B00051210020FD200020512100201921002065
:1020C00051210020352100205121002051210020E4
:1020D00051210020512100205121002019210020F0
:1020E0007B685B6A002B00D100BE7B685B6A002BBB
:1020F00030D07B685B6A7868984732E07B681B6AFF
:10210000002B00D100BE7B681B6A002B24D07B68AB
:102110001B6A7868984724E07B68DB69002B00D154
:1021200000BE7B68DB69002B18D07B68DB697868B0
:10213000984716E07B689B69002B00D100BE7B6846
:102140009B69002B0CD07B689B697868984708E0F6
:1021500000BE06E000BF04E000BF02E000BF00E0F8
:1021600000BF07F11007BD4680BD00BF80B487B037
:1021700000AF78607A684AF23873C2F200039A427C
:1021800007D07A684AF21073C2F200039A4200D074
:1021900000BE7B68DB68002B00D100BE7B681B693A
:1021A000002B00D100BE7A684AF23873C2F20003F5
:1021B0009A4206D07A684AF21073C2F200039A4239
:1021C00052D17B68DB68002B4ED07B681B69002BEB
:1021D0004AD07B681B681B7DFB727B689A7AFB7A0E
:1021E00042EA0303DAB27B689A72FB7A03F02003B7
:1021F000002B29D04FF010033B617B681A697B6884
:102200005B69C3EB02037B617B690F2B01D87B69A0
:102210003B614FF00003FB6012E07B681B687A684B
:10222000D1687A6852690A4412781A707B685B69CF
:1022300003F101027B685A61FB6803F10103FB6053
:10224000FA683B699A42E8D37B685A697B681B69E4
:102250009A4209D17B684FF000021A617B685B6883
:102260004FF00002C3F8842007F11C07BD4680BC74
:10227000704700BF684620F007018D4689B500AF62
:102280004AF23870C2F20000FFF7E2FE4FF00A0097
:10229000FFF7E4FCBD46BDE889408546704700BFB6
:1022A000684620F007018D4689B500AF4AF21070EC
:1022B000C2F20000FFF7CCFE4FF00B00FFF7CEFCA0
:1022C000BD46BDE889408546704700BF80B483B0F5
:1022D00000AF0346FB804EF20013CEF20003B7F9C5
:1022E00006204FEA5212F98801F01F014FF0010059
:1022F00000FA01F143F8221007F10C07BD4680BC3B
:10230000704700BF80B483B000AF0346FB804EF23D
:102310000013CEF20003B7F906204FEA5212F988F3
:1023200001F01F014FF0010000FA01F102F120025B
:1023300043F8221007F10C07BD4680BC704700BF70
:1023400080B483B000AF0346FB804EF20013CEF2A0
:102350000003B7F906204FEA5212F98801F01F0175
:102360004FF0010000FA01F102F1600243F822107F
:1023700007F10C07BD4680BC704700BF80B584B034
:1023800000AF78607A684AF2E473C2F200039A42BE
:1023900007D07A684AF26073C2F200039A4200D012
:1023A00000BE7B689B881BB21846FFF7ABFF7868BE
:1023B0004FF000014FF0840202F05EF97B684FF0AD
:1023C00001025A624FF00003FB810DE0FB897A683D
:1023D00003F106034FEAC30313444FF0FF325A6080
:1023E000FB8903F10103FB81FB89072BEED97A6896
:1023F0004AF2E473C2F200039A4226D17A6841F2AB
:102400000003C4F2000313607B684FF00C029A8053
:1024100042F20003CEF2040342F20002CEF20402C2
:10242000126B42F400721A634FF00C00FFF788FF42
:1024300042F20003CEF2040342F20002CEF20402A2
:10244000126B22F400721A6325E07A6841F20003ED
:10245000C4F2010313607B684FF00D029A8042F2D0
:102460000003CEF2040342F20002CEF20402126B29
:1024700042F480621A634FF00D00FFF761FF42F2F1
:102480000003CEF2040342F20002CEF20402126B09
:1024900022F480621A637B681B687A68126812688B
:1024A00022F000421A6007F11007BD4680BD00BF50
:1024B00080B58AB000AF78607B681B681B68FB60E2
:1024C0007B681B689B693B617B681B685B687B6101
:1024D0007B681B689B6ABB617B681B681B6BFB612D
:1024E0007B681B685B6B3B627B681B68DB697B629C
:1024F0007A684AF2E473C2F200039A422ED17A68F3
:1025000041F20003C4F2000313607B684FF00C0239
:102510009A8042F20003CEF2040342F20002CEF2AD
:102520000402126B42F400721A634FF00C00FFF7C2
:1025300007FF42F20003CEF2040342F20002CEF2A1
:102540000402126B22F400721A637B681B687A68BB
:102550001268126822F000421A602DE07A6841F297
:102560000003C4F2010313607B684FF00D029A80F0
:1025700042F20003CEF2040342F20002CEF2040261
:10258000126B42F480621A634FF00D00FFF7D8FE21
:1025900042F20003CEF2040342F20002CEF2040241
:1025A000126B22F480621A637B681B687A68126877
:1025B000126822F000421A60FB6823F00103FB60FE
:1025C0007B681B68FA681A607B681B683A699A61C5
:1025D0007B681B687A695A607B681B687A68126836
:1025E000126842F001021A607B681B68BA699A623D
:1025F0007B681B68FA691A637B681B683A6A5A63CE
:102600007B681B687A6ADA6107F12807BD4680BDDE
:1026100080B584B000AFF8607A600A46FA72FB7049
:10262000FA684AF2E473C2F200039A4207D0FA68E9
:102630004AF26073C2F200039A4200D000BEFB7AF5
:10264000072B00D900BE3B7E202B00D900BEFB68C3
:102650009B881BB21846FFF755FEFB684FF000023F
:1026600083F88020FB681B68FA681268126822F001
:1026700001021A60FB681B68FA681268126842F06F
:1026800002021A60FB681B68FA681268126842F05E
:1026900001021A60FB7A072B3FD87B68002B0BD016
:1026A0007B68B3F1007F07D07B68B3F1807F03D0F4
:1026B0007B68B3F1407F0FD1FA7A796840F2021358
:1026C000C2F2004341EA0303F96802F106024FEA4D
:1026D000C2020A4453600EE0FA7A796840F20213AB
:1026E000C2F2000341EA0303F96802F106024FEA6D
:1026F000C2020A445360FB7AFA6803F106034FEA08
:10270000C30313443A7E1A72FB7AFA6803F1060394
:102710004FEAC3031344FA785A72FB689B881BB2D2
:102720001846FFF7D3FD07F11007BD4680BD00BF77
:1027300080B584B000AF78600B46FB707A684AF2CF
:10274000E473C2F200039A4207D07A684AF26073D7
:10275000C2F200039A4200D000BE7B681B681B686F
:1027600003F00203002B00D100BEFB787A6803F16E
:1027700006034FEAC30313445B68B3F1FF3F00D184
:1027800000BE7B689B881BB21846FFF7BBFD7B68C9
:102790001B689B6803F00403FB60FB68002B02D0FE
:1027A0007868FFF785FE7B681B687A681268126894
:1027B00022F001021A607B681A68FB78796803F1DD
:1027C00006034FEAC3030B445B6813607B681A6817
:1027D000FB78796803F106034FEAC3030B445B7A85
:1027E00093617B681A68FB78796803F106034FEA06
:1027F000C3030B441B7A53607B681B687A681268BA
:10280000126842F001021A607B681B687A681268DD
:10281000D169FA784FF0010000FA02F241EA0202AF
:10282000DA617B689B881BB21846FFF74FFD07F102
:102830001007BD4680BD00BF80B584B000AF786092
:102840000B46FB707A684AF2E473C2F200039A42C4
:1028500007D07A684AF26073C2F200039A4200D04D
:1028600000BE7B681B681B6803F00203002B00D1CD
:1028700000BE7B689B881BB21846FFF743FD7B6850
:102880001B689B6803F00403FB60FB68002B02D00D
:102890007868FFF70DFE7B681B687A681268D1695B
:1028A000FA784FF0010000FA02F26FEA020201EA40
:1028B0000202DA617B689B881BB21846FFF706FDAF
:1028C00007F11007BD4680BD80B487B000AF7860C7
:1028D00039607A684AF2E473C2F200039A4207D080
:1028E0007A684AF26073C2F200039A4200D000BED6
:1028F0007B681B681B6803F00203002B00D100BE3D
:102900007B681A687B681B68196840F2FF03CFF682
:10291000007301EA030343F4807313607B681B6850
:102920007A681268D26A42F00C02DA627B681B682D
:102930009B6803F04003FB600BE07B681B681B692E
:10294000BB60BB68BB607B681B689B6803F040038F
:10295000FB60FB68002BF0D07B681B683A685A610B
:102960007B681B689B6803F001037B6105E07B6863
:102970001B689B6803F001037B617B69002BF6D029
:102980007B681B689B6803F002033B6105E07B6882
:102990001B689B6803F002033B613B69002BF6D088
:1029A0007B681B681B69184607F11C07BD4680BC85
:1029B000704700BF80B485B000AF78604FF000036F
:1029C000FB600EE07B681B687A6891687A68126920
:1029D0000A4412785A617B681B6903F101027B6823
:1029E0001A617B681B689B6803F48073002B05D118
:1029F0007B681A697B68DB689A42E3D37B681A6953
:102A00007B68DB689A421CD30EE07B681B687A689F
:102A100051697A68D2690A4412785A617B68DB6925
:102A200003F101027B68DA617B681B689B6803F431
:102A30008073002B05D17B68DA697B689B699A42B9
:102A4000E3D37B685B6A002B1FD07B681A697B68C5
:102A5000DB689A4219D37B68DA697B689B699A4282
:102A600013D308E07B681B684FF000025A61FB68D3
:102A700003F10103FB607B681B689B6803F48073B0
:102A8000002B02D1FB681F2BECD907F11407BD46C0
:102A900080BC704780B584B000AF78607B6893F8E5
:102AA0008030022B15D10CE07B681B681B69FB6032
:102AB0007B685B6F002B04D07B685B6FFA68104605
:102AC00098477B681B689B6803F04003002BEBD0A2
:102AD00032E07B6893F88030012B25D117E07B68CA
:102AE0001B681B69FB607B681A6B7B68DB6A9A4218
:102AF00007D27B689A6A7B681B6B1344FA68D2B270
:102B00001A707B681B6B03F101027B681A637B6898
:102B10001B689B6803F04003002BE0D00CE07B684F
:102B20001B681B69FB6000E000BF7B681B689B683B
:102B300003F04003002BF2D007F11007BD4680BD23
:102B400080B586B000AF78607B681B6803F1200316
:102B50003B617A684AF2E473C2F200039A4207D0FA
:102B60007A684AF26073C2F200039A4200D000BE53
:102B70003B691B6803F00203002B52D07B6893F87B
:102B80008030022B15D10CE07B681B681B69FB6051
:102B90007B685B6F002B04D07B685B6FFA68104624
:102BA00098477B681B689B6803F04003002BEBD0C1
:102BB00032E07B6893F88030012B25D117E07B68E9
:102BC0001B681B69FB607B681A6B7B68DB6A9A4237
:102BD00007D27B689A6A7B681B6B1344FA68D2B28F
:102BE0001A707B681B6B03F101027B681A637B68B8
:102BF0001B689B6803F04003002BE0D00CE07B686F
:102C00001B681B69FB6000E000BF7B681B689B685A
:102C100003F04003002BF2D07B681B684FF00202E8
:102C2000DA603B691B6803F00103DBB2002B12D0B2
:102C30007B6893F88030022B05D17B681B687A682B
:102C4000926F5A6102E07868FFF7B4FE7B681B68F8
:102C50004FF00102DA603B691B6803F01003002BA0
:102C600023D07868FFF716FF7B681B6A002B0BD018
:102C70007B681B6A7A68916A7A68126B084611460B
:102C800098477868FFF796FE7B684FF001025A621A
:102C90007B681B687A681268926A22F010029A6256
:102CA0007B681B684FF01002DA603B691B6803F019
:102CB0000403002B0FD07B681B687A681268D26A05
:102CC00042F00402DA627868FFF7F2FB7B681B6867
:102CD0004FF00402DA603B691B6803F00803002B25
:102CE00031D07B681B687A681268D26A42F00802A9
:102CF000DA627B6893F88030022B13D17B681A6804
:102D00007B681B68196840F2FF03CFF6007301EA85
:102D1000030343F4807313607B681B687A68926FC7
:102D20005A610BE07B6893F88030012B06D17B68F9
:102D30004FF000021A617868FFF73CFE7B681B6861
:102D40004FF00802DA603B691B6803F02003002B98
:102D500049D07868FFF79EFE7B681B6B7B617B68C0
:102D60001B6A002B1CD07B684FF000025A627B6804
:102D70004FF000025A617B684FF000029A617B6855
:102D80004FF00002DA617B681B684FF01002DA60D6
:102D90007B681B687A681268926A42F010029A6235
:102DA0007B684FF000021A617B681B687A681268C2
:102DB000D26A42F00C02DA627868FFF7FBFD7B68AA
:102DC0004FF000021A637B68DB6F002B06D07B6834
:102DD000DB6F7A68926A1046796998477B681B684E
:102DE0004FF02002DA6007F11807BD4680BD00BF32
:102DF000684620F007018D4689B500AF4AF2E470BD
:102E0000C2F20000FFF79CFE4FF00C00FFF798FAAB
:102E1000BD46BDE889408546704700BF684620F042
:102E200007018D4689B500AF4AF26070C2F200001A
:102E3000FFF786FE4FF00D00FFF782FABD46BDE8B2
:102E400089408546704700BF80B483B000AF034619
:102E5000FB804EF20013CEF20003B7F906204FEAD2
:102E60005212F98801F01F014FF0010000FA01F140
:102E700002F1600243F8221007F10C07BD4680BC46
:102E8000704700BF80B582B000AF42F20003CEF2BF
:102E9000040342F20002CEF20402126B42F48042BA
:102EA0001A634FF000037B600EE07A6849F6806396
:102EB000C2F2000333F812301BB21846FFF7C4FF0A
:102EC0007B6803F101037B607B681F2BEDD942F225
:102ED0000003CEF2040342F20002CEF20402126BAF
:102EE00022F480421A6307F10807BD4680BD00BF87
:102EF00080B485B000AF03463960FB71FB79FB609D
:102F0000FB681F2B00D900BEFB681F2B08D8FA688E
:102F100049F60063C2F2000353F822303A681A609F
:102F200007F11407BD4680BC704700BF80B485B070
:102F300000AF02460B46FA71BB71FB79FB60FB6880
:102F40001F2B00D900BEFB681F2B09D840F20003DD
:102F5000C4F22623FA68B97902F5886243F8221090
:102F600007F11407BD4680BC704700BF80B400AFB6
:102F7000BD4680BC704700BF80B58AB000AF49F63F
:102F8000C063C2F20003BC460FCB8CE80F0042F2D4
:102F90000003CEF204039B6C4FEA930303F0030398
:102FA0004FEA830307F12802134453F8283C3B619E
:102FB00042F20003CEF204039B6C4FEA131303F0BA
:102FC00003034FEA830307F12802134453F8283C14
:102FD0007B6142F20003CEF204039B6C4FEA931331
:102FE00003F003034FEA830307F12802134453F865
:102FF000283CBB6142F20003CEF20403DB6C4FEAD3
:10300000132303F01F033B6242F20003CEF20403DA
:10301000DB6C4FEA533303F001037B623B6A03F13D
:103020000103FB617B6A002B03D0FB694FEA43037A
:10303000FB6100F049F802464AF25813C2F200035D
:103040001A604AF25813C2F200031A683B69B2FBD5
:10305000F3F24AF25C13C2F200031A604AF2581308
:10306000C2F200031A687B69B2FBF3F24AF2601302
:10307000C2F200031A604AF25813C2F200031A683F
:10308000BB69B2FBF3F24AF26413C2F200031A60A6
:103090004AF25813C2F200031A68FB69B2FBF3F25A
:1030A0004AF26813C2F200031A604AF25813C2F2DD
:1030B00000031A684AF25413C2F200031A6007F1BF
:1030C0002807BD4680BD00BF80B48BB000AF4FF075
:1030D00000037B6040F61C03C6F20803BB6040F2AD
:1030E0003023C6F20803FB60FB681B6823F07043C3
:1030F0003B613A6941F2CF13C0F2A1539A4208D121
:103100004EF62C73C6F201037B617B691B687B6002
:103110003DE0BB681A6844F24133C4F654439A4216
:1031200035D140F64003C6F20803BB61BB691B689A
:10313000FB61FB6923F07F43FB61FA6940F20033D6
:10314000C0F201039A4222D9FA694FF6FF73C0F226
:1031500001039A4208D841F22C63C6F208033B628D
:103160003B6A1B687B6012E0FA694FF6FF73C0F29E
:1031700002039A4208D841F6AC63C6F208037B62A8
:103180007B6A1B687B6002E04FF000037B607B681A
:10319000002B05D100BE47F64003C0F27D137B60D3
:1031A0007B68184607F12C07BD4680BC704700BFFE
:1031B00080B483B000AF0346FB804EF20013CEF222
:1031C0000003B7F906204FEA5212F98801F01F01F7
:1031D0004FF0010000FA01F102F1600243F8221001
:1031E00007F10C07BD4680BC704700BF80B483B0B8
:1031F00000AF0346FB7107F10C07BD4680BC70476A
:10320000684620F007018D4689B500AF4FF00000F9
:10321000FFF7ECFF4FF07600FFF7CAFFBD46BDE8B1
:1032200089408546704700BF684620F007018D46FB
:1032300089B500AF4FF00100FFF7D8FF4FF07700DE
:10324000FFF7B6FFBD46BDE889408546704700BF21
:10325000684620F007018D4689B500AF4FF00200A7
:10326000FFF7C4FF4FF07800FFF7A2FFBD46BDE8AF
:1032700089408546704700BF684620F007018D46AB
:1032800089B500AF4FF00300FFF7B0FF4FF07900B2
:10329000FFF78EFFBD46BDE889408546704700BFF9
:1032A000684620F007018D4689B500AF4FF0040055
:1032B000FFF79CFF4FF07A00FFF77AFFBD46BDE8AD
:1032C00089408546704700BF684620F007018D465B
:1032D00089B500AF4FF00500FFF788FF4FF07B0086
:1032E000FFF766FFBD46BDE889408546704700BFD1
:1032F000684620F007018D4689B500AF4FF0060003
:10330000FFF774FF4FF07C00FFF752FFBD46BDE8AA
:1033100089408546704700BF684620F007018D460A
:1033200089B500AF4FF00700FFF760FF4FF07D0059
:10333000FFF73EFFBD46BDE889408546704700BFA8
:10334000684620F007018D4689B500AF4FF00800B0
:10335000FFF74CFF4FF07E00FFF72AFFBD46BDE8A8
:1033600089408546704700BF684620F007018D46BA
:1033700089B500AF4FF00900FFF738FF4FF07F002D
:10338000FFF716FFBD46BDE889408546704700BF80
:10339000684620F007018D4689B500AF4FF00A005E
:1033A000FFF724FF4FF08000FFF702FFBD46BDE8A6
:1033B00089408546704700BF684620F007018D466A
:1033C00089B500AF4FF00B00FFF710FF4FF0810001
:1033D000FFF7EEFEBD46BDE889408546704700BF59
:1033E000684620F007018D4689B500AF4FF00C000C
:1033F000FFF7FCFE4FF08200FFF7DAFEBD46BDE8A6
:1034000089408546704700BF684620F007018D4619
:1034100089B500AF4FF00D00FFF7E8FE4FF08300D5
:10342000FFF7C6FEBD46BDE889408546704700BF30
:10343000684620F007018D4689B500AF4FF00E00B9
:10344000FFF7D4FE4FF08400FFF7B2FEBD46BDE8A3
:1034500089408546704700BF684620F007018D46C9
:1034600089B500AF4FF00F00FFF7C0FE4FF08500A9
:10347000FFF79EFEBD46BDE889408546704700BF08
:10348000684620F007018D4689B500AF4FF0100067
:10349000FFF7ACFE4FF08600FFF78AFEBD46BDE8A1
:1034A00089408546704700BF684620F007018D4679
:1034B00089B500AF4FF01100FFF798FE4FF087007D
:1034C000FFF776FEBD46BDE889408546704700BFE0
:1034D000684620F007018D4689B500AF4FF0120015
:1034E000FFF784FE4FF08800FFF762FEBD46BDE89F
:1034F00089408546704700BF684620F007018D4629
:1035000089B500AF4FF01300FFF770FE4FF0890050
:10351000FFF74EFEBD46BDE889408546704700BFB7
:10352000684620F007018D4689B500AF4FF01400C2
:10353000FFF75CFE4FF08A00FFF73AFEBD46BDE89C
:1035400089408546704700BF684620F007018D46D8
:1035500089B500AF4FF01500FFF748FE4FF08B0024
:10356000FFF726FEBD46BDE889408546704700BF8F
:10357000684620F007018D4689B500AF4FF0160070
:10358000FFF734FE4FF08C00FFF712FEBD46BDE89A
:1035900089408546704700BF684620F007018D4688
:1035A00089B500AF4FF01700FFF720FE4FF08D00F8
:1035B000FFF7FEFDBD46BDE889408546704700BF68
:1035C000684620F007018D4689B500AF4FF018001E
:1035D000FFF70CFE4FF08E00FFF7EAFDBD46BDE899
:1035E00089408546704700BF684620F007018D4638
:1035F00089B500AF4FF01900FFF7F8FD4FF08F00CD
:10360000FFF7D6FDBD46BDE889408546704700BF3F
:10361000684620F007018D4689B500AF4FF01A00CB
:10362000FFF7E4FD4FF09000FFF7C2FDBD46BDE897
:1036300089408546704700BF684620F007018D46E7
:1036400089B500AF4FF01B00FFF7D0FD4FF09100A0
:10365000FFF7AEFDBD46BDE889408546704700BF17
:10366000684620F007018D4689B500AF4FF01C0079
:10367000FFF7BCFD4FF09200FFF79AFDBD46BDE895
:1036800089408546704700BF684620F007018D4697
:1036900089B500AF4FF01D00FFF7A8FD4FF0930074
:1036A000FFF786FDBD46BDE889408546704700BFEF
:1036B000684620F007018D4689B500AF4FF01E0027
:1036C000FFF794FD4FF09400FFF772FDBD46BDE893
:1036D00089408546704700BF684620F007018D4647
:1036E00089B500AF4FF01F00FFF780FD4FF0950048
:1036F000FFF75EFDBD46BDE889408546704700BFC7
:1037000081F0004102E000BF83F0004330B54FEA92
:1037100041044FEA430594EA050F08BF90EA020FFF
:103720001FBF54EA000C55EA020C7FEA645C7FEA92
:10373000655C00F0E2804FEA5454D4EB5555B8BFB5
:103740006D420CDD2C4480EA020281EA030382EA26
:10375000000083EA010180EA020281EA0303362DB8
:1037600088BF30BD11F0004F4FEA01314FF4801C8B
:103770004CEA113102D0404261EB410113F0004F9D
:103780004FEA03334CEA133302D0524263EB430354
:1037900094EA050F00F0A780A4F10104D5F1200EF2
:1037A0000DDB02FA0EFC22FA05F2801841F100014D
:1037B00003FA0EF2801843FA05F359410EE0A5F121
:1037C00020050EF1200E012A03FA0EFC28BF4CF052
:1037D000020C43FA05F3C01851EBE37101F0004508
:1037E00007D54FF0000EDCF1000C7EEB00006EEB15
:1037F0000101B1F5801F1BD3B1F5001F0CD349089F
:103800005FEA30004FEA3C0C04F101044FEA4452F5
:1038100012F5800F80F09A80BCF1004F08BF5FEA7C
:10382000500C50F1000041EB045141EA050130BD5C
:103830005FEA4C0C404141EB010111F4801FA4F1FF
:103840000104E9D191F0000F04BF01460020B1FA54
:1038500081F308BF2033A3F10B03B3F120020CDA8C
:103860000C3208DD02F1140CC2F10C0201FA0CF06A
:1038700021FA02F10CE002F11402D8BFC2F1200CCF
:1038800001FA02F120FA0CFCDCBF41EA0C01904085
:10389000E41AA2BF01EB0451294330BD6FEA0404CE
:1038A0001F3C1CDA0C340EDC04F11404C4F12002B9
:1038B00020FA04F001FA02F340EA030021FA04F3CB
:1038C00045EA030130BDC4F10C04C4F1200220FA22
:1038D00002F001FA04F340EA0300294630BD21FA60
:1038E00004F0294630BD94F0000F83F4801306BF26
:1038F00081F480110134013D4EE77FEA645C18BF1A
:103900007FEA655C29D094EA050F08BF90EA020FB0
:1039100005D054EA000C04BF1946104630BD91EAA8
:10392000030F1EBF0021002030BD5FEA545C05D1AB
:103930004000494128BF41F0004130BD14F58004EA
:103940003CBF01F5801130BD01F0004545F0FE415E
:1039500041F470014FF0000030BD7FEA645C1ABF93
:10396000194610467FEA655C1CBF0B46024650EACA
:10397000013406BF52EA033591EA030F41F40021F6
:1039800030BD00BF90F0000F04BF0021704730B57C
:103990004FF4806404F132044FF000054FF0000151
:1039A00050E700BF90F0000F04BF0021704730B512
:1039B0004FF4806404F1320410F0004548BF4042E7
:1039C0004FF000013EE700BF42004FEAE2014FEA3C
:1039D00031014FEA02701FBF12F07F4393F07F4F17
:1039E00081F06051704792F0000F14BF93F07F4F49
:1039F000704730B54FF4607401F0004521F000418C
:103A000020E700BF50EA010208BF704730B54FF011
:103A100000050AE050EA010208BF704730B511F016
:103A2000004502D5404261EB41014FF4806404F14E
:103A300032045FEA915C3FF4DCAE4FF003025FEAD0
:103A4000DC0C18BF03325FEADC0C18BF033202EB58
:103A5000DC02C2F1200300FA03FC20FA02F001FAB2
:103A600003FE40EA0E0021FA02F11444C1E600BF51
:103A700070B54FF0FF0C4CF4E06C1CEA11541DBF04
:103A80001CEA135594EA0C0F95EA0C0F00F0DEF8CF
:103A90002C4481EA030621EA4C5123EA4C5350EAB4
:103AA000013518BF52EA033541F4801143F4801305
:103AB00038D0A0FB02CE4FF00005E1FB02E506F096
:103AC0000042E0FB03E54FF00006E1FB03569CF0EB
:103AD000000F18BF4EF0010EA4F1FF04B6F5007FF1
:103AE00064F5407404D25FEA4E0E6D4146EB060663
:103AF00042EAC62141EA55514FEAC52040EA5E50EC
:103B00004FEACE2EB4F1FD0C88BFBCF5E06F1ED895
:103B1000BEF1004F08BF5FEA500E50F1000041EBCC
:103B2000045170BD06F0004646EA010140EA020079
:103B300081EA0301B4EB5C04C2BFD4EB0C0541EA9B
:103B4000045170BD41F480114FF0000E013C00F3B0
:103B5000AB8014F1360FDEBF002001F0004170BDD4
:103B6000C4F10004203C35DA0C341BDC04F11404ED
:103B7000C4F1200500FA05F320FA04F001FA05F279
:103B800040EA020001F0004221F0004110EBD37046
:103B900021FA04F642EB06015EEA430E08BF20EA72
:103BA000D37070BDC4F10C04C4F1200500FA04F315
:103BB00020FA05F001FA04F240EA020001F00041A7
:103BC00010EBD37041F100015EEA430E08BF20EA1A
:103BD000D37070BDC4F1200500FA05F24EEA020E62
:103BE00020FA04F301FA05F243EA020321FA04F091
:103BF00001F0004121FA04F220EA020000EBD37048
:103C00005EEA430E08BF20EAD37070BD94F0000F47
:103C10000FD101F00046400041EB010111F4801F7B
:103C200008BF013CF7D041EA060195F0000F18BF2C
:103C3000704703F00046520043EB030313F4801F68
:103C400008BF013DF7D043EA0603704794EA0C0F22
:103C50000CEA135518BF95EA0C0F0CD050EA410638
:103C600018BF52EA4306D1D181EA030101F00041B5
:103C70004FF0000070BD50EA410606BF10461946DD
:103C800052EA430619D094EA0C0F02D150EA0136E9
:103C900013D195EA0C0F05D152EA03361CBF10462A
:103CA00019460AD181EA030101F0004141F0FE41C9
:103CB00041F470014FF0000070BD41F0FE4141F44D
:103CC000780170BD70B54FF0FF0C4CF4E06C1CEA4D
:103CD00011541DBF1CEA135594EA0C0F95EA0C0F02
:103CE00000F0A7F8A4EB050481EA030E52EA0335BD
:103CF0004FEA013100F088804FEA03334FF08055DE
:103D000045EA131343EA12634FEA022245EA11150A
:103D100045EA10654FEA00260EF000419D4208BFBB
:103D2000964244F1FD0404F5407402D25B084FEA68
:103D30003202B61A65EB03055B084FEA32024FF414
:103D400080104FF4002CB6EB020E75EB030E22BF71
:103D5000B61A754640EA0C005B084FEA3202B6EB31
:103D6000020E75EB030E22BFB61A754640EA5C00E0
:103D70005B084FEA3202B6EB020E75EB030E22BF70
:103D8000B61A754640EA9C005B084FEA3202B6EB71
:103D9000020E75EB030E22BFB61A754640EADC0030
:103DA00055EA060E18D04FEA051545EA16754FEA92
:103DB00006164FEAC30343EA52734FEAC2025FEAB0
:103DC0001C1CC0D111F4801F0BD141EA00014FF03F
:103DD00000004FF0004CB6E711F4801F04BF014310
:103DE0000020B4F1FD0C88BFBCF5E06F3FF6AFAE2C
:103DF000B5EB030C04BFB6EB020C5FEA500C50F1BC
:103E0000000041EB045170BD0EF0004E4EEA11313E
:103E100014EB5C04C2BFD4EB0C0541EA045170BD45
:103E200041F480114FF0000E013C90E645EA060E89
:103E30008DE60CEA135594EA0C0F08BF95EA0C0FB7
:103E40003FF43BAF94EA0C0F0AD150EA01347FF4FF
:103E500034AF95EA0C0F7FF425AF104619462CE7D6
:103E600095EA0C0F06D152EA03353FF4FDAE104639
:103E7000194622E750EA410618BF52EA43067FF48A
:103E8000C5AE50EA41047FF40DAF52EA43057FF41A
:103E9000EBAE12E74A0011D212F5001211D20DD585
:103EA0006FF47873B3EB62520ED44FEAC12343F040
:103EB000004343EA505323FA02F070474FF00000EA
:103EC000704750EA013002D14FF0FF3070474FF099
:103ED0000000704770B54AF238164AF23815C2F23F
:103EE0000006C2F20005761BB61006D0002455F875
:103EF000243001349847A642F9D84AF238154AF2DC
:103F00003C16C2F20005C2F20006761B06F008F964
:103F1000B61006D0002455F8243001349847A64244
:103F2000F9D870BD4AF26C130146C2F2000318685A
:103F300003F0BEBB4AF26C130146C2F200031868DC
:103F400000F000B82DE9F04F01F10B04162C83B0FE
:103F500006462FD8002310248C422CBF194643F06C
:103F60000101002930D1304600F0F0FBB4F5FC7FB0
:103F70002ED24FEAD40E4AF26025C2F2000505EBBC
:103F8000CE02D368934200F006825A6803F1080516
:103F9000D968304622F0030C9A6863445C688A60F2
:103FA00044F00104D1605C6000F0D2FB284603B00D
:103FB000BDE8F08F24F00704E30F8C422CBF1946B4
:103FC00043F001010029CED00C2300253360EDE73A
:103FD0005FEA542E04BF4FEAD40E4FEACE0040F001
:103FE00090804AF26025C2F200052818C368984202
:103FF00006D10DE0002A80F26F81DB68984207D07D
:10400000596821F003010A1B0F2AF3DD0EF1FF3E70
:104010000EF1010E4AF26027C2F2000707F1080113
:104020008B68994208BF7A6826D05A6822F0030C40
:10403000C4EB0C020F2A00F39481002AC960896046
:1040400080F29980BCF5007F80F065814FEADC0C3E
:104050004FF0010A7A6807EBCC004FEAAC0C0AFA81
:104060000CFCD860D0F808804CEA02027A60C3F8F1
:104070000880C8F80C3083604FF0010C4FEAAE03A3
:104080000CFA03FC944500F2828012EA0C0F08D16E
:104090002EF0030E4FEA4C0C0EF1040E12EA0C0F38
:1040A000F8D007EBCE09F246C846D8F80C30984550
:1040B00007D168E1002A80F27881DB68984500F03A
:1040C0006281586820F00300021B0F2AF2DD1D46B2
:1040D0001F19D3F80CC044F0010E55F8084F3046B4
:1040E000BA5042F00102C3F804E0CCF80840C4F82A
:1040F0000CC08F60CF607A60B960F96000F028FB77
:1041000054E7BEF1040F9EBF4FEA941E0EF1380E25
:104110004FEACE007FF665AFBEF1140F9CBF0EF1E3
:104120005B0E4FEACE007FF65CAFBEF1540F9EBF30
:104130004FEA143E0EF16E0E4FEACE007FF651AFFD
:10414000BEF5AA7F9EBF4FEAD43E0EF1770E4FEA2E
:10415000CE007FF646AF40F254539E4595BF4FEADE
:10416000944E4FF47C700EF17C0E4FF07E0E98BF93
:104170004FEACE0035E703EB0C0203F108053046A9
:10418000536843F00103536000F0E2FA0EE7D7F8FA
:104190000880D8F8043023F00309C4EB09024C4529
:1041A00094BF002301230F2AD8BF43F00103002B43
:1041B00000F0A1804AF2D46BD5F80824C2F2000BBB
:1041C000DBF8003010331B19B2F1FF3F06D003F5C6
:1041D0007E631F3323F47E6323F01F0319463046AA
:1041E000019300F02DFB019BB0F1FF3F824600F0F0
:1041F000F48008EB0901814200F2EC80DBF8042036
:104200009A185145CBF8042000F04581D5F80854A0
:104210004AF26020C2F20000B5F1FF3F08BFC0F8CB
:1042200008A403D05244511ACBF804101AF0070521
:10423000304617BFC5F108054FF48055AA4405F56F
:10424000805553441B051B0DED1A294600F0F8FA62
:10425000B0F1FF3F00F02C81CAEB0001491941F099
:104260000101DBF804204AF2D463C7F808A0C2F2C7
:104270000003AA18B845CBF80420CAF8041017D0D8
:10428000B9F10F0F40F2DF80A9F10C01052521F0F3
:10429000070108EB01000F2985604560D8F804008C
:1042A00000F0010041EA0000C8F8040000F2AC8010
:1042B000D0464AF2D463DBF82C10C2F200038A42E3
:1042C000DBF8301088BFDA624AF2D463C2F200032E
:1042D0008A4288BF1A6382E05C189A68D9683046BF
:1042E000666803F108058A6046F00103D1606360E7
:1042F00000F02EFA5AE608EB040342F0010244F003
:1043000001043046C8F8044008F108055A60BB6053
:1043100000F01EFA4AE64FEA5C22042A54D9142A15
:1043200000F289805B324FEAC208A8444AF2602753
:10433000C2F20007D8F80800404503D16FE080685A
:10434000804504D0426822F003029445F7D3D0F8A8
:104350000CC0C3F80CC098607A68C360CCF8083011
:104360008AE61F19304644F00104CF605C6003F117
:104370000805BA5042F001028F607A60B960F960B6
:1043800000F0E6F912E60AF1010A1AF0030F5FD015
:1043900003F1080889E603F10802D3689A4208BFCE
:1043A0000EF1020E3FF436AEEFE51D461918DA683D
:1043B000304655F8083F4C68936044F00104DA60D9
:1043C0004C6000F0C5F9F1E54FEA9C1238324FEA33
:1043D000C208AAE7B8453FF411AFD7F80880D8F86B
:1043E000042022F00302944294BF00230123121BF5
:1043F0000F2AD8BF43F00103002B3FF47CAF3046B7
:10440000002500F0A5F9D1E508F108013046019337
:1044100003F04EF9019BD7F808805A6849E74FF03E
:10442000010AD7F80480921084460AFA02F248EA98
:1044300002027A608DE7542A24D84FEA1C326E3289
:104440004FEAC20871E70123D046CAF80430C6E734
:104450004A461EF0030F13460EF1FF3E33D053F8C9
:1044600008299A42F5D07B684FEA4C0C9C453FF6F0
:104470008EAEBCF1000F3FF48AAE1CEA030F27D0CA
:10448000D6460EE6B2F5AA7F15D84FEADC3277326F
:104490004FEAC20849E70805000D00287FF4B6AED0
:1044A000D7F808804B4443F00103C8F8043000E714
:1044B00001210025D5E640F2545082420DD94FF437
:1044C0007C787E2231E77B6823EA0C037B60CBE7B4
:1044D0004FEA4C0C0AF1040ACFE74FEA9C427C32C7
:1044E0004FEAC20821E700BF032A2DE9F0070BD8E5
:1044F0003AB1002311F803C000F803C0013393421E
:10450000F8D1BDE8F007704782180C46034603E077
:1045100014F8011C03F8011C03F003061946A44615
:1045200001330134002EF3D11CF00304634608BFAD
:10453000C1EB020C68D06542C4F1040A0CEB05071C
:1045400033464FEACA0A5CF805604FEAC408551AB8
:1045500008E057F8044F264604FA0AF449EA04042E
:10456000CC5004335C18032D26FA08F9A5F1040594
:104570000CEB0306EDDC002302E0F15CE1540133B7
:1045800019199142F9D3BCE753F8404C41F8404C1B
:1045900053F83C4C41F83C4C53F8384C41F8384CFB
:1045A00053F8344C41F8344C53F8304C41F8304C0B
:1045B00053F82C4C41F82C4C53F8284C41F8284C1B
:1045C00053F8244C41F8244C53F8204C41F8204C2B
:1045D00053F81C4C41F81C4C53F8184C41F8184C3B
:1045E00053F8144C41F8144C53F8104C41F8104C4B
:1045F00053F80C4C41F80C4C53F8084C41F8084C5B
:1046000053F8044C41F8044C1C460D4640334031ED
:10461000BCF13F0FACF1400CB6DC21462B46541BDD
:104620000FE051F8105C43F8105C51F80C5C43F853
:104630000C5C51F8085C43F8085C51F8045C43F8E2
:10464000045C0F2C0D469C4601F1100103F1100390
:10465000A4F11004E5DCCCEB0201002303E0EC58EC
:104660004CF8034004335E19032903EB0C04A1F159
:104670000401F4DC7FE700BF032AC9B230B407D8D5
:1046800022B10023C15401339342FBD130BC7047A7
:1046900000EB020C034601E003F8011C03F00304E5
:1046A0001A460133002CF7D14FF00133C2EB0C0452
:1046B00003FB01F31FE042F8403C42F83C3C42F867
:1046C000383C42F8343C42F8303C42F82C3C42F84A
:1046D000283C42F8243C42F8203C42F81C3C42F87A
:1046E000183C42F8143C42F8103C42F80C3C42F8AA
:1046F000083C42F8043C154640323F2CA4F14004EB
:10470000D9DC2A46C5EB0C0407E042F8103C42F81D
:104710000C3C42F8083C42F8043C154610320F2C81
:10472000A4F11004F1DC2A46C5EB0C0501E042F8C7
:10473000043C14460432032DA5F10405F7DC01E026
:1047400004F8011B6445FBD3A0E700BF704700BF1E
:10475000704700BF0FB44AF26C13C2F2000310B5E9
:104760001C6882B024B1A36913B9204602F01CFF73
:10477000204605AC049A23468168019400F0B2F803
:1047800002B0BDE8104004B0704700BF0EB410B5D1
:10479000044683B018B183690BB902F005FF2046C7
:1047A00006AC059A23468168019400F09BF803B09B
:1047B000BDE8104003B0704730B5044689B00846E4
:1047C0000D4600F051F849F6D8630195C2F2000396
:1047D00003930290431C07930123049301AB0593B9
:1047E000022306930CB1A369EBB14AF26C13204685
:1047F000C2F200031B689B689A8912F4005F01BF34
:1048000042F400529A81596E21F40052A16808BF07
:104810005A6605AA03F02CF8002814BF4FF0FF30A9
:104820000A2009B030BD204602F0BEFEDDE700BF21
:104830004AF26C130146C2F200031868BCE700BFDD
:1048400038B54AF66804C2F200040546084600235B
:104850002360FDF7B9F9B0F1FF3F00D038BD236800
:10486000002BFBD02B6038BD20F0030110F00300BB
:10487000C0F1000051F8043B00F1040C4FEACC0CED
:104880006FF000021CBF22FA0CF213434FF0010C30
:104890004CEA0C2C4CEA0C4CA3EB0C0222EA03026F
:1048A00012EACC1204BF51F8043B0430F4D013F0E8
:1048B000FF0F1FBF013013F47F4F013013F47F0F40
:1048C00018BF0130704700BF936810B5144613B984
:1048D0005360184610BD02F0CBFF00236360A36055
:1048E00010BD00BF2DE9F04FADF5AE6D83B00E46A3
:1048F00015469A46814603F0ABF900681D90B9F160
:10490000000F04D0D9F81830002B00F05A8149F676
:104910005073C2F200039E4208BFD9F8046010D061
:1049200049F67073C2F200039E4208BFD9F80860CE
:1049300007D049F69073C2F200039E4208BFD9F82F
:104940000C60B6F80CC01FFA8CF313F4005F09D1A9
:104950004CF4005C726EA6F80CC01FFA8CF322F4C3
:104960000052726613F0080F01F001833269002AC9
:1049700001F0FD8203F01A030A2B00F0E080002210
:1049800012921A9200231C920DF59C641192043429
:1049900019920DF5A4621B9304320DF59063283231
:1049A0000333189207930023CDF84C45CDF85035CA
:1049B000CDF854352B781A1E18BF0122252B0CBFB9
:1049C000002202F0010232B32F4617F8013F1A1EEF
:1049D00018BF0122252B0CBF002202F00102002A81
:1049E000F3D1B7EB050808BF3D4614D0C4F80480E6
:1049F000DDF85035DDF8542501332560072B42449E
:104A0000CDF85035CDF8542578DC083411983D4662
:104A1000404411903B78002B7CD06B1C4FF0FF374B
:104A20002B204FF0200C00214FF000020F918DF849
:104A30007725CDF82CA06A780A915D1CA2F120039D
:104A4000582B00F28682DFE813F098028402840279
:104A5000A402840284028402840284028402AD02DD
:104A6000BA028402C102CA028402E702F002F00222
:104A7000F002F002F002F002F002F002F002840212
:104A800084028402840284028402840284028402F6
:104A9000840204032603840226038402840284021F
:104AA00084026A03840284028104840284028402F0
:104AB000840284021404840284022F048402840287
:104AC00084028402840284028402840284028402B6
:104AD0004F0465042603260326037303650484023A
:104AE00084027903840285039603AD030A048402D9
:104AF000CC038402F40384028402C0000DF5A86292
:104B0000484631460C32FFF7DFFE58B90DF59C647C
:104B100004347BE7DDF85435002B41F0928100230B
:104B2000CDF85035B38913F0400F02D04FF0FF306D
:104B3000119011985FB00DF5806DBDE8F08FB6F95A
:104B40000E30002BFFF61BAF376A2CF0020CD6F8A4
:104B500028E00DF58E64ADF888C40C34B6F80EC0AC
:104B60002A465346484621461FADCDF89C7400277F
:104B7000CDF88C54CDF87C544FF48065CDF8A4E486
:104B8000ADF88AC4CDF89054CDF89474CDF884541F
:104B9000FFF7A8FE0028119009DB2146484602F0E5
:104BA00093FB1199B84218BF4FF0FF311191BDF836
:104BB000883413F0400FBCD0B38943F04003B38175
:104BC000B7E7484602F0F0FCA1E60A9849F6207CD7
:104BD000C2F2000C169210F0200FCDF864C000F065
:104BE0006E830B99CB1D23F0070303F108020B9290
:104BF000D3E900AB5AEA0B020A9B0CBF0022012248
:104C0000134240F06B8602234FF000018DF87715B8
:104C1000002FA2BFDDF828C02CF0800CCDF828C0F2
:104C2000002F18BF42F00102002A00F01E84012B61
:104C300000F0DE85022B00F0C185189913914FEA30
:104C4000DA084FEADB0C48EA4B780AF00700E34643
:104C5000C24630305AEA0B0201F8010DEFD1DDF8FF
:104C600028C013911CF0010F40F08C861898401A50
:104C700010909DF87735109A1797BA42B8BF3A4608
:104C80000C9213B10C9A01320C920A9B0A9813F001
:104C9000020315931EBFDDF830C00CF1020CCDF8F5
:104CA00030C010F0840014904DD10F990C9A8F1AD7
:104CB000002F48DD102F49F6DC68D8BFC2F200088B
:104CC00030DDC2F200080DF5A86B43464FF0100A24
:104CD000A8460BF10C0B1D4602E0103F102F1EDD05
:104CE000C4F804A0DDF85035DDF854250133256003
:104CF0001032072BCDF8542504F10804CDF85035B7
:104D0000EBDD0DF59C64484631465A460434FFF706
:104D1000DBFD00287FF406AF103F102FE0DC2B46B0
:104D2000454698466760DDF85035C4F800805A1C47
:104D3000DDF85435CDF85025DB19072ACDF8543568
:104D400000F38A8508349DF877359BB101236360B1
:104D5000DDF850350DF5AE6207322260DDF85425DE
:104D60000133CDF850350132072BCDF8542500F32F
:104D7000B6840834159B9BB102236360DDF850357F
:104D80000DF5AE6204322260DDF854250133CDF812
:104D900050350232072BCDF8542500F3AF84083488
:104DA000DDF850C0BCF1800F00F07683179B109A9D
:104DB0009F1A002F43DD102FDFF88C8B2EDD43462A
:104DC0000DF5A86BA8464FF0100A0BF10C0B1D4611
:104DD00002E0103F102F1EDDC4F804A0DDF85035AE
:104DE000DDF85425013325601032072BCDF854250A
:104DF00004F10804CDF85035EBDD0DF59C64484610
:104E000031465A460434FFF75FFD00287FF48AAE2E
:104E1000103F102FE0DC2B46454698466760DDF8D2
:104E20005035DDF854250133C4F80080D219072B22
:104E3000CDF85425CDF8503500F342840834DDF820
:104E400028C01CF4807F40F09D8210981399606008
:104E5000DDF85035DDF85425013321601218072B99
:104E6000CDF85035D8BF04F10803CDF8542500F330
:104E70009B830A9911F0040F55D00F9ADDF830C0CA
:104E8000CCEB0207002F4EDD102F49F6DC68D8BFAF
:104E9000C2F200082EDDC2F200080DF5A86A4246F3
:104EA0001024A8460AF10C0A154602E0103F102F04
:104EB0001DDD5C60DDF85025DDF8541501321D6004
:104EC0001031072ACDF8541503F10803CDF8502509
:104ED000ECDD484631465246FFF7F6FC0DF59C6383
:104EE000043300287FF41EAE103F102FE1DC2A4669
:104EF000454690465F60DDF85025C3F80080DDF838
:104F000054350132CDF85025FB18072ACDF8543519
:104F10000BDD0DF5A862484631460C32FFF7D4FC94
:104F200000287FF4FFADDDF8543511980C9A0F99E5
:104F30008A42ACBF801840181190002B40F0428389
:104F40000DF59C640023DDF82CA00434CDF8503519
:104F500030E51692002A3FF4DDAD0DF5A460012383
:104F60004FF0000C04300C938DF824258DF877C594
:104F7000139010930021179187E69DF87735002B49
:104F800040F02B850B992B468DF877C52A780B912D
:104F900053E50B990A9B43F001030A932B462A78A9
:104FA0000B914AE50B990B9A09680F91111D0F9B04
:104FB000002BC0F280872A782B460B913DE50B9998
:104FC0002B468DF877052A780B9136E50B990A9BCD
:104FD00043F004030A932B462A780B912DE52B46C8
:104FE00013F8012B2A2A01F0CD80A2F13001092902
:104FF00001F237800235002715F8012C07EB8707EF
:105000002B46013501EB4707A2F130010929F3D9FD
:1050100047EAE7771D4611E50B992B460A9A42F0BD
:1050200080020A922A780B9107E5A2F130014FF035
:1050300000082B4608EB880813F8012B01EB480801
:10504000A2F130011D460929F3D9CDF83C801D4657
:10505000F4E40A9B169243F010030A93DDF828C08B
:105060001CF0200F00F05D810B98C31D23F0070397
:1050700003F108010B91D3E900ABBAF1000F7BF10A
:105080000002C0F29B845AEA0B034FF001030CBFED
:1050900000220122BCE50A98169210F0080F00F0D9
:1050A000ED840B99CB1D23F0070303F108020B924B
:1050B000D3F80480D3F800A0CDF86C80CDF848A0D8
:1050C0005046414603F082FD8346002800F0998552
:1050D000504600220023414604F06CF9002840F0BD
:1050E0000B859DF8773549F6147149F610721698BC
:1050F000C2F20001C2F200024FF0030C4728D8BFF1
:10510000114613910A99CDF830C021F08001CDF8F5
:1051100040C00A914FF0000CCDF85CC0B1E50B998E
:105120000A9B43F008030A932B462A780B9184E4E8
:105130000A9941F040010A910B993CE72A786C2AC0
:1051400000F055850B990A9B0B9143F010030A93CD
:105150002B4672E40A9A12F0200F00F082840B981A
:10516000119A036810464FEAE0710B9AC3E90001F7
:1051700002F1040A1EE416920A9A12F0200300F0CB
:10518000EF800B9BDA1D002322F0070202F1080CCE
:10519000CDF82CC0D2E900AB5AEA0B000CBF0022BC
:1051A000012231E50B987821DDF828C016910368BB
:1051B00049F620708DF8751530218DF874154CF076
:1051C000020C0B991A1E18BF0122C2F200009A4667
:1051D0004FF0000B0431CDF828C0199002230B9139
:1051E00012E50B9B16924FF00002181D8DF87725E3
:1051F0001B680B901393002B00F0C686002F1398AA
:10520000C0F28F8600213A4602F0C4FD0346002812
:1052100000F0F58613981B1A1093BB4240F3BE852D
:105220001097002127EAE7779DF877350C971791BB
:1052300027E5DDF828C016921CF0200F23D00B982C
:105240000123C21D22F0070202F108010B91D2E9ED
:1052500000AB5AEA0B020CBF00220122D4E40A99E7
:105260002B4641F020010A910B992A780B91FFF708
:10527000E4BB0A9B169243F010030A93DDF828C0A2
:105280001CF0200FDBD10A9B13F0100F00F0D58328
:105290000B980123021D0B9201680A1E18BF012200
:1052A0008A464FF0000BAFE40A98169249F6FC626A
:1052B00010F0200FC2F2000219927FF492AC0A9B08
:1052C00013F0100F40F01A830A9A12F0400F00F00A
:1052D00015830B9B03F1040CCDF82CC0B3F800A090
:1052E000D2464FF0000B85E416920DF5A4610B9A9F
:1052F0004FF0010C4FF000000431CDF830C01368BE
:1053000004328DF877050B921391CDF840C08DF8DB
:1053100024352FE6DDF828C016921CF0200F7FF40C
:10532000A3AE0A9A12F0100F40F0F1820A9A12F01E
:10533000400F00F0EC820B9B03F1040CCDF82CC065
:10534000B3F900A0D2464FEAEA7B96E60A99169294
:1053500041F010010A910A9A12F020037FF411AF74
:105360000A9911F0100200F054830B9A02F1040C18
:10537000CDF82CC011680A1E18BF01228A464FF0D2
:10538000000B41E4169A652A40F328811298002206
:1053900000231B9904F004F8002800F0BE810123CB
:1053A0006360DDF8502549F63C73C2F200032360C8
:1053B000DDF854350132CDF850250133072ACDF8F8
:1053C0005435D8BF04F1080300F39B83DDF8702542
:1053D0001A98824204DB0A9911F0010F3FF449AD9B
:1053E00001225A60DDF85025DDF8541501321D9870
:1053F0000131072ACDF854151860CDF8502500F377
:105400005F8508331A994F1E002F7FF732AD102F9A
:10541000DFF8348540F3EA8242460DF5A86AA846D3
:1054200010240AF10C0A154603E0103F102F40F338
:10543000DA825C60DDF85025DDF8541501321D601C
:105440001031072ACDF8541503F10803CDF8502583
:10545000EBDD484631465246FFF736FA0DF59C63C0
:1054600004330028E1D0FFF75DBB7BB90A9911F046
:10547000010F0BD00DF5A462302304328DF84B35AB
:105480002732012313921093FFF7F3BB18980021E2
:1054900010911390FFF7EDBB0F980C99471A002F4E
:1054A0007FF784AC102FDFF8A0842EDD43460DF586
:1054B000A86BA8464FF0100A0BF10C0B1D4602E03A
:1054C000103F102F1EDDC4F804A0DDF85035DDF8C4
:1054D0005425013325601032072BCDF8542504F1F3
:1054E0000804CDF85035EBDD0DF59C644846314697
:1054F0005A460434FFF7E8F900287FF413AB103F55
:10550000102FE0DC2B46454698466760DDF85035A5
:10551000C4F800805A1CDDF85435CDF85025DB194D
:10552000072ACDF8543500F33A8208343EE4139943
:105530006360DDF850252160DDF854150132CDF8A7
:105540005025CB18072ACDF8543500F34985083487
:105550001D9A0123DDF870756360DDF85035226017
:10556000DDF854250133CDF850350132072BCDF845
:105570005425D8BF04F1080300F323851398DDF800
:105580007025C7191A981F60811A5960DDF85415E3
:105590008A1ADDF850151218CDF854250131CDF8CE
:1055A0005015072940F332820DF5A862484631466E
:1055B0000C32FFF789F900287FF4B4AA0DF59C633B
:1055C000043356E40DF5A862484631460C32FFF725
:1055D0007BF900283FF4B4ACFFF7A4BA1A9901296B
:1055E0004CDD01236360DDF85035DDF854250133CF
:1055F00013980132072BCDF854252060CDF8503593
:1056000000F3B281083401236360DDF85035DDF822
:10561000542501331D990132072BCDF85425216003
:10562000CDF8503500F392810834129800220023FF
:105630001B9903F0B5FE002840F01D811A9B1398BA
:105640005A1E6260DDF85035411C2160DDF85415AA
:105650000133CDF850358A18072BCDF8542521DCBD
:1056600008341C9B0DF5AC621C9822606360DDF869
:105670005035DDF854250133FFF7F0BB0A9A12F0DC
:10568000010FAED1139A01236360DDF8503522601B
:10569000DDF854250133CDF850350132072BCDF814
:1056A0005425DDDD0DF5A862484631460C32FFF782
:1056B0000BF900287FF436AA0DF59C640434D0E77A
:1056C0000DF5A862484631460C32FFF7FDF8002878
:1056D0007FF428AA0DF59C640434FFF7B0BB0DF5E8
:1056E000A862484631460C32FFF7EEF800287FF4F6
:1056F00019AA0DF59C640434FFF73CBB0DF5A862B4
:10570000484631460C32FFF7DFF800287FF40AAA3A
:105710000DF59C640434FFF743BBDDF87035002BB6
:1057200040F3FD811A998B42FFF601AF139A616035
:10573000DDF850352260DDF854250133CDF85035C1
:105740005218072BCDF85425D8BF04F1080300F3F5
:105750002984DDF870451A98241A002C40F3B3818F
:10576000102CDFF8E48140F39D8142460DF5A86AD4
:10577000A84610270AF10C0A154603E0103C102C2D
:1057800040F38D815F60DDF85025DDF8541501325E
:105790001D601031072ACDF8541503F10803CDF828
:1057A0005025EBDD484631465246FFF78DF80DF5A2
:1057B0009C6304330028E1D0FFF7B4B9189A199814
:1057C000134613920AF00F024FEA1A1141EA0B71C5
:1057D0004FEA1B1C825C8A46E3465AEA0B0C03F82C
:1057E000012DEFD118981393C01A1090FFF741BA0A
:1057F00009220023524573EB0B00DDF860801FD2B5
:1058000023464446B8461F46504659460A220023BE
:1058100003F020FE00235046594602F1300C0A22C4
:1058200004F801CD03F016FE0922002382468B46C0
:10583000524573EB0B03E7D33B464746A0461C4655
:1058400008F1FF300AF1300A139008F801AC1899FA
:10585000091A1091FFF70DBA0DF5A86248463146B6
:105860000C32FFF731F800287FF45CA90DF59C6439
:105870000434FFF768BA1A994F1E002F7FF7F1AE74
:10588000102FDFF8C4804EDD43460DF5A86BA84607
:105890004FF0100A0BF10C0B1D4602E0103F102FC9
:1058A0003EDDC4F804A0DDF85035DDF854250133A1
:1058B00025601032072BCDF8542504F10804CDF8EB
:1058C0005035EBDD0DF59C64484631465A460434AC
:1058D000FEF7FAFF0028E1D0FFF724B9169830212F
:1058E000DDF828C0012202238DF874154CF0020C5B
:1058F0008DF87505CDF828C0FFF786B90B98011D06
:1059000003680B919A464FF0000BFFF773B90B98A1
:10591000011D03680B919A464FEAEA7BFFF7ADBB86
:105920002B46454698466760DDF85035DDF854252E
:105930000133C4F80080D219072BCDF85425CDF8D7
:1059400050357FF78DAEADE6EC9E00200DF5A862D8
:10595000484631460C32FEF7B7FF00287FF4E2A834
:105960000DF59C64043460E60DF5A86248463146A6
:105970000C32FEF7A9FF00287FF4D4A80DF59C6433
:10598000043440E6302800F0EC821398302300F80D
:10599000013D18991390091A1091FFF76AB90DF596
:1059A000A862484631460C32FEF78EFF00287FF48D
:1059B000B9A80DF59C640434FFF7F8B9DAF1000AD0
:1059C0006BEB4B0B2D235AEA0B0C8DF877350CBF84
:1059D000002201220123FFF71BB90B992B462A78DD
:1059E0000B91FFF72AB82A46454690465F60DDF8DE
:1059F0005025DDF854150132C3F80080C919072A73
:105A0000CDF85415CDF850253FF7CEAD0833FFF74C
:105A100030BA0A9810F0400300F0ED810B9913465C
:105A20000A1D0B92B1F800A0BAF1000218BF0122C2
:105A3000D2464FF0000BFFF7E7B80A9B13F0400F78
:105A400000F0CC810B980123011D0B91B0F800A050
:105A5000BAF1000218BF0122D2464FF0000BFFF747
:105A6000D3B80A9B13F0100F00F0A4810B98119982
:105A700000F1040A03681960FEF79CBF0B98C31D70
:105A800023F0070303F108010B91D3F80480D3F846
:105A900000A0CDF86C80CDF848A0FFF711BB2A46D6
:105AA000454690465C60DDF85025DDF8541501321E
:105AB000C3F800800919072ACDF85415CDF85025F0
:105AC00000F3EA8208330A9911F0010F3FF4D1A9DB
:105AD00001225A60DDF85025DDF8541501321D9879
