:020000042000DA
:100000000000012099020020090300200B030020BA
:100010000D0300200F03002011030020000000004A
:10002000000000000000000000000000130300209A
:100030001503002000000000170300201903002012
:100040001B0300201D0300201F03002021030020AC
:10005000230300202503002027030020290300207C
:100060002B0300202D030020392E0020652E0020B8
:10007000B5390020E1390020370300203903002082
:100080003B0300203D0300203F03002041030020EC
:100090008920002045030020470300204903002059
:1000A0004B030020000000000000000000000000E2
:1000B0000000000000000000000000004D030020D0
:1000C0004F0300205103002053030020550300205C
:1000D00057030020590300205B0300205D0300202C
:1000E0005F030020610300206303002065030020FC
:1000F00067030020690300206B0300206D030020CC
:100100006F0300207103002073030020750300209B
:1001100077030020790300207B0300207D0300206B
:100120007F0300208103002083030020850300203B
:1001300087030020890300208B0300208D0300200B
:100140008F030020910300209303002095030020DB
:1001500097030020990300209B0300209D030020AB
:100160009F030020A1030020A3030020A50300207B
:10017000A7030020A9030020AB030020AD0300204B
:10018000AF030020B1030020B3030020B50300201B
:10019000B7030020B9030020BB030020BD030020EB
:1001A000BF030020C1030020C3030020C5030020BB
:1001B000C7030020C9030020CB030020CD0300208B
:1001C000CF030020D1030020D3030020D50300205B
:1001D000D7030020D9030020DB030020DD0300202B
:1001E000DF030020E1030020E3030020E5030020FB
:1001F000E7030020E9030020EB030020ED030020CB
:10020000EF030020F1030020F3030020F50300209A
:10021000F7030020F9030020C53D0020ED3D00203C
:10022000153E00203D3E0020653E00208D3E002012
:10023000B53E0020DD3E0020053F00202D3F002080
:10024000553F00207D3F0020A53F0020CD3F0020EE
:10025000F53F00201D400020454000206D4000205B
:1002600095400020BD400020E54000200D410020C9
:10027000354100205D41002085410020AD41002036
:10028000D5410020FD410020254200204D420020A4
:10029000754200209D420020684880476848002839
:1002A0000BD168486849694A884206D091421CBF10
:1002B00050F8043B41F8043BF8D165486549664A6B
:1002C000884206D091421CBF50F8043B41F8043BE1
:1002D000F8D162486249634A914218BF41F8040B61
:1002E000FAD1000000000000000000000000000043
:1002F000DFF874010FF2030E00474FF000004FF0DB
:100300000001DFF868F1FEE7FEE7FEE7FEE7FEE743
:10031000FEE7FEE7FEE7FEE7FEE7FEE7FEE7FEE7B5
:10032000FEE7FEE7FEE7FEE7FEE7FEE7FEE7FEE7A5
:10033000FEE7FEE7FEE7FEE7FEE7FEE7FEE7FEE795
:10034000FEE7FEE7FEE7FEE7FEE7FEE7FEE7FEE785
:10035000FEE7FEE7FEE7FEE7FEE7FEE7FEE7FEE775
:10036000FEE7FEE7FEE7FEE7FEE7FEE7FEE7FEE765
:10037000FEE7FEE7FEE7FEE7FEE7FEE7FEE7FEE755
:10038000FEE7FEE7FEE7FEE7FEE7FEE7FEE7FEE745
:10039000FEE7FEE7FEE7FEE7FEE7FEE7FEE7FEE735
:1003A000FEE7FEE7FEE7FEE7FEE7FEE7FEE7FEE725
:1003B000FEE7FEE7FEE7FEE7FEE7FEE7FEE7FEE715
:1003C000FEE7FEE7FEE7FEE7FEE7FEE7FEE7FEE705
:1003D000FEE7FEE7FEE7FEE7FEE7FEE7FEE7FEE7F5
:1003E000FEE7FEE7FEE7FEE7FEE7FEE7FEE7FEE7E5
:1003F000FEE7FEE7FEE7FEE7FEE7FEE7FEE7FEE7D5
:10040000FEE7FEE7FEE7FEE7FEE7FEE7FEE7FEE7C4
:10041000FEE7FEE7FEE7FEE7FEE7FEE7FEE7FEE7B4
:10042000FEE7FEE7FEE7FEE7FEE7FEE7FEE7FEE7A4
:10043000FEE7FEE7FEE7FEE7FEE70000313B0020B7
:10044000000000000000002000000020B0C60020D6
:10045000B0C60020B0C60020E0CB002000000000A5
:10046000E0CB0020F8CD0020594A00202D050020C7
:100470004CF6E033C2F200031A780AB90120187072
:10048000704700BF4CF2B060C2F2000008B50368CC
:100490002BB140F20003C0F2000303B1984708BD3E
:1004A00080B500AF03F0D0FA4FF001004FF0050126
:1004B00003F000FB4FF001004FF0000103F018FBC8
:1004C00080BD00BF80B584B000AF78604FF0010000
:1004D0004FF0010103F00CFB4FF00003FB6003E061
:1004E000FB6803F10103FB607B6842F2107202FBC0
:1004F00003F2FB689A42F3D84FF001004FF000017D
:1005000003F0F6FA4FF00003FB6003E0FB6803F131
:100510000103FB60FA684CF2BF63C0F22D039A42FC
:10052000F4D907F11007BD4680BD00BF80B582B089
:1005300000AF03F089FA4FF000004FF0050103F01F
:10054000B9FA4FF000004FF0000103F0D1FAFFF7C5
:10055000A7FF00F055FF00F065FF3B46184600F08E
:1005600037FF01F041F84EF20010C0F2F55001F0F3
:10057000F5FE4CF68843C2F200034CF6E432C2F2B8
:1005800000021A604CF68843C2F200034FF00002EA
:100590005A604BF6FC40C2F2000004F00BFF00F082
:1005A000ADFD07F10403184600F012FF07F1040245
:1005B0003B461046194600F011F807F104023B468D
:1005C0001046194600F0C0F807F104023B461046F9
:1005D000194600F0A9F97B683B60E2E780B584B07A
:1005E00000AF786039607B681B7803F00403002B50
:1005F0003BD03B681B7803F00403002B35D14BF64E
:100600002050C2F2000004F0D5FE4CF2B463C2F2F6
:1006100000031B681846FFF755FF4AF69830C0F2F2
:10062000020000F08DFF40F2A413C4F205031B6822
:10063000002BF8D14EF64800C0F2010000F080FF18
:100640004FF00003FB6003E0FB6803F10103FB6074
:10065000FA6844F67F73C0F212039A42F4D944F662
:10066000F010C0F2020000F06BFF7B685B7803F0D3
:100670001003002B21D03B685B7803F01003002BA4
:100680001BD14CF2B463C2F200031A684CF2B86397
:10069000C2F200031B681A444CF2B463C2F20003B6
:1006A0001A604CF2B463C2F200031B684BF6485068
:1006B000C2F20000194604F00FFE7B685B7803F07D
:1006C0002003002B3BD03B685B7803F02003002B1A
:1006D00035D14CF2B463C2F200031A684CF2B8632D
:1006E000C2F200031B689A420CD84CF2B463C2F207
:1006F00000031B684BF67050C2F20000194604F06C
:10070000EBFD1CE04CF2B463C2F200031A684CF239
:10071000B863C2F200031B68C3EB02024CF2B4637D
:10072000C2F200031A604CF2B463C2F200031B6809
:100730004BF6A050C2F20000194604F0CDFD07F1BF
:100740001007BD4680BD00BF80B582B000AF7860A5
:1007500039607B681B7803F02003002B13D03B68C3
:100760001B7803F02003002B0DD140F24813C4F294
:1007700005034FF000021A604BF6C850C2F20000A9
:1007800004F018FE3EE07B681B7803F01003002B9A
:1007900013D03B681B7803F01003002B0DD140F2FF
:1007A0004C13C4F205034FF000021A604BF6E05000
:1007B000C2F2000004F0FEFD24E07B681B7803F029
:1007C0001003002B05D13B681B7803F01003002BAE
:1007D0000BD17B681B7803F02003002B12D13B6800
:1007E0001B7803F02003002B0CD040F24413C4F21A
:1007F00005034FF000021A604BF6F850C2F20000F9
:1008000004F0D8FD7B681B7803F04003002B13D065
:100810003B681B7803F04003002B0DD140F2081316
:10082000C4F205034FF000021A604BF61060C2F2EA
:10083000000004F0BFFD3EE07B681B7803F08003FE
:10084000002B13D03B681B7803F08003002B0DD1E5
:1008500040F20C13C4F205034FF000021A604BF68D
:100860002860C2F2000004F0A5FD24E07B681B783C
:1008700003F04003002B05D13B681B7803F04003D5
:10088000002B0BD17B681B7803F08003002B12D167
:100890003B681B7803F08003002B0CD040F204135C
:1008A000C4F205034FF000021A604BF64060C2F23A
:1008B000000004F07FFD7B685B7803F08003002B71
:1008C00007D03B685B7803F08003002B01D100F078
:1008D00063FE7B689A783B689B7852B25BB29A421F
:1008E00007D17B68DA783B68DB7852B25BB29A4218
:1008F00016D078684CF6F031C2F2000100F0D8FD55
:100900004CF6F033C2F200031B68184600F0ECFD11
:100910004CF6F033C2F200035B68184600F010FE9C
:1009200007F10807BD4680BD80B588B000AF78608C
:1009300039607B685B7803F00803002B00F03B8193
:100940003B685B7803F00803002B40F036814BF6E0
:100950005860C2F2000004F02DFD4FF001033B612E
:1009600044F6F013C0F202037B6144F6F013C0F2C8
:100970000203BB614FF00003BB774FF00003FB772E
:1009800044F6F010C0F2020000F0AEFD44F6F010A4
:10099000C0F2020000F0D4FD08E107F10C03184694
:1009A00000F0EEFC0346B3F1FF3F0ED14BF678604A
:1009B000C2F200004FF0FF314FF0FF3204F08CFC28
:1009C0004FF0190001F01AFEBFE0BB891AB2FB8993
:1009D0001BB24BF67860C2F2000011461A4604F0D2
:1009E0007BFCBB891BB29A2B08DC4EF64803C0F295
:1009F00001037B614FF00003BB771AE0BB891BB298
:100A0000A52B08DD4AF69833C0F202037B614FF054
:100A10000003BB770DE044F6F013C0F202037B61E4
:100A20004FF00103BB774BF68860C2F2000004F080
:100A3000C1FCFB891BB2692B08DD4AF69833C0F272
:100A40000203BB614FF00003FB771AE0FB891BB286
:100A50005E2B08DC4EF64803C0F20103BB614FF089
:100A60000003FB770DE044F6F013C0F20203BB6114
:100A70004FF00103FB774BF69860C2F2000004F0E0
:100A800099FC786900F030FDB86900F059FDBB8928
:100A9000DAB24CF6EC33C2F200031A70FB89DAB218
:100AA0004CF6EC33C2F200035A704CF6E433C2F257
:100AB00000034CF6EC32C2F200021A604CF6E4334A
:100AC000C2F200034FF032021A714CF6E433C2F264
:100AD00000034FF016025A714CF6E433C2F20003E1
:100AE0004FF001029A714CF68843C2F200034CF6B3
:100AF000E432C2F200021A604CF68843C2F20003EC
:100B00004FF000025A604CF68840C2F2000000F03C
:100B1000BDFD01F013FB4CF68443C2F200031B78C9
:100B2000002BF8D1BB7F002B0FD0FB7F002B0CD00C
:100B30004BF6A860C2F2000004F03CFC4FF01E002F
:100B4000FFF7C0FC4FF000033B617B681B7803F0AC
:100B50000203002B1CD03B681B7803F00203002B20
:100B600016D14FF000033B6140F20413C4F20503B9
:100B70004FF000021A6040F24413C4F205034FF034
:100B800000021A604BF6C460C2F2000004F012FCCE
:100B90003A687B6811461A464FF00403084611462E
:100BA0001A4604F063FA786800F012FC3B69002BE7
:100BB0007FF4F3AE02E000BF00E000BF07F12007C2
:100BC000BD4680BD80B500AF4CF69840C2F2000033
:100BD0004FF4E1314FF0030201F040FE80BD00BF51
:100BE00080B582B000AF78604CF69840C2F2000049
:100BF000796801F0A7FF07F10807BD4680BD00BF77
:100C000080B582B000AF4FF07C033B714FF0000322
:100C10003B7007F104034CF69840C2F200001946FD
:100C20004FF0010201F01CFF3B464CF69840C2F227
:100C3000000019464FF0010201F012FF07F108070A
:100C4000BD4680BD80B586B000AF78604FF07C03B4
:100C50003B754FF018033B747B68DBB23B7307F1C5
:100C600014034CF69840C2F2000019464FF00102FE
:100C700001F0F6FE07F110034CF69840C2F20000B6
:100C800019464FF0010201F0EBFE07F10C034CF6A0
:100C90009840C2F2000019464FF0010201F0E0FE58
:100CA00007F11807BD4680BD80B586B000AF7860FB
:100CB0004FF07C033B754FF019033B747B68DBB24C
:100CC0003B7307F114034CF69840C2F2000019463A
:100CD0004FF0010201F0C4FE07F110034CF69840FA
:100CE000C2F2000019464FF0010201F0B9FE07F10F
:100CF0000C034CF69840C2F2000019464FF0010276
:100D000001F0AEFE07F11807BD4680BD80B582B088
:100D100000AF02460B46FA71BB71FB791846FFF72C
:100D200091FFBB791846FFF7BFFF07F10807BD46E3
:100D300080BD00BF80B58CB000AFF860B9607A604C
:100D40003B604FF07C0387F82C304FF00C0387F8A2
:100D50002830FB68DBB287F82430BB68DBB287F849
:100D600020307B68DBB23B773B68DBB23B76BB6B0A
:100D7000DBB23B7507F12C034CF69840C2F2000041
:100D800019464FF0010201F06BFE07F128034CF603
:100D90009840C2F2000019464FF0010201F060FED7
:100DA00007F124034CF69840C2F2000019464FF0B8
:100DB000010201F055FE07F120034CF69840C2F203
:100DC000000019464FF0010201F04AFE07F11C0332
:100DD0004CF69840C2F2000019464FF0010201F0B3
:100DE0003FFE07F118034CF69840C2F20000194686
:100DF0004FF0010201F034FE07F114034CF6984065
:100E0000C2F2000019464FF0010201F029FE07F17D
:100E10003007BD4680BD00BF80B58CB002AFF86022
:100E2000B9607A603B603B6B002B56D04FF07C037F
:100E300087F824304FF00F0387F82030FB68DBB2CF
:100E40003B77BB68DBB23B767B68DBB23B753B68CC
:100E5000DBB23B7407F124034CF69840C2F2000069
:100E600019464FF0010201F0FBFD07F120034CF69B
:100E70009840C2F2000019464FF0010201F0F0FD67
:100E800007F11C034CF69840C2F2000019464FF0DF
:100E9000010201F0E5FD07F118034CF69840C2F29B
:100EA000000019464FF0010201F0DAFD07F11403CA
:100EB0004CF69840C2F2000019464FF0010201F0D2
:100EC000CFFD07F110034CF69840C2F2000019461E
:100ED0004FF0010201F0C4FD23E04FF00003009346
:100EE000F868B968FA683B68FFF724FF4FF0000321
:100EF0000093F868B9687A68BB68FFF71BFF4FF08A
:100F000000030093F86839687A683B68FFF712FFBE
:100F10004FF0000300937868B9687A683B68FFF780
:100F200009FF07F12807BD4680BD00BF80B58AB024
:100F300000AFF860B9607A603B604FF07C0387F8DF
:100F400024304FF0030387F82030FB68DBB23B7797
:100F5000BB68DBB23B767B68DBB23B753B68DBB2E0
:100F60003B7407F124034CF69840C2F20000194686
:100F70004FF0010201F074FD07F120034CF6984098
:100F8000C2F2000019464FF0010201F069FD07F1BD
:100F90001C034CF69840C2F2000019464FF00102C3
:100FA00001F05EFD07F118034CF69840C2F2000014
:100FB00019464FF0010201F053FD07F114034CF6FE
:100FC0009840C2F2000019464FF0010201F048FDBE
:100FD00007F110034CF69840C2F2000019464FF09A
:100FE000010201F03DFD07F12807BD4680BD00BFAD
:100FF00080B584B000AF0346FB714CF6E840C2F206
:1010000000004FF0000102F075F9FB794CF6E84062
:10101000C2F20000194602F039FA0346FB734CF69F
:10102000E840C2F200004FF0000102F0E7F9FB7B5C
:10103000184607F11007BD4680BD00BF80B582B0DD
:1010400000AF4FF00003FB714CF63843C2F20003CF
:101050001B78002B35D04FF05B00FFF7C9FF03462C
:10106000BB804CF63943C2F200031A7811464CF6A5
:10107000F833C2F200035B5CFB7102F10103DAB2E8
:101080004CF63943C2F200031A704CF63843C2F2F0
:1010900000031B7803F1FF33DAB24CF63843C2F297
:1010A00000031A704CF63943C2F200031B78402B40
:1010B0000ED14CF63943C2F200034FF000021A7011
:1010C00007E04FF05A00FFF793FF0346BB8000E0B4
:1010D00000BFBB884FEA0323BB80FB791846FFF7AC
:1010E00087FF0346BB71BA79BB8842EA0303BB8022
:1010F000BB88184607F10807BD4680BD80B584B09F
:1011000002AF4FF4966003F0D7FC03461A464CF644
:101110009043C2F200031A604FF00803FB714CF6D3
:10112000E840C2F2000001F00BFFFB7900934CF69F
:10113000E840C2F200004FF000014FF000024FF013
:10114000070302F047F807F10807BD4680BD00BF5E
:1011500080B582B000AF4FF6FF73FB80FFF76EFFE4
:101160000346BB80BB88002B05D1FB88002B02D136
:101170004FF0000333E0BA884AF655239A420ED165
:10118000FA884AF655239A4209D14CF69443C2F2A2
:1011900000034FF000021A704FF001031FE0BA88FD
:1011A0004AF656239A420ED1FA884AF655239A42B5
:1011B00009D14CF69443C2F200034FF001021A70B9
:1011C0004FF001030BE0BA8845F2AA539A4203D1CB
:1011D0004FF00000FFF70CFFBB88FB80BEE718460E
:1011E00007F10807BD4680BD80B586B000AF034655
:1011F000FB804CF63C43C2F200031B68002B07D176
:10120000FFF7A6FF0346002B0AD14FF00003B1E021
:101210004CF63C43C2F200034FF000021A6000E0BB
:1012200000BF4FF00003FB819BE0FFF707FF034681
:101230003B823A8A4AF655239A420FD14CF63C43F8
:10124000C2F200034FF001021A604CF69443C2F25E
:1012500000034FF000021A70FB898BE03A8A4AF6CD
:1012600056239A420FD14CF63C43C2F200034FF092
:1012700001021A604CF69443C2F200034FF00102DF
:101280001A70FB8976E03B8A002B01D1FB8971E063
:101290004CF69043C2F200031968FA8913464FEAEC
:1012A000430313444FEA83030B447B614FF0000375
:1012B000FB724FF000037B8221E04CF69443C2F2B4
:1012C00000031B78002B07D1FB7A042B04D97B6920
:1012D0004FF000025A8115E0FFF7B0FE0346BB81D4
:1012E0007A8ABB8913447B827A69FB7A4FEA43038B
:1012F0001344BA891A80FB7A03F10103FB72FB7A6B
:10130000052BDAD93A8A7B8A9A4204D1FB8903F108
:101310000103FB8105E04BF6E060C2F2000004F03F
:1013200049F8FFF78BFE0346BB81BA894AF655237D
:101330009A4207D14CF69443C2F200034FF00002E8
:101340001A700EE0BA894AF656239A4207D14CF633
:101350009443C2F200034FF001021A7001E0FB89CE
:1013600008E0FA89FB889A4203D2FB89632B7FF657
:101370005CAFFFE7184607F11807BD4680BD00BF08
:1013800080B582B000AF78604FF00100FFF72CFF0E
:101390000346002B02D14FF0FF3313E04CF690438D
:1013A000C2F200031B685B881A467B681A804CF601
:1013B0009043C2F200031B689B881A467B685A80E0
:1013C0004FF00003184607F10807BD4680BD00BF77
:1013D00080B584B000AF786040F20003C4F205032A
:1013E000FB607A68FB6811461A464FF00403084612
:1013F00011461A4603F03AFE07F11007BD4680BDBC
:1014000080B483B000AF40F20003C4F205037B60F8
:101410007B684FF0FF021A6007F10C07BD4680BCE5
:10142000704700BF80B483B000AF40F20003C4F245
:1014300005037B607B684FF001021A6007F10C071F
:10144000BD4680BC704700BF80B485B000AF034686
:10145000FB7197F90730062B07DC97F9073013F17A
:10146000060F02DB4FF00003FB7197F90730502B9A
:1014700003DD4FF05003FB7107E097F9073013F1DC
:10148000500F02DA6FF04F03FB7197F9073040F20B
:10149000712202FB03F3FB60FB68C3F5123303F513
:1014A000F873184607F11407BD4680BC704700BFAB
:1014B00080B582B000AF786039607B689B785BB2A2
:1014C0001846FFF7C1FF02463B681A607B68DB786D
:1014D0005BB21846FFF7B8FF02463B685A6007F157
:1014E0000807BD4680BD00BF80B584B000AF7860FE
:1014F0004CF2C063C2F200031B687A689A421AD0A9
:1015000040F20013C4F20503FB60FB687A681A60BE
:101510004CF2C063C2F200037A681A604CF2C063F6
:10152000C2F200031B684BF62470C2F20000194699
:1015300003F0D2FE00E000BF07F11007BD4680BDFA
:1015400080B584B000AF78604CF2BC63C2F2000397
:101550001B687A689A421AD040F24013C4F205031D
:10156000FB60FB687A681A604CF2BC63C2F200034D
:101570007A681A604CF2BC63C2F200031B684BF637
:101580003C70C2F20000194603F0A6FE00E000BF66
:1015900007F11007BD4680BD80B584B000AF40F2B2
:1015A0001813C4F205033B6040F21C13C4F2050398
:1015B0007B6040F25813C4F20503BB6040F25C1339
:1015C000C4F20503FB603B681A687B681B684BF636
:1015D0005470C2F2000011461A4603F07DFE07F176
:1015E0001007BD4680BD00BF80B582B002AFFFF7D7
:1015F000E9FAFFF705FB4FF0010300934FF04500B8
:101600004FF025014FF09F024FF07F03FFF704FCDE
:101610004FF04E004FF01F01FFF778FB4BF6747050
:10162000C2F20000FFF7DCFA4FF076004FF01F0126
:10163000FFF76CFB4BF67870C2F20000FFF7D0FAB0
:101640004FF003004FF03201FFF760FB4BF67C7068
:10165000C2F20000FFF7C4FA4FF003004FF06E0132
:10166000FFF754FB4BF68870C2F20000FFF7B8FAA0
:101670004FF003004FF05001FFF748FB4BF690701E
:10168000C2F20000FFF7ACFABD4680BD80B590B055
:1016900000AF78607B68FB604CF68443C2F20003C5
:1016A0001B78002B02D17B68002B28D14BF6987059
:1016B000C2F200004BF6A871C2F2000103F00CFE6A
:1016C0004BF6C470C2F200004CF2A411C2F2000149
:1016D00003F002FE4BF6C870C2F200004FF0290181
:1016E00003F0FAFD4BF6CC70C2F2000003F0F4FDFB
:1016F0004CF20000C2F2000003F05CFE20E24CF667
:101700008443C2F200034FF001021A704BF6987046
:10171000C2F200004BF6A871C2F2000103F0DCFD3A
:101720004BF6C470C2F200004CF2A411C2F20001E8
:1017300003F0D2FD4BF6C870C2F200004FF02E014C
:1017400003F0CAFD4CF20400C2F2000003F0C4FD35
:101750004CF20000C2F2000003F02CFE4FF0080033
:1017600003F0AAF903463B613B69FA6892E803007B
:1017700083E803003B691B687B613B695B68BB6175
:101780004FF0030003F098F90346FB614FF00003AC
:101790003B627B691B7987F826307B695B7987F828
:1017A00027307B699B7987F828304BF69870C2F216
:1017B00000004BF6A871C2F2000103F08DFD4BF65C
:1017C000C470C2F200004CF2A411C2F2000103F096
:1017D00083FD4BF6C870C2F200004FF03F0103F0EA
:1017E0007BFD97F8261097F8272097F828304CF2C1
:1017F0001800C2F2000003F06FFD4CF20000C2F2CC
:10180000000003F0D7FD4FF00003FB624FF0000330
:101810003B634FF000037B634FF00003BB637B69C6
:101820001B68FA6911461A464FF003030846114631
:101830001A4603F01BFCBB69002B1ED04FF00300BF
:1018400003F03AF903463B62BB691B683A6A1146EA
:101850001A464FF00303084611461A4603F006FCE9
:10186000BB691B7987F82930BB695B7987F82A3017
:10187000BB699B7987F82B3011E097F8263003F18C
:10188000010387F8293097F8273003F1010387F81F
:101890002A3097F8283003F1010387F82B304FF0F6
:1018A000080003F009F90346FB62BB69002B15D061
:1018B000FB691A783B6A1B789A4205D1FB695A7812
:1018C0003B6A5B789A4214D0FB6AFA691A60FB6A39
:1018D0003A6A5A60F86A00F037F90BE0FB6AFA6975
:1018E0001A60FB6A4FF000025A60F86A00F02CF9A7
:1018F00000E000BF4FF0050387F83F3097F826203F
:1019000097F829309A4248D04BF69870C2F20000FE
:101910004BF6A871C2F2000103F0DEFC4BF6C47076
:10192000C2F200004CF2A411C2F2000103F0D4FC98
:101930004BF6C870C2F200004FF0710103F0CCFC0E
:1019400097F83F304CF23400C2F20000194603F021
:10195000C3FC4CF20000C2F2000003F02BFD4FF07C
:10196000010003F0A9F803463B633B6B97F8262080
:101970001A7097F83F30184600F000FD034641F614
:101980001D50C2F20000396B1A4600F0D5FC97F8E2
:101990003F3003F1050387F83F3097F8272097F889
:1019A0002A309A4248D04BF69870C2F200004BF6AB
:1019B000A871C2F2000103F08FFC4BF6C470C2F2B2
:1019C00000004CF2A411C2F2000103F085FC4BF6BA
:1019D000C870C2F200004FF0790103F07DFC97F867
:1019E0003F304CF25C00C2F20000194603F074FC78
:1019F0004CF20000C2F2000003F0DCFC4FF00100EA
:101A000003F05AF803467B637B6B97F827201A7024
:101A100097F83F30184600F0B1FC034641F67D4090
:101A2000C2F20000796B1A4600F086FC97F83F304E
:101A300003F1050387F83F3097F8282097F82B30FB
:101A40009A4248D04BF69870C2F200004BF6A8714B
:101A5000C2F2000103F040FC4BF6C470C2F2000079
:101A60004CF2A411C2F2000103F036FC4BF6C87030
:101A7000C2F200004FF0810103F02EFC97F83F30D6
:101A80004CF28400C2F20000194603F025FC4CF22F
:101A90000000C2F2000003F08DFC4FF0010003F0E3
:101AA0000BF80346BB63BB6B97F828201A7097F8B6
:101AB0003F30184600F062FC034641F6BD50C2F2CA
:101AC0000000B96B1A4600F037FC97F83F3003F17D
:101AD000050387F83F304BF69870C2F200004BF6D2
:101AE000A871C2F2000103F0F7FB4BF6C470C2F21A
:101AF00000004CF2A411C2F2000103F0EDFB4BF622
:101B0000C870C2F200004FF0880103F0E5FB97F8BF
:101B10003F304CF2A800C2F20000194603F0DCFB93
:101B20004CF20000C2F2000003F044FC97F83F3092
:101B300041F66960C2F2000039691A4600F0FCFB08
:101B400007F14007BD4680BD80B588B000AF786022
:101B50007B683B613B691B687B613B695B68BB6180
:101B60007B691B783B777B695B787B773B7F07F1F1
:101B70000C0210464CF2C801C2F200011A4603F0F2
:101B800035FC7B7F07F1080210464CF2C801C2F217
:101B900000011A4603F02AFCBB69002B15D0BB6973
:101BA0001B78BB77BB695B78FB77BB7F03F149038D
:101BB000DAB2FB7F03F12903DBB2104619464FF07E
:101BC00003024FF00003FFF7B1F94FF060004FF050
:101BD0001F01FFF79BF807F10C031846FFF700F809
:101BE0004FF088004FF01F01FFF790F807F108034E
:101BF0001846FEF7F5FF3B7F03F14903DAB27B7F1E
:101C000003F12903DBB2104619464FF003024FF0EF
:101C10000103FFF78BF94BF69870C2F200004BF608
:101C2000A871C2F2000103F057FB4BF6C470C2F278
:101C300000004CF29011C2F2000103F04DFB4BF694
:101C4000C870C2F200004FF0B60103F045FB3A7FC6
:101C50007B7F4CF2D000C2F2000011461A4603F01E
:101C60003BFB4CF20000C2F2000003F0A3FB38691A
:101C700002F01AFF07F12007BD4680BD80B586B08F
:101C800000AF78607B683B613B691B78FB754FF068
:101C90002D004FF06E01FFF739F8FB7D07F10C02C4
:101CA00010464CF2E801C2F200011A4603F09EFB16
:101CB00007F10C031846FEF793FF4BF69870C2F23B
:101CC00000004BF6A871C2F2000103F005FB4BF6D1
:101CD000C470C2F200004CF27C11C2F2000103F0A9
:101CE000FBFA4BF6C870C2F200004FF0CA0103F0D5
:101CF000F3FAFB7D4CF2F000C2F20000194603F04B
:101D0000EBFA4CF20000C2F2000003F053FB38691A
:101D100002F0CAFE07F11807BD4680BD80B586B047
:101D200000AF78607B683B613B691B78FB754FF0C7
:101D300003004FF03201FEF7E9FFFB7D07F10C02D3
:101D400010464CF2C801C2F200011A4603F04EFBE5
:101D500007F10C031846FEF743FF4BF69870C2F2EA
:101D600000004BF6A871C2F2000103F0B5FA4BF681
:101D7000C470C2F200004CF26C11C2F2000103F018
:101D8000ABFA4BF6C870C2F200004FF0DE0103F070
:101D9000A3FAFB7D4CF20410C2F20000194603F0D6
:101DA0009BFA4CF20000C2F2000003F003FB38691A
:101DB00002F07AFE07F11807BD4680BD80B584B0F9
:101DC00000AF78607B68BB60BB681B78FB73FB7BF4
:101DD000012B0CD14FF021004FF05001FEF796FF80
:101DE0004CF21810C2F20000FEF7FAFE0BE04FF0C2
:101DF00021004FF05001FEF789FF4CF22010C2F293
:101E00000000FEF7EDFE4BF69870C2F200004BF6B4
:101E1000A871C2F2000103F05FFA4BF6C470C2F27F
:101E200000004CF25C11C2F2000103F055FA4BF6CF
:101E3000C870C2F200004FF0F30103F04DFAFB7BD3
:101E40004CF22810C2F20000194603F045FA4CF299
:101E50000000C2F2000003F0ADFAB86802F024FE00
:101E600007F11007BD4680BD80B582B000AF786035
:101E70004CF68443C2F200034FF000021A704BF696
:101E80009870C2F200004BF6A871C2F2000103F094
:101E900023FA4BF6C470C2F200004CF24C11C2F2AD
:101EA000000103F019FA4BF6C870C2F200004FF0BF
:101EB000FC0103F011FA4CF23810C2F2000003F0FA
:101EC0000BFA4CF20000C2F2000003F073FA7868DB
:101ED00002F0EAFD07F10807BD4680BD80B483B07B
:101EE00000AF0346FB804EF20013CEF20003B7F9B9
:101EF00006204FEA5212F98801F01F014FF001004D
:101F000000FA01F143F8221007F10C07BD4680BC2E
:101F1000704700BF80B483B000AF0346FB804EF231
:101F20000013CEF20003B7F906204FEA5212F988E7
:101F300001F01F014FF0010000FA01F102F120024F
:101F400043F8221007F10C07BD4680BC704700BF64
:101F500080B483B000AF0346FB804EF20013CEF294
:101F60000003B7F906204FEA5212F98801F01F0169
:101F70004FF0010000FA01F102F1600243F8221073
:101F800007F10C07BD4680BC704700BF80B582B02A
:101F900000AF0346FB714FF01400FFF7BBFF42F2A6
:101FA0000003CEF2040342F20002CEF20402126BEE
:101FB00022F040021A6345F20003C4F200034FF01E
:101FC00000025A6540F20003C4F20A234FF00002F7
:101FD000C3F8802140F20003C4F20A234FF000024C
:101FE000C3F8882140F20003C4F20A23FA79C3F847
:101FF000842145F20003C4F200034FF001021A618C
:102000004FF01400FFF7A4FF07F10807BD4680BD9D
:1020100080B400AF40F20003C4F20A234FF0010283
:10202000C3F88021BD4680BC704700BF80B483B038
:1020300000AF786045F20003C4F200037A685A608A
:1020400007F10C07BD4680BC704700BF80B500AFEC
:1020500040F20003C4F20A234FF00102C3F88821C2
:102060004FF01400FFF73AFF80BD00BF80B400AF0F
:1020700045F20003C4F200034FF001021A61BFF3FE
:102080004F8FBD4680BC704780B582B000AF4CF228
:10209000B010C2F200004CF2C011C2F2000103F015
:1020A0001BF94CF2D810C2F200004CF21831C2F207
:1020B000000103F011F94CF2DC10C2F200004FF005
:1020C0000E0103F009F94CF2E010C2F2000003F037
:1020D00003F94CF2F410C2F2000003F06BF900F0C7
:1020E00065F903463B60FFF7C1FF4CF64043C2F27F
:1020F00000031B68002B19D04CF64043C2F20003CA
:102100001B685B681846FFF791FFFFF781FF0DE042
:102110003B681B683A689268104698473B687B604A
:102120003B685B683B60786802F0BEFC3B68002B54
:10213000EED107F10807BD4680BD00BF80B500AFF6
:102140004FF00100FFF722FF4CF64043C2F20003BC
:102150001B685B681846FFF769FFFFF759FFFFF739
:1021600075FF80BD80B584B000AF78604CF2B010D0
:10217000C2F200004CF2C011C2F2000103F0ACF850
:102180004CF2D810C2F200004CF20831C2F2000149
:1021900003F0A2F84CF2DC10C2F200004FF02E0166
:1021A00003F09AF84CF2F810C2F2000003F094F831
:1021B0004CF2F410C2F2000003F0FCF84CF640437D
:1021C000C2F200031B68002B06D14CF64043C2F25A
:1021D00000037A681A6083E07B685A684CF64043D3
:1021E000C2F200031B685B689A4235D24CF2B01011
:1021F000C2F200004CF2C011C2F2000103F06CF810
:102200004CF2D810C2F200004CF20831C2F20001C8
:1022100003F062F84CF2DC10C2F200004FF037011C
:1022200003F05AF84CF20820C2F2000003F054F810
:102230004CF2F410C2F2000003F0BCF84CF640433C
:10224000C2F200031A687B681A614CF64043C2F27E
:1022500000037A681A6043E04CF64043C2F2000380
:102260001B68FB602AE04CF2B010C2F200004CF296
:10227000C011C2F2000103F02FF84CF2D810C2F2E4
:1022800000004CF20831C2F2000103F025F84CF2D4
:10229000DC10C2F200004FF0410103F01DF84CF2D7
:1022A0002020C2F2000003F017F84CF2F410C2F242
:1022B000000003F07FF8FB681B69FB60FB681B698B
:1022C000002B06D0FB681B695A687B685B689A42E2
:1022D000C9D3FB681A697B681A61FB687A681A615E
:1022E00007F11007BD4680BD80B586B000AFF8602D
:1022F000B9607A603B604FF0180002F0DDFB0346E6
:102300007B617B69FA681A607B697A685A607B69CD
:102310007A689A607B693A68DA607B694FF00002FC
:102320001A617B69BA685A617869FFF71BFF07F188
:102330001807BD4680BD00BF80B584B000AFF8600F
:10234000B9607A60F868B9687A684FF00103FFF7FE
:10235000CBFF07F11007BD4680BD00BF80B483B03E
:1023600000AF78604CF64443C2F200037A681A600A
:1023700007F10C07BD4680BC704700BF80B485B034
:1023800000AF78604CF64443C2F200031A684FF481
:102390007A717B68B1FBF3F3B2FBF3F3FB60FB688C
:1023A000184607F11407BD4680BC704780B586B05B
:1023B00000AF4CF2B010C2F200004CF2C011C2F2F9
:1023C000000102F089FF4CF2D810C2F200004CF27A
:1023D000F821C2F2000102F07FFF4CF2DC10C2F2E1
:1023E00000004FF06F0102F077FF4CF26020C2F264
:1023F000000002F071FF4CF2F410C2F2000002F093
:10240000D9FF4CF64043C2F200031B683B604CF618
:102410004043C2F200031B685B687B6009E03B68D5
:102420005A687B68C3EB02023B685A603B681B69D1
:102430003B603B68002BF2D14FF00003BB604FF0D4
:102440000003FB6092E04FF00C0002F035FB034606
:102450003B613B694FF000021A603B694FF000029C
:102460005A60BB68002B2CD14CF2B010C2F20000B5
:102470004CF2C011C2F2000102F02EFF4CF2D81053
:10248000C2F200004CF2F821C2F2000102F024FF77
:102490004CF2DC10C2F200004FF0860102F01CFF8B
:1024A0004CF27020C2F2000002F016FF4CF2F41061
:1024B000C2F2000002F07EFF3B69BB603B69FB603B
:1024C0002CE04CF2B010C2F200004CF2C011C2F28B
:1024D000000102F001FF4CF2D810C2F200004CF2F1
:1024E000F821C2F2000102F0F7FE4CF2DC10C2F259
:1024F00000004FF08B0102F0EFFE4CF28820C2F298
:10250000000002F0E9FE4CF2F410C2F2000002F00A
:1025100051FFFB683A695A603B69FB604CF64043E7
:10252000C2F200031B687B617B691A694CF6404369
:10253000C2F200031A607B691A683B691A607B6902
:102540005A693B699A607B69DB68012B03D1786922
:1025500002F0AAFA0AE07B699A687B695A607B6993
:102560004FF000021A617869FFF7FCFD4CF640431A
:10257000C2F200031B685B68002B3FF464AFBB68CA
:10258000184607F11807BD4680BD00BF80B582B070
:1025900000AF78604CF2B010C2F200004CF2C011F3
:1025A000C2F2000102F098FE4CF2D810C2F2000014
:1025B0004CF2E421C2F2000102F08EFE4CF2DC107B
:1025C000C2F200004FF0A90102F086FE4CF2A820F2
:1025D000C2F2000002F080FE4CF2F410C2F20000E1
:1025E00002F0E8FE4CF69543C2F200034FF0000201
:1025F0001A7007F10807BD4680BD00BF80B582B0E4
:1026000000AF78604CF69543C2F200034FF0010230
:102610001A704CF2B010C2F200004CF2C011C2F2BB
:10262000000102F059FE4CF2D810C2F200004CF248
:10263000C421C2F2000102F04FFE4CF2DC10C2F2E3
:1026400000004FF0B00102F047FE4CF2B420C2F29D
:102650000000796802F040FE4CF2F410C2F2000073
:1026600002F0A8FE7868FFF789FE034642F28D501B
:10267000C2F200004FF000011A46FFF75DFEFFF7BF
:102680005DFD4CF69543C2F200031B78002BF8D198
:1026900007F10807BD4680BD80B483B000AF786005
:1026A0004FF0FF33184607F10C07BD4680BC70475A
:1026B00080B483B000AF7860FEE700BF80B483B021
:1026C00000AF786039603B684FF400525A604FF0B9
:1026D0000003184607F10C07BD4680BC704700BFD9
:1026E00080B483B000AF78604FF00103184607F163
:1026F0000C07BD4680BC704780B485B000AFF86061
:10270000B9607A604FF00003184607F11407BD4620
:1027100080BC704780B485B000AFF860B9607A6063
:102720004FF00003184607F11407BD4680BC704700
:1027300080B584B000AFF860B9607A603B604CF659
:102740004843C2F200031B68002B10D14CF6C04076
:10275000C2F200004FF461414FF0030200F07EF836
:102760004CF64843C2F200034FF001021A603B6886
:102770004CF6C040C2F2000079681A4600F070F9C9
:102780003B68184607F11007BD4680BD80B584B090
:1027900000AF78604CF64C43C2F200031B68002B7C
:1027A00008D14CF64C43C2F200034CF6F852C2F288
:1027B00000021A604CF64C43C2F200031B68BB6077
:1027C000EFF30883FB604CF64C43C2F200031A6837
:1027D0007B681A44FB689A420FD94FF000004FF013
:1027E00001014CF22C32C2F200024FF01903FFF744
:1027F0009FFF4FF00100FFF75BFF4CF64C43C2F226
:1028000000031A687B681A444CF64C43C2F200037A
:102810001A60BB68184607F11007BD4680BD00BFAF
:1028200080B483B000AF0346FB804EF20013CEF2BB
:102830000003B7F906204FEA5212F98801F01F0190
:102840004FF0010000FA01F102F1600243F822109A
:1028500007F10C07BD4680BC704700BF80B588B04B
:1028600000AFF860B9601346FB714FF00103FB82C3
:102870004FF00003BB61FA684CF6C043C2F200039C
:102880009A4207D0FA684CF69843C2F200039A4283
:1028900000D000BEBB68002B00D100BE01F04EF995
:1028A000FA684CF6C043C2F200039A422ED1FB688C
:1028B0004FF080421A60FB684FF084425A60FB6818
:1028C0004FF00A021A814CF2CC63C2F200031B687B
:1028D000BB6142F20003CEF2040342F20002CEF2E8
:1028E0000402126B42F080021A634FF00A00FFF7F5
:1028F00097FF42F20003CEF2040342F20002CEF24E
:102900000402126B22F080021A6331E0FA6840F28E
:102910000003C4F201031360FA6840F20003C4F23A
:1029200020235360FB684FF00B021A814CF2D063F6
:10293000C2F200031B68BB6142F20003CEF2040343
:1029400042F20002CEF20402126B42F480721A6369
:102950004FF00B00FFF764FF42F20003CEF20403D6
:1029600042F20002CEF20402126B22F480721A6369
:10297000FB681B684FF000021A71BB68002B21D066
:10298000BA69BB68B2FBF3F3FB61FB6903F00803B0
:10299000002B06D0FB694FEA131303F10103FB611F
:1029A00003E0FB694FEA1313FB61FA694FF6FF730B
:1029B0009A4200D900BEFA694FF6FF739A4201D8D5
:1029C000FB69FB82FB685B684FF00102C3F89C2146
:1029D000FB681B68FA8A4FEA122292B2D2B21A71CD
:1029E000FB681B68FA8AD2B21A70FB685B684FF00A
:1029F0000002C3F89C21FB681B68FA791A73FB6814
:102A00001B684FF00E021A72FB685B684FF0000201
:102A1000C3F81022FB684FF000021A61FB684FF008
:102A20000002DA60FB684FF000025A61FB684FF069
:102A30000002DA61FA6842F63153C2F2000313620F
:102A4000FB684FF000029A61FB684FF000025A6287
:102A5000FB684FF000029A7207F12007BD4680BD67
:102A600080B489B000AFF860B9607A604FF00003BD
:102A70003B61FA684CF6C043C2F200039A4207D0A9
:102A8000FA684CF69843C2F200039A4200D000BEA6
:102A9000BB68002B00D100BE7B68002B00D100BEBC
:102AA000FA684CF6C043C2F200039A4206D0FA68B4
:102AB0004CF69843C2F200039A423DD1BB68002B0A
:102AC0003AD07B68002B37D0FB681B681B7DFB76F8
:102AD000FB689A7AFB7E42EA0303DAB2FB689A72D9
:102AE000FB7E03F02003002B23D04FF01003FB618B
:102AF0007B680F2B01D87B68FB614FF000037B6183
:102B00000EE0FB681B68B9683A690A4412781A70CB
:102B10003B6903F101033B617B6903F101037B61C5
:102B20007A69FB699A42ECD37A687B69C3EB02034A
:102B30007B607B68002BC7D107F12407BD4680BCB2
:102B4000704700BF80B487B000AF786039604FF045
:102B50000003BB607A684CF6C043C2F200039A429D
:102B600007D07A684CF69843C2F200039A4200D02C
:102B700000BE3B68002B00D100BE7A684CF6C04313
:102B8000C2F200039A4206D07A684CF69843C2F229
:102B900000039A4238D13B68002B35D03A68BB68B5
:102BA00013441B783B612CE07B681B681B7DFB7525
:102BB0007B689A7AFB7D42EA0303DAB27B689A72F9
:102BC000FB7D03F02003002BEED04FF00003FB60F1
:102BD00011E07B681B683A69D2B21A70FB6803F196
:102BE0000103FB60BB6803F10103BB603A68BB688B
:102BF00013441B783B613B69002B02D0FB680F2B11
:102C0000E7D93B69002BCFD107F11C07BD4680BC3B
:102C1000704700BF80B584B000AF78607A684CF62A
:102C2000C043C2F200039A4207D07A684CF6984338
:102C3000C2F200039A4200D000BE7A684CF6C0434C
:102C4000C2F200039A4206D07A684CF69843C2F268
:102C500000039A4267D17B681B681B7ADBB203F0E2
:102C60000F03FB73FB7B0C2B54D801A252F823F00B
:102C7000A52C0020152D0020C12C0020152D002092
:102C8000DD2C0020152D0020F92C0020152D002012
:102C9000152D0020152D0020152D0020152D0020AC
:102CA000DD2C00207B685B6A002B00D100BE7B68B6
:102CB0005B6A002B30D07B685B6A7868984732E0AB
:102CC0007B681B6A002B00D100BE7B681B6A002B4F
:102CD00024D07B681B6A7868984724E07B68DB69AE
:102CE000002B00D100BE7B68DB69002B18D07B680D
:102CF000DB697868984716E07B689B69002B00D1F8
:102D000000BE7B689B69002B0CD07B689B69786850
:102D1000984708E000BE06E000BF04E000BF02E004
:102D200000BF00E000BF07F11007BD4680BD00BF37
:102D300080B487B000AF78607A684CF6C043C2F2C6
:102D400000039A4207D07A684CF69843C2F2000317
:102D50009A4200D000BE7B68DB68002B00D100BE29
:102D60007B681B69002B00D100BE7A684CF6C0431B
:102D7000C2F200039A4206D07A684CF69843C2F237
:102D800000039A4252D17B68DB68002B4ED07B68EF
:102D90001B69002B4AD07B681B681B7DFB727B681C
:102DA0009A7AFB7A42EA0303DAB27B689A72FB7A78
:102DB00003F02003002B29D04FF010033B617B6808
:102DC0001A697B685B69C3EB02037B617B690F2B2C
:102DD00001D87B693B614FF00003FB6012E07B6828
:102DE0001B687A68D1687A6852690A4412781A7046
:102DF0007B685B6903F101027B685A61FB6803F140
:102E00000103FB60FA683B699A42E8D37B685A6920
:102E10007B681B699A4209D17B684FF000021A61F6
:102E20007B685B684FF00002C3F8842007F11C0741
:102E3000BD4680BC704700BF684620F007018D4644
:102E400089B500AF4CF6C040C2F20000FFF7E2FEC9
:102E50004FF00A00FFF7E4FCBD46BDE88940854617
:102E6000704700BF684620F007018D4689B500AF66
:102E70004CF69840C2F20000FFF7CCFE4FF00B007A
:102E8000FFF7CEFCBD46BDE889408546704700BFD0
:102E900080B483B000AF0346FB804EF20013CEF245
:102EA0000003B7F906204FEA5212F98801F01F011A
:102EB0004FF0010000FA01F143F8221007F10C076E
:102EC000BD4680BC704700BF80B483B000AF0346EE
:102ED000FB804EF20013CEF20003B7F906204FEA52
:102EE0005212F98801F01F014FF0010000FA01F1C0
:102EF00002F1200243F8221007F10C07BD4680BC06
:102F0000704700BF80B483B000AF0346FB804EF231
:102F10000013CEF20003B7F906204FEA5212F988E7
:102F200001F01F014FF0010000FA01F102F160020F
:102F300043F8221007F10C07BD4680BC704700BF64
:102F400080B584B000AF78607A684CF66C53C2F2FA
:102F500000039A4207D07A684CF6E843C2F20003B5
:102F60009A4200D000BE7B689B881BB21846FFF7D0
:102F7000ABFF78684FF000014FF0840202F03EF999
:102F80007B684FF001025A624FF00003FB810DE0B5
:102F9000FB897A6803F106034FEAC30313444FF039
:102FA000FF325A60FB8903F10103FB81FB89072B88
:102FB000EED97A684CF66C53C2F200039A4226D1DD
:102FC0007A6841F20003C4F2000313607B684FF09B
:102FD0000C029A8042F20003CEF2040342F2000295
:102FE000CEF20402126B42F400721A634FF00C002E
:102FF000FFF788FF42F20003CEF2040342F2000220
:10300000CEF20402126B22F400721A6325E07A6891
:1030100041F20003C4F2010313607B684FF00D021C
:103020009A8042F20003CEF2040342F20002CEF292
:103030000402126B42F480621A634FF00D00FFF736
:1030400061FF42F20003CEF2040342F20002CEF22C
:103050000402126B22F480621A637B681B687A6830
:103060001268126822F000421A6007F11007BD468C
:1030700080BD00BF80B58AB000AF78607B681B68F8
:103080001B68FB607B681B689B693B617B681B68F6
:103090005B687B617B681B689B6ABB617B681B68A4
:1030A0001B6BFB617B681B685B6B3B627B681B680F
:1030B000DB697B627A684CF66C53C2F200039A4279
:1030C0002ED17A6841F20003C4F2000313607B68DA
:1030D0004FF00C029A8042F20003CEF2040342F257
:1030E0000002CEF20402126B42F400721A634FF037
:1030F0000C00FFF707FF42F20003CEF2040342F296
:103100000002CEF20402126B22F400721A637B6892
:103110001B687A681268126822F000421A602DE07B
:103120007A6841F20003C4F2010313607B684FF038
:103130000D029A8042F20003CEF2040342F2000232
:10314000CEF20402126B42F480621A634FF00D005B
:10315000FFF7D8FE42F20003CEF2040342F200026F
:10316000CEF20402126B22F480621A637B681B6841
:103170007A681268126822F000421A60FB6823F035
:103180000103FB607B681B68FA681A607B681B6838
:103190003A699A617B681B687A695A607B681B6828
:1031A0007A681268126842F001021A607B681B6834
:1031B000BA699A627B681B68FA691A637B681B6844
:1031C0003A6A5A637B681B687A6ADA6107F12807F2
:1031D000BD4680BD80B584B000AFF8607A600A4615
:1031E000FA72FB70FA684CF66C53C2F200039A4212
:1031F00007D0FA684CF6E843C2F200039A4200D0C6
:1032000000BEFB7A072B00D900BE3B7E202B00D9E5
:1032100000BEFB689B881BB21846FFF755FEFB6893
:103220004FF0000283F88020FB681B68FA68126880
:10323000126822F001021A60FB681B68FA681268C3
:10324000126842F002021A60FB681B68FA68126892
:10325000126842F001021A60FB7A072B3FD87B68A4
:10326000002B0BD07B68B3F1007F07D07B68B3F1F4
:10327000807F03D07B68B3F1407F0FD1FA7A796801
:1032800040F20213C2F2004341EA0303F96802F17B
:1032900006024FEAC2020A4453600EE0FA7A7968E5
:1032A00040F20213C2F2000341EA0303F96802F19B
:1032B00006024FEAC2020A445360FB7AFA6803F13D
:1032C00006034FEAC30313443A7E1A72FB7AFA6884
:1032D00003F106034FEAC3031344FA785A72FB68FA
:1032E0009B881BB21846FFF7D3FD07F11007BD46B8
:1032F00080BD00BF80B584B000AF78600B46FB7026
:103300007A684CF66C53C2F200039A4207D07A688E
:103310004CF6E843C2F200039A4200D000BE7B683C
:103320001B681B6803F00203002B00D100BEFB7872
:103330007A6803F106034FEAC30313445B68B3F1F1
:10334000FF3F00D100BE7B689B881BB21846FFF789
:10335000BBFD7B681B689B6803F00403FB60FB6894
:10336000002B02D07868FFF785FE7B681B687A68BF
:103370001268126822F001021A607B681A68FB78F2
:10338000796803F106034FEAC3030B445B681360DB
:103390007B681A68FB78796803F106034FEAC30378
:1033A0000B445B7A93617B681A68FB78796803F158
:1033B00006034FEAC3030B441B7A53607B681B6808
:1033C0007A681268126842F001021A607B681B6812
:1033D0007A681268D169FA784FF0010000FA02F2B7
:1033E00041EA0202DA617B689B881BB21846FFF74C
:1033F0004FFD07F11007BD4680BD00BF80B584B00A
:1034000000AF78600B46FB707A684CF66C53C2F2E2
:1034100000039A4207D07A684CF6E843C2F20003F0
:103420009A4200D000BE7B681B681B6803F0020351
:10343000002B00D100BE7B689B881BB21846FFF7AB
:1034400043FD7B681B689B6803F00403FB60FB681B
:10345000002B02D07868FFF70DFE7B681B687A6846
:103460001268D169FA784FF0010000FA02F26FEAAF
:10347000020201EA0202DA617B689B881BB21846ED
:10348000FFF706FD07F11007BD4680BD80B487B089
:1034900000AF786039607A684CF66C53C2F2000372
:1034A0009A4207D07A684CF6E843C2F200039A4287
:1034B00000D000BE7B681B681B6803F00203002B72
:1034C00000D100BE7B681A687B681B68196840F2EF
:1034D000FF03CFF6007301EA030343F48073136024
:1034E0007B681B687A681268D26A42F00C02DA6262
:1034F0007B681B689B6803F04003FB600BE07B6804
:103500001B681B69BB60BB68BB607B681B689B68F2
:1035100003F04003FB60FB68002BF0D07B681B6866
:103520003A685A617B681B689B6803F001037B6102
:1035300005E07B681B689B6803F001037B617B6986
:10354000002BF6D07B681B689B6803F002033B618D
:1035500005E07B681B689B6803F002033B613B69E5
:10356000002BF6D07B681B681B69184607F11C0707
:10357000BD4680BC704700BF80B485B000AF7860A6
:103580004FF00003FB600EE07B681B687A6891686F
:103590007A6812690A4412785A617B681B6903F1E0
:1035A00001027B681A617B681B689B6803F4807367
:1035B000002B05D17B681A697B68DB689A42E3D3EC
:1035C0007B681A697B68DB689A421CD30EE07B68D3
:1035D0001B687A6851697A68D2690A4412785A611C
:1035E0007B68DB6903F101027B68DA617B681B6839
:1035F0009B6803F48073002B05D17B68DA697B68D4
:103600009B699A42E3D37B685B6A002B1FD07B687F
:103610001A697B68DB689A4219D37B68DA697B6830
:103620009B699A4213D308E07B681B684FF0000245
:103630005A61FB6803F10103FB607B681B689B68B0
:1036400003F48073002B02D1FB681F2BECD907F128
:103650001407BD4680BC704780B584B000AF786069
:103660007B6893F88030022B15D10CE07B681B68D7
:103670001B69FB607B685B6F002B04D07B685B6F12
:10368000FA68104698477B681B689B6803F0400304
:10369000002BEBD032E07B6893F88030012B25D1F2
:1036A00017E07B681B681B69FB607B681A6B7B6893
:1036B000DB6A9A4207D27B689A6A7B681B6B134469
:1036C000FA68D2B21A707B681B6B03F101027B6847
:1036D0001A637B681B689B6803F04003002BE0D0F3
:1036E0000CE07B681B681B69FB6000E000BF7B6827
:1036F0001B689B6803F04003002BF2D007F1100712
:10370000BD4680BD80B586B000AF78607B681B6821
:1037100003F120033B617A684CF66C53C2F200035C
:103720009A4207D07A684CF6E843C2F200039A4204
:1037300000D000BE3B691B6803F00203002B52D08F
:103740007B6893F88030022B15D10CE07B681B68F6
:103750001B69FB607B685B6F002B04D07B685B6F31
:10376000FA68104698477B681B689B6803F0400323
:10377000002BEBD032E07B6893F88030012B25D111
:1037800017E07B681B681B69FB607B681A6B7B68B2
:10379000DB6A9A4207D27B689A6A7B681B6B134488
:1037A000FA68D2B21A707B681B6B03F101027B6866
:1037B0001A637B681B689B6803F04003002BE0D012
:1037C0000CE07B681B681B69FB6000E000BF7B6846
:1037D0001B689B6803F04003002BF2D07B681B68DA
:1037E0004FF00202DA603B691B6803F00103DBB2B1
:1037F000002B12D07B6893F88030022B05D17B68B8
:103800001B687A68926F5A6102E07868FFF7B4FE2D
:103810007B681B684FF00102DA603B691B6803F0AC
:103820001003002B23D07868FFF716FF7B681B6A14
:10383000002B0BD07B681B6A7A68916A7A68126BDE
:103840000846114698477868FFF796FE7B684FF068
:1038500001025A627B681B687A681268926A22F0D9
:1038600010029A627B681B684FF01002DA603B69B5
:103870001B6803F00403002B0FD07B681B687A6879
:103880001268D26A42F00402DA627868FFF7F2FB4B
:103890007B681B684FF00402DA603B691B6803F029
:1038A0000803002B31D07B681B687A681268D26AE3
:1038B00042F00802DA627B6893F88030022B13D161
:1038C0007B681A687B681B68196840F2FF03CFF6B3
:1038D000007301EA030343F4807313607B681B6881
:1038E0007A68926F5A610BE07B6893F88030012B05
:1038F00006D17B684FF000021A617868FFF73CFE42
:103900007B681B684FF00802DA603B691B6803F0B4
:103910002003002B49D07868FFF79EFE7B681B6B65
:103920007B617B681B6A002B1CD07B684FF0000218
:103930005A627B684FF000025A617B684FF00002C8
:103940009A617B684FF00002DA617B681B684FF078
:103950001002DA607B681B687A681268926A42F02B
:1039600010029A627B684FF000021A617B681B6844
:103970007A681268D26A42F00C02DA627868FFF75D
:10398000FBFD7B684FF000021A637B68DB6F002B46
:1039900006D07B68DB6F7A68926A1046796998472F
:1039A0007B681B684FF02002DA6007F11807BD46FC
:1039B00080BD00BF684620F007018D4689B500AF85
:1039C0004CF66C50C2F20000FFF79CFE4FF00C006A
:1039D000FFF798FABD46BDE889408546704700BFAD
:1039E000684620F007018D4689B500AF4CF6E840E7
:1039F000C2F20000FFF786FE4FF00D00FFF782FADB
:103A0000BD46BDE889408546704700BF80B483B09D
:103A100000AF0346FB804EF20013CEF20003B7F96D
:103A200006204FEA5212F98801F01F014FF0010001
:103A300000FA01F102F1600243F8221007F10C07CD
:103A4000BD4680BC704700BF80B582B000AF42F277
:103A50000003CEF2040342F20002CEF20402126B23
:103A600042F480421A634FF000037B600EE07A68F4
:103A70004CF2C833C2F2000333F812301BB21846BE
:103A8000FFF7C4FF7B6803F101037B607B681F2B9A
:103A9000EDD942F20003CEF2040342F20002CEF26C
:103AA0000402126B22F480421A6307F10807BD4634
:103AB00080BD00BF80B485B000AF03463960FB71A4
:103AC000FB79FB60FB681F2B00D900BEFB681F2B36
:103AD00008D8FA684CF24833C2F2000353F8223097
:103AE0003A681A6007F11407BD4680BC704700BFF2
:103AF00080B485B000AF02460B46FA71BB71FB790A
:103B0000FB60FB681F2B00D900BEFB681F2B09D888
:103B100040F20003C4F22623FA68B97902F58862FC
:103B200043F8221007F11407BD4680BC704700BF60
:103B300080B400AFBD4680BC704700BF80B58AB07E
:103B400000AF4CF20843C2F20003BC460FCB8CE836
:103B50000F0042F20003CEF204039B6C4FEA930382
:103B600003F003034FEA830307F12802134453F8D9
:103B7000283C3B6142F20003CEF204039B6C4FEA07
:103B8000131303F003034FEA830307F128021344DE
:103B900053F8283C7B6142F20003CEF204039B6C95
:103BA0004FEA931303F003034FEA830307F128025C
:103BB000134453F8283CBB6142F20003CEF20403E5
:103BC000DB6C4FEA132303F01F033B6242F2000356
:103BD000CEF20403DB6C4FEA533303F001037B6244
:103BE0003B6A03F10103FB617B6A002B03D0FB6995
:103BF0004FEA4303FB6100F049F802464CF2C86308
:103C0000C2F200031A604CF2C863C2F200031A68E1
:103C10003B69B2FBF3F24CF2CC63C2F200031A60D0
:103C20004CF2C863C2F200031A687B69B2FBF3F27C
:103C30004CF2D063C2F200031A604CF2C863C2F2C5
:103C400000031A68BB69B2FBF3F24CF2D463C2F210
:103C500000031A604CF2C863C2F200031A68FB69E1
:103C6000B2FBF3F24CF2D863C2F200031A604CF2DA
:103C7000C863C2F200031A684CF2C463C2F20003C4
:103C80001A6007F12807BD4680BD00BF80B48BB025
:103C900000AF4FF000037B6040F61C03C6F2080340
:103CA000BB6040F23023C6F20803FB60FB681B6870
:103CB00023F070433B613A6941F2CF13C0F2A15344
:103CC0009A4208D14EF62C73C6F201037B617B69E0
:103CD0001B687B603DE0BB681A6844F24133C4F660
:103CE00054439A4235D140F64003C6F20803BB6103
:103CF000BB691B68FB61FB6923F07F43FB61FA69C9
:103D000040F20033C0F201039A4222D9FA694FF619
:103D1000FF73C0F201039A4208D841F22C63C6F245
:103D200008033B623B6A1B687B6012E0FA694FF64E
:103D3000FF73C0F202039A4208D841F6AC63C6F2A0
:103D400008037B627B6A1B687B6002E04FF0000324
:103D50007B607B68002B05D100BE47F64003C0F2B4
:103D60007D137B607B68184607F12C07BD4680BC3D
:103D7000704700BF80B483B000AF0346FB804EF2B3
:103D80000013CEF20003B7F906204FEA5212F98869
:103D900001F01F014FF0010000FA01F102F1600291
:103DA00043F8221007F10C07BD4680BC704700BFE6
:103DB00080B483B000AF0346FB7107F10C07BD462A
:103DC00080BC7047684620F007018D4689B500AF7A
:103DD0004FF00000FFF7ECFF4FF07600FFF7CAFF4F
:103DE000BD46BDE889408546704700BF684620F063
:103DF00007018D4689B500AF4FF00100FFF7D8FFEE
:103E00004FF07700FFF7B6FFBD46BDE88940854615
:103E1000704700BF684620F007018D4689B500AFA6
:103E20004FF00200FFF7C4FF4FF07800FFF7A2FF4A
:103E3000BD46BDE889408546704700BF684620F012
:103E400007018D4689B500AF4FF00300FFF7B0FFC3
:103E50004FF07900FFF78EFFBD46BDE889408546EB
:103E6000704700BF684620F007018D4689B500AF56
:103E70004FF00400FFF79CFF4FF07A00FFF77AFF46
:103E8000BD46BDE889408546704700BF684620F0C2
:103E900007018D4689B500AF4FF00500FFF788FF99
:103EA0004FF07B00FFF766FFBD46BDE889408546C1
:103EB000704700BF684620F007018D4689B500AF06
:103EC0004FF00600FFF774FF4FF07C00FFF752FF42
:103ED000BD46BDE889408546704700BF684620F072
:103EE00007018D4689B500AF4FF00700FFF760FF6F
:103EF0004FF07D00FFF73EFFBD46BDE88940854697
:103F0000704700BF684620F007018D4689B500AFB5
:103F10004FF00800FFF74CFF4FF07E00FFF72AFF3D
:103F2000BD46BDE889408546704700BF684620F021
:103F300007018D4689B500AF4FF00900FFF738FF44
:103F40004FF07F00FFF716FFBD46BDE8894085466C
:103F5000704700BF684620F007018D4689B500AF65
:103F60004FF00A00FFF724FF4FF08000FFF702FF39
:103F7000BD46BDE889408546704700BF684620F0D1
:103F800007018D4689B500AF4FF00B00FFF710FF1A
:103F90004FF08100FFF7EEFEBD46BDE88940854643
:103FA000704700BF684620F007018D4689B500AF15
:103FB0004FF00C00FFF7FCFE4FF08200FFF7DAFE37
:103FC000BD46BDE889408546704700BF684620F081
:103FD00007018D4689B500AF4FF00D00FFF7E8FEF1
:103FE0004FF08300FFF7C6FEBD46BDE88940854619
:103FF000704700BF684620F007018D4689B500AFC5
:104000004FF00E00FFF7D4FE4FF08400FFF7B2FE32
:10401000BD46BDE889408546704700BF684620F030
:1040200007018D4689B500AF4FF00F00FFF7C0FEC6
:104030004FF08500FFF79EFEBD46BDE889408546EE
:10404000704700BF684620F007018D4689B500AF74
:104050004FF01000FFF7ACFE4FF08600FFF78AFE2E
:10406000BD46BDE889408546704700BF684620F0E0
:1040700007018D4689B500AF4FF01100FFF798FE9C
:104080004FF08700FFF776FEBD46BDE889408546C4
:10409000704700BF684620F007018D4689B500AF24
:1040A0004FF01200FFF784FE4FF08800FFF762FE2A
:1040B000BD46BDE889408546704700BF684620F090
:1040C00007018D4689B500AF4FF01300FFF770FE72
:1040D0004FF08900FFF74EFEBD46BDE8894085469A
:1040E000704700BF684620F007018D4689B500AFD4
:1040F0004FF01400FFF75CFE4FF08A00FFF73AFE26
:10410000BD46BDE889408546704700BF684620F03F
:1041100007018D4689B500AF4FF01500FFF748FE47
:104120004FF08B00FFF726FEBD46BDE8894085466F
:10413000704700BF684620F007018D4689B500AF83
:104140004FF01600FFF734FE4FF08C00FFF712FE21
:10415000BD46BDE889408546704700BF684620F0EF
:1041600007018D4689B500AF4FF01700FFF720FE1D
:104170004FF08D00FFF7FEFDBD46BDE88940854646
:10418000704700BF684620F007018D4689B500AF33
:104190004FF01800FFF70CFE4FF08E00FFF7EAFD1E
:1041A000BD46BDE889408546704700BF684620F09F
:1041B00007018D4689B500AF4FF01900FFF7F8FDF4
:1041C0004FF08F00FFF7D6FDBD46BDE8894085461C
:1041D000704700BF684620F007018D4689B500AFE3
:1041E0004FF01A00FFF7E4FD4FF09000FFF7C2FD1B
:1041F000BD46BDE889408546704700BF684620F04F
:1042000007018D4689B500AF4FF01B00FFF7D0FDC9
:104210004FF09100FFF7AEFDBD46BDE889408546F1
:10422000704700BF684620F007018D4689B500AF92
:104230004FF01C00FFF7BCFD4FF09200FFF79AFD16
:10424000BD46BDE889408546704700BF684620F0FE
:1042500007018D4689B500AF4FF01D00FFF7A8FD9F
:104260004FF09300FFF786FDBD46BDE889408546C7
:10427000704700BF684620F007018D4689B500AF42
:104280004FF01E00FFF794FD4FF09400FFF772FD12
:10429000BD46BDE889408546704700BF684620F0AE
:1042A00007018D4689B500AF4FF01F00FFF780FD75
:1042B0004FF09500FFF75EFDBD46BDE8894085469D
:1042C000704700BF81F0004102E000BF83F000436F
:1042D00030B54FEA41044FEA430594EA050F08BFA1
:1042E00090EA020F1FBF54EA000C55EA020C7FEA65
:1042F000645C7FEA655C00F0E2804FEA5454D4EBE2
:104300005555B8BF6D420CDD2C4480EA020281EAAB
:10431000030382EA000083EA010180EA020281EAE3
:104320000303362D88BF30BD11F0004F4FEA013135
:104330004FF4801C4CEA113102D0404261EB410144
:1043400013F0004F4FEA03334CEA133302D05242CA
:1043500063EB430394EA050F00F0A780A4F1010486
:10436000D5F1200E0DDB02FA0EFC22FA05F28018C0
:1043700041F1000103FA0EF2801843FA05F35941A6
:104380000EE0A5F120050EF1200E012A03FA0EFC25
:1043900028BF4CF0020C43FA05F3C01851EBE3714F
:1043A00001F0004507D54FF0000EDCF1000C7EEB6C
:1043B00000006EEB0101B1F5801F1BD3B1F5001FAA
:1043C0000CD349085FEA30004FEA3C0C04F10104C9
:1043D0004FEA445212F5800F80F09A80BCF1004FF2
:1043E00008BF5FEA500C50F1000041EB045141EA74
:1043F000050130BD5FEA4C0C404141EB010111F475
:10440000801FA4F10104E9D191F0000F04BF01461F
:104410000020B1FA81F308BF2033A3F10B03B3F1FD
:1044200020020CDA0C3208DD02F1140CC2F10C028D
:1044300001FA0CF021FA02F10CE002F11402D8BFEB
:10444000C2F1200C01FA02F120FA0CFCDCBF41EAB7
:104450000C019040E41AA2BF01EB0451294330BD86
:104460006FEA04041F3C1CDA0C340EDC04F1140463
:10447000C4F1200220FA04F001FA02F340EA03003A
:1044800021FA04F345EA030130BDC4F10C04C4F180
:10449000200220FA02F001FA04F340EA0300294660
:1044A00030BD21FA04F0294630BD94F0000F83F4AA
:1044B000801306BF81F480110134013D4EE77FEA8D
:1044C000645C18BF7FEA655C29D094EA050F08BFD9
:1044D00090EA020F05D054EA000C04BF19461046BA
:1044E00030BD91EA030F1EBF0021002030BD5FEAFE
:1044F000545C05D14000494128BF41F0004130BD26
:1045000014F580043CBF01F5801130BD01F0004579
:1045100045F0FE4141F470014FF0000030BD7FEAEC
:10452000645C1ABF194610467FEA655C1CBF0B46E7
:10453000024650EA013406BF52EA033591EA030FFE
:1045400041F4002130BD00BF90F0000F04BF0021F6
:10455000704730B54FF4806404F132044FF0000529
:104560004FF0000150E700BF90F0000F04BF0021A2
:10457000704730B54FF4806404F1320410F0004508
:1045800048BF40424FF000013EE700BF42004FEA03
:10459000E2014FEA31014FEA02701FBF12F07F4380
:1045A00093F07F4F81F06051704792F0000F14BF7D
:1045B00093F07F4F704730B54FF4607401F00045C1
:1045C00021F0004120E700BF50EA010208BF704718
:1045D00030B54FF000050AE050EA010208BF70470D
:1045E00030B511F0004502D5404261EB41014FF476
:1045F000806404F132045FEA915C3FF4DCAE4FF07A
:1046000003025FEADC0C18BF03325FEADC0C18BF60
:10461000033202EBDC02C2F1200300FA03FC20FAB1
:1046200002F001FA03FE40EA0E0021FA02F11444FE
:10463000C1E600BF70B54FF0FF0C4CF4E06C1CEA13
:1046400011541DBF1CEA135594EA0C0F95EA0C0F88
:1046500000F0DEF82C4481EA030621EA4C5123EAFB
:104660004C5350EA013518BF52EA033541F480112A
:1046700043F4801338D0A0FB02CE4FF00005E1FBDD
:1046800002E506F00042E0FB03E54FF00006E1FB27
:1046900003569CF0000F18BF4EF0010EA4F1FF046A
:1046A000B6F5007F64F5407404D25FEA4E0E6D41AA
:1046B00046EB060642EAC62141EA55514FEAC520BB
:1046C00040EA5E504FEACE2EB4F1FD0C88BFBCF537
:1046D000E06F1ED8BEF1004F08BF5FEA500E50F1E8
:1046E000000041EB045170BD06F0004646EA0101AE
:1046F00040EA020081EA0301B4EB5C04C2BFD4EBE0
:104700000C0541EA045170BD41F480114FF0000ED8
:10471000013C00F3AB8014F1360FDEBF002001F046
:10472000004170BDC4F10004203C35DA0C341BDCC0
:1047300004F11404C4F1200500FA05F320FA04F092
:1047400001FA05F240EA020001F0004221F00041C6
:1047500010EBD37021FA04F642EB06015EEA430E39
:1047600008BF20EAD37070BDC4F10C04C4F1200569
:1047700000FA04F320FA05F001FA04F240EA02001C
:1047800001F0004110EBD37041F100015EEA430EED
:1047900008BF20EAD37070BDC4F1200500FA05F20D
:1047A0004EEA020E20FA04F301FA05F243EA02038C
:1047B00021FA04F001F0004121FA04F220EA02009B
:1047C00000EBD3705EEA430E08BF20EAD37070BDE1
:1047D00094F0000F0FD101F00046400041EB0101C1
:1047E00011F4801F08BF013CF7D041EA060195F0A3
:1047F000000F18BF704703F00046520043EB03035D
:1048000013F4801F08BF013DF7D043EA0603704749
:1048100094EA0C0F0CEA135518BF95EA0C0F0CD054
:1048200050EA410618BF52EA4306D1D181EA03019A
:1048300001F000414FF0000070BD50EA410606BF94
:104840001046194652EA430619D094EA0C0F02D1D9
:1048500050EA013613D195EA0C0F05D152EA03361E
:104860001CBF104619460AD181EA030101F000413C
:1048700041F0FE4141F470014FF0000070BD41F085
:10488000FE4141F4780170BD70B54FF0FF0C4CF45F
:10489000E06C1CEA11541DBF1CEA135594EA0C0F7E
:1048A00095EA0C0F00F0A7F8A4EB050481EA030ECB
:1048B00052EA03354FEA013100F088804FEA0333B2
:1048C0004FF0805545EA131343EA12634FEA022280
:1048D00045EA111545EA10654FEA00260EF0004141
:1048E0009D4208BF964244F1FD0404F5407402D293
:1048F0005B084FEA3202B61A65EB03055B084FEA24
:1049000032024FF480104FF4002CB6EB020E75EB20
:10491000030E22BFB61A754640EA0C005B084FEA48
:104920003202B6EB020E75EB030E22BFB61A7546C5
:1049300040EA5C005B084FEA3202B6EB020E75EB10
:10494000030E22BFB61A754640EA9C005B084FEA88
:104950003202B6EB020E75EB030E22BFB61A754695
:1049600040EADC0055EA060E18D04FEA051545EA84
:1049700016754FEA06164FEAC30343EA52734FEA2D
:10498000C2025FEA1C1CC0D111F4801F0BD141EAA6
:1049900000014FF000004FF0004CB6E711F4801F0B
:1049A00004BF01430020B4F1FD0C88BFBCF5E06FEB
:1049B0003FF6AFAEB5EB030C04BFB6EB020C5FEAFB
:1049C000500C50F1000041EB045170BD0EF0004E50
:1049D0004EEA113114EB5C04C2BFD4EB0C0541EA82
:1049E000045170BD41F480114FF0000E013C90E67F
:1049F00045EA060E8DE60CEA135594EA0C0F08BF43
:104A000095EA0C0F3FF43BAF94EA0C0F0AD150EA41
:104A100001347FF434AF95EA0C0F7FF425AF1046D4
:104A200019462CE795EA0C0F06D152EA03353FF4FC
:104A3000FDAE1046194622E750EA410618BF52EA79
:104A400043067FF4C5AE50EA41047FF40DAF52EA4D
:104A500043057FF4EBAE12E770B54CF2A0664CF262
:104A6000A065C2F20006C2F20005761BB61006D0A1
:104A7000002455F8243001349847A642F9D84CF266
:104A8000A0654CF2A466C2F20005C2F20006761BD5
:104A900007F0FAFDB61006D0002455F82430013492
:104AA0009847A642F9D870BD4CF2DC630146C2F2C9
:104AB0000003186804F0DCBE4CF2DC630146C2F26D
:104AC0000003186800F000B82DE9F04F01F10B0465
:104AD000162C83B006462FD8002310248C422CBFFE
:104AE000194643F00101002930D1304600F0F0FBB7
:104AF000B4F5FC7F2ED24FEAD40E4CF2D075C2F240
:104B0000000505EBCE02D368934200F006825A6896
:104B100003F10805D968304622F0030C9A68634413
:104B20005C688A6044F00104D1605C6000F0D2FBF4
:104B3000284603B0BDE8F08F24F00704E30F8C4251
:104B40002CBF194643F001010029CED00C230025CB
:104B50003360EDE75FEA542E04BF4FEAD40E4FEA0C
:104B6000CE0040F090804CF2D075C2F200052818BB
:104B7000C368984206D10DE0002A80F26F81DB689D
:104B8000984207D0596821F003010A1B0F2AF3DD70
:104B90000EF1FF3E0EF1010E4CF2D077C2F200078B
:104BA00007F108018B68994208BF7A6826D05A68D5
:104BB00022F0030CC4EB0C020F2A00F39481002AAC
:104BC000C960896080F29980BCF5007F80F06581C2
:104BD0004FEADC0C4FF0010A7A6807EBCC004FEA91
:104BE000AC0C0AFA0CFCD860D0F808804CEA02023F
:104BF0007A60C3F80880C8F80C3083604FF0010C6D
:104C00004FEAAE030CFA03FC944500F2828012EAEC
:104C10000C0F08D12EF0030E4FEA4C0C0EF1040ECF
:104C200012EA0C0FF8D007EBCE09F246C846D8F8C6
:104C30000C30984507D168E1002A80F27881DB6862
:104C4000984500F06281586820F00300021B0F2A8B
:104C5000F2DD1D461F19D3F80CC044F0010E55F8C3
:104C6000084F3046BA5042F00102C3F804E0CCF8D5
:104C70000840C4F80CC08F60CF607A60B960F960FA
:104C800000F028FB54E7BEF1040F9EBF4FEA941ECC
:104C90000EF1380E4FEACE007FF665AFBEF1140F6D
:104CA0009CBF0EF15B0E4FEACE007FF65CAFBEF10B
:104CB000540F9EBF4FEA143E0EF16E0E4FEACE0027
:104CC0007FF651AFBEF5AA7F9EBF4FEAD43E0EF1EC
:104CD000770E4FEACE007FF646AF40F254539E4522
:104CE00095BF4FEA944E4FF47C700EF17C0E4FF05E
:104CF0007E0E98BF4FEACE0035E703EB0C0203F1BE
:104D000008053046536843F00103536000F0E2FAAF
:104D10000EE7D7F80880D8F8043023F00309C4EB75
:104D200009024C4594BF002301230F2AD8BF43F04A
:104D30000103002B00F0A1804CF6504BD5F808245D
:104D4000C2F2000BDBF8003010331B19B2F1FF3F49
:104D500006D003F57E631F3323F47E6323F01F0325
:104D600019463046019300F02DFB019BB0F1FF3F47
:104D7000824600F0F48008EB0901814200F2EC80E9
:104D8000DBF804209A185145CBF8042000F0458147
:104D9000D5F808544CF2D070C2F20000B5F1FF3FD4
:104DA00008BFC0F808A403D05244511ACBF804102D
:104DB0001AF00705304617BFC5F108054FF48055B6
:104DC000AA4405F5805553441B051B0DED1A2946D1
:104DD00000F0F8FAB0F1FF3F00F02C81CAEB0001BF
:104DE000491941F00101DBF804204CF65043C7F8A3
:104DF00008A0C2F20003AA18B845CBF80420CAF8EC
:104E0000041017D0B9F10F0F40F2DF80A9F10C01A7
:104E1000052521F0070108EB01000F298560456099
:104E2000D8F8040000F0010041EA0000C8F80400CE
:104E300000F2AC80D0464CF65043DBF82C10C2F2A6
:104E400000038A42DBF8301088BFDA624CF6504328
:104E5000C2F200038A4288BF1A6382E05C189A6833
:104E6000D9683046666803F108058A6046F0010398
:104E7000D160636000F02EFA5AE608EB040342F0BA
:104E8000010244F001043046C8F8044008F1080566
:104E90005A60BB6000F01EFA4AE64FEA5C22042A20
:104EA00054D9142A00F289805B324FEAC208A84420
:104EB0004CF2D077C2F20007D8F80800404503D181
:104EC0006FE08068804504D0426822F00302944578
:104ED000F7D3D0F80CC0C3F80CC098607A68C360F0
:104EE000CCF808308AE61F19304644F00104CF6040
:104EF0005C6003F10805BA5042F001028F607A60ED
:104F0000B960F96000F0E6F912E60AF1010A1AF058
:104F1000030F5FD003F1080889E603F10802D368A4
:104F20009A4208BF0EF1020E3FF436AEEFE51D4681
:104F30001918DA68304655F8083F4C68936044F019
:104F40000104DA604C6000F0C5F9F1E54FEA9C120B
:104F500038324FEAC208AAE7B8453FF411AFD7F894
:104F60000880D8F8042022F00302944294BF002362
:104F70000123121B0F2AD8BF43F00103002B3FF47B
:104F80007CAF3046002500F0A5F9D1E508F1080115
:104F90003046019304F06CFC019BD7F808805A68F6
:104FA00049E74FF0010AD7F80480921084460AFAC4
:104FB00002F248EA02027A608DE7542A24D84FEAC6
:104FC0001C326E324FEAC20871E70123D046CAF89C
:104FD0000430C6E74A461EF0030F13460EF1FF3EAB
:104FE00033D053F808299A42F5D07B684FEA4C0C2D
:104FF0009C453FF68EAEBCF1000F3FF48AAE1CEA32
:10500000030F27D0D6460EE6B2F5AA7F15D84FEA91
:10501000DC3277324FEAC20849E70805000D002864
:105020007FF4B6AED7F808804B4443F00103C8F8CC
:10503000043000E701210025D5E640F254508242B9
:105040000DD94FF47C787E2231E77B6823EA0C038C
:105050007B60CBE74FEA4C0C0AF1040ACFE74FEA3A
:105060009C427C324FEAC20821E700BF032A2DE9A7
:10507000F0070BD83AB1002311F803C000F803C0C1
:1050800001339342F8D1BDE8F007704782180C460F
:10509000034603E014F8011C03F8011C03F00306A7
:1050A0001946A44601330134002EF3D11CF0030449
:1050B000634608BFC1EB020C68D06542C4F1040A24
:1050C0000CEB050733464FEACA0A5CF805604FEA65
:1050D000C408551A08E057F8044F264604FA0AF4A3
:1050E00049EA0404CC5004335C18032D26FA08F96D
:1050F000A5F104050CEB0306EDDC002302E0F15CF6
:10510000E154013319199142F9D3BCE753F8404CEB
:1051100041F8404C53F83C4C41F83C4C53F8384C67
:1051200041F8384C53F8344C41F8344C53F8304C77
:1051300041F8304C53F82C4C41F82C4C53F8284C87
:1051400041F8284C53F8244C41F8244C53F8204C97
:1051500041F8204C53F81C4C41F81C4C53F8184CA7
:1051600041F8184C53F8144C41F8144C53F8104CB7
:1051700041F8104C53F80C4C41F80C4C53F8084CC7
:1051800041F8084C53F8044C41F8044C1C460D46B9
:1051900040334031BCF13F0FACF1400CB6DC21464E
:1051A0002B46541B0FE051F8105C43F8105C51F88B
:1051B0000C5C43F80C5C51F8085C43F8085C51F84F
:1051C000045C43F8045C0F2C0D469C4601F1100171
:1051D00003F11003A4F11004E5DCCCEB0201002381
:1051E00003E0EC584CF8034004335E19032903EB49
:1051F0000C04A1F10401F4DC7FE700BF032AC9B26B
:1052000030B407D822B10023C15401339342FBD1FB
:1052100030BC704700EB020C034601E003F8011CB0
:1052200003F003041A460133002CF7D14FF0013389
:10523000C2EB0C0403FB01F31FE042F8403C42F8D0
:105240003C3C42F8383C42F8343C42F8303C42F8AE
:105250002C3C42F8283C42F8243C42F8203C42F8DE
:105260001C3C42F8183C42F8143C42F8103C42F80E
:105270000C3C42F8083C42F8043C154640323F2CB6
:10528000A4F14004D9DC2A46C5EB0C0407E042F83F
:10529000103C42F80C3C42F8083C42F8043C1546ED
:1052A00010320F2CA4F11004F1DC2A46C5EB0C05DA
:1052B00001E042F8043C14460432032DA5F1040534
:1052C000F7DC01E004F8011B6445FBD3A0E700BF55
:1052D000704700BF704700BF0FB44CF2DC63C2F2EE
:1052E000000310B51C6882B024B1A36913B920462D
:1052F00004F03AFA204605AC049A234681680194EA
:1053000001F0D0FB02B0BDE8104004B0704700BF10
:105310000EB410B5044683B018B183690BB904F01C
:1053200023FA204606AC059A23468168019401F0D1
:10533000B9FB03B0BDE8104003B0704730B5044678
:1053400089B008460D4600F09BF84CF220430195C9
:10535000C2F2000303930290431C079301230493BA
:1053600001AB0593022306930CB1A369EBB14CF298
:10537000DC632046C2F200031B689B689A8912F422
:10538000005F01BF42F400529A81596E21F400522D
:10539000A16808BF5A6605AA04F04AFB002814BF9A
:1053A0004FF0FF300A2009B030BD204604F0DCF990
:1053B000DDE700BF4CF2DC630146C2F2000318686F
:1053C000BCE700BF38B54CF6F054C2F20004054605
:1053D000084600232360FDF7D9F9B0F1FF3F00D064
:1053E00038BD2368002BFBD02B6038BD0EB44CF2C7
:1053F000DC6330B59CB01FACC2F20003054601A9C6
:1054000054F8042B4FF0FF3C18684FF40273ADF8CA
:1054100010302346059501956FF00045ADF812C098
:10542000069503951B9400F0E9F8019B00221A7081
:105430001CB0BDE8304003B0704700BF0CB40B4651
:1054400010B59CB01EAC01A905934FF4027C54F832
:10545000042B01934FF0FF33ADF8123023461B9419
:105460006FF00044ADF810C00694039400F0C6F845
:10547000019B00221A701CB0BDE8104002B07047BA
:1054800020F0030110F00300C0F1000051F8043BCC
:1054900000F1040C4FEACC0C6FF000021CBF22FAA2
:1054A0000CF213434FF0010C4CEA0C2C4CEA0C4C60
:1054B000A3EB0C0222EA030212EACC1204BF51F859
:1054C000043B0430F4D013F0FF0F1FBF013013F47E
:1054D0007F4F013013F47F0F18BF0130704700BFBA
:1054E0002DE9F04F85B092460C46039090681768FE
:1054F000002800F081804FF000090B684D46002D18
:1055000054D0A668B542B0463EBF18462E46A846BF
:105510003CD3A08910F4906F08BF184636D062695A
:10552000216902EB420B5B1A03F1010C0BEBDB7BF5
:10553000AC444FEA6B0BE3455A463CBFE3465A4640
:1055400010F4806F37D0114603980193FFF7BCFA2F
:10555000019B00283BD01A46216901930290FFF776
:1055600085FDA289019BDDF808C022F4906242F01B
:105570008002A2812E46A846C3EB0B020CEB03006F
:10558000A260C4F810C02060C4F814B04246494676
:1055900004F01AFDA2682368961BA660DAF80820BA
:1055A00043442360551BCAF80850FDB1D7F800905A
:1055B0007D680837A3E70398019305F00DFA019B76
:1055C00084460028D6D10398216904F051F9039A42
:1055D0000C234FF0FF3013600023A289CAF8043077
:1055E00042F04002CAF80830A28102E02846CAF818
:1055F000045005B0BDE8F08F5060FAE72DE9F04F98
:10560000C5B00E469A461546099004F001FCB389D0
:1056100013F0800F00681B9003D03369002B01F05A
:105620008C800DF17409B3464C4600221092002381
:10563000189217921A920D922DAA199328320DF1F1
:10564000F703169207930023CDF8DC903893399333
:105650002B78B3F1250218BF0122002B0CBF0022CA
:1056600002F0010202B32E4616F8013F1A1E18BFBF
:105670000122252B0CBF002202F00102002AF3D1E7
:10568000771B08BF35460FD06760389B399A0133C6
:105690002560D219072B3992389379DC08340D989C
:1056A0003546C0190D903378002B00F03787002164
:1056B0004FF00002CDF828A06B1C0C914FF0FF3882
:1056C0008DF80F218A466A782B204FF0200C5D1C44
:1056D000A2F12003582B00F21982DFE813F029020F
:1056E00017021702350217021702170217021702D4
:1056F00017023C0248021702C802CF021702EF024B
:10570000F602F602F602F602F602F602F602F602D9
:10571000F6021702170217021702170217021702E2
:105720001702170217024F02880217028802170297
:10573000170217021702C10217021702EE0317021F
:105740001702170217021702930317021702AD037D
:105750001702170217021702170217021702170281
:1057600017021702C703D8038802880288020B03B6
:10577000D803170217020F031702190329033E0368
:105780008C03170259031702840317021702EA0059
:105790000998594637AAFFF7A3FE00287CD14C464A
:1057A0007DE71899012940F35284119A012363601F
:1057B000389B2260399A013338930132072B399292
:1057C00000F39685083401236360389B399A0133CE
:1057D0001B980132072B39922060389300F37D85A6
:1057E0000834109800220023199905F0B9FE00280A
:1057F00040F003851899119B4A1E6260591C389B22
:1058000021603999013338938A18072B399200F3B4
:105810002F8408341A9A1A9862603EAA389B226034
:10582000399A013338931218072B399200F34F81BC
:1058300004F108031AF0040F00F056810C990B9A3A
:105840008E1A002E40F35081102E4CF22447D8BF00
:10585000C2F2000740F3DE831024C2F200070DF10C
:10586000DC08DDF824A003E0103E102E40F3D283C4
:105870005C60389A399901321F601031072A3991DA
:1058800003F108033892EFDD504659464246FFF7D0
:1058900027FE4B460028E7D05E46B3890D9813F0EB
:1058A000400F18BF4FF0FF300D900D9845B0BDE888
:1058B000F08F1AF0200F4CF26840C2F200001492F0
:1058C000179000F0C3820A99CB1D23F0070303F160
:1058D00008020A92D3E9006756EA07010CBF0022CA
:1058E00001221AEA020F40F0BC8402234FF00001AB
:1058F0008DF80F11B8F1000FA8BF2AF0800AB8F197
:10590000000F18BF42F00102002A00F06081012B55
:1059100000F03484022B00F017841699CDF82C8007
:1059200011914FEAD6084FEAD70C48EA477806F0BB
:10593000070067464646303056EA070201F8010D77
:10594000EFD11AF0010FDDF82C80119140F0DB84CB
:10595000169B5B1A0E930E9BCDF854804345B8BF3F
:1059600043460B939DF80F3113B10B9901310B9105
:105970001AF00202139202D00B9B02330B931AF01F
:105980008400129038D10C990B9A8E1A002E33DDB8
:10599000102E4CF22447D8BFC2F2000720DD4FF092
:1059A0001008C2F2000702E0103E102E18DDC4F805
:1059B0000480389B399A013327601032072B3992C3
:1059C00004F108043893EFDD0998594637AA4C468C
:1059D000FFF786FD00287FF45FAF103E102EE6DC57
:1059E0006660389B27605A1C399B38929B19072A9E
:1059F000399300F3F78308349DF80F3173B1012315
:105A00006360389B43AA03322260399A013338938A
:105A10000132072B399200F340830834139B6BB19A
:105A200002236360389B43AA2260399A013338937A
:105A30000232072B399200F33A83083412988028F7
:105A400000F0B28215980E9BC61A002E2EDD102E85
:105A5000A74FC8BF4FF0100803DC1BE0103E102E0C
:105A600018DDC4F80480389B399A0133276010325E
:105A7000072B399204F108043893EFDD0998594651
:105A800037AA4C46FFF72CFD00287FF405AF103EE7
:105A9000102EE6DC6660389B27605A1C399B3892D2
:105AA0009B19072A399300F3EE8208341AF4807F99
:105AB00040F019820E99119A6160389B2260399AE0
:105AC000013338935218072B39927FF7B1AE0998FA
:105AD000594637AAFFF704FD00287FF4DDAE1AF01F
