S0250000616E74735F6D61737465725F4D53535F4D53535F434D335F305F6170702E7372656369
S315200000000000012099020020090300200B03002094
S315200000100D0300200F030020110300200000000024
S315200000200000000000000000000000001303002074
S3152000003015030020000000001703002019030020EC
S315200000401B0300201D0300201F0300202103002086
S315200000502303002025030020270300202903002056
S315200000602B0300202D030020B1280020DD280020AE
S315200000702D34002059340020370300203903002076
S315200000803B0300203D0300203F03002041030020C6
S31520000090C1200020450300204703002049030020FB
S315200000A04B030020000000000000000000000000BC
S315200000B00000000000000000000000004D030020AA
S315200000C04F03002051030020530300205503002036
S315200000D057030020590300205B0300205D03002006
S315200000E05F030020610300206303002065030020D6
S315200000F067030020690300206B0300206D030020A6
S315200001006F03002071030020730300207503002075
S3152000011077030020790300207B0300207D03002045
S315200001207F03002081030020830300208503002015
S3152000013087030020890300208B0300208D030020E5
S315200001408F030020910300209303002095030020B5
S3152000015097030020990300209B0300209D03002085
S315200001609F030020A1030020A3030020A503002055
S31520000170A7030020A9030020AB030020AD03002025
S31520000180AF030020B1030020B3030020B5030020F5
S31520000190B7030020B9030020BB030020BD030020C5
S315200001A0BF030020C1030020C3030020C503002095
S315200001B0C7030020C9030020CB030020CD03002065
S315200001C0CF030020D1030020D3030020D503002035
S315200001D0D7030020D9030020DB030020DD03002005
S315200001E0DF030020E1030020E3030020E5030020D5
S315200001F0E7030020E9030020EB030020ED030020A5
S31520000200EF030020F1030020F3030020F503002074
S31520000210F7030020F90300203D3800206538002030
S315200002208D380020B5380020DD3800200539002023
S315200002302D390020553900207D390020A539002090
S31520000240CD390020F53900201D3A0020453A0020FE
S315200002506D3A0020953A0020BD3A0020E53A00206C
S315200002600D3B0020353B00205D3B0020853B0020D8
S31520000270AD3B0020D53B0020FD3B0020253C002047
S315200002804D3C0020753C00209D3C0020C53C0020B4
S31520000290ED3C0020153D002068488047684800282E
S315200002A00BD168486849694A884206D091421CBFEA
S315200002B050F8043B41F8043BF8D165486549664A45
S315200002C0884206D091421CBF50F8043B41F8043BBB
S315200002D0F8D162486249634A914218BF41F8040B3B
S315200002E0FAD100000000000000000000000000001D
S315200002F0DFF874010FF2030E00474FF000004FF0B5
S315200003000001DFF868F1FEE7FEE7FEE7FEE7FEE71D
S31520000310FEE7FEE7FEE7FEE7FEE7FEE7FEE7FEE78F
S31520000320FEE7FEE7FEE7FEE7FEE7FEE7FEE7FEE77F
S31520000330FEE7FEE7FEE7FEE7FEE7FEE7FEE7FEE76F
S31520000340FEE7FEE7FEE7FEE7FEE7FEE7FEE7FEE75F
S31520000350FEE7FEE7FEE7FEE7FEE7FEE7FEE7FEE74F
S31520000360FEE7FEE7FEE7FEE7FEE7FEE7FEE7FEE73F
S31520000370FEE7FEE7FEE7FEE7FEE7FEE7FEE7FEE72F
S31520000380FEE7FEE7FEE7FEE7FEE7FEE7FEE7FEE71F
S31520000390FEE7FEE7FEE7FEE7FEE7FEE7FEE7FEE70F
S315200003A0FEE7FEE7FEE7FEE7FEE7FEE7FEE7FEE7FF
S315200003B0FEE7FEE7FEE7FEE7FEE7FEE7FEE7FEE7EF
S315200003C0FEE7FEE7FEE7FEE7FEE7FEE7FEE7FEE7DF
S315200003D0FEE7FEE7FEE7FEE7FEE7FEE7FEE7FEE7CF
S315200003E0FEE7FEE7FEE7FEE7FEE7FEE7FEE7FEE7BF
S315200003F0FEE7FEE7FEE7FEE7FEE7FEE7FEE7FEE7AF
S31520000400FEE7FEE7FEE7FEE7FEE7FEE7FEE7FEE79E
S31520000410FEE7FEE7FEE7FEE7FEE7FEE7FEE7FEE78E
S31520000420FEE7FEE7FEE7FEE7FEE7FEE7FEE7FEE77E
S31520000430FEE7FEE7FEE7FEE7FEE70000A93500201F
S3152000044000000000000000200000002040C800201E
S3152000045040C8002040C8002074CD002000000000C5
S3152000046074CD0020C0CF0020AD4A0020510F0020BF
S315200004704CF67453C2F200031A780AB90120187098
S31520000480704700BF4CF64000C2F2000008B5036872
S315200004902BB140F20003C0F2000303B1984708BD18
S315200004A02DE9F04101F080FC4CF678554EF2001013
S315200004B0C2F20005C0F2F5504FF0000801F000FD31
S315200004C085F8078001F054F804F0D0FA4CF650660F
S315200004D0C2F200064CF698574CF68C54A880C2F20D
S315200004E0000730460121C2F20004A971C6F8048033
S315200004F02F603560276001F067FA4CF64C60C2F237
S31520000500000003787BB93A684CF69453C2F2000394
S31520000510100C9870746095E803001A8084E8030034
S315200005202360BDE8F081FEE770B503780A7813F002
S31520000530200433D002F02005EDB2002D2ED140F25A
S315200005404812C4F20502156013F040023DD091F81E
S3152000055000C00CF04004E4B2002C36D140F208135F
S31520000560C4F205031C6090F902C091F9022094455B
S3152000057005D191F9033090F90310994257D04CF6E2
S315200005808054C2F20004214601F020F8206801F0D0
S315200005905DF86068BDE8704001F066B813F0100F92
S315200005A02FD002F0100C5FFA8CF5002D39D0002CDC
S315200005B0CAD112F0200FC7D040F24412C4F205026D
S315200005C00024146013F04002C1D113F0800305D03B
S315200005D091F800C00CF08004E4B2E4B122B991F89D
S315200005E000C01CF0400F05D1002BBCD10B7813F0B6
S315200005F0800FB8D040F20413C4F2050300221A601B
S31520000600B1E712F0100FD2D040F24412C4F2050224
S3152000061000241460D6E740F20C12C4F205021460DE
S31520000620A1E740F24C12C4F2050215608CE770BDBA
S315200006304AF6983010B5C0F2020001F015F840F2E3
S315200006405412C4F205021368002BFCD14EF6480062
S31520000650C0F2010001F008F8FA2001F09FFC44F6F0
S31520000660F010C0F20200BDE8104000F0FDBF00BF50
S3152000067070B504464BF6CC702146C2F2000004F059
S3152000068055FE04F00106C4F340054BF6E070C4F3B2
S3152000069080042A4623463146C2F2000004F046FE74
S315200006A03146042002F060FF2946052002F05CFF57
S315200006B021460620BDE8704002F056BF70B503788B
S315200006C013F0020F48D0087810F0020F44D14CF6F0
S315200006D08851C2F200010D78002D3DD14CF675549B
S315200006E0C2F200042278002A37D101232370042085
S315200006F0FFF7BEFF4DF2A820C0F2020000F0A6FFD1
S315200007004AF69830C0F2020000F0AEFF40F2041420
S3152000071040F2541240F2101140F24410C4F2050285
S31520000720C4F20501C4F20500C4F2050413680BB92E
S315200007300B683BB1136803B903600B68002BF5D136
S315200007402360F3E740F2041140F24410C4F205019D
S31520000750C4F205000B60036070BD4CF67852C2F2FD
S31520000760000201214EF648009171C0F2010000F00E
S315200007707BFF4EF64800C0F2010000F067FFFA202A
S3152000078001F00CFC40F24410C4F2050005606E2016
S3152000079001F004FC40F20413C4F2050328461D6050
S315200007A02570BDE87040FFF763BF00BF10B54CF65B
S315200007B08853C2F200031A7882B00446002A29D14F
S315200007C0007810F0080F12D0637813F0400F0CD089
S315200007D04A7802F04001CAB23AB94CF69C53C2F2AA
S315200007E00003187800B901221A7002B010BD91F8E2
S315200007F000C01CF0080FE7D0012210461A700191A4
S31520000800FFF736FF4BF6FC70C2F2000004F022FE22
S315200008100199D9E790F800C00CF00800C2B2002A6E
S31520000820D2D1087810F0080FCED010461A70019158
S31520000830FFF71EFF4CF22000C2F2000004F00AFE71
S315200008400199C1E710B50420052102F06FFE0520AD
S31520000850014602F06BFE0620052102F067FE042009
S31520000860002102F081FE0520002102F07DFE0620F7
S315200008700021BDE8104002F077BE00BF10B5044647
S315200008800120014602F070FE204601F087FB012080
S31520000890002102F069FE4FF4FA70BDE8104001F025
S315200008A07DBB00BF10B54CF68854C2F200042378F5
S315200008B0002B2AD04CF67851C2F2000100224CF6C9
S315200008C050608A71C2F2000001F07EF80320FFF723
S315200008D0CFFE6420FFF7D2FFFFF7AAFE4CF69C500E
S315200008E0C2F20000037823B10120BDE81040FFF7D3
S315200008F0BFBE18462370FFF7BBFE4CF22000C2F2A3
S315200009000000BDE8104004F0A5BD4CF23800C2F24C
S315200009100000BDE8104004F09DBD00BF00000000AF
S315200009202DE9F04F4CF6885AC2F2000A9AF80030A8
S3152000093093B004460D4643B1407810F0080F04D01A
S315200009404A7802F00801CFB217B113B0BDE8F08F94
S315200009504CF27000C2F2000004F07CFD0220FFF78A
S3152000096087FE40F2041240F24411C4F20502C4F29A
S31520000970050117604CF694580F604CF678524CF6E9
S315200009808C51C2F20008C2F20001C2F20002012319
S315200009904CF650604CF69856D371C2F20000C1F85E
S315200009A00080C2F200060291039201F00DF8029A2D
S315200009B0039BD6F800C093E803004FEA1C4982E85F
S315200009C003004CF6440341464CF64A0001F8029FC8
S315200009D0C2F20000C2F2000344F6F01B0491C2F8F2
S315200009E00080079008934CF646024CF648014CF6D8
S315200009F04C004CF64E03C0F2020BC2F20002C2F2C9
S31520000A000001C2F20000C2F20003CDF83CA0A8F813
S31520000A1000C00592069109900A930D970E97D94624
S31520000A20BA46637813F008012FD013F0800F08D050
S31520000A3095F801E01EF0800F03D1089F3888143006
S31520000A40388013F0400F08D095F801C01CF0400FF5
S31520000A5003D108980288143A028013F0100F08D0A8
S31520000A6095F801E01EF0100F03D1079F3888143047
S31520000A70388013F0200F08D095F801C01CF0200F05
S31520000A8003D107980288143A0280227812F00400D3
S31520000A903BD013F0800F0BD095F801E01EF0800FAD
S31520000AA006D1069FB7F800E00EF1010CA7F800C0AA
S31520000AB013F0400F0BD095F801C01CF0400F06D163
S31520000AC0069FB7F800C00CF1FF3EA7F800E013F030
S31520000AD0100F0BD095F801E01EF0100F06D1059FE0
S31520000AE0B7F800E00EF1010CA7F800C013F0200FB4
S31520000AF00BD095F801C01CF0200F01BF059FB7F859
S31520000B0000C00CF1FF3CA7F800C0F9B1F0B113F01A
S31520000B10800F40F0BF8113F0400F08D095F801E018
S31520000B201EF0400F03D10A9F3988481E388013F0E3
S31520000B30100F08D095F801C01CF0100F03D10998AA
S31520000B4001884F1C078013F0200F50D112F0080F98
S31520000B5015D02A7812F0080F11D1089A4FF4C873CD
S31520000B601380079F0698059B4FF4FA714FF0120CDD
S31520000B704FF0100E3980A0F800C0A3F800E011A8AD
S31520000B8000F0E2FCB0F1FF3F3AD10AF1010ABAF1D6
S31520000B901E0F1FD00127336804981A0C0270A8F87C
S31520000BA0003094F800E01EF0020F07D0297801F0FB
S31520000BB0020C5FFA8CF3002B00F031812846214687
S31520000BC0042204F07DFA204600F0E6FC002F7FF494
S31520000BD028AF45E144F6F010C0F2020000F036FDE1
S31520000BE044F6F010C0F2020000F03EFDD2E76B782A
S31520000BF013F0200FAAD1099801884F1E0780A5E778
S31520000C004CF29800BDF94620C2F20000BDF944100E
S31520000C1004F08CFB0A98BDF944300288934280F296
S31520000C20EA80089FD11A38884AF6983A00FB01FCD8
S31520000C300CF5163E0EF5AF67C0F2020A574528BFDF
S31520000C4057460C97069F3988501A834203DD8A1827
S31520000C509342C0F2298100200E90484603F0B0F955
S31520000C60A3A3D3E9002303F021FA03F031FC824643
S31520000C700C9803F0A5F9A0A3D3E9002303F016FAF4
S31520000C8003F026FC099FBDF946303A8800EB0A0995
S31520000C90934280F29C80079F991A38884EF6480E18
S31520000CA000FB01FA0AF50E3C0CF5C760C0F2010EF6
S31520000CB0704538BF70460B9005980188571ABB427D
S31520000CC003DD8A189342C0F2FA804FF0000ACDF86D
S31520000CD034A0584603F074F985A3D3E9002303F022
S31520000CE0E5F903F0F5FB07460B9803F069F982A3B3
S31520000CF0D3E9002303F0DAF903F0EAFB00EB070B54
S31520000D00484600F0A3FC584600F0AEFCBDF844006F
S31520000D1000F0C0FC3070BDF8460000F0C9FC4CF273
S31520000D20D80170704CF2C800C2F20001C2F2000075
S31520000D3004F0FCFA4CF2E4004CF2C011C2F20001BD
S31520000D40C2F2000004F0F2FA4CF2E8004FF405710A
S31520000D50C2F2000004F0EAFA4CF2EC003178727824
S31520000D60C2F2000004F0E2FA0A2004F011FB4CF66D
S31520000D705060C2F2000000F027FE039F336897E818
S31520000D800300029F1A0C87E803000499C7F8008025
S31520000D900A70A8F80030BAF1000F3FF4FBAE4CF20F
S31520000DA02410C2F2000004F055FBFFF77BFD40F251
S31520000DB0041140F244134FF0000AC4F20501C4F2B4
S31520000DC00503C1F800A05746C3F800A0E3E67FF765
S31520000DD073AF0798991A07884AF6983E07FB01FAD7
S31520000DE00AF5163C0CF5AF60C0F2020E704528BF1E
S31520000DF070460B9060E77FF725AF089FD11A388899
S31520000E004EF6480A00FB01FC0CF50E3E0EF5C760B7
S31520000E10C0F2010A504538BF50460C9012E7DDF863
S31520000E203CA040F2041140F24412C4F20501C4F27F
S31520000E3005024CF240100B60C2F2000013608AF8E3
S31520000E400030019304F006FB019F3846FFF710FCA3
S31520000E5028462146042204F033F9204600F09CFB64
S31520000E600399029A00234CF65060CB71C2F200001F
S31520000E70166000F0A9FD039F336897E80300029FE0
S31520000E80A8F8003087E80300180C88F80200C7F895
S31520000E9000805AE56F7817F0800F7FF43CAE0A98F1
S31520000EA00788791C018036E60E994CF2A8004F1C63
S31520000EB0FBB2C2F200000E9304F0CCFACDE64CF25F
S31520000EC0B800C2F2000004F0C5FA0D980E9B471C2C
S31520000ED0F9B20A2994BF4FF0000A4FF0010A0D918A
S31520000EE00A2B94BF4FF0000A0AF0010AF1E600BF70
S31520000EF0333333333333EB3F333333333333C33F3C
S31520000F0010B54CF68852C2F20002137843B190F81D
S31520000F1000C01CF0040F03D0087810F0040F00D096
S31520000F2010BD4CF27410C2F2000004F093FABDE832
S31520000F301040FFF7B7BC00BF0120052110B502F015
S31520000F40F5FA01200021BDE8104002F00DBB00BFDC
S31520000F502DE9F04782B002F0B3FA0020052102F015
S31520000F60E5FA0020014602F0FFFAFFF7E5FF00F060
S31520000F701DFB00F023FB684600F00EFBFFF762FC2A
S31520000F800020FFF775FB00F095F9FFF789FA4CF280
S31520000F909C10C2F2000004F05DFA4CF69458C2F29E
S31520000FA000084CF678574CF68C564CF6985AC2F2F6
S31520000FB00007C2F20006C2F2000A01AC08F10209DB
S31520000FC0204600F0E9FA20466946FFF7EFFB204667
S31520000FD06946FFF795FF20466946FFF7A5FA2046A2
S31520000FE06946FFF79DFC69462046FFF767FB00F040
S31520000FF0BFFA03F03BFDB8804CF65060C2F2000009
S3152000100000F0E2FC97E80300DAF80030019A1D0CA4
S3152000101086E8030089F800500092C6F80080A8F8F8
S315200010200030CDE710B54CF6606486B0C2F20004FD
S315200010308DF800307C238DF80C008DF808108DF883
S31520001040042005A9012220468DF8143003238DF8AB
S31520001050103001F041FA204604A9012201F03CFAA1
S31520001060204603A9012201F037FA204602A90122CF
S3152000107001F032FA204601A9012201F02DFA20467C
S315200010806946012201F028FA06B010BD10B588B0D5
S315200010908DF808307C238DF81C304CF660640C23C8
S315200010A0C2F200048DF818300A9B8DF814008DF8D2
S315200010B010108DF80C2007A9012220468DF8043047
S315200010C001F00AFA204606A9012201F005FA204677
S315200010D005A9012201F000FA204604A9012201F007
S315200010E0FBF9204603A9012201F0F6F9204602A9C0
S315200010F0012201F0F1F9204601A9012201F0ECF9C3
S3152000110008B010BD2DE9F04188B00E9C1646074662
S315200011100D469846DCB902460094FFF7B7FF3846DD
S31520001120294632462B460094FFF7B0FF3846414603
S31520001130324643460094FFF7A9FF304629464346E8
S3152000114032460094FFF7A2FF08B0BDE8F0817C2369
S315200011504CF6606007A901228DF81C30C2F200000F
S315200011600F238DF818308DF814708DF810508DF8E7
S315200011700C608DF8088001F0AFF94CF6606006A986
S315200011800122C2F2000001F0A7F94CF6606005A921
S315200011900122C2F2000001F09FF94CF6606004A91A
S315200011A00122C2F2000001F097F94CF6606003A913
S315200011B00122C2F2000001F08FF94CF66060C2F203
S315200011C0000002A9012201F087F9BDE710B54CF60F
S315200011D0606484B0C2F200047C238DF8040003A965
S315200011E0012220468DF80C3019238DF8083001F0A5
S315200011F073F9204602A9012201F06EF9204601A9C1
S31520001200012201F069F904B010BD00BF10B54CF6FB
S31520001210606484B0C2F200047C238DF8040003A924
S31520001220012220468DF80C3018238DF8083001F065
S3152000123053F9204602A9012201F04EF9204601A9C0
S31520001240012201F049F904B010BD00BF10B50C46CB
S31520001250FFF7DCFF2046BDE81040FFF7B7BF00BF11
S3152000126010B54CF6606482B0C2F200047C2301A95A
S31520001270012220468DF8043000238DF8003001F03D
S315200012802BF920466946012201F026F902B010BD4D
S3152000129001464CF66060C2F2000001F08FB900BF33
S315200012A04CF66060C2F200004FF4E131032201F0F7
S315200012B011B800BF10B54FF4966082B003F026FC3B
S315200012C04CF6B0644CF65863C2F20003C2F2000436
S315200012D01860204601F070FB002120460A460824AB
S315200012E00723009401F0B2FC02B010BD38B54CF6CD
S315200012F0B064C2F2000405460021204601F036FD06
S315200013002946204601F0FEFD00210546204601F033
S31520001310B1FDE8B238BD00BF38B54CF69E54C2F2D6
S31520001320000425780DB35B20FFF7E0FF4CF69D53B4
S31520001330C2F2000393F800C025780CF10101C9B26E
S315200013404CF6A45205F1FF3EC2F20002402984F871
S3152000135000E0197012F80C5012D0030228469CB2F5
S31520001360FFF7C4FF204380B238BD5A20FFF7BEFFE7
S31520001370030228469CB2FFF7B9FF204380B238BD4E
S3152000138000241C70030228469CB2FFF7AFFF2043BF
S3152000139080B238BDF8B54FF6FF744AF655254AF6A1
S315200013A0562745F2AA56FFF7B7FF05E0FFF7B4FF29
S315200013B044EA00039BB2F3B1AC4214BF00240124DB
S315200013C0B84214BF002304F00103A84214BF00242E
S315200013D004F001048CB9C3B9B04218BF0446E5D164
S315200013E01846FFF783FFFFF797FF344644EA0003CA
S315200013F09BB2002BE0D11846F8BD4CF65C60C2F2D9
S315200014000000002202700120F8BD4CF65C61C2F299
S31520001410000101200870F8BD2DE9F04F4CF6A051CF
S31520001420C2F200010B6885B002910190002B78D0A2
S31520001430029A002010604CF658634CF65C6AC2F2A1
S31520001440000300240093C2F2000A4AF655294AF600
S31520001450562B019A94422CBF00230123632C8CBF68
S31520001460002303F00103002B57D0FFF755FF484513
S3152000147005465DD0584547D000284DD0009804EB4E
S3152000148044080768FFF748FF27F828000646FFF7B5
S3152000149043FF07EB88073218788096B2FFF73CFFA8
S315200014A03318B8809EB2FFF737FF3118F8808EB216
S315200014B0FFF732FF9AF8002036183881B6B2F2B11B
S315200014C0FFF72AFF811978818EB2AE4210D10134FE
S315200014D0A4B2FFF721FF484504BF00238AF8003055
S315200014E0B7D0584518D14FF0010E8AF800E0B0E782
S315200014F04CF20420C2F2000003F0ACFFE9E74FF003
S31520001500000CA7F80AC0E0E74CF65C6302980121BC
S31520001510C2F20003197001600394039805B0BDE878
S31520001520F08FFFF737FF0446002884D10394F4E7B1
S315200015304CF65C60029BC2F20000012200211A6078
S3152000154001700394E9E700BF10B504460120FFF7B8
S3152000155063FF50B14CF65860C2F2000001680020CB
S315200015604A8822808B88638010BD4FF0FF3010BDE3
S3152000157008B540F20023C4F20503186802F020FDE6
S3152000158003A3D3E9002302F091FD02F0C1FF08BDB9
S31520001590B1F53032D7A5263F40F2000108B5C4F296
S315200015A00501042203F08CFD08BD00BF40F20003B4
S315200015B0C4F20503FF221A60704700BF40F2000301
S315200015C0C4F2050301221A60704700BF83789A1D72
S315200015D0D2B20C2A1CD800235BB24FF4FA7202FB5B
S315200015E003FCCCF5123303F5F8730B60C3789A1D10
S315200015F0D0B20C281BD800234FFA83FC4FF4FA7282
S3152000160002FB0CF0C0F5123303F5F8734B607047FC
S315200016105BB2502BC4BF4AF6B053C0F20103E4DCE0
S315200016206FF04F0C6345B8BF6346DBB2D4E75BB2BD
S31520001630502BC4BF4AF6B053C0F20103E6DC6FF06C
S315200016404F0C6345B8BF6346DBB2D5E74CF6500373
S31520001650C2F200031A6890421FBF40F20012C4F281
S3152000166005021060186070474CF65403C2F200035E
S315200016701A6890421FBF40F24012C4F20502106061
S31520001680186070474CF64C63C2F2000300221A70B1
S31520001690704700BF08B503F041F841F64931C3F65B
S315200016A0A26103F093F803F0E1F9C0B208BD00BFD0
S315200016B008B503F033F84FF62441C3F6E46103F08E
S315200016C085F803F0D3F9C0B208BD00BF10B54CF2BF
S315200016D0642104464CF2C800C2F20001C2F20000A6
S315200016E003F024FE4CF2E4004CF22C41C2F200013D
S315200016F0C2F2000003F01AFE4CF2E80040F20D118F
S31520001700C2F2000003F012FE4CF28020C2F200006A
S3152000171003F00CFE4CF23C10C2F2000003F09AFEDD
S315200017202378012B0BD007204821FFF78FFD4CF2A1
S315200017309820C2F20000BDE81040FFF7A9BD07209F
S315200017404821FFF783FD4CF29020C2F20000BDE84D
S315200017501040FFF79DBD00BF10B54CF26421044632
S315200017604CF2C800C2F20001C2F2000003F0DEFD16
S315200017704CF2E4004CF25021C2F20001C2F2000009
S3152000178003F0D4FD4CF2E800EA21C2F2000003F097
S31520001790CDFD4CF2A020C2F2000003F0C7FD4CF2B2
S315200017A03C10C2F2000003F055FE24780720662183
S315200017B0FFF74CFD012C07D04CF2C020C2F20000EE
S315200017C0BDE81040FFF764BD4CF2B820C2F200001D
S315200017D0BDE81040FFF75CBD30B54CF264210446ED
S315200017E04CF2C80083B0C2F20001C2F2000003F03E
S315200017F09DFD4CF2E4004CF21C41C2F20001C2F203
S31520001800000003F093FD4CF2E8004FF48071C2F221
S31520001810000003F08BFD4CF2C820C2F2000003F05A
S3152000182085FD4CF23C10C2F2000003F013FE257831
S3152000183007202A21FFF70AFD01AC4CF2DC21C2F277
S3152000184000012A46204603F021FE2046FFF720FD10
S3152000185003B030BDF0B54CF2642104464CF2C8000A
S3152000186083B0C2F20001C2F2000003F05FFD4CF229
S31520001870E4004CF23821C2F20001C2F2000003F06B
S3152000188055FD4CF2E800CE21C2F2000003F04EFDD9
S315200018904CF2E420C2F2000003F048FD4CF23C106A
S315200018A0C2F2000003F0D6FD23684CF2FC245F78D8
S315200018B0C2F2000401AE1A782146304603F0E6FD56
S315200018C03A462146684603F0E1FD0F216020FFF7E6
S315200018D0BDFC3046FFF7DCFC88200F21FFF7B6FC65
S315200018E068466D46FFF7D4FC03B0F0BD10B54CF248
S315200018F0642104464CF2C800C2F20001C2F2000084
S3152000190003F014FD4CF2E4004CF21421C2F2000163
S31520001910C2F2000003F00AFD4CF2E800C321C2F235
S31520001920000003F003FD4CF20430C2F2000003F085
S31520001930FDFC4CF23C10C2F2000003F08BFD236844
S3152000194003225978187822313630C0B2C9B2012321
S31520001950BDE81040FFF766BB10B54CF26421044683
S315200019604CF2C800C2F20001C2F2000003F0DEFC15
S315200019704CF2E4004CF23C41C2F20001C2F20000FB
S3152000198003F0D4FC4CF2E800B421C2F2000003F0CC
S31520001990CDFC4CF21C30C2F2000003F0C7FC4CF226
S315200019A03C10C2F2000003F055FD63685BB1597824
S315200019B0187822313630C0B2C9B203220023BDE8DE
S315200019C01040FFF72FBB10BD2DE9F04F4CF64C63AE
S315200019D0C2F200031A7883B0012A00F0C4810028DD
S315200019E000F089810168002900F0858101241C709E
S315200019F04CF6FC534CF6E45403C8C2F200030546E9
S31520001A00C2F2000483E803008A462046296803229E
S31520001A1003F056FBEF79AE8895F80680BAF1000FF1
S31520001A2000F093814CF6EC55C2F2000503222846BD
S31520001A30DAF8001003F044FB207895F800C0BAF8D5
S31520001A4004209AF807B0604501929AF8069000F0B3
S31520001A5047814CF2C8004CF26421C2F20001C2F266
S31520001A60000003F063FC4CF2E4004CF22C21C2F29D
S31520001A700001C2F2000003F059FC4CF2E800652197
S31520001A80C2F2000003F052FC4CF25830C2F20000C1
S31520001A9003F04CFC4CF6F45A4CF23C10C2F2000A0D
S31520001AA0C2F2000003F0D6FCCAF80450002000F071
S31520001AB00DFA024641F659105146C2F2000000F0D6
S31520001AC069FA4CF2C8004CF26421C2F20001C2F25B
S31520001AD0000003F02BFC4CF2E4004CF22C21C2F265
S31520001AE00001C2F2000003F021FC4CF2E8006A215A
S31520001AF0C2F2000003F01AFC4CF27030C2F2000071
S31520001B0003F014FC4CF23C10C2F2000003F0A2FCDD
S31520001B10CAF800400A2000F0D9F9024641F6ED0045
S31520001B205146C2F2000000F035FA142000F0CEF93A
S31520001B30024641F655005146C2F2000000F02AFA4C
S31520001B404FF01E0A5446C8453BD04CF2C8004CF212
S31520001B506421C2F20001C2F2000003F0E7FB4CF25E
S31520001B60E4004CF22C21C2F20001C2F2000003F084
S31520001B70DDFB4CF2E8007121C2F2000003F0D6FB37
S31520001B804CF284302146C2F2000003F0CFFB4CF623
S31520001B90F0554CF23C10C2F20005C2F2000003F0F0
S31520001BA059FC504685F8008000F090F9024641F233
S31520001BB05970C2F20000294600F0ECF90A34E4B26A
S31520001BC0A2465F453AD04CF2C8004CF26421C2F2DC
S31520001BD00001C2F2000003F0A9FB4CF2E4004CF233
S31520001BE02C21C2F20001C2F2000003F09FFB4CF24E
S31520001BF0E8007621C2F2000003F098FB4CF2AC30EC
S31520001C002146C2F2000003F091FB4CF604654CF22B
S31520001C103C10C2F20005C2F2000003F01BFC504645
S31520001C202F7000F053F9024641F2CD60C2F2000057
S31520001C30294600F0AFF90A34E4B2A246019886425A
S31520001C403BD04CF2C8004CF26421C2F20001C2F231
S31520001C50000003F06BFB4CF2E4004CF22C21C2F2A4
S31520001C600001C2F2000003F061FB4CF2E8007B2188
S31520001C70C2F2000003F05AFB4CF2D0302146C2F2E9
S31520001C80000003F053FB4CF6E8554CF23C10C2F230
S31520001C900005C2F2000003F0DDFB50462E7000F076
S31520001CA015F9024641F2D970C2F20000294600F029
S31520001CB071F904F10A0C5FFA8CFA504600F006F925
S31520001CC04CF6FC51024641F28560C2F20000C2F297
S31520001CD0000100F05FF903B0BDE8F04F00F0ACB8AA
S31520001CE094F801E069788E4504BF4FF0000A544607
S31520001CF03FF429AFADE64CF2C8004CF26421C2F2A3
S31520001D000001C2F2000003F011FB4CF2E4004CF299
S31520001D102C21C2F20001C2F2000003F007FB4CF2B4
S31520001D20E800C2F20000382103F000FB4CF24830F4
S31520001D30C2F2000003F0FAFA4CF23C10C2F20000A4
S31520001D4003B0BDE8F04F03F085BB741CA3B207F1C6
S31520001D50010B01935FFA8BFBD8F1010938BF4FF0D5
S31520001D6000095446EFE64CF2C8004CF26421C2F258
S31520001D700001C2F2000003F0D9FA4CF2E4004CF262
S31520001D802C21C2F20001C2F2000003F0CFFA4CF27D
S31520001D90E800C2F20000342103F0C8FA4CF23830D1
S31520001DA0C2F20000C6E700BF10B582B0FFF778FA8E
S31520001DB00124FFF755FA9F227F2332201E2100940B
S31520001DC0FFF7A0F90F214E20FFF740FA4CF2F8302A
S31520001DD0C2F20000FFF75CFA0F217620FFF736FAF1
S31520001DE04CF2FC30C2F20000FFF752FA32212046B4
S31520001DF0FFF72CFA4CF20040C2F20000FFF748FA37
S31520001E006E212046FFF722FA4CF20C40C2F2000067
S31520001E10FFF73EFA20465021FFF718FA4CF21440FD
S31520001E20C2F20000FFF734FA4CF64C63C2F200030C
S31520001E3000221A7002B010BD4EF20011F0B4CEF29C
S31520001E4000014FF4801642F20000C1F88060CEF205
S31520001E500400056B4CF60864C2F2000445F2000348
S31520001E6040F20002C4F20A22C4F2000325F0400C1C
S31520001E70276801250024C0F830C05C65C2F880417F
S31520001E80C2F88841C2F884511D61C1F880617A6820
S31520001E905A6092B95D6040F200004EF20012C4F220
S31520001EA00A200121CEF200024FF48013C0F88011DF
S31520001EB0C0F888111360F0BC70475A60EBE700BF8A
S31520001EC04CF60C63C2F20003186070474CF60C61A6
S31520001ED0C2F200010B684FF47A72B2FBF0F0B3FB4A
S31520001EE0F0F070474CF2C8004CF2584108B5C2F2E7
S31520001EF00001C2F2000003F019FA4CF2E4004CF2A1
S31520001F008C41C2F20001C2F2000003F00FFA4CF23B
S31520001F10E800B021C2F2000003F008FA4CF270404B
S31520001F20C2F2000003F002FA4CF23C10C2F20000AA
S31520001F3003F090FA4CF65D63C2F2000300221A7099
S31520001F4008BD00BFF8B50446182015460E461F46A4
S31520001F5002F0DCFD4CF60863C2F200031A68002189
S31520001F600460C760016146614560856082B1516841
S31520001F708D4204D209E059688D4203D91A46136965
S31520001F80002BF8D103611061F8BD18600261F8BD1D
S31520001F901860F8BD0123FFF7D5BF00BF38B54CF256
S31520001FA0584105464CF65D644CF2C8000123C2F246
S31520001FB00001C2F20004C2F20000237003F0B6F959
S31520001FC04CF2E4004CF2A041C2F20001C2F2000041
S31520001FD003F0ACF94CF2E800B721C2F2000003F09E
S31520001FE0A5F94CF27C402946C2F2000003F09EF986
S31520001FF04CF23C10C2F2000003F02CFA2846FFF700
S3152000200065FF024641F6E560C2F200000021FFF7B7
S31520002010C1FFFFF711FF20780028FCD138BD00BF93
S315200020202DE9F0474CF60866C2F2000631684A6888
S315200020300F46134600E07B689B1A7B603F69002FA2
S31520002040F9D14D684CF60869C2F20009B846BA467D
S315200020501DBB0C2002F05AFD044645600560B8F110
S31520002060000F27D078603068C76802690568416923
S31520002070012F2560A16032601ED08568C0F810A0AF
S3152000208045601AB153689D420ED20261C9F800001C
S31520002090306827464568002DDBD04046BDE8F087EE
S315200020A05F68BD4203D91A461369002BF8D1036134
S315200020B01061EDE78046D6E702F020FDE8E700BF95
S315200020C038B5FFF7ADFF45F20003C4F20003012146
S315200020D004461961BFF34F8F4CF60862C2F2000224
S315200020E012683AB1506840F20002C4F20A225860DF
S315200020F0C2F880110CB909E02C46A06823689847DD
S315200021006568204602F0FAFC002DF5D138BD00BFE7
S3152000211080B483B000AF78604FF0FF33184607F1E4
S315200021200C07BD4680BC704780B483B000AF786092
S31520002130FEE700BF80B483B000AF786039603B68AB
S315200021404FF400525A604FF00003184607F10C076F
S31520002150BD4680BC704700BF80B483B000AF7860B6
S315200021604FF00103184607F10C07BD4680BC7047A7
S3152000217080B485B000AFF860B9607A604FF0000394
S31520002180184607F11407BD4680BC704780B485B059
S3152000219000AFF860B9607A604FF00003184607F187
S315200021A01407BD4680BC704780B584B000AFF86088
S315200021B0B9607A603B604CF61063C2F200031B687C
S315200021C0002B10D14CF68860C2F200004FF461411A
S315200021D04FF0030200F07EF84CF61063C2F20003C3
S315200021E04FF001021A603B684CF68860C2F200008C
S315200021F079681A4600F070F93B68184607F110070F
S31520002200BD4680BD80B584B000AF78604CF61463BF
S31520002210C2F200031B68002B08D14CF61463C2F2ED
S3152000222000034CF6C072C2F200021A604CF6146328
S31520002230C2F200031B68BB60EFF30883FB604CF619
S315200022401463C2F200031A687B681A44FB689A4238
S315200022500FD94FF000004FF001014CF2C042C2F2FC
S3152000226000024FF01903FFF79FFF4FF00100FFF721
S315200022705BFF4CF61463C2F200031A687B681A44AB
S315200022804CF61463C2F200031A60BB68184607F1C5
S315200022901007BD4680BD00BF80B483B000AF0346A3
S315200022A0FB804EF20013CEF20003B7F906204FEA68
S315200022B05212F98801F01F014FF0010000FA01F1D6
S315200022C002F1600243F8221007F10C07BD4680BCDC
S315200022D0704700BF80B588B000AFF860B96013467C
S315200022E0FB714FF00103FB824FF00003BB61FA68DC
S315200022F04CF68863C2F200039A4207D0FA684CF67D
S315200023006063C2F200039A4200D000BEBB68002B75
S3152000231000D100BE01F04EF9FA684CF68863C2F28D
S3152000232000039A422ED1FB684FF080421A60FB6868
S315200023304FF084425A60FB684FF00A021A814CF62D
S315200023406003C2F200031B68BB6142F20003CEF2B7
S31520002350040342F20002CEF20402126B42F0800223
S315200023601A634FF00A00FFF797FF42F20003CEF2FE
S31520002370040342F20002CEF20402126B22F0800223
S315200023801A6331E0FA6840F20003C4F201031360D5
S31520002390FA6840F20003C4F220235360FB684FF032
S315200023A00B021A814CF66403C2F200031B68BB6160
S315200023B042F20003CEF2040342F20002CEF20402FD
S315200023C0126B42F480721A634FF00B00FFF764FF22
S315200023D042F20003CEF2040342F20002CEF20402DD
S315200023E0126B22F480721A63FB681B684FF000029E
S315200023F01A71BB68002B21D0BA69BB68B2FBF3F314
S31520002400FB61FB6903F00803002B06D0FB694FEA4A
S31520002410131303F10103FB6103E0FB694FEA131376
S31520002420FB61FA694FF6FF739A4200D900BEFA693A
S315200024304FF6FF739A4201D8FB69FB82FB685B6803
S315200024404FF00102C3F89C21FB681B68FA8A4FEA09
S31520002450122292B2D2B21A71FB681B68FA8AD2B2E1
S315200024601A70FB685B684FF00002C3F89C21FB687A
S315200024701B68FA791A73FB681B684FF00E021A72F2
S31520002480FB685B684FF00002C3F81022FB684FF030
S3152000249000021A61FB684FF00002DA60FB684FF019
S315200024A000025A61FB684FF00002DA61FA6842F2D4
S315200024B0A973C2F200031362FB684FF000029A610F
S315200024C0FB684FF000025A62FB684FF000029A72D6
S315200024D007F12007BD4680BD80B489B000AFF86003
S315200024E0B9607A604FF000033B61FA684CF6886366
S315200024F0C2F200039A4207D0FA684CF66063C2F231
S3152000250000039A4200D000BEBB68002B00D100BE5B
S315200025107B68002B00D100BEFA684CF68863C2F2B5
S3152000252000039A4206D0FA684CF66063C2F20003B2
S315200025309A423DD1BB68002B3AD07B68002B37D01E
S31520002540FB681B681B7DFB76FB689A7AFB7E42EA5A
S315200025500303DAB2FB689A72FB7E03F02003002B9A
S3152000256023D04FF01003FB617B680F2B01D87B68CB
S31520002570FB614FF000037B610EE0FB681B68B968C6
S315200025803A690A4412781A703B6903F101033B61E8
S315200025907B6903F101037B617A69FB699A42ECD37B
S315200025A07A687B69C3EB02037B607B68002BC7D10B
S315200025B007F12407BD4680BC704700BF80B487B0B2
S315200025C000AF786039604FF00003BB607A684CF644
S315200025D08863C2F200039A4207D07A684CF6606399
S315200025E0C2F200039A4200D000BE3B68002B00D105
S315200025F000BE7A684CF68863C2F200039A4206D07F
S315200026007A684CF66063C2F200039A4238D13B687E
S31520002610002B35D03A68BB6813441B783B612CE00D
S315200026207B681B681B7DFB757B689A7AFB7D42EA7B
S315200026300303DAB27B689A72FB7D03F02003002B3A
S31520002640EED04FF00003FB6011E07B681B683A690F
S31520002650D2B21A70FB6803F10103FB60BB6803F179
S315200026600103BB603A68BB6813441B783B613B6936
S31520002670002B02D0FB680F2BE7D93B69002BCFD16B
S3152000268007F11C07BD4680BC704700BF80B584B0EB
S3152000269000AF78607A684CF68863C2F200039A42EB
S315200026A007D07A684CF66063C2F200039A4200D0E3
S315200026B000BE7A684CF68863C2F200039A4206D0BE
S315200026C07A684CF66063C2F200039A4267D17B684F
S315200026D01B681B7ADBB203F00F03FB73FB7B0C2B0F
S315200026E054D801A252F823F01D2700208D27002060
S315200026F0392700208D270020552700208D270020F0
S31520002700712700208D2700208D2700208D2700206F
S315200027108D2700208D270020552700207B685B6AA7
S31520002720002B00D100BE7B685B6A002B30D07B6813
S315200027305B6A7868984732E07B681B6A002B00D179
S3152000274000BE7B681B6A002B24D07B681B6A7868D6
S31520002750984724E07B68DB69002B00D100BE7B68AC
S31520002760DB69002B18D07B68DB697868984716E010
S315200027707B689B69002B00D100BE7B689B69002B80
S315200027800CD07B689B697868984708E000BE06E015
S3152000279000BF04E000BF02E000BF00E000BF07F179
S315200027A01007BD4680BD00BF80B487B000AF7860FB
S315200027B07A684CF68863C2F200039A4207D07A6898
S315200027C04CF66063C2F200039A4200D000BE7B68DA
S315200027D0DB68002B00D100BE7B681B69002B00D173
S315200027E000BE7A684CF68863C2F200039A4206D08D
S315200027F07A684CF66063C2F200039A4252D17B6833
S31520002800DB68002B4ED07B681B69002B4AD07B6887
S315200028101B681B7DFB727B689A7AFB7A42EA03036C
S31520002820DAB27B689A72FB7A03F02003002B29D058
S315200028304FF010033B617B681A697B685B69C3EBC9
S3152000284002037B617B690F2B01D87B693B614FF0CB
S315200028500003FB6012E07B681B687A68D1687A689F
S3152000286052690A4412781A707B685B6903F1010287
S315200028707B685A61FB6803F10103FB60FA683B69D8
S315200028809A42E8D37B685A697B681B699A4209D1C8
S315200028907B684FF000021A617B685B684FF000028C
S315200028A0C3F8842007F11C07BD4680BC704700BFD3
S315200028B0684620F007018D4689B500AF4CF6886042
S315200028C0C2F20000FFF7E2FE4FF00A00FFF7E4FC39
S315200028D0BD46BDE889408546704700BF684620F062
S315200028E007018D4689B500AF4CF66060C2F2000044
S315200028F0FFF7CCFE4FF00B00FFF7CEFCBD46BDE840
S3152000290089408546704700BF80B483B000AF034638
S31520002910FB804EF20013CEF20003B7F906204FEAF1
S315200029205212F98801F01F014FF0010000FA01F15F
S3152000293043F8221007F10C07BD4680BC704700BF44
S3152000294080B483B000AF0346FB804EF20013CEF274
S315200029500003B7F906204FEA5212F98801F01F0149
S315200029604FF0010000FA01F102F1200243F8221093
S3152000297007F10C07BD4680BC704700BF80B483B00A
S3152000298000AF0346FB804EF20013CEF20003B7F9E8
S3152000299006204FEA5212F98801F01F014FF001007C
S315200029A000FA01F102F1600243F8221007F10C0748
S315200029B0BD4680BC704700BF80B584B000AF78604C
S315200029C07A684CF63473C2F200039A4207D07A68CA
S315200029D04CF6B063C2F200039A4200D000BE7B6878
S315200029E09B881BB21846FFF7ABFF78684FF00001B3
S315200029F04FF0840202F02CFC7B684FF001025A62F1
S31520002A004FF00003FB810DE0FB897A6803F1060392
S31520002A104FEAC30313444FF0FF325A60FB8903F198
S31520002A200103FB81FB89072BEED97A684CF63473B8
S31520002A30C2F200039A4226D17A6841F20003C4F218
S31520002A40000313607B684FF00C029A8042F2000369
S31520002A50CEF2040342F20002CEF20402126B42F4DA
S31520002A6000721A634FF00C00FFF788FF42F2000352
S31520002A70CEF2040342F20002CEF20402126B22F4DA
S31520002A8000721A6325E07A6841F20003C4F201035A
S31520002A9013607B684FF00D029A8042F20003CEF25B
S31520002AA0040342F20002CEF20402126B42F4806268
S31520002AB01A634FF00D00FFF761FF42F20003CEF2DA
S31520002AC0040342F20002CEF20402126B22F4806268
S31520002AD01A637B681B687A681268126822F00042C3
S31520002AE01A6007F11007BD4680BD00BF80B58AB0C9
S31520002AF000AF78607B681B681B68FB607B681B687F
S31520002B009B693B617B681B685B687B617B681B6894
S31520002B109B6ABB617B681B681B6BFB617B681B68C0
S31520002B205B6B3B627B681B68DB697B627A684CF671
S31520002B303473C2F200039A422ED17A6841F200031E
S31520002B40C4F2000313607B684FF00C029A8042F2B5
S31520002B500003CEF2040342F20002CEF20402126B0C
S31520002B6042F400721A634FF00C00FFF707FF42F29F
S31520002B700003CEF2040342F20002CEF20402126BEC
S31520002B8022F400721A637B681B687A6812681268DE
S31520002B9022F000421A602DE07A6841F20003C4F266
S31520002BA0010313607B684FF00D029A8042F2000306
S31520002BB0CEF2040342F20002CEF20402126B42F479
S31520002BC080621A634FF00D00FFF7D8FE42F2000331
S31520002BD0CEF2040342F20002CEF20402126B22F479
S31520002BE080621A637B681B687A681268126822F012
S31520002BF000421A60FB6823F00103FB607B681B68B8
S31520002C00FA681A607B681B683A699A617B681B6858
S31520002C107A695A607B681B687A681268126842F083
S31520002C2001021A607B681B68BA699A627B681B6816
S31520002C30FA691A637B681B683A6A5A637B681B6861
S31520002C407A6ADA6107F12807BD4680BD80B584B06F
S31520002C5000AFF8607A600A46FA72FB70FA684CF6A2
S31520002C603473C2F200039A4207D0FA684CF6B06376
S31520002C70C2F200039A4200D000BEFB7A072B00D98D
S31520002C8000BE3B7E202B00D900BEFB689B881BB272
S31520002C901846FFF755FEFB684FF0000283F88020A8
S31520002CA0FB681B68FA681268126822F001021A6033
S31520002CB0FB681B68FA681268126842F002021A6002
S31520002CC0FB681B68FA681268126842F001021A60F3
S31520002CD0FB7A072B3FD87B68002B0BD07B68B3F1A0
S31520002CE0007F07D07B68B3F1807F03D07B68B3F188
S31520002CF0407F0FD1FA7A796840F20213C2F200437C
S31520002D0041EA0303F96802F106024FEAC2020A44C5
S31520002D1053600EE0FA7A796840F20213C2F2000399
S31520002D2041EA0303F96802F106024FEAC2020A44A5
S31520002D305360FB7AFA6803F106034FEAC303134490
S31520002D403A7E1A72FB7AFA6803F106034FEAC30346
S31520002D501344FA785A72FB689B881BB21846FFF711
S31520002D60D3FD07F11007BD4680BD00BF80B584B0F6
S31520002D7000AF78600B46FB707A684CF63473C2F26B
S31520002D8000039A4207D07A684CF6B063C2F2000379
S31520002D909A4200D000BE7B681B681B6803F00203C2
S31520002DA0002B00D100BEFB787A6803F106034FEAB8
S31520002DB0C30313445B68B3F1FF3F00D100BE7B68B9
S31520002DC09B881BB21846FFF7BBFD7B681B689B6878
S31520002DD003F00403FB60FB68002B02D07868FFF742
S31520002DE085FE7B681B687A681268126822F00102E9
S31520002DF01A607B681A68FB78796803F106034FEA44
S31520002E00C3030B445B6813607B681A68FB78796898
S31520002E1003F106034FEAC3030B445B7A93617B6895
S31520002E201A68FB78796803F106034FEAC3030B445B
S31520002E301B7A53607B681B687A681268126842F0B6
S31520002E4001021A607B681B687A681268D169FA7871
S31520002E504FF0010000FA02F241EA0202DA617B68D1
S31520002E609B881BB21846FFF74FFD07F11007BD469A
S31520002E7080BD00BF80B584B000AF78600B46FB7084
S31520002E807A684CF63473C2F200039A4207D07A6805
S31520002E904CF6B063C2F200039A4200D000BE7B68B3
S31520002EA01B681B6803F00203002B00D100BE7B6861
S31520002EB09B881BB21846FFF743FD7B681B689B68FF
S31520002EC003F00403FB60FB68002B02D07868FFF751
S31520002ED00DFE7B681B687A681268D169FA784FF014
S31520002EE0010000FA02F26FEA020201EA0202DA6146
S31520002EF07B689B881BB21846FFF706FD07F1100773
S31520002F00BD4680BD80B487B000AF786039607A68EE
S31520002F104CF63473C2F200039A4207D07A684CF614
S31520002F20B063C2F200039A4200D000BE7B681B68E1
S31520002F301B6803F00203002B00D100BE7B681A68D1
S31520002F407B681B68196840F2FF03CFF6007301EA1D
S31520002F50030343F4807313607B681B687A681268E6
S31520002F60D26A42F00C02DA627B681B689B6803F027
S31520002F704003FB600BE07B681B681B69BB60BB687A
S31520002F80BB607B681B689B6803F04003FB60FB68A3
S31520002F90002BF0D07B681B683A685A617B681B68F7
S31520002FA09B6803F001037B6105E07B681B689B68D7
S31520002FB003F001037B617B69002BF6D07B681B68DD
S31520002FC09B6803F002033B6105E07B681B689B68F6
S31520002FD003F002033B613B69002BF6D07B681B683C
S31520002FE01B69184607F11C07BD4680BC704700BF09
S31520002FF080B485B000AF78604FF00003FB600EE030
S315200030007B681B687A6891687A6812690A44127824
S315200030105A617B681B6903F101027B681A617B6830
S315200030201B689B6803F48073002B05D17B681A69A3
S315200030307B68DB689A42E3D37B681A697B68DB6826
S315200030409A421CD30EE07B681B687A6851697A68BD
S31520003050D2690A4412785A617B68DB6903F101025E
S315200030607B68DA617B681B689B6803F48073002B9E
S3152000307005D17B68DA697B689B699A42E3D37B68D2
S315200030805B6A002B1FD07B681A697B68DB689A42D3
S3152000309019D37B68DA697B689B699A4213D308E067
S315200030A07B681B684FF000025A61FB6803F101033D
S315200030B0FB607B681B689B6803F48073002B02D13E
S315200030C0FB681F2BECD907F11407BD4680BC70475F
S315200030D080B584B000AF78607B6893F88030022B8F
S315200030E015D10CE07B681B681B69FB607B685B6FF6
S315200030F0002B04D07B685B6FFA68104698477B6884
S315200031001B689B6803F04003002BEBD032E07B6802
S3152000311093F88030012B25D117E07B681B681B694B
S31520003120FB607B681A6B7B68DB6A9A4207D27B68F6
S315200031309A6A7B681B6B1344FA68D2B21A707B6852
S315200031401B6B03F101027B681A637B681B689B6813
S3152000315003F04003002BE0D00CE07B681B681B6962
S31520003160FB6000E000BF7B681B689B6803F04003A0
S31520003170002BF2D007F11007BD4680BD80B586B082
S3152000318000AF78607B681B6803F120033B617A6897
S315200031904CF63473C2F200039A4207D07A684CF692
S315200031A0B063C2F200039A4200D000BE3B691B689E
S315200031B003F00203002B52D07B6893F88030022B59
S315200031C015D10CE07B681B681B69FB607B685B6F15
S315200031D0002B04D07B685B6FFA68104698477B68A3
S315200031E01B689B6803F04003002BEBD032E07B6822
S315200031F093F88030012B25D117E07B681B681B696B
S31520003200FB607B681A6B7B68DB6A9A4207D27B6815
S315200032109A6A7B681B6B1344FA68D2B21A707B6871
S315200032201B6B03F101027B681A637B681B689B6832
S3152000323003F04003002BE0D00CE07B681B681B6981
S31520003240FB6000E000BF7B681B689B6803F04003BF
S31520003250002BF2D07B681B684FF00202DA603B69D4
S315200032601B6803F00103DBB2002B12D07B6893F8B6
S315200032708030022B05D17B681B687A68926F5A6171
S3152000328002E07868FFF7B4FE7B681B684FF0010206
S31520003290DA603B691B6803F01003002B23D07868A3
S315200032A0FFF716FF7B681B6A002B0BD07B681B6A17
S315200032B07A68916A7A68126B084611469847786848
S315200032C0FFF796FE7B684FF001025A627B681B6807
S315200032D07A681268926A22F010029A627B681B68EA
S315200032E04FF01002DA603B691B6803F00403002BE1
S315200032F00FD07B681B687A681268D26A42F0040293
S31520003300DA627868FFF7F2FB7B681B684FF00402ED
S31520003310DA603B691B6803F00803002B31D07B6819
S315200033201B687A681268D26A42F00802DA627B6801
S3152000333093F88030022B13D17B681A687B681B6850
S31520003340196840F2FF03CFF6007301EA030343F442
S31520003350807313607B681B687A68926F5A610BE0F2
S315200033607B6893F88030012B06D17B684FF00002F2
S315200033701A617868FFF73CFE7B681B684FF00802ED
S31520003380DA603B691B6803F02003002B49D078687C
S31520003390FFF79EFE7B681B6B7B617B681B6A002B9D
S315200033A01CD07B684FF000025A627B684FF0000207
S315200033B05A617B684FF000029A617B684FF00002E9
S315200033C0DA617B681B684FF01002DA607B681B6845
S315200033D07A681268926A42F010029A627B684FF00D
S315200033E000021A617B681B687A681268D26A42F00A
S315200033F00C02DA627868FFF7FBFD7B684FF000026B
S315200034001A637B68DB6F002B06D07B68DB6F7A68DC
S31520003410926A1046796998477B681B684FF02002AC
S31520003420DA6007F11807BD4680BD00BF684620F068
S3152000343007018D4689B500AF4CF63470C2F2000004
S31520003440FFF79CFE4FF00C00FFF798FABD46BDE84B
S3152000345089408546704700BF684620F007018D46A3
S3152000346089B500AF4CF6B060C2F20000FFF786FEC9
S315200034704FF00D00FFF782FABD46BDE8894085462C
S31520003480704700BF80B483B000AF0346FB804EF286
S315200034900013CEF20003B7F906204FEA5212F9883C
S315200034A001F01F014FF0010000FA01F102F1600264
S315200034B043F8221007F10C07BD4680BC704700BFB9
S315200034C080B582B000AF42F20003CEF2040342F28E
S315200034D00002CEF20402126B42F480421A634FF0CD
S315200034E000037B600EE07A684CF25C53C2F2000364
S315200034F033F812301BB21846FFF7C4FF7B6803F17E
S3152000350001037B607B681F2BEDD942F20003CEF2CC
S31520003510040342F20002CEF20402126B22F480422D
S315200035201A6307F10807BD4680BD00BF80B485B089
S3152000353000AF03463960FB71FB79FB60FB681F2BEC
S3152000354000D900BEFB681F2B08D8FA684CF2DC4372
S31520003550C2F2000353F822303A681A6007F11407C2
S31520003560BD4680BC704700BF80B485B000AF024620
S315200035700B46FA71BB71FB79FB60FB681F2B00D9E8
S3152000358000BEFB681F2B09D840F20003C4F2262395
S31520003590FA68B97902F5886243F8221007F1140710
S315200035A0BD4680BC704700BF80B400AFBD4680BC1E
S315200035B0704700BF80B58AB000AF4CF29C53C2F270
S315200035C00003BC460FCB8CE80F0042F20003CEF27C
S315200035D004039B6C4FEA930303F003034FEA830330
S315200035E007F12802134453F8283C3B6142F20003BA
S315200035F0CEF204039B6C4FEA131303F003034FEA46
S31520003600830307F12802134453F8283C7B6142F2D6
S315200036100003CEF204039B6C4FEA931303F00303DB
S315200036204FEA830307F12802134453F8283CBB6171
S3152000363042F20003CEF20403DB6C4FEA132303F0BD
S315200036401F033B6242F20003CEF20403DB6C4FEA17
S31520003650533303F001037B623B6A03F10103FB61F1
S315200036607B6A002B03D0FB694FEA4303FB6100F022
S3152000367049F802464CF65C03C2F200031A604CF687
S315200036805C03C2F200031A683B69B2FBF3F24CF604
S315200036906003C2F200031A604CF65C03C2F2000318
S315200036A01A687B69B2FBF3F24CF66403C2F200039C
S315200036B01A604CF65C03C2F200031A68BB69B2FBBF
S315200036C0F3F24CF66803C2F200031A604CF65C0370
S315200036D0C2F200031A68FB69B2FBF3F24CF66C03E4
S315200036E0C2F200031A604CF65C03C2F200031A68A9
S315200036F04CF65803C2F200031A6007F12807BD46AC
S3152000370080BD00BF80B48BB000AF4FF000037B605C
S3152000371040F61C03C6F20803BB6040F23023C6F213
S315200037200803FB60FB681B6823F070433B613A6922
S3152000373041F2CF13C0F2A1539A4208D14EF62C7310
S31520003740C6F201037B617B691B687B603DE0BB6839
S315200037501A6844F24133C4F654439A4235D140F6AE
S315200037604003C6F20803BB61BB691B68FB61FB69AA
S3152000377023F07F43FB61FA6940F20033C0F2010374
S315200037809A4222D9FA694FF6FF73C0F201039A4290
S3152000379008D841F22C63C6F208033B623B6A1B68D9
S315200037A07B6012E0FA694FF6FF73C0F202039A4279
S315200037B008D841F6AC63C6F208037B627B6A1B68B5
S315200037C07B6002E04FF000037B607B68002B05D115
S315200037D000BE47F64003C0F27D137B607B68184627
S315200037E007F12C07BD4680BC704700BF80B483B06C
S315200037F000AF0346FB804EF20013CEF20003B7F96A
S3152000380006204FEA5212F98801F01F014FF00100FD
S3152000381000FA01F102F1600243F8221007F10C07C9
S31520003820BD4680BC704700BF80B483B000AF03465E
S31520003830FB7107F10C07BD4680BC7047684620F037
S3152000384007018D4689B500AF4FF00000FFF7ECFF6A
S315200038504FF07600FFF7CAFFBD46BDE88940854692
S31520003860704700BF684620F007018D4689B500AF36
S315200038704FF00100FFF7D8FF4FF07700FFF7B6FFB4
S31520003880BD46BDE889408546704700BF684620F0A2
S3152000389007018D4689B500AF4FF00200FFF7C4FF40
S315200038A04FF07800FFF7A2FFBD46BDE88940854668
S315200038B0704700BF684620F007018D4689B500AFE6
S315200038C04FF00300FFF7B0FF4FF07900FFF78EFFB0
S315200038D0BD46BDE889408546704700BF684620F052
S315200038E007018D4689B500AF4FF00400FFF79CFF16
S315200038F04FF07A00FFF77AFFBD46BDE8894085463E
S31520003900704700BF684620F007018D4689B500AF95
S315200039104FF00500FFF788FF4FF07B00FFF766FFAB
S31520003920BD46BDE889408546704700BF684620F001
S3152000393007018D4689B500AF4FF00600FFF774FFEB
S315200039404FF07C00FFF752FFBD46BDE88940854613
S31520003950704700BF684620F007018D4689B500AF45
S315200039604FF00700FFF760FF4FF07D00FFF73EFFA7
S31520003970BD46BDE889408546704700BF684620F0B1
S3152000398007018D4689B500AF4FF00800FFF74CFFC1
S315200039904FF07E00FFF72AFFBD46BDE889408546E9
S315200039A0704700BF684620F007018D4689B500AFF5
S315200039B04FF00900FFF738FF4FF07F00FFF716FFA3
S315200039C0BD46BDE889408546704700BF684620F061
S315200039D007018D4689B500AF4FF00A00FFF724FF97
S315200039E04FF08000FFF702FFBD46BDE889408546BF
S315200039F0704700BF684620F007018D4689B500AFA5
S31520003A004FF00B00FFF710FF4FF08100FFF7EEFE9F
S31520003A10BD46BDE889408546704700BF684620F010
S31520003A2007018D4689B500AF4FF00C00FFF7FCFE6D
S31520003A304FF08200FFF7DAFEBD46BDE88940854695
S31520003A40704700BF684620F007018D4689B500AF54
S31520003A504FF00D00FFF7E8FE4FF08300FFF7C6FE9C
S31520003A60BD46BDE889408546704700BF684620F0C0
S31520003A7007018D4689B500AF4FF00E00FFF7D4FE43
S31520003A804FF08400FFF7B2FEBD46BDE8894085466B
S31520003A90704700BF684620F007018D4689B500AF04
S31520003AA04FF00F00FFF7C0FE4FF08500FFF79EFE98
S31520003AB0BD46BDE889408546704700BF684620F070
S31520003AC007018D4689B500AF4FF01000FFF7ACFE19
S31520003AD04FF08600FFF78AFEBD46BDE88940854641
S31520003AE0704700BF684620F007018D4689B500AFB4
S31520003AF04FF01100FFF798FE4FF08700FFF776FE94
S31520003B00BD46BDE889408546704700BF684620F01F
S31520003B1007018D4689B500AF4FF01200FFF784FEEE
S31520003B204FF08800FFF762FEBD46BDE88940854616
S31520003B30704700BF684620F007018D4689B500AF63
S31520003B404FF01300FFF770FE4FF08900FFF74EFE8F
S31520003B50BD46BDE889408546704700BF684620F0CF
S31520003B6007018D4689B500AF4FF01400FFF75CFEC4
S31520003B704FF08A00FFF73AFEBD46BDE889408546EC
S31520003B80704700BF684620F007018D4689B500AF13
S31520003B904FF01500FFF748FE4FF08B00FFF726FE8B
S31520003BA0BD46BDE889408546704700BF684620F07F
S31520003BB007018D4689B500AF4FF01600FFF734FE9A
S31520003BC04FF08C00FFF712FEBD46BDE889408546C2
S31520003BD0704700BF684620F007018D4689B500AFC3
S31520003BE04FF01700FFF720FE4FF08D00FFF7FEFD88
S31520003BF0BD46BDE889408546704700BF684620F02F
S31520003C0007018D4689B500AF4FF01800FFF70CFE6F
S31520003C104FF08E00FFF7EAFDBD46BDE88940854698
S31520003C20704700BF684620F007018D4689B500AF72
S31520003C304FF01900FFF7F8FD4FF08F00FFF7D6FD84
S31520003C40BD46BDE889408546704700BF684620F0DE
S31520003C5007018D4689B500AF4FF01A00FFF7E4FD46
S31520003C604FF09000FFF7C2FDBD46BDE8894085466E
S31520003C70704700BF684620F007018D4689B500AF22
S31520003C804FF01B00FFF7D0FD4FF09100FFF7AEFD80
S31520003C90BD46BDE889408546704700BF684620F08E
S31520003CA007018D4689B500AF4FF01C00FFF7BCFD1C
S31520003CB04FF09200FFF79AFDBD46BDE88940854644
S31520003CC0704700BF684620F007018D4689B500AFD2
S31520003CD04FF01D00FFF7A8FD4FF09300FFF786FD7C
S31520003CE0BD46BDE889408546704700BF684620F03E
S31520003CF007018D4689B500AF4FF01E00FFF794FDF2
S31520003D004FF09400FFF772FDBD46BDE88940854619
S31520003D10704700BF684620F007018D4689B500AF81
S31520003D204FF01F00FFF780FD4FF09500FFF75EFD77
S31520003D30BD46BDE889408546704700BF81F00041F9
S31520003D4002E000BF83F0004330B54FEA41044FEA5A
S31520003D50430594EA050F08BF90EA020F1FBF54EAF5
S31520003D60000C55EA020C7FEA645C7FEA655C00F091
S31520003D70E2804FEA5454D4EB5555B8BF6D420CDD62
S31520003D802C4480EA020281EA030382EA000083EAE5
S31520003D90010180EA020281EA0303362D88BF30BD85
S31520003DA011F0004F4FEA01314FF4801C4CEA1131DB
S31520003DB002D0404261EB410113F0004F4FEA03333A
S31520003DC04CEA133302D0524263EB430394EA050FC5
S31520003DD000F0A780A4F10104D5F1200E0DDB02FA34
S31520003DE00EFC22FA05F2801841F1000103FA0EF2C8
S31520003DF0801843FA05F359410EE0A5F120050EF18E
S31520003E00200E012A03FA0EFC28BF4CF0020C43FABE
S31520003E1005F3C01851EBE37101F0004507D54FF0CB
S31520003E20000EDCF1000C7EEB00006EEB0101B1F51B
S31520003E30801F1BD3B1F5001F0CD349085FEA300061
S31520003E404FEA3C0C04F101044FEA445212F5800F6C
S31520003E5080F09A80BCF1004F08BF5FEA500C50F109
S31520003E60000041EB045141EA050130BD5FEA4C0CEC
S31520003E70404141EB010111F4801FA4F10104E9D175
S31520003E8091F0000F04BF01460020B1FA81F308BF6C
S31520003E902033A3F10B03B3F120020CDA0C3208DD38
S31520003EA002F1140CC2F10C0201FA0CF021FA02F113
S31520003EB00CE002F11402D8BFC2F1200C01FA02F183
S31520003EC020FA0CFCDCBF41EA0C019040E41AA2BFA8
S31520003ED001EB0451294330BD6FEA04041F3C1CDA70
S31520003EE00C340EDC04F11404C4F1200220FA04F090
S31520003EF001FA02F340EA030021FA04F345EA03013A
S31520003F0030BDC4F10C04C4F1200220FA02F001FAFB
S31520003F1004F340EA0300294630BD21FA04F029467D
S31520003F2030BD94F0000F83F4801306BF81F4801116
S31520003F300134013D4EE77FEA645C18BF7FEA655C89
S31520003F4029D094EA050F08BF90EA020F05D054EA5B
S31520003F50000C04BF1946104630BD91EA030F1EBF60
S31520003F600021002030BD5FEA545C05D14000494164
S31520003F7028BF41F0004130BD14F580043CBF01F557
S31520003F80801130BD01F0004545F0FE4141F470013D
S31520003F904FF0000030BD7FEA645C1ABF1946104618
S31520003FA07FEA655C1CBF0B46024650EA013406BF19
S31520003FB052EA033591EA030F41F4002130BD00BFD8
S31520003FC090F0000F04BF0021704730B54FF4806495
S31520003FD004F132044FF000054FF0000150E700BF16
S31520003FE090F0000F04BF0021704730B54FF4806475
S31520003FF004F1320410F0004548BF40424FF0000162
S315200040003EE700BF42004FEAE2014FEA31014FEAA4
S3152000401002701FBF12F07F4393F07F4F81F06051F3
S31520004020704792F0000F14BF93F07F4F704730B562
S315200040304FF4607401F0004521F0004120E700BFF5
S3152000404050EA010208BF704730B54FF000050AE07C
S3152000405050EA010208BF704730B511F0004502D57D
S31520004060404261EB41014FF4806404F132045FEA7F
S31520004070915C3FF4DCAE4FF003025FEADC0C18BF24
S3152000408003325FEADC0C18BF033202EBDC02C2F11A
S31520004090200300FA03FC20FA02F001FA03FE40EAAC
S315200040A00E0021FA02F11444C1E600BF70B54FF0AC
S315200040B0FF0C4CF4E06C1CEA11541DBF1CEA13558E
S315200040C094EA0C0F95EA0C0F00F0DEF82C4481EAF6
S315200040D0030621EA4C5123EA4C5350EA013518BF16
S315200040E052EA033541F4801143F4801338D0A0FB03
S315200040F002CE4FF00005E1FB02E506F00042E0FBB0
S3152000410003E54FF00006E1FB03569CF0000F18BFB5
S315200041104EF0010EA4F1FF04B6F5007F64F540745D
S3152000412004D25FEA4E0E6D4146EB060642EAC621F0
S3152000413041EA55514FEAC52040EA5E504FEACE2E5D
S31520004140B4F1FD0C88BFBCF5E06F1ED8BEF1004F60
S3152000415008BF5FEA500E50F1000041EB045170BDDC
S3152000416006F0004646EA010140EA020081EA030120
S31520004170B4EB5C04C2BFD4EB0C0541EA045170BD1C
S3152000418041F480114FF0000E013C00F3AB8014F196
S31520004190360FDEBF002001F0004170BDC4F10004DF
S315200041A0203C35DA0C341BDC04F11404C4F1200560
S315200041B000FA05F320FA04F001FA05F240EA0200BB
S315200041C001F0004221F0004110EBD37021FA04F6F1
S315200041D042EB06015EEA430E08BF20EAD37070BDAB
S315200041E0C4F10C04C4F1200500FA04F320FA05F00A
S315200041F001FA04F240EA020001F0004110EBD3700C
S3152000420041F100015EEA430E08BF20EAD37070BD7B
S31520004210C4F1200500FA05F24EEA020E20FA04F354
S3152000422001FA05F243EA020321FA04F001F0004103
S3152000423021FA04F220EA020000EBD3705EEA430E74
S3152000424008BF20EAD37070BD94F0000F0FD101F0A3
S315200042500046400041EB010111F4801F08BF013CDC
S31520004260F7D041EA060195F0000F18BF704703F01A
S315200042700046520043EB030313F4801F08BF013DA1
S31520004280F7D043EA0603704794EA0C0F0CEA13555D
S3152000429018BF95EA0C0F0CD050EA410618BF52EA17
S315200042A04306D1D181EA030101F000414FF000001D
S315200042B070BD50EA410606BF1046194652EA43062B
S315200042C019D094EA0C0F02D150EA013613D195EA9F
S315200042D00C0F05D152EA03361CBF104619460AD1E7
S315200042E081EA030101F0004141F0FE4141F47001F1
S315200042F04FF0000070BD41F0FE4141F4780170BDE1
S3152000430070B54FF0FF0C4CF4E06C1CEA11541DBF45
S315200043101CEA135594EA0C0F95EA0C0F00F0A7F847
S31520004320A4EB050481EA030E52EA03354FEA013174
S3152000433000F088804FEA03334FF0805545EA131387
S3152000434043EA12634FEA022245EA111545EA10654F
S315200043504FEA00260EF000419D4208BF964244F1E6
S31520004360FD0404F5407402D25B084FEA3202B61A05
S3152000437065EB03055B084FEA32024FF480104FF4D9
S31520004380002CB6EB020E75EB030E22BFB61A75464D
S3152000439040EA0C005B084FEA3202B6EB020E75EBE0
S315200043A0030E22BFB61A754640EA5C005B084FEA48
S315200043B03202B6EB020E75EB030E22BFB61A754615
S315200043C040EA9C005B084FEA3202B6EB020E75EB20
S315200043D0030E22BFB61A754640EADC0055EA060EE1
S315200043E018D04FEA051545EA16754FEA06164FEA24
S315200043F0C30343EA52734FEAC2025FEA1C1CC0D1D0
S3152000440011F4801F0BD141EA00014FF000004FF05C
S31520004410004CB6E711F4801F04BF01430020B4F11D
S31520004420FD0C88BFBCF5E06F3FF6AFAEB5EB030CD5
S3152000443004BFB6EB020C5FEA500C50F1000041EBD2
S31520004440045170BD0EF0004E4EEA113114EB5C049F
S31520004450C2BFD4EB0C0541EA045170BD41F4801172
S315200044604FF0000E013C90E645EA060E8DE60CEA7A
S31520004470135594EA0C0F08BF95EA0C0F3FF43BAF97
S3152000448094EA0C0F0AD150EA01347FF434AF95EA4E
S315200044900C0F7FF425AF104619462CE795EA0C0F32
S315200044A006D152EA03353FF4FDAE1046194622E7FF
S315200044B050EA410618BF52EA43067FF4C5AE50EAD9
S315200044C041047FF40DAF52EA43057FF4EBAE12E7C9
S315200044D04A0011D212F5001211D20DD56FF478735D
S315200044E0B3EB62520ED44FEAC12343F0004343EAB2
S315200044F0505323FA02F070474FF00000704750EAFD
S31520004500013002D14FF0FF3070474FF00000704766
S315200045104FEA4102B2F1E04324BFB3F5001CDCF1BF
S31520004520FE5C0DD901F0004C4FEAC0024CEA5070F7
S31520004530B2F1004F40EB830008BF20F00100704726
S3152000454011F0804F21D113F13872BCBF01F0004029
S31520004550704741F480114FEA5252C2F11802C2F15B
S31520004560200C10FA0CF320FA02F018BF40F00100DC
S315200045704FEAC1234FEAD32303FA0CFC40EA0C008E
S3152000458023FA02F34FEA4303CCE77FEA625307D1CB
S3152000459050EA01331EBF4FF0FE4040F44000704702
S315200045A001F0004040F0FE4040F40000704700BF9C
S315200045B080F0004002E000BF81F0004142001FBFB2
S315200045C05FEA410392EA030F7FEA226C7FEA236CBB
S315200045D06AD04FEA1262D2EB1363C1BFD2184140B0
S315200045E048404140B8BF5B42192B88BF704710F046
S315200045F0004F40F4000020F07F4018BF404211F0E9
S31520004600004F41F4000121F07F4118BF494292EA50
S31520004610030F3FD0A2F1010241FA03FC10EB0C007C
S31520004620C3F1200301FA03F100F0004302D5494209
S3152000463060EB4000B0F5000F13D3B0F1807F06D3B6
S3152000464040084FEA310102F10102FE2A51D2B1F1AE
S31520004650004F40EBC25008BF20F0010040EA0300A3
S315200046607047490040EB000010F4000FA2F1010250
S31520004670EDD1B0FA80FCACF1080CB2EB0C0200FADA
S315200046800CF0AABF00EBC25052421843BCBFD04028
S315200046901843704792F0000F81F4000106BF80F4A2
S315200046A000000132013BB5E74FEA41037FEA226C65
S315200046B018BF7FEA236C21D092EA030F04D092F030
S315200046C0000F08BF0846704790EA010F1CBF002064
S315200046D0704712F07F4F04D1400028BF40F00040C1
S315200046E0704712F100723CBF00F50000704700F0E1
S315200046F0004343F0FE4040F4000070477FEA226208
S3152000470016BF08467FEA23630146420206BF5FEAD8
S31520004710412390EA010F40F4800070474FF00003D8
S3152000472004E000BF10F0004348BF40425FEA000C9F
S3152000473008BF704743F0964301464FF000001CE047
S3152000474050EA010208BF70474FF000030AE000BF9D
S3152000475050EA010208BF704711F0004302D54042DB
S3152000476061EB41015FEA010C02BF8446014600204D
S3152000477043F0B64308BFA3F18053A3F50003BCFA68
S315200047808CF2083AA3EBC25310DB01FA02FC634415
S3152000479000FA02FCC2F12002BCF1004F20FA02F21C
S315200047A043EB020008BF20F00100704702F120020F
S315200047B001FA02FCC2F1200250EA4C0021FA02F270
S315200047C043EB020008BF20EADC7070474FF0FF0C75
S315200047D01CEAD0521EBF1CEAD15392EA0C0F93EA70
S315200047E00C0F6FD01A4480EA010C400218BF5FEA12
S315200047F041211ED04FF0006343EA501043EA511185
S31520004800A0FB01310CF00040B1F5000F3EBF49007E
S3152000481041EAD3715B0040EA010062F17F02FD2A82
S315200048201DD8B3F1004F40EBC25008BF20F0010065
S31520004830704790F0000F0CF0004C08BF49024CEA7C
S31520004840502040EA51207F3AC2BFD2F1FF0340EA0E
S31520004850C250704740F400004FF00003013A5DDC7F
S3152000486012F1190FDCBF00F000407047C2F10002C0
S31520004870410021FA02F1C2F1200200FA02FC5FEAAD
S31520004880310040F1000053EA4C0308BF20EADC70F7
S31520004890704792F0000F00F0004C02BF400010F469
S315200048A0000F013AF9D040EA0C0093F0000F01F016
S315200048B0004C02BF490011F4000F013BF9D041EA38
S315200048C00C018FE70CEAD15392EA0C0F18BF93EA3A
S315200048D00C0F0AD030F0004C18BF31F0004CD8D164
S315200048E080EA010000F00040704790F0000F17BFEB
S315200048F090F0004F084691F0000F91F0004F14D031
S3152000490092EA0C0F01D142020FD193EA0C0F03D188
S315200049104B0218BF084608D180EA010000F000408B
S3152000492040F0FE4040F40000704740F0FE4040F466
S31520004930400070474FF0FF0C1CEAD0521EBF1CEA05
S31520004940D15392EA0C0F93EA0C0F69D0A2EB030223
S3152000495080EA010C49024FEA402037D04FF08053BD
S3152000496043EA111143EA10130CF000408B4238BF82
S315200049705B0042F17D024FF4000C8B4224BF5B1A90
S3152000498040EA0C00B3EB510F24BFA3EB510340EADE
S315200049905C00B3EB910F24BFA3EB910340EA9C008C
S315200049A0B3EBD10F24BFA3EBD10340EADC001B01FC
S315200049B018BF5FEA1C1CE0D1FD2A3FF650AF8B42A0
S315200049C040EBC25008BF20F0010070470CF0004CAD
S315200049D04CEA50207F32C2BFD2F1FF0340EAC250D8
S315200049E0704740F400004FF00003013A37E792F099
S315200049F0000F00F0004C02BF400010F4000F013AF7
S31520004A00F9D040EA0C0093F0000F01F0004C02BFF1
S31520004A10490011F4000F013BF9D041EA0C0195E75A
S31520004A200CEAD15392EA0C0F08D142027FF47DAFF3
S31520004A3093EA0C0F7FF470AF084676E793EA0C0FE3
S31520004A4004D14B023FF44CAF08466EE730F0004CE1
S31520004A5018BF31F0004CCAD130F000427FF45CAF71
S31520004A6031F000437FF43CAF5FE700BF42000ED237
S31520004A70B2F1FE4F0BD34FF09E03B3EB126209D473
S31520004A804FEA002343F0004323FA02F070474FF029
S31520004A900000704712F1610F01D1420202D14FF09E
S31520004AA0FF3070474FF00000704700BF70B54CF6DE
S31520004AB030064CF63005C2F20006C2F20005761B1F
S31520004AC0B61006D0002455F8243001349847A64263
S31520004AD0F9D84CF630054CF63406C2F20005C2F27F
S31520004AE00006761B07F098FEB61006D0002455F86F
S31520004AF0243001349847A642F9D870BD4CF670038D
S31520004B000146C2F20003186804F002BF4CF6700397
S31520004B100146C2F20003186800F000B82DE9F04FF4
S31520004B2001F10B04162C83B006462FD8002310243F
S31520004B308C422CBF194643F00101002930D1304662
S31520004B4000F0F0FBB4F5FC7F2ED24FEAD40E4CF6E3
S31520004B506415C2F2000505EBCE02D368934200F03D
S31520004B6006825A6803F10805D968304622F0030CFC
S31520004B709A6863445C688A6044F00104D1605C6092
S31520004B8000F0D2FB284603B0BDE8F08F24F00704DE
S31520004B90E30F8C422CBF194643F001010029CED0E9
S31520004BA00C2300253360EDE75FEA542E04BF4FEA5D
S31520004BB0D40E4FEACE0040F090804CF66415C2F237
S31520004BC000052818C368984206D10DE0002A80F215
S31520004BD06F81DB68984207D0596821F003010A1BD0
S31520004BE00F2AF3DD0EF1FF3E0EF1010E4CF664178F
S31520004BF0C2F2000707F108018B68994208BF7A685C
S31520004C0026D05A6822F0030CC4EB0C020F2A00F3BC
S31520004C109481002AC960896080F29980BCF5007F62
S31520004C2080F065814FEADC0C4FF0010A7A6807EBC9
S31520004C30CC004FEAAC0C0AFA0CFCD860D0F80880FD
S31520004C404CEA02027A60C3F80880C8F80C30836008
S31520004C504FF0010C4FEAAE030CFA03FC944500F228
S31520004C60828012EA0C0F08D12EF0030E4FEA4C0C6C
S31520004C700EF1040E12EA0C0FF8D007EBCE09F2461D
S31520004C80C846D8F80C30984507D168E1002A80F24A
S31520004C907881DB68984500F06281586820F003002F
S31520004CA0021B0F2AF2DD1D461F19D3F80CC044F053
S31520004CB0010E55F8084F3046BA5042F00102C3F8AB
S31520004CC004E0CCF80840C4F80CC08F60CF607A604E
S31520004CD0B960F96000F028FB54E7BEF1040F9EBFCF
S31520004CE04FEA941E0EF1380E4FEACE007FF665AFDE
S31520004CF0BEF1140F9CBF0EF15B0E4FEACE007FF67D
S31520004D005CAFBEF1540F9EBF4FEA143E0EF16E0EFD
S31520004D104FEACE007FF651AFBEF5AA7F9EBF4FEA7F
S31520004D20D43E0EF1770E4FEACE007FF646AF40F224
S31520004D3054539E4595BF4FEA944E4FF47C700EF126
S31520004D407C0E4FF07E0E98BF4FEACE0035E703EB80
S31520004D500C0203F108053046536843F00103536003
S31520004D6000F0E2FA0EE7D7F80880D8F8043023F0EE
S31520004D700309C4EB09024C4594BF002301230F2AE3
S31520004D80D8BF43F00103002B00F0A1804CF6186B2E
S31520004D90D5F80824C2F2000BDBF8003010331B19BB
S31520004DA0B2F1FF3F06D003F57E631F3323F47E6303
S31520004DB023F01F0319463046019300F053FB019B55
S31520004DC0B0F1FF3F824600F0F48008EB09018142F2
S31520004DD000F2EC80DBF804209A185145CBF8042029
S31520004DE000F04581D5F808544CF66410C2F2000054
S31520004DF0B5F1FF3F08BFC0F808A403D05244511AAA
S31520004E00CBF804101AF00705304617BFC5F1080580
S31520004E104FF48055AA4405F5805553441B051B0DB8
S31520004E20ED1A294600F01EFBB0F1FF3F00F02C8161
S31520004E30CAEB0001491941F00101DBF804204CF6C8
S31520004E401863C7F808A0C2F20003AA18B845CBF821
S31520004E500420CAF8041017D0B9F10F0F40F2DF80F2
S31520004E60A9F10C01052521F0070108EB01000F2906
S31520004E7085604560D8F8040000F0010041EA000092
S31520004E80C8F8040000F2AC80D0464CF61863DBF874
S31520004E902C10C2F200038A42DBF8301088BFDA6297
S31520004EA04CF61863C2F200038A4288BF1A6382E076
S31520004EB05C189A68D9683046666803F108058A60E6
S31520004EC046F00103D160636000F02EFA5AE608EB43
S31520004ED0040342F0010244F001043046C8F80440BD
S31520004EE008F108055A60BB6000F01EFA4AE64FEA50
S31520004EF05C22042A54D9142A00F289805B324FEAB4
S31520004F00C208A8444CF66417C2F20007D8F8080075
S31520004F10404503D16FE08068804504D0426822F086
S31520004F2003029445F7D3D0F80CC0C3F80CC09860A0
S31520004F307A68C360CCF808308AE61F19304644F0F8
S31520004F400104CF605C6003F10805BA5042F001020B
S31520004F508F607A60B960F96000F0E6F912E60AF12E
S31520004F60010A1AF0030F5FD003F1080889E603F15E
S31520004F700802D3689A4208BF0EF1020E3FF436AEFD
S31520004F80EFE51D461918DA68304655F8083F4C6893
S31520004F90936044F00104DA604C6000F0C5F9F1E555
S31520004FA04FEA9C1238324FEAC208AAE7B8453FF4C6
S31520004FB011AFD7F80880D8F8042022F003029442D3
S31520004FC094BF00230123121B0F2AD8BF43F00103ED
S31520004FD0002B3FF47CAF3046002500F0A5F9D1E543
S31520004FE008F108013046019304F092FC019BD7F8A2
S31520004FF008805A6849E74FF0010AD7F804809210D2
S3152000500084460AFA02F248EA02027A608DE7542AB6
S3152000501024D84FEA1C326E324FEAC20871E70123C8
S31520005020D046CAF80430C6E74A461EF0030F134698
S315200050300EF1FF3E33D053F808299A42F5D07B680B
S315200050404FEA4C0C9C453FF68EAEBCF1000F3FF468
S315200050508AAE1CEA030F27D0D6460EE6B2F5AA7F03
S3152000506015D84FEADC3277324FEAC20849E70805FD
S31520005070000D00287FF4B6AED7F808804B4443F0E5
S315200050800103C8F8043000E701210025D5E640F2E7
S31520005090545082420DD94FF47C787E2231E77B68CA
S315200050A023EA0C037B60CBE74FEA4C0C0AF1040A97
S315200050B0CFE74FEA9C427C324FEAC20821E700BF85
S315200050C0032A2DE9F0070BD83AB1002311F803C0C3
S315200050D000F803C001339342F8D1BDE8F0077047CA
S315200050E082180C46034603E014F8011C03F8011C41
S315200050F003F003061946A44601330134002EF3D1EA
S315200051001CF00304634608BFC1EB020C68D065425D
S31520005110C4F1040A0CEB050733464FEACA0A5CF8C9
S3152000512005604FEAC408551A08E057F8044F26468A
S3152000513004FA0AF449EA0404CC5004335C18032D1B
S3152000514026FA08F9A5F104050CEB0306EDDC00238D
S3152000515002E0F15CE154013319199142F9D3BCE71D
S3152000516053F8404C41F8404C53F83C4C41F83C4CE9
S3152000517053F8384C41F8384C53F8344C41F8344CF9
S3152000518053F8304C41F8304C53F82C4C41F82C4C09
S3152000519053F8284C41F8284C53F8244C41F8244C19
S315200051A053F8204C41F8204C53F81C4C41F81C4C29
S315200051B053F8184C41F8184C53F8144C41F8144C39
S315200051C053F8104C41F8104C53F80C4C41F80C4C49
S315200051D053F8084C41F8084C53F8044C41F8044C59
S315200051E01C460D4640334031BCF13F0FACF1400C1C
S315200051F0B6DC21462B46541B0FE051F8105C43F8D1
S31520005200105C51F80C5C43F80C5C51F8085C43F8D0
S31520005210085C51F8045C43F8045C0F2C0D469C4650
S3152000522001F1100103F11003A4F11004E5DCCCEB2D
S315200052300201002303E0EC584CF8034004335E19C6
S31520005240032903EB0C04A1F10401F4DC7FE700BF82
S31520005250032AC9B230B407D822B10023C15401337E
S315200052609342FBD130BC704700EB020C034601E0B1
S3152000527003F8011C03F003041A460133002CF7D16E
S315200052804FF00133C2EB0C0403FB01F31FE042F89D
S31520005290403C42F83C3C42F8383C42F8343C42F828
S315200052A0303C42F82C3C42F8283C42F8243C42F858
S315200052B0203C42F81C3C42F8183C42F8143C42F888
S315200052C0103C42F80C3C42F8083C42F8043C154697
S315200052D040323F2CA4F14004D9DC2A46C5EB0C040D
S315200052E007E042F8103C42F80C3C42F8083C42F8F1
S315200052F0043C154610320F2CA4F11004F1DC2A468A
S31520005300C5EB0C0501E042F8043C14460432032D9B
S31520005310A5F10405F7DC01E004F8011B6445FBD385
S31520005320A0E700BF704700BF704700BF0FB44CF620
S315200053307003C2F2000310B51C6882B024B1A369C1
S3152000534013B9204604F060FA204605AC049A234699
S315200053508168019401F0F6FB02B0BDE8104004B06C
S31520005360704700BF0EB410B5044683B018B18369E8
S315200053700BB904F049FA204606AC059A2346816803
S31520005380019401F0DFFB03B0BDE8104003B0704785
S3152000539070B54CF67004C2F200040546206820B1B0
S315200053A0836913B904F030FA206829468268BDE87B
S315200053B0704005F0B5BB00BF10B5044682B028B1D9
S315200053C083691BB9019104F01FFA01992046A2684E
S315200053D002B0BDE8104005F0A3BB00BF30B50446BF
S315200053E089B008460D4600F09BF84CF20023019543
S315200053F0C2F2000303930290431C079301230493F4
S3152000540001AB0593022306930CB1A369EBB14CF6CD
S3152000541070032046C2F200031B689B689A8912F427
S31520005420005F01BF42F400529A81596E21F4005266
S31520005430A16808BF5A6605AA04F04AFB002814BFD3
S315200054404FF0FF300A2009B030BD204604F0DCF9C9
S31520005450DDE700BF4CF670030146C2F20003186870
S31520005460BCE700BF38B54CF6B874C2F20004054656
S31520005470084600232360FCF7C5FEB0F1FF3F00D0AD
S3152000548038BD2368002BFBD02B6038BD0EB44CF6FC
S31520005490700330B59CB01FACC2F20003054601A9CB
S315200054A054F8042B4FF0FF3C18684FF40273ADF804
S315200054B010302346059501956FF00045ADF812C0D2
S315200054C0069503951B9400F0E9F8019B00221A70BB
S315200054D01CB0BDE8304003B0704700BF0CB40B468B
S315200054E010B59CB01EAC01A905934FF4027C54F86C
S315200054F0042B01934FF0FF33ADF8123023461B9453
