:020000042000DA
:100000000000012099020020090300200B030020BA
:100010000D0300200F03002011030020000000004A
:10002000000000000000000000000000130300209A
:100030001503002000000000170300201903002012
:100040001B0300201D0300201F03002021030020AC
:10005000230300202503002027030020290300207C
:100060002B0300202D030020F5170020211800206D
:10007000712300209D230020370300203903002036
:100080003B0300203D0300203F03002041030020EC
:1000900043030020450300204703002049030020BC
:1000A0004B030020000000000000000000000000E2
:1000B0000000000000000000000000004D030020D0
:1000C0004F0300205103002053030020550300205C
:1000D00057030020590300205B0300205D0300202C
:1000E0005F030020610300206303002065030020FC
:1000F00067030020690300206B0300206D030020CC
:100100006F0300207103002073030020750300209B
:1001100077030020790300207B0300207D0300206B
:100120007F0300208103002083030020850300203B
:1001300087030020890300208B0300208D0300200B
:100140008F030020910300209303002095030020DB
:1001500097030020990300209B0300209D030020AB
:100160009F030020A1030020A3030020A50300207B
:10017000A7030020A9030020AB030020AD0300204B
:10018000AF030020B1030020B3030020B50300201B
:10019000B7030020B9030020BB030020BD030020EB
:1001A000BF030020C1030020C3030020C5030020BB
:1001B000C7030020C9030020CB030020CD0300208B
:1001C000CF030020D1030020D3030020D50300205B
:1001D000D7030020D9030020DB030020DD0300202B
:1001E000DF030020E1030020E3030020E5030020FB
:1001F000E7030020E9030020EB030020ED030020CB
:10020000EF030020F1030020F3030020F50300209A
:10021000F7030020F903002081270020A9270020F0
:10022000D1270020F927002021280020492800207C
:100230007128002099280020C1280020E9280020EA
:100240001129002039290020612900208929002056
:10025000B1290020D9290020012A0020292A0020C4
:10026000512A0020792A0020A12A0020C92A002032
:10027000F12A0020192B0020412B0020692B00209F
:10028000912B0020B92B0020E12B0020092C00200D
:10029000312C0020592C00206848804768480028ED
:1002A0000BD168486849694A884206D091421CBF10
:1002B00050F8043B41F8043BF8D165486549664A6B
:1002C000884206D091421CBF50F8043B41F8043BE1
:1002D000F8D162486249634A914218BF41F8040B61
:1002E000FAD1000000000000000000000000000043
:1002F000DFF874010FF2030E00474FF000004FF0DB
:100300000001DFF868F1FEE7FEE7FEE7FEE7FEE743
:10031000FEE7FEE7FEE7FEE7FEE7FEE7FEE7FEE7B5
:10032000FEE7FEE7FEE7FEE7FEE7FEE7FEE7FEE7A5
:10033000FEE7FEE7FEE7FEE7FEE7FEE7FEE7FEE795
:10034000FEE7FEE7FEE7FEE7FEE7FEE7FEE7FEE785
:10035000FEE7FEE7FEE7FEE7FEE7FEE7FEE7FEE775
:10036000FEE7FEE7FEE7FEE7FEE7FEE7FEE7FEE765
:10037000FEE7FEE7FEE7FEE7FEE7FEE7FEE7FEE755
:10038000FEE7FEE7FEE7FEE7FEE7FEE7FEE7FEE745
:10039000FEE7FEE7FEE7FEE7FEE7FEE7FEE7FEE735
:1003A000FEE7FEE7FEE7FEE7FEE7FEE7FEE7FEE725
:1003B000FEE7FEE7FEE7FEE7FEE7FEE7FEE7FEE715
:1003C000FEE7FEE7FEE7FEE7FEE7FEE7FEE7FEE705
:1003D000FEE7FEE7FEE7FEE7FEE7FEE7FEE7FEE7F5
:1003E000FEE7FEE7FEE7FEE7FEE7FEE7FEE7FEE7E5
:1003F000FEE7FEE7FEE7FEE7FEE7FEE7FEE7FEE7D5
:10040000FEE7FEE7FEE7FEE7FEE7FEE7FEE7FEE7C4
:10041000FEE7FEE7FEE7FEE7FEE7FEE7FEE7FEE7B4
:10042000FEE7FEE7FEE7FEE7FEE7FEE7FEE7FEE7A4
:10043000FEE7FEE7FEE7FEE7FEE70000ED24002012
:100440000000000000000020000000206096002056
:100450006096002060960020909B00200000000025
:10046000909B0020889D0020153400202D05002041
:1004700049F69033C2F200031A780AB901201870C5
:10048000704700BF49F26060C2F2000008B503681F
:100490002BB140F20003C0F2000303B1984708BD3E
:1004A00080B500AF01F0AEFF4FF001004FF0050145
:1004B00001F0DEFF4FF001004FF0000101F0F6FF08
:1004C00080BD00BF80B584B000AF78604FF0010000
:1004D0004FF0010101F0EAFF4FF00003FB6003E081
:1004E000FB6803F10103FB607B6842F2107202FBC0
:1004F00003F2FB689A42F3D84FF001004FF000017D
:1005000001F0D4FF4FF00003FB6003E0FB6803F150
:100510000103FB60FA684CF2BF63C0F22D039A42FC
:10052000F4D907F11007BD4680BD00BF80B582B089
:1005300000AF01F067FF4FF000004FF0050101F040
:1005400097FF4FF000004FF0000101F0AFFFFFF701
:10055000A7FF00F0F3FC00F003FD3B46184600F057
:10056000D5FC49F27C00C2F2000003F001FC00F06F
:1005700063FB07F10403184600F0C8FC07F104020E
:100580003B461046194600F011F807F104023B46BD
:100590001046194600F0C0F807F104023B46104629
:1005A000194600F0C9F97B683B60E2E780B584B08A
:1005B00000AF786039607B681B7803F00403002B80
:1005C0003BD03B681B7803F00403002B35D149F284
:1005D000A000C2F2000003F0CBFB49F26463C2F258
:1005E00000031B681846FFF76DFF4AF69830C0F20B
:1005F000020000F043FD40F2A413C4F205031B689F
:10060000002BF8D14EF64800C0F2010000F036FD94
:100610004FF00003FB6003E0FB6803F10103FB60A4
:10062000FA6844F67F73C0F212039A42F4D944F692
:10063000F010C0F2020000F021FD7B685B7803F04F
:100640001003002B21D03B685B7803F01003002BD4
:100650001BD149F26463C2F200031A6849F268636D
:10066000C2F200031B681A4449F26463C2F2000339
:100670001A6049F26463C2F200031B6849F2C800C1
:10068000C2F20000194603F005FB7B685B7803F0BB
:100690002003002B3BD03B685B7803F02003002B4A
:1006A00035D149F26463C2F200031A6849F2686303
:1006B000C2F200031B689A420CD849F26463C2F28A
:1006C00000031B6849F2F000C2F20000194603F073
:1006D000E1FA1CE049F26463C2F200031A6849F2CD
:1006E0006863C2F200031B68C3EB020249F2646351
:1006F000C2F200031A6049F26463C2F200031B688D
:1007000049F22010C2F20000194603F0C3FA07F1C3
:100710001007BD4680BD00BF80B582B000AF7860D5
:1007200039607B681B7803F02003002B13D03B68F3
:100730001B7803F02003002B0DD140F24813C4F2C4
:1007400005034FF000021A6049F24810C2F200009F
:1007500003F00EFB3EE07B681B7803F01003002BD8
:1007600013D03B681B7803F01003002B0DD140F22F
:100770004C13C4F205034FF000021A6049F26010F6
:10078000C2F2000003F0F4FA24E07B681B7803F067
:100790001003002B05D13B681B7803F01003002BDE
:1007A0000BD17B681B7803F02003002B12D13B6830
:1007B0001B7803F02003002B0CD040F24413C4F24A
:1007C00005034FF000021A6049F27810C2F20000EF
:1007D00003F0CEFA7B681B7803F04003002B13D0A4
:1007E0003B681B7803F04003002B0DD140F2081347
:1007F000C4F205034FF000021A6049F29010C2F2F1
:10080000000003F0B5FA3EE07B681B7803F080033C
:10081000002B13D03B681B7803F08003002B0DD115
:1008200040F20C13C4F205034FF000021A6049F2C3
:10083000A810C2F2000003F09BFA24E07B681B784A
:1008400003F04003002B05D13B681B7803F0400305
:10085000002B0BD17B681B7803F08003002B12D197
:100860003B681B7803F08003002B0CD040F204138C
:10087000C4F205034FF000021A6049F2C010C2F240
:10088000000003F075FA7B685B7803F08003002BAF
:1008900007D03B685B7803F08003002B01D100F0A8
:1008A00019FC7B681B7803F00203002B19D03B680E
:1008B0001B7803F00203002B13D140F21013C4F293
:1008C00005034FF000021A6040F25013C4F2050312
:1008D0004FF000021A6049F2D810C2F2000003F093
:1008E00047FA7B689A783B689B7852B25BB29A422F
:1008F00007D17B68DA783B68DB7852B25BB29A4208
:1009000016D0786849F69431C2F2000100F06EFB0F
:1009100049F69433C2F200031B68184600F082FBCC
:1009200049F69433C2F200035B68184600F0A6FB58
:1009300007F10807BD4680BD80B588B000AF78607C
:1009400039607B685B7803F00803002B00F0E780D8
:100950003B685B7803F00803002B40F0E28049F22B
:10096000FC10C2F2000003F003FA4FF000004FF059
:10097000010101F09BFD4FF001033B6144F6F013D0
:10098000C0F202037B6144F6F013C0F20203BB61C4
:100990004FF00003BB774FF00003FB77B4E007F1A3
:1009A0000C03184600F08AFA0346B3F1FF3F7AD0F1
:1009B000BB891AB2FB891BB249F21C20C2F20000AB
:1009C00011461A4603F066F9BB891BB29A2B0EDC5E
:1009D000BB891BB240F2712202FB03F303F5124301
:1009E00003F17C037B614FF00003BB7720E0BB8900
:1009F0001BB2A52B0EDDBB891BB240F2712202FB9C
:100A000003F303F5744303F124037B614FF0000308
:100A1000BB770DE044F6F013C0F202037B614FF0A8
:100A20000103BB7749F22C20C2F2000003F0A0F9C9
:100A3000FB891BB25E2B08DC4AF69833C0F2020336
:100A4000BB614FF00003FB771AE0FB891BB2692BF7
:100A500008DD4EF64803C0F20103BB614FF000030E
:100A6000FB770DE044F6F013C0F20203BB614FF0D8
:100A70000103FB7749F23C20C2F2000003F078F951
:100A8000786900F0CFFAB86900F0F8FABB7F002B64
:100A900009D0FB7F002B06D04FF01E00FFF712FDA0
:100AA0004FF000033B617B681B7803F00203002BCF
:100AB0001CD03B681B7803F00203002B16D14FF0CB
:100AC00000033B6140F20413C4F205034FF000023F
:100AD0001A6040F24413C4F205034FF000021A609A
:100AE00049F24C20C2F2000003F042F93A687B68F8
:100AF00011461A464FF00403084611461A4602F002
:100B000093FF786800F002FA3B69002B7FF447AF4F
:100B10004FF000004FF0000101F0C8FC02E000BF00
:100B200000E000BF07F12007BD4680BD80B584B05E
:100B300000AF0346FB7149F67840C2F200004FF067
:100B4000000101F0B5F8FB7949F67840C2F20000E7
:100B5000194601F079F90346FB7349F67840C2F271
:100B600000004FF0000101F027F9FB7B184607F168
:100B70001007BD4680BD00BF80B582B000AF4FF00A
:100B80000003FB7149F6DC33C2F200031B78002B33
:100B900035D04FF05B00FFF7C9FF0346BB8049F635
:100BA000DD33C2F200031A78114649F69C33C2F2D3
:100BB00000035B5CFB7102F10103DAB249F6DD333D
:100BC000C2F200031A7049F6DC33C2F200031B784C
:100BD00003F1FF33DAB249F6DC33C2F200031A70D4
:100BE00049F6DD33C2F200031B78402B0ED149F6E3
:100BF000DD33C2F200034FF000021A7007E04FF03D
:100C00005A00FFF793FF0346BB8000E000BFBB889C
:100C10004FEA0323BB80FB791846FFF787FF0346A3
:100C2000BB71BA79BB8842EA0303BB80BB88184614
:100C300007F10807BD4680BD80B584B002AF4FF410
:100C4000966002F017FC03461A4649F62043C2F2AA
:100C500000031A604FF00803FB7149F67840C2F2B6
:100C6000000000F04BFEFB79009349F67840C2F299
:100C700000004FF000014FF000024FF0070300F0BA
:100C800087FF07F10807BD4680BD00BF80B582B071
:100C900000AF4FF6FF73FB80FFF76EFF0346BB808C
:100CA000BB88002B05D1FB88002B02D14FF000033D
:100CB00033E0BA884AF655239A420ED1FA884AF6AA
:100CC00055239A4209D149F62443C2F200034FF05A
:100CD00000021A704FF001031FE0BA884AF656234B
:100CE0009A420ED1FA884AF655239A4209D149F61A
:100CF0002443C2F200034FF001021A704FF00103C7
:100D00000BE0BA8845F2AA539A4203D14FF0000093
:100D1000FFF70CFFBB88FB80BEE7184607F108070A
:100D2000BD4680BD80B586B000AF0346FB8049F666
:100D3000E033C2F200031B68002B07D1FFF7A6FFC8
:100D40000346002B0AD14FF00003B1E049F6E0332F
:100D5000C2F200034FF000021A6000E000BF4FF043
:100D60000003FB819BE0FFF707FF03463B823A8AC3
:100D70004AF655239A420FD149F6E033C2F20003F6
:100D80004FF001021A6049F62443C2F200034FF00B
:100D900000021A70FB898BE03A8A4AF656239A427F
:100DA0000FD149F6E033C2F200034FF001021A609E
:100DB00049F62443C2F200034FF001021A70FB8986
:100DC00076E03B8A002B01D1FB8971E049F6204394
:100DD000C2F200031968FA8913464FEA4303134429
:100DE0004FEA83030B447B614FF00003FB724FF02B
:100DF00000037B8221E049F62443C2F200031B7802
:100E0000002B07D1FB7A042B04D97B694FF0000239
:100E10005A8115E0FFF7B0FE0346BB817A8ABB8991
:100E200013447B827A69FB7A4FEA43031344BA89FD
:100E30001A80FB7A03F10103FB72FB7A052BDAD9E6
:100E40003A8A7B8A9A4204D1FB8903F10103FB8130
:100E500005E049F26820C2F2000002F089FFFFF7C6
:100E60008BFE0346BB81BA894AF655239A4207D1C5
:100E700049F62443C2F200034FF000021A700EE05C
:100E8000BA894AF656239A4207D149F62443C2F258
:100E900000034FF001021A7001E0FB8908E0FA89B3
:100EA000FB889A4203D2FB89632B7FF65CAFFFE796
:100EB000184607F11807BD4680BD00BF80B582B057
:100EC00000AF78604FF00100FFF72CFF0346002BC6
:100ED00002D14FF0FF3313E049F62043C2F2000382
:100EE0001B685B881A467B681A8049F62043C2F269
:100EF00000031B689B881A467B685A804FF00003EA
:100F0000184607F10807BD4680BD00BF80B584B014
:100F100000AF786040F20003C4F20503FB607A681A
:100F2000FB6811461A464FF00403084611461A465C
:100F300002F07AFD07F11007BD4680BD80B483B092
:100F400000AF40F20003C4F205037B607B684FF002
:100F5000FF021A6007F10C07BD4680BC704700BF56
:100F600080B483B000AF40F20003C4F205037B609D
:100F70007B684FF001021A6007F10C07BD4680BC88
:100F8000704700BF80B485B000AF0346FB7197F98E
:100F90000730062B07DC97F9073013F1060F02DB49
:100FA0004FF00003FB7197F90730502B03DD4FF032
:100FB0005003FB7107E097F9073013F1500F02DA85
:100FC0006FF04F03FB7197F9073040F2712202FB7B
:100FD00003F3FB60FB68C3F5123303F5F87318469F
:100FE00007F11407BD4680BC704700BF80B582B0D2
:100FF00000AF786039607B689B785BB21846FFF77A
:10100000C1FF02463B681A607B68DB785BB218461A
:10101000FFF7B8FF02463B685A6007F10807BD4674
:1010200080BD00BF80B584B000AF786049F27063C6
:10103000C2F200031B687A689A421AD040F2001389
:10104000C4F20503FB60FB687A681A6049F27063BA
:10105000C2F200037A681A6049F27063C2F20003B8
:101060001B6849F2AC20C2F20000194602F012FEE1
:1010700000E000BF07F11007BD4680BD80B584B019
:1010800000AF786049F26C63C2F200031B687A68B3
:101090009A421AD040F24013C4F20503FB60FB6889
:1010A0007A681A6049F26C63C2F200037A681A60C7
:1010B00049F26C63C2F200031B6849F2C420C2F219
:1010C0000000194602F0E6FD00E000BF07F110073E
:1010D000BD4680BD80B584B000AF40F21813C4F2A5
:1010E00005033B6040F21C13C4F205037B6040F231
:1010F0005813C4F20503BB6040F25C13C4F205034D
:10110000FB603B681A687B681B6849F2DC20C2F20E
:10111000000011461A4602F0BDFD07F11007BD465A
:1011200080BD00BF80B483B000AF78604FF0FF3364
:10113000184607F10C07BD4680BC704780B483B0E9
:1011400000AF7860FEE700BF80B483B000AF786086
:1011500039603B684FF400525A604FF00003184664
:1011600007F10C07BD4680BC704700BF80B483B058
:1011700000AF78604FF00103184607F10C07BD4639
:1011800080BC704780B485B000AFF860B9607A6009
:101190004FF00003184607F11407BD4680BC7047A6
:1011A00080B485B000AFF860B9607A604FF000039A
:1011B000184607F11407BD4680BC704780B584B05F
:1011C00000AFF860B9607A603B6049F6E433C2F280
:1011D00000031B68002B10D149F65040C2F20000FA
:1011E0004FF461414FF0030200F07EF849F6E4331A
:1011F000C2F200034FF001021A603B6849F650400A
:10120000C2F2000079681A4600F070F93B6818468F
:1012100007F11007BD4680BD80B584B000AF78608F
:1012200049F6E833C2F200031B68002B08D149F6E7
:10123000E833C2F2000349F68852C2F200021A6093
:1012400049F6E833C2F200031B68BB60EFF3088382
:10125000FB6049F6E833C2F200031A687B681A445F
:10126000FB689A420FD94FF000004FF0010149F29C
:10127000FC22C2F200024FF01903FFF79FFF4FF06C
:101280000100FFF75BFF49F6E833C2F200031A687A
:101290007B681A4449F6E833C2F200031A60BB685F
:1012A000184607F11007BD4680BD00BF80B483B06B
:1012B00000AF0346FB804EF20013CEF20003B7F9F5
:1012C00006204FEA5212F98801F01F014FF0010089
:1012D00000FA01F102F1600243F8221007F10C0755
:1012E000BD4680BC704700BF80B588B000AFF860D5
:1012F000B9601346FB714FF00103FB824FF000030E
:10130000BB61FA6849F65043C2F200039A4207D023
:10131000FA6849F62843C2F200039A4200D000BEA0
:10132000BB68002B00D100BE01F0E6F8FA6849F670
:101330005043C2F200039A422ED1FB684FF0804224
:101340001A60FB684FF084425A60FB684FF00A0253
:101350001A8149F27C63C2F200031B68BB6142F24E
:101360000003CEF2040342F20002CEF20402126B3A
:1013700042F080021A634FF00A00FFF797FF42F233
:101380000003CEF2040342F20002CEF20402126B1A
:1013900022F080021A6331E0FA6840F20003C4F2DE
:1013A00001031360FA6840F20003C4F22023536083
:1013B000FB684FF00B021A8149F28063C2F200030E
:1013C0001B68BB6142F20003CEF2040342F200024A
:1013D000CEF20402126B42F480721A634FF00B00DB
:1013E000FFF764FF42F20003CEF2040342F2000270
:1013F000CEF20402126B22F480721A63FB681B683F
:101400004FF000021A71BB68002B21D0BA69BB688B
:10141000B2FBF3F3FB61FB6903F00803002B06D07A
:10142000FB694FEA131303F10103FB6103E0FB695E
:101430004FEA1313FB61FA694FF6FF739A4200D922
:1014400000BEFA694FF6FF739A4201D8FB69FB822E
:10145000FB685B684FF00102C3F89C21FB681B68C6
:10146000FA8A4FEA122292B2D2B21A71FB681B6852
:10147000FA8AD2B21A70FB685B684FF00002C3F8B8
:101480009C21FB681B68FA791A73FB681B684FF094
:101490000E021A72FB685B684FF00002C3F810225C
:1014A000FB684FF000021A61FB684FF00002DA603F
:1014B000FB684FF000025A61FB684FF00002DA61EE
:1014C000FA6841F2ED63C2F200031362FB684FF069
:1014D00000029A61FB684FF000025A62FB684FF00D
:1014E00000029A7207F12007BD4680BD80B489B022
:1014F00000AFF860B9607A604FF000033B61FA68B2
:1015000049F65043C2F200039A4207D0FA6849F6FE
:101510002843C2F200039A4200D000BEBB68002BF1
:1015200000D100BE7B68002B00D100BEFA6849F6EE
:101530005043C2F200039A4206D0FA6849F62843A3
:10154000C2F200039A423DD1BB68002B3AD07B68BF
:10155000002B37D0FB681B681B7DFB76FB689A7AF3
:10156000FB7E42EA0303DAB2FB689A72FB7E03F069
:101570002003002B23D04FF01003FB617B680F2B5F
:1015800001D87B68FB614FF000037B610EE0FB68D4
:101590001B68B9683A690A4412781A703B6903F10A
:1015A00001033B617B6903F101037B617A69FB699C
:1015B0009A42ECD37A687B69C3EB02037B607B6859
:1015C000002BC7D107F12407BD4680BC704700BF80
:1015D00080B584B000AF78607A6849F65043C2F2B3
:1015E00000039A4207D07A6849F62843C2F2000302
:1015F0009A4200D000BE7A6849F65043C2F2000316
:101600009A4206D07A6849F62843C2F200039A4209
:1016100067D17B681B681B7ADBB203F00F03FB7397
:10162000FB7B0C2B54D801A252F823F0611600204A
:10163000D11600207D160020D1160020991600201A
:10164000D1160020B5160020D1160020D11600209A
:10165000D1160020D1160020D116002099160020A6
:101660007B685B6A002B00D100BE7B685B6A002B45
:1016700030D07B685B6A7868984732E07B681B6A89
:10168000002B00D100BE7B681B6A002B24D07B6836
:101690001B6A7868984724E07B68DB69002B00D1DF
:1016A00000BE7B68DB69002B18D07B68DB6978683B
:1016B000984716E07B689B69002B00D100BE7B68D1
:1016C0009B69002B0CD07B689B697868984708E081
:1016D00000BE06E000BF04E000BF02E000BF00E083
:1016E00000BF07F11007BD4680BD00BF80B487B0C2
:1016F00000AF78607A6849F65043C2F200039A421C
:1017000007D07A6849F62843C2F200039A4200D013
:1017100000BE7B68DB68002B00D100BE7B681B69C4
:10172000002B00D100BE7A6849F65043C2F2000394
:101730009A4206D07A6849F62843C2F200039A42D8
:1017400052D17B68DB68002B4ED07B681B69002B75
:101750004AD07B681B681B7DFB727B689A7AFB7A98
:1017600042EA0303DAB27B689A72FB7A03F0200341
:10177000002B29D04FF010033B617B681A697B680E
:101780005B69C3EB02037B617B690F2B01D87B692B
:101790003B614FF00003FB6012E07B681B687A68D6
:1017A000D1687A6852690A4412781A707B685B695A
:1017B00003F101027B685A61FB6803F10103FB60DE
:1017C000FA683B699A42E8D37B685A697B681B696F
:1017D0009A4209D17B684FF000021A617B685B680E
:1017E0004FF00002C3F8842007F11C07BD4680BCFF
:1017F000704700BF684620F007018D4689B500AFED
:1018000049F65040C2F20000FFF7E2FE4FF00A0036
:10181000FFF74CFDBD46BDE889408546704700BFD7
:10182000684620F007018D4689B500AF49F628408B
:10183000C2F20000FFF7CCFE4FF00B00FFF736FDC1
:10184000BD46BDE889408546704700BF80B483B07F
:1018500000AF0346FB804EF20013CEF20003B7F94F
:1018600006204FEA5212F98801F01F014FF00100E3
:1018700000FA01F143F8221007F10C07BD4680BCC5
:10188000704700BF80B483B000AF0346FB804EF2C8
:101890000013CEF20003B7F906204FEA5212F9887E
:1018A00001F01F014FF0010000FA01F102F12002E6
:1018B00043F8221007F10C07BD4680BC704700BFFB
:1018C00080B483B000AF0346FB804EF20013CEF22B
:1018D0000003B7F906204FEA5212F98801F01F0100
:1018E0004FF0010000FA01F102F1600243F822100A
:1018F00007F10C07BD4680BC704700BF80B584B0BF
:1019000000AF78607A6849F6FC43C2F200039A425D
:1019100007D07A6849F67843C2F200039A4200D0B1
:1019200000BE7B689B881BB21846FFF7ABFF786848
:101930004FF000014FF0840202F03EF97B684FF057
:1019400001025A624FF00003FB810DE0FB897A68C7
:1019500003F106034FEAC30313444FF0FF325A600A
:10196000FB8903F10103FB81FB89072BEED97A6820
:1019700049F6FC43C2F200039A4226D17A6841F24A
:101980000003C4F2000313607B684FF00C029A80DE
:1019900042F20003CEF2040342F20002CEF204024D
:1019A000126B42F400721A634FF00C00FFF788FFCD
:1019B00042F20003CEF2040342F20002CEF204022D
:1019C000126B22F400721A6325E07A6841F2000378
:1019D000C4F2010313607B684FF00D029A8042F25B
:1019E0000003CEF2040342F20002CEF20402126BB4
:1019F00042F480621A634FF00D00FFF761FF42F27C
:101A00000003CEF2040342F20002CEF20402126B93
:101A100022F480621A637B681B687A681268126815
:101A200022F000421A6007F11007BD4680BD00BFDA
:101A300080B58AB000AF78607B681B681B68FB606C
:101A40007B681B689B693B617B681B685B687B618B
:101A50007B681B689B6ABB617B681B681B6BFB61B7
:101A60007B681B685B6B3B627B681B68DB697B6226
:101A70007A6849F6FC43C2F200039A422ED17A6892
:101A800041F20003C4F2000313607B684FF00C02C4
:101A90009A8042F20003CEF2040342F20002CEF238
:101AA0000402126B42F400721A634FF00C00FFF74D
:101AB00007FF42F20003CEF2040342F20002CEF22C
:101AC0000402126B22F400721A637B681B687A6846
:101AD0001268126822F000421A602DE07A6841F222
:101AE0000003C4F2010313607B684FF00D029A807B
:101AF00042F20003CEF2040342F20002CEF20402EC
:101B0000126B42F480621A634FF00D00FFF7D8FEAB
:101B100042F20003CEF2040342F20002CEF20402CB
:101B2000126B22F480621A637B681B687A68126801
:101B3000126822F000421A60FB6823F00103FB6088
:101B40007B681B68FA681A607B681B683A699A614F
:101B50007B681B687A695A607B681B687A681268C0
:101B6000126842F001021A607B681B68BA699A62C7
:101B70007B681B68FA691A637B681B683A6A5A6358
:101B80007B681B687A6ADA6107F12807BD4680BD69
:101B900080B584B000AFF8607A600A46FA72FB70D4
:101BA000FA6849F6FC43C2F200039A4207D0FA6889
:101BB00049F67843C2F200039A4200D000BEFB7A95
:101BC000072B00D900BE3B7E202B00D900BEFB684E
:101BD0009B881BB21846FFF755FEFB684FF00002CA
:101BE00083F88020FB681B68FA681268126822F08C
:101BF00001021A60FB681B68FA681268126842F0FA
:101C000002021A60FB681B68FA681268126842F0E8
:101C100001021A60FB7A072B3FD87B68002B0BD0A0
:101C20007B68B3F1007F07D07B68B3F1807F03D07E
:101C30007B68B3F1407F0FD1FA7A796840F20213E2
:101C4000C2F2004341EA0303F96802F106024FEAD7
:101C5000C2020A4453600EE0FA7A796840F2021335
:101C6000C2F2000341EA0303F96802F106024FEAF7
:101C7000C2020A445360FB7AFA6803F106034FEA92
:101C8000C30313443A7E1A72FB7AFA6803F106031F
:101C90004FEAC3031344FA785A72FB689B881BB25D
:101CA0001846FFF7D3FD07F11007BD4680BD00BF02
:101CB00080B584B000AF78600B46FB707A6849F657
:101CC000FC43C2F200039A4207D07A6849F678438F
:101CD000C2F200039A4200D000BE7B681B681B68FA
:101CE00003F00203002B00D100BEFB787A6803F1F9
:101CF00006034FEAC30313445B68B3F1FF3F00D10F
:101D000000BE7B689B881BB21846FFF7BBFD7B6853
:101D10001B689B6803F00403FB60FB68002B02D088
:101D20007868FFF785FE7B681B687A68126812681E
:101D300022F001021A607B681A68FB78796803F167
:101D400006034FEAC3030B445B6813607B681A68A1
:101D5000FB78796803F106034FEAC3030B445B7A0F
:101D600093617B681A68FB78796803F106034FEA90
:101D7000C3030B441B7A53607B681B687A68126844
:101D8000126842F001021A607B681B687A68126868
:101D9000D169FA784FF0010000FA02F241EA02023A
:101DA000DA617B689B881BB21846FFF74FFD07F18D
:101DB0001007BD4680BD00BF80B584B000AF78601D
:101DC0000B46FB707A6849F6FC43C2F200039A4264
:101DD00007D07A6849F67843C2F200039A4200D0ED
:101DE00000BE7B681B681B6803F00203002B00D158
:101DF00000BE7B689B881BB21846FFF743FD7B68DB
:101E00001B689B6803F00403FB60FB68002B02D097
:101E10007868FFF70DFE7B681B687A681268D169E5
:101E2000FA784FF0010000FA02F26FEA020201EACA
:101E30000202DA617B689B881BB21846FFF706FD39
:101E400007F11007BD4680BD80B487B000AF786051
:101E500039607A6849F6FC43C2F200039A4207D01F
:101E60007A6849F67843C2F200039A4200D000BE75
:101E70007B681B681B6803F00203002B00D100BEC7
:101E80007B681A687B681B68196840F2FF03CFF60D
:101E9000007301EA030343F4807313607B681B68DB
:101EA0007A681268D26A42F00C02DA627B681B68B8
:101EB0009B6803F04003FB600BE07B681B681B69B9
:101EC000BB60BB68BB607B681B689B6803F040031A
:101ED000FB60FB68002BF0D07B681B683A685A6196
:101EE0007B681B689B6803F001037B6105E07B68EE
:101EF0001B689B6803F001037B617B69002BF6D0B4
:101F00007B681B689B6803F002033B6105E07B680C
:101F10001B689B6803F002033B613B69002BF6D012
:101F20007B681B681B69184607F11C07BD4680BC0F
:101F3000704700BF80B485B000AF78604FF00003F9
:101F4000FB600EE07B681B687A6891687A681269AA
:101F50000A4412785A617B681B6903F101027B68AD
:101F60001A617B681B689B6803F48073002B05D1A2
:101F70007B681A697B68DB689A42E3D37B681A69DD
:101F80007B68DB689A421CD30EE07B681B687A682A
:101F900051697A68D2690A4412785A617B68DB69B0
:101FA00003F101027B68DA617B681B689B6803F4BC
:101FB0008073002B05D17B68DA697B689B699A4244
:101FC000E3D37B685B6A002B1FD07B681A697B6850
:101FD000DB689A4219D37B68DA697B689B699A420D
:101FE00013D308E07B681B684FF000025A61FB685E
:101FF00003F10103FB607B681B689B6803F480733B
:10200000002B02D1FB681F2BECD907F11407BD464A
:1020100080BC704780B584B000AF78607B6893F86F
:102020008030022B15D10CE07B681B681B69FB60BC
:102030007B685B6F002B04D07B685B6FFA6810468F
:1020400098477B681B689B6803F04003002BEBD02C
:1020500032E07B6893F88030012B25D117E07B6854
:102060001B681B69FB607B681A6B7B68DB6A9A42A2
:1020700007D27B689A6A7B681B6B1344FA68D2B2FA
:102080001A707B681B6B03F101027B681A637B6823
:102090001B689B6803F04003002BE0D00CE07B68DA
:1020A0001B681B69FB6000E000BF7B681B689B68C6
:1020B00003F04003002BF2D007F11007BD4680BDAE
:1020C00080B586B000AF78607B681B6803F12003A1
:1020D0003B617A6849F6FC43C2F200039A4207D09A
:1020E0007A6849F67843C2F200039A4200D000BEF3
:1020F0003B691B6803F00203002B52D07B6893F806
:102100008030022B15D10CE07B681B681B69FB60DB
:102110007B685B6F002B04D07B685B6FFA681046AE
:1021200098477B681B689B6803F04003002BEBD04B
:1021300032E07B6893F88030012B25D117E07B6873
:102140001B681B69FB607B681A6B7B68DB6A9A42C1
:1021500007D27B689A6A7B681B6B1344FA68D2B219
:102160001A707B681B6B03F101027B681A637B6842
:102170001B689B6803F04003002BE0D00CE07B68F9
:102180001B681B69FB6000E000BF7B681B689B68E5
:1021900003F04003002BF2D07B681B684FF0020273
:1021A000DA603B691B6803F00103DBB2002B12D03D
:1021B0007B6893F88030022B05D17B681B687A68B6
:1021C000926F5A6102E07868FFF7B4FE7B681B6883
:1021D0004FF00102DA603B691B6803F01003002B2B
:1021E00023D07868FFF716FF7B681B6A002B0BD0A3
:1021F0007B681B6A7A68916A7A68126B0846114696
:1022000098477868FFF796FE7B684FF001025A62A4
:102210007B681B687A681268926A22F010029A62E0
:102220007B681B684FF01002DA603B691B6803F0A3
:102230000403002B0FD07B681B687A681268D26A8F
:1022400042F00402DA627868FFF7F2FB7B681B68F1
:102250004FF00402DA603B691B6803F00803002BAF
:1022600031D07B681B687A681268D26A42F0080233
:10227000DA627B6893F88030022B13D17B681A688E
:102280007B681B68196840F2FF03CFF6007301EA10
:10229000030343F4807313607B681B687A68926F52
:1022A0005A610BE07B6893F88030012B06D17B6884
:1022B0004FF000021A617868FFF73CFE7B681B68EC
:1022C0004FF00802DA603B691B6803F02003002B23
:1022D00049D07868FFF79EFE7B681B6B7B617B684B
:1022E0001B6A002B1CD07B684FF000025A627B688F
:1022F0004FF000025A617B684FF000029A617B68E0
:102300004FF00002DA617B681B684FF01002DA6060
:102310007B681B687A681268926A42F010029A62BF
:102320007B684FF000021A617B681B687A6812684C
:10233000D26A42F00C02DA627868FFF7FBFD7B6834
:102340004FF000021A637B68DB6F002B06D07B68BE
:10235000DB6F7A68926A1046796998477B681B68D8
:102360004FF02002DA6007F11807BD4680BD00BFBC
:10237000684620F007018D4689B500AF49F6FC405C
:10238000C2F20000FFF79CFE4FF00C00FFF798FA36
:10239000BD46BDE889408546704700BF684620F0CD
:1023A00007018D4689B500AF49F67840C2F20000BA
:1023B000FFF786FE4FF00D00FFF782FABD46BDE83D
:1023C00089408546704700BF80B483B000AF0346A4
:1023D000FB804EF20013CEF20003B7F906204FEA5D
:1023E0005212F98801F01F014FF0010000FA01F1CB
:1023F00002F1600243F8221007F10C07BD4680BCD1
:10240000704700BF80B582B000AF42F20003CEF249
:10241000040342F20002CEF20402126B42F4804244
:102420001A634FF000037B600EE07A6849F298333C
:10243000C2F2000333F812301BB21846FFF7C4FF94
:102440007B6803F101037B607B681F2BEDD942F2AF
:102450000003CEF2040342F20002CEF20402126B39
:1024600022F480421A6307F10807BD4680BD00BF11
:1024700080B485B000AF03463960FB71FB79FB6027
:10248000FB681F2B00D900BEFB681F2B08D8FA6819
:1024900049F21833C2F2000353F822303A681A6046
:1024A00007F11407BD4680BC704700BF80B485B0FB
:1024B00000AF02460B46FA71BB71FB79FB60FB680B
:1024C0001F2B00D900BEFB681F2B09D840F2000368
:1024D000C4F22623FA68B97902F5886243F822101B
:1024E00007F11407BD4680BC704700BF80B400AF41
:1024F000BD4680BC704700BF80B58AB000AF49F2CE
:10250000D833C2F20003BC460FCB8CE80F0042F276
:102510000003CEF204039B6C4FEA930303F0030322
:102520004FEA830307F12802134453F8283C3B6128
:1025300042F20003CEF204039B6C4FEA131303F044
:1025400003034FEA830307F12802134453F8283C9E
:102550007B6142F20003CEF204039B6C4FEA9313BB
:1025600003F003034FEA830307F12802134453F8EF
:10257000283CBB6142F20003CEF20403DB6C4FEA5D
:10258000132303F01F033B6242F20003CEF2040365
:10259000DB6C4FEA533303F001037B623B6A03F1C8
:1025A0000103FB617B6A002B03D0FB694FEA430305
:1025B000FB6100F049F8024649F27863C2F2000379
:1025C0001A6049F27863C2F200031A683B69B2FBF1
:1025D000F3F249F27C63C2F200031A6049F27863B5
:1025E000C2F200031A687B69B2FBF3F249F280631E
:1025F000C2F200031A6049F27863C2F200031A685B
:10260000BB69B2FBF3F249F28463C2F200031A60C1
:1026100049F27863C2F200031A68FB69B2FBF3F275
:1026200049F28863C2F200031A6049F27863C2F289
:1026300000031A6849F27463C2F200031A6007F1DA
:102640002807BD4680BD00BF80B48BB000AF4FF0FF
:1026500000037B6040F61C03C6F20803BB6040F237
:102660003023C6F20803FB60FB681B6823F070434D
:102670003B613A6941F2CF13C0F2A1539A4208D1AB
:102680004EF62C73C6F201037B617B691B687B608D
:102690003DE0BB681A6844F24133C4F654439A42A1
:1026A00035D140F64003C6F20803BB61BB691B6825
:1026B000FB61FB6923F07F43FB61FA6940F2003361
:1026C000C0F201039A4222D9FA694FF6FF73C0F2B1
:1026D00001039A4208D841F22C63C6F208033B6218
:1026E0003B6A1B687B6012E0FA694FF6FF73C0F229
:1026F00002039A4208D841F6AC63C6F208037B6233
:102700007B6A1B687B6002E04FF000037B607B68A4
:10271000002B05D100BE47F64003C0F27D137B605D
:102720007B68184607F12C07BD4680BC704700BF88
:1027300080B483B000AF0346FB804EF20013CEF2AC
:102740000003B7F906204FEA5212F98801F01F0181
:102750004FF0010000FA01F102F1600243F822108B
:1027600007F10C07BD4680BC704700BF80B483B042
:1027700000AF0346FB7107F10C07BD4680BC7047F4
:10278000684620F007018D4689B500AF4FF0000084
:10279000FFF7ECFF4FF07600FFF7CAFFBD46BDE83C
:1027A00089408546704700BF684620F007018D4686
:1027B00089B500AF4FF00100FFF7D8FF4FF0770069
:1027C000FFF7B6FFBD46BDE889408546704700BFAC
:1027D000684620F007018D4689B500AF4FF0020032
:1027E000FFF7C4FF4FF07800FFF7A2FFBD46BDE83A
:1027F00089408546704700BF684620F007018D4636
:1028000089B500AF4FF00300FFF7B0FF4FF079003C
:10281000FFF78EFFBD46BDE889408546704700BF83
:10282000684620F007018D4689B500AF4FF00400DF
:10283000FFF79CFF4FF07A00FFF77AFFBD46BDE837
:1028400089408546704700BF684620F007018D46E5
:1028500089B500AF4FF00500FFF788FF4FF07B0010
:10286000FFF766FFBD46BDE889408546704700BF5B
:10287000684620F007018D4689B500AF4FF006008D
:10288000FFF774FF4FF07C00FFF752FFBD46BDE835
:1028900089408546704700BF684620F007018D4695
:1028A00089B500AF4FF00700FFF760FF4FF07D00E4
:1028B000FFF73EFFBD46BDE889408546704700BF33
:1028C000684620F007018D4689B500AF4FF008003B
:1028D000FFF74CFF4FF07E00FFF72AFFBD46BDE833
:1028E00089408546704700BF684620F007018D4645
:1028F00089B500AF4FF00900FFF738FF4FF07F00B8
:10290000FFF716FFBD46BDE889408546704700BF0A
:10291000684620F007018D4689B500AF4FF00A00E8
:10292000FFF724FF4FF08000FFF702FFBD46BDE830
:1029300089408546704700BF684620F007018D46F4
:1029400089B500AF4FF00B00FFF710FF4FF081008B
:10295000FFF7EEFEBD46BDE889408546704700BFE3
:10296000684620F007018D4689B500AF4FF00C0096
:10297000FFF7FCFE4FF08200FFF7DAFEBD46BDE830
:1029800089408546704700BF684620F007018D46A4
:1029900089B500AF4FF00D00FFF7E8FE4FF0830060
:1029A000FFF7C6FEBD46BDE889408546704700BFBB
:1029B000684620F007018D4689B500AF4FF00E0044
:1029C000FFF7D4FE4FF08400FFF7B2FEBD46BDE82E
:1029D00089408546704700BF684620F007018D4654
:1029E00089B500AF4FF00F00FFF7C0FE4FF0850034
:1029F000FFF79EFEBD46BDE889408546704700BF93
:102A0000684620F007018D4689B500AF4FF01000F1
:102A1000FFF7ACFE4FF08600FFF78AFEBD46BDE82B
:102A200089408546704700BF684620F007018D4603
:102A300089B500AF4FF01100FFF798FE4FF0870007
:102A4000FFF776FEBD46BDE889408546704700BF6A
:102A5000684620F007018D4689B500AF4FF012009F
:102A6000FFF784FE4FF08800FFF762FEBD46BDE829
:102A700089408546704700BF684620F007018D46B3
:102A800089B500AF4FF01300FFF770FE4FF08900DB
:102A9000FFF74EFEBD46BDE889408546704700BF42
:102AA000684620F007018D4689B500AF4FF014004D
:102AB000FFF75CFE4FF08A00FFF73AFEBD46BDE827
:102AC00089408546704700BF684620F007018D4663
:102AD00089B500AF4FF01500FFF748FE4FF08B00AF
:102AE000FFF726FEBD46BDE889408546704700BF1A
:102AF000684620F007018D4689B500AF4FF01600FB
:102B0000FFF734FE4FF08C00FFF712FEBD46BDE824
:102B100089408546704700BF684620F007018D4612
:102B200089B500AF4FF01700FFF720FE4FF08D0082
:102B3000FFF7FEFDBD46BDE889408546704700BFF2
:102B4000684620F007018D4689B500AF4FF01800A8
:102B5000FFF70CFE4FF08E00FFF7EAFDBD46BDE823
:102B600089408546704700BF684620F007018D46C2
:102B700089B500AF4FF01900FFF7F8FD4FF08F0057
:102B8000FFF7D6FDBD46BDE889408546704700BFCA
:102B9000684620F007018D4689B500AF4FF01A0056
:102BA000FFF7E4FD4FF09000FFF7C2FDBD46BDE822
:102BB00089408546704700BF684620F007018D4672
:102BC00089B500AF4FF01B00FFF7D0FD4FF091002B
:102BD000FFF7AEFDBD46BDE889408546704700BFA2
:102BE000684620F007018D4689B500AF4FF01C0004
:102BF000FFF7BCFD4FF09200FFF79AFDBD46BDE820
:102C000089408546704700BF684620F007018D4621
:102C100089B500AF4FF01D00FFF7A8FD4FF09300FE
:102C2000FFF786FDBD46BDE889408546704700BF79
:102C3000684620F007018D4689B500AF4FF01E00B1
:102C4000FFF794FD4FF09400FFF772FDBD46BDE81D
:102C500089408546704700BF684620F007018D46D1
:102C600089B500AF4FF01F00FFF780FD4FF09500D2
:102C7000FFF75EFDBD46BDE889408546704700BF51
:102C800081F0004102E000BF83F0004330B54FEA1D
:102C900041044FEA430594EA050F08BF90EA020F8A
:102CA0001FBF54EA000C55EA020C7FEA645C7FEA1D
:102CB000655C00F0E2804FEA5454D4EB5555B8BF40
:102CC0006D420CDD2C4480EA020281EA030382EAB1
:102CD000000083EA010180EA020281EA0303362D43
:102CE00088BF30BD11F0004F4FEA01314FF4801C16
:102CF0004CEA113102D0404261EB410113F0004F28
:102D00004FEA03334CEA133302D0524263EB4303DE
:102D100094EA050F00F0A780A4F10104D5F1200E7C
:102D20000DDB02FA0EFC22FA05F2801841F10001D7
:102D300003FA0EF2801843FA05F359410EE0A5F1AB
:102D400020050EF1200E012A03FA0EFC28BF4CF0DC
:102D5000020C43FA05F3C01851EBE37101F0004592
:102D600007D54FF0000EDCF1000C7EEB00006EEB9F
:102D70000101B1F5801F1BD3B1F5001F0CD3490829
:102D80005FEA30004FEA3C0C04F101044FEA445280
:102D900012F5800F80F09A80BCF1004F08BF5FEA07
:102DA000500C50F1000041EB045141EA050130BDE7
:102DB0005FEA4C0C404141EB010111F4801FA4F18A
:102DC0000104E9D191F0000F04BF01460020B1FADF
:102DD00081F308BF2033A3F10B03B3F120020CDA17
:102DE0000C3208DD02F1140CC2F10C0201FA0CF0F5
:102DF00021FA02F10CE002F11402D8BFC2F1200C5A
:102E000001FA02F120FA0CFCDCBF41EA0C0190400F
:102E1000E41AA2BF01EB0451294330BD6FEA040458
:102E20001F3C1CDA0C340EDC04F11404C4F1200243
:102E300020FA04F001FA02F340EA030021FA04F355
:102E400045EA030130BDC4F10C04C4F1200220FAAC
:102E500002F001FA04F340EA0300294630BD21FAEA
:102E600004F0294630BD94F0000F83F4801306BFB0
:102E700081F480110134013D4EE77FEA645C18BFA4
:102E80007FEA655C29D094EA050F08BF90EA020F3B
:102E900005D054EA000C04BF1946104630BD91EA33
:102EA000030F1EBF0021002030BD5FEA545C05D136
:102EB0004000494128BF41F0004130BD14F5800475
:102EC0003CBF01F5801130BD01F0004545F0FE41E9
:102ED00041F470014FF0000030BD7FEA645C1ABF1E
:102EE000194610467FEA655C1CBF0B46024650EA55
:102EF000013406BF52EA033591EA030F41F4002181
:102F000030BD00BF90F0000F04BF0021704730B506
:102F10004FF4806404F132044FF000054FF00001DB
:102F200050E700BF90F0000F04BF0021704730B59C
:102F30004FF4806404F1320410F0004548BF404271
:102F40004FF000013EE700BF42004FEAE2014FEAC6
:102F500031014FEA02701FBF12F07F4393F07F4FA1
:102F600081F06051704792F0000F14BF93F07F4FD3
:102F7000704730B54FF4607401F0004521F0004116
:102F800020E700BF50EA010208BF704730B54FF09C
:102F900000050AE050EA010208BF704730B511F0A1
:102FA000004502D5404261EB41014FF4806404F1D9
:102FB00032045FEA915C3FF4DCAE4FF003025FEA5B
:102FC000DC0C18BF03325FEADC0C18BF033202EBE3
:102FD000DC02C2F1200300FA03FC20FA02F001FA3D
:102FE00003FE40EA0E0021FA02F11444C1E600BFDC
:102FF00070B54FF0FF0C4CF4E06C1CEA11541DBF8F
:103000001CEA135594EA0C0F95EA0C0F00F0DEF859
:103010002C4481EA030621EA4C5123EA4C5350EA3E
:10302000013518BF52EA033541F4801143F480138F
:1030300038D0A0FB02CE4FF00005E1FB02E506F020
:103040000042E0FB03E54FF00006E1FB03569CF075
:10305000000F18BF4EF0010EA4F1FF04B6F5007F7B
:1030600064F5407404D25FEA4E0E6D4146EB0606ED
:1030700042EAC62141EA55514FEAC52040EA5E5076
:103080004FEACE2EB4F1FD0C88BFBCF5E06F1ED820
:10309000BEF1004F08BF5FEA500E50F1000041EB57
:1030A000045170BD06F0004646EA010140EA020004
:1030B00081EA0301B4EB5C04C2BFD4EB0C0541EA26
:1030C000045170BD41F480114FF0000E013C00F33B
:1030D000AB8014F1360FDEBF002001F0004170BD5F
:1030E000C4F10004203C35DA0C341BDC04F1140478
:1030F000C4F1200500FA05F320FA04F001FA05F204
:1031000040EA020001F0004221F0004110EBD370D0
:1031100021FA04F642EB06015EEA430E08BF20EAFC
:10312000D37070BDC4F10C04C4F1200500FA04F39F
:1031300020FA05F001FA04F240EA020001F0004131
:1031400010EBD37041F100015EEA430E08BF20EAA4
:10315000D37070BDC4F1200500FA05F24EEA020EEC
:1031600020FA04F301FA05F243EA020321FA04F01B
:1031700001F0004121FA04F220EA020000EBD370D2
:103180005EEA430E08BF20EAD37070BD94F0000FD2
:103190000FD101F00046400041EB010111F4801F06
:1031A00008BF013CF7D041EA060195F0000F18BFB7
:1031B000704703F00046520043EB030313F4801FF3
:1031C00008BF013DF7D043EA0603704794EA0C0FAD
:1031D0000CEA135518BF95EA0C0F0CD050EA4106C3
:1031E00018BF52EA4306D1D181EA030101F0004140
:1031F0004FF0000070BD50EA410606BF1046194668
:1032000052EA430619D094EA0C0F02D150EA013673
:1032100013D195EA0C0F05D152EA03361CBF1046B4
:1032200019460AD181EA030101F0004141F0FE4153
:1032300041F470014FF0000070BD41F0FE4141F4D7
:10324000780170BD70B54FF0FF0C4CF4E06C1CEAD7
:1032500011541DBF1CEA135594EA0C0F95EA0C0F8C
:1032600000F0A7F8A4EB050481EA030E52EA033547
:103270004FEA013100F088804FEA03334FF0805568
:1032800045EA131343EA12634FEA022245EA111595
:1032900045EA10654FEA00260EF000419D4208BF46
:1032A000964244F1FD0404F5407402D25B084FEAF3
:1032B0003202B61A65EB03055B084FEA32024FF49F
:1032C00080104FF4002CB6EB020E75EB030E22BFFC
:1032D000B61A754640EA0C005B084FEA3202B6EBBC
:1032E000020E75EB030E22BFB61A754640EA5C006B
:1032F0005B084FEA3202B6EB020E75EB030E22BFFB
:10330000B61A754640EA9C005B084FEA3202B6EBFB
:10331000020E75EB030E22BFB61A754640EADC00BA
:1033200055EA060E18D04FEA051545EA16754FEA1C
:1033300006164FEAC30343EA52734FEAC2025FEA3A
:103340001C1CC0D111F4801F0BD141EA00014FF0C9
:1033500000004FF0004CB6E711F4801F04BF01439A
:103360000020B4F1FD0C88BFBCF5E06F3FF6AFAEB6
:10337000B5EB030C04BFB6EB020C5FEA500C50F146
:10338000000041EB045170BD0EF0004E4EEA1131C9
:1033900014EB5C04C2BFD4EB0C0541EA045170BDD0
:1033A00041F480114FF0000E013C90E645EA060E14
:1033B0008DE60CEA135594EA0C0F08BF95EA0C0F42
:1033C0003FF43BAF94EA0C0F0AD150EA01347FF48A
:1033D00034AF95EA0C0F7FF425AF104619462CE761
:1033E00095EA0C0F06D152EA03353FF4FDAE1046C4
:1033F000194622E750EA410618BF52EA43067FF415
:10340000C5AE50EA41047FF40DAF52EA43057FF4A4
:10341000EBAE12E770B549F2506649F25065C2F260
:103420000006C2F20005761BB61006D0002455F83F
:10343000243001349847A642F9D849F2506549F240
:103440005466C2F20005C2F20006761B06F0F4F8DC
:10345000B61006D0002455F8243001349847A6420F
:10346000F9D870BD49F28C630146C2F200031868B6
:1034700003F0BEBB49F28C630146C2F20003186838
:1034800000F000B82DE9F04F01F10B04162C83B0C9
:1034900006462FD8002310248C422CBF194643F037
:1034A0000101002930D1304600F0F0FBB4F5FC7F7B
:1034B0002ED24FEAD40E49F28075C2F2000505EB18
:1034C000CE02D368934200F006825A6803F10805E1
:1034D000D968304622F0030C9A6863445C688A60BD
:1034E00044F00104D1605C6000F0D2FB284603B0D8
:1034F000BDE8F08F24F00704E30F8C422CBF19467F
:1035000043F001010029CED00C2300253360EDE704
:103510005FEA542E04BF4FEAD40E4FEACE0040F0CB
:10352000908049F28075C2F200052818C36898425D
:1035300006D10DE0002A80F26F81DB68984207D047
:10354000596821F003010A1B0F2AF3DD0EF1FF3E3B
:103550000EF1010E49F28077C2F2000707F108016F
:103560008B68994208BF7A6826D05A6822F0030C0B
:10357000C4EB0C020F2A00F39481002AC960896011
:1035800080F29980BCF5007F80F065814FEADC0C09
:103590004FF0010A7A6807EBCC004FEAAC0C0AFA4C
:1035A0000CFCD860D0F808804CEA02027A60C3F8BC
:1035B0000880C8F80C3083604FF0010C4FEAAE036E
:1035C0000CFA03FC944500F2828012EA0C0F08D139
:1035D0002EF0030E4FEA4C0C0EF1040E12EA0C0F03
:1035E000F8D007EBCE09F246C846D8F80C3098451B
:1035F00007D168E1002A80F27881DB68984500F005
:103600006281586820F00300021B0F2AF2DD1D467C
:103610001F19D3F80CC044F0010E55F8084F30467E
:10362000BA5042F00102C3F804E0CCF80840C4F8F4
:103630000CC08F60CF607A60B960F96000F028FB41
:1036400054E7BEF1040F9EBF4FEA941E0EF1380EF0
:103650004FEACE007FF665AFBEF1140F9CBF0EF1AE
:103660005B0E4FEACE007FF65CAFBEF1540F9EBFFB
:103670004FEA143E0EF16E0E4FEACE007FF651AFC8
:10368000BEF5AA7F9EBF4FEAD43E0EF1770E4FEAF9
:10369000CE007FF646AF40F254539E4595BF4FEAA9
:1036A000944E4FF47C700EF17C0E4FF07E0E98BF5E
:1036B0004FEACE0035E703EB0C0203F10805304674
:1036C000536843F00103536000F0E2FA0EE7D7F8C5
:1036D0000880D8F8043023F00309C4EB09024C45F4
:1036E00094BF002301230F2AD8BF43F00103002B0E
:1036F00000F0A18049F6EC3BD5F80824C2F2000B9B
:10370000DBF8003010331B19B2F1FF3F06D003F590
:103710007E631F3323F47E6323F01F031946304674
:10372000019300F02DFB019BB0F1FF3F824600F0BA
:10373000F48008EB0901814200F2EC80DBF8042000
:103740009A185145CBF8042000F04581D5F808546B
:1037500049F28070C2F20000B5F1FF3F08BFC0F827
:1037600008A403D05244511ACBF804101AF00705EC
:10377000304617BFC5F108054FF48055AA4405F53A
:10378000805553441B051B0DED1A294600F0F8FA2D
:10379000B0F1FF3F00F02C81CAEB0001491941F064
:1037A0000101DBF8042049F6EC33C7F808A0C2F2A7
:1037B0000003AA18B845CBF80420CAF8041017D0A3
:1037C000B9F10F0F40F2DF80A9F10C01052521F0BE
:1037D000070108EB01000F2985604560D8F8040057
:1037E00000F0010041EA0000C8F8040000F2AC80DB
:1037F000D04649F6EC33DBF82C10C2F200038A42C3
:10380000DBF8301088BFDA6249F6EC33C2F200030D
:103810008A4288BF1A6382E05C189A68D968304689
:10382000666803F108058A6046F00103D1606360B1
:1038300000F02EFA5AE608EB040342F0010244F0CD
:1038400001043046C8F8044008F108055A60BB601E
:1038500000F01EFA4AE64FEA5C22042A54D9142AE0
:1038600000F289805B324FEAC208A84449F28077AF
:10387000C2F20007D8F80800404503D16FE0806825
:10388000804504D0426822F003029445F7D3D0F873
:103890000CC0C3F80CC098607A68C360CCF80830DC
:1038A0008AE61F19304644F00104CF605C6003F1E2
:1038B0000805BA5042F001028F607A60B960F96081
:1038C00000F0E6F912E60AF1010A1AF0030F5FD0E0
:1038D00003F1080889E603F10802D3689A4208BF99
:1038E0000EF1020E3FF436AEEFE51D461918DA6808
:1038F000304655F8083F4C68936044F00104DA60A4
:103900004C6000F0C5F9F1E54FEA9C1238324FEAFD
:10391000C208AAE7B8453FF411AFD7F80880D8F835
:10392000042022F00302944294BF00230123121BBF
:103930000F2AD8BF43F00103002B3FF47CAF304681
:10394000002500F0A5F9D1E508F108013046019302
:1039500003F04EF9019BD7F808805A6849E74FF009
:10396000010AD7F80480921084460AFA02F248EA63
:1039700002027A608DE7542A24D84FEA1C326E3254
:103980004FEAC20871E70123D046CAF80430C6E7FF
:103990004A461EF0030F13460EF1FF3E33D053F894
:1039A00008299A42F5D07B684FEA4C0C9C453FF6BB
:1039B0008EAEBCF1000F3FF48AAE1CEA030F27D095
:1039C000D6460EE6B2F5AA7F15D84FEADC3277323A
:1039D0004FEAC20849E70805000D00287FF4B6AE9B
:1039E000D7F808804B4443F00103C8F8043000E7DF
:1039F00001210025D5E640F2545082420DD94FF402
:103A00007C787E2231E77B6823EA0C037B60CBE77E
:103A10004FEA4C0C0AF1040ACFE74FEA9C427C3291
:103A20004FEAC20821E700BF032A2DE9F0070BD8AF
:103A30003AB1002311F803C000F803C001339342E8
:103A4000F8D1BDE8F007704782180C46034603E042
:103A500014F8011C03F8011C03F003061946A446E0
:103A600001330134002EF3D11CF00304634608BF78
:103A7000C1EB020C68D06542C4F1040A0CEB0507E7
:103A800033464FEACA0A5CF805604FEAC408551A83
:103A900008E057F8044F264604FA0AF449EA0404F9
:103AA000CC5004335C18032D26FA08F9A5F104055F
:103AB0000CEB0306EDDC002302E0F15CE154013382
:103AC00019199142F9D3BCE753F8404C41F8404CE6
:103AD00053F83C4C41F83C4C53F8384C41F8384CC6
:103AE00053F8344C41F8344C53F8304C41F8304CD6
:103AF00053F82C4C41F82C4C53F8284C41F8284CE6
:103B000053F8244C41F8244C53F8204C41F8204CF5
:103B100053F81C4C41F81C4C53F8184C41F8184C05
:103B200053F8144C41F8144C53F8104C41F8104C15
:103B300053F80C4C41F80C4C53F8084C41F8084C25
:103B400053F8044C41F8044C1C460D4640334031B8
:103B5000BCF13F0FACF1400CB6DC21462B46541BA8
:103B60000FE051F8105C43F8105C51F80C5C43F81E
:103B70000C5C51F8085C43F8085C51F8045C43F8AD
:103B8000045C0F2C0D469C4601F1100103F110035B
:103B9000A4F11004E5DCCCEB0201002303E0EC58B7
:103BA0004CF8034004335E19032903EB0C04A1F124
:103BB0000401F4DC7FE700BF032AC9B230B407D8A0
:103BC00022B10023C15401339342FBD130BC704772
:103BD00000EB020C034601E003F8011C03F00304B0
:103BE0001A460133002CF7D14FF00133C2EB0C041D
:103BF00003FB01F31FE042F8403C42F83C3C42F832
:103C0000383C42F8343C42F8303C42F82C3C42F814
:103C1000283C42F8243C42F8203C42F81C3C42F844
:103C2000183C42F8143C42F8103C42F80C3C42F874
:103C3000083C42F8043C154640323F2CA4F14004B5
:103C4000D9DC2A46C5EB0C0407E042F8103C42F8E8
:103C50000C3C42F8083C42F8043C154610320F2C4C
:103C6000A4F11004F1DC2A46C5EB0C0501E042F892
:103C7000043C14460432032DA5F10405F7DC01E0F1
:103C800004F8011B6445FBD3A0E700BF704700BFE9
:103C9000704700BF0FB449F28C63C2F2000310B545
:103CA0001C6882B024B1A36913B9204602F01CFF3E
:103CB000204605AC049A23468168019400F0B2F8CE
:103CC00002B0BDE8104004B0704700BF0EB410B59C
:103CD000044683B018B183690BB902F005FF204692
:103CE00006AC059A23468168019400F09BF803B066
:103CF000BDE8104003B0704730B5044689B00846AF
:103D00000D4600F051F849F2F0330195C2F200037C
:103D100003930290431C07930123049301AB059383
:103D2000022306930CB1A369EBB149F28C632046E0
:103D3000C2F200031B689B689A8912F4005F01BFFE
:103D400042F400529A81596E21F40052A16808BFD2
:103D50005A6605AA03F02CF8002814BF4FF0FF3074
:103D60000A2009B030BD204602F0BEFEDDE700BFEC
:103D700049F28C630146C2F200031868BCE700BF39
:103D800038B549F68054C2F20004054608460023BF
:103D90002360FDF741FAB0F1FF3F00D038BD236842
:103DA000002BFBD02B6038BD20F0030110F0030086
:103DB000C0F1000051F8043B00F1040C4FEACC0CB8
:103DC0006FF000021CBF22FA0CF213434FF0010CFB
:103DD0004CEA0C2C4CEA0C4CA3EB0C0222EA03023A
:103DE00012EACC1204BF51F8043B0430F4D013F0B3
:103DF000FF0F1FBF013013F47F4F013013F47F0F0B
:103E000018BF0130704700BF936810B5144613B94E
:103E10005360184610BD02F0CBFF00236360A3601F
:103E200010BD00BF2DE9F04FADF5AE6D83B00E466D
:103E300015469A46814603F0ABF900681D90B9F12A
:103E4000000F04D0D9F81830002B00F05A8149F245
:103E50006843C2F200039E4208BFD9F8046010D044
:103E600049F28843C2F200039E4208BFD9F80860B5
:103E700007D049F2A843C2F200039E4208BFD9F816
:103E80000C60B6F80CC01FFA8CF313F4005F09D174
:103E90004CF4005C726EA6F80CC01FFA8CF322F48E
:103EA0000052726613F0080F01F001833269002A94
:103EB00001F0FD8203F01A030A2B00F0E0800022DB
:103EC00012921A9200231C920DF59C6411920434F4
:103ED00019920DF5A4621B9304320DF590632832FC
:103EE0000333189207930023CDF84C45CDF8503595
:103EF000CDF854352B781A1E18BF0122252B0CBF84
:103F0000002202F0010232B32F4617F8013F1A1EB9
:103F100018BF0122252B0CBF002202F00102002A4B
:103F2000F3D1B7EB050808BF3D4614D0C4F80480B0
:103F3000DDF85035DDF8542501332560072B424468
:103F4000CDF85035CDF8542578DC083411983D462D
:103F5000404411903B78002B7CD06B1C4FF0FF3716
:103F60002B204FF0200C00214FF000020F918DF814
:103F70007725CDF82CA06A780A915D1CA2F1200368
:103F8000582B00F28682DFE813F098028402840244
:103F9000A402840284028402840284028402AD02A8
:103FA000BA028402C102CA028402E702F002F002ED
:103FB000F002F002F002F002F002F002F0028402DD
:103FC00084028402840284028402840284028402C1
:103FD00084020403260384022603840284028402EA
:103FE00084026A03840284028104840284028402BB
:103FF000840284021404840284022F048402840252
:104000008402840284028402840284028402840280
:104010004F04650426032603260373036504840204
:1040200084027903840285039603AD030A048402A3
:10403000CC038402F40384028402C0000DF5A8625C
:10404000484631460C32FFF7DFFE58B90DF59C6447
:1040500004347BE7DDF85435002B41F092810023D6
:10406000CDF85035B38913F0400F02D04FF0FF3038
:10407000119011985FB00DF5806DBDE8F08FB6F925
:104080000E30002BFFF61BAF376A2CF0020CD6F86F
:1040900028E00DF58E64ADF888C40C34B6F80EC077
:1040A0002A465346484621461FADCDF89C7400274A
:1040B000CDF88C54CDF87C544FF48065CDF8A4E451
:1040C000ADF88AC4CDF89054CDF89474CDF88454EA
:1040D000FFF7A8FE0028119009DB2146484602F0B0
:1040E00093FB1199B84218BF4FF0FF311191BDF801
:1040F000883413F0400FBCD0B38943F04003B38140
:10410000B7E7484602F0F0FCA1E60A9849F2384CBD
:10411000C2F2000C169210F0200FCDF864C000F02F
:104120006E830B99CB1D23F0070303F108020B925A
:10413000D3E900AB5AEA0B020A9B0CBF0022012212
:10414000134240F06B8602234FF000018DF8771583
:10415000002FA2BFDDF828C02CF0800CCDF828C0BD
:10416000002F18BF42F00102002A00F01E84012B2C
:1041700000F0DE85022B00F0C185189913914FEAFB
:10418000DA084FEADB0C48EA4B780AF00700E3460E
:10419000C24630305AEA0B0201F8010DEFD1DDF8CA
:1041A00028C013911CF0010F40F08C861898401A1B
:1041B00010909DF87735109A1797BA42B8BF3A46D3
:1041C0000C9213B10C9A01320C920A9B0A9813F0CC
:1041D000020315931EBFDDF830C00CF1020CCDF8C0
:1041E00030C010F0840014904DD10F990C9A8F1AA2
:1041F000002F48DD102F49F2F438D8BFC2F2000872
:1042000030DDC2F200080DF5A86B43464FF0100AEE
:10421000A8460BF10C0B1D4602E0103F102F1EDDCF
:10422000C4F804A0DDF85035DDF8542501332560CD
:104230001032072BCDF8542504F10804CDF8503581
:10424000EBDD0DF59C64484631465A460434FFF7D1
:10425000DBFD00287FF406AF103F102FE0DC2B467B
:10426000454698466760DDF85035C4F800805A1C12
:10427000DDF85435CDF85025DB19072ACDF8543533
:1042800000F38A8508349DF877359BB1012363607C
:10429000DDF850350DF5AE6207322260DDF85425A9
:1042A0000133CDF850350132072BCDF8542500F3FA
:1042B000B6840834159B9BB102236360DDF850354A
:1042C0000DF5AE6204322260DDF854250133CDF8DD
:1042D00050350232072BCDF8542500F3AF84083453
:1042E000DDF850C0BCF1800F00F07683179B109A68
:1042F0009F1A002F43DD102FDFF88C8B2EDD4346F5
:104300000DF5A86BA8464FF0100A0BF10C0B1D46DB
:1043100002E0103F102F1EDDC4F804A0DDF8503578
:10432000DDF85425013325601032072BCDF85425D4
:1043300004F10804CDF85035EBDD0DF59C644846DA
:1043400031465A460434FFF75FFD00287FF48AAEF9
:10435000103F102FE0DC2B46454698466760DDF89D
:104360005035DDF854250133C4F80080D219072BED
:10437000CDF85425CDF8503500F342840834DDF8EB
:1043800028C01CF4807F40F09D82109813996060D3
:10439000DDF85035DDF85425013321601218072B64
:1043A000CDF85035D8BF04F10803CDF8542500F3FB
:1043B0009B830A9911F0040F55D00F9ADDF830C095
:1043C000CCEB0207002F4EDD102F49F2F438D8BF96
:1043D000C2F200082EDDC2F200080DF5A86A4246BE
:1043E0001024A8460AF10C0A154602E0103F102FCF
:1043F0001DDD5C60DDF85025DDF8541501321D60CF
:104400001031072ACDF8541503F10803CDF85025D3
:10441000ECDD484631465246FFF7F6FC0DF59C634D
:10442000043300287FF41EAE103F102FE1DC2A4633
:10443000454690465F60DDF85025C3F80080DDF802
:1044400054350132CDF85025FB18072ACDF85435E4
:104450000BDD0DF5A862484631460C32FFF7D4FC5F
:1044600000287FF4FFADDDF8543511980C9A0F99B0
:104470008A42ACBF801840181190002B40F0428354
:104480000DF59C640023DDF82CA00434CDF85035E4
:1044900030E51692002A3FF4DDAD0DF5A46001234E
:1044A0004FF0000C04300C938DF824258DF877C55F
:1044B000139010930021179187E69DF87735002B14
:1044C00040F02B850B992B468DF877C52A780B91F8
:1044D00053E50B990A9B43F001030A932B462A7874
:1044E0000B914AE50B990B9A09680F91111D0F9BCF
:1044F000002BC0F280872A782B460B913DE50B9963
:104500002B468DF877052A780B9136E50B990A9B97
:1045100043F004030A932B462A780B912DE52B4692
:1045200013F8012B2A2A01F0CD80A2F130010929CC
:1045300001F237800235002715F8012C07EB8707B9
:104540002B46013501EB4707A2F130010929F3D9C8
:1045500047EAE7771D4611E50B992B460A9A42F088
:1045600080020A922A780B9107E5A2F130014FF000
:1045700000082B4608EB880813F8012B01EB4808CC
:10458000A2F130011D460929F3D9CDF83C801D4622
:10459000F4E40A9B169243F010030A93DDF828C056
:1045A0001CF0200F00F05D810B98C31D23F0070362
:1045B00003F108010B91D3E900ABBAF1000F7BF1D5
:1045C0000002C0F29B845AEA0B034FF001030CBFB8
:1045D00000220122BCE50A98169210F0080F00F0A4
:1045E000ED840B99CB1D23F0070303F108020B9216
:1045F000D3F80480D3F800A0CDF86C80CDF848A0A3
:104600005046414603F082FD8346002800F099851C
:10461000504600220023414604F06CF9002840F087
:104620000B859DF8773549F22C4149F228421698BE
:10463000C2F20001C2F200024FF0030C4728D8BFBB
:10464000114613910A99CDF830C021F08001CDF8C0
:1046500040C00A914FF0000CCDF85CC0B1E50B9959
:104660000A9B43F008030A932B462A780B9184E4B3
:104670000A9941F040010A910B993CE72A786C2A8B
:1046800000F055850B990A9B0B9143F010030A9398
:104690002B4672E40A9A12F0200F00F082840B98E5
:1046A000119A036810464FEAE0710B9AC3E90001C2
:1046B00002F1040A1EE416920A9A12F0200300F096
:1046C000EF800B9BDA1D002322F0070202F1080C99
:1046D000CDF82CC0D2E900AB5AEA0B000CBF002287
:1046E000012231E50B987821DDF828C01691036886
:1046F00049F238408DF8751530218DF874154CF05D
:10470000020C0B991A1E18BF0122C2F200009A4631
:104710004FF0000B0431CDF828C0199002230B9103
:1047200012E50B9B16924FF00002181D8DF87725AD
:104730001B680B901393002B00F0C686002F139874
:10474000C0F28F8600213A4602F0C4FD03460028DD
:1047500000F0F58613981B1A1093BB4240F3BE85F8
:104760001097002127EAE7779DF877350C97179186
:1047700027E5DDF828C016921CF0200F23D00B98F7
:104780000123C21D22F0070202F108010B91D2E9B8
:1047900000AB5AEA0B020CBF00220122D4E40A99B2
:1047A0002B4641F020010A910B992A780B91FFF7D3
:1047B000E4BB0A9B169243F010030A93DDF828C06D
:1047C0001CF0200FDBD10A9B13F0100F00F0D583F3
:1047D0000B980123021D0B9201680A1E18BF0122CB
:1047E0008A464FF0000BAFE40A98169249F2144241
:1047F00010F0200FC2F2000219927FF492AC0A9BD3
:1048000013F0100F40F01A830A9A12F0400F00F0D4
:1048100015830B9B03F1040CCDF82CC0B3F800A05A
:10482000D2464FF0000B85E416920DF5A4610B9A69
:104830004FF0010C4FF000000431CDF830C0136888
:1048400004328DF877050B921391CDF840C08DF8A6
:1048500024352FE6DDF828C016921CF0200F7FF4D7
:10486000A3AE0A9A12F0100F40F0F1820A9A12F0E9
:10487000400F00F0EC820B9B03F1040CCDF82CC030
:10488000B3F900A0D2464FEAEA7B96E60A9916925F
:1048900041F010010A910A9A12F020037FF411AF3F
:1048A0000A9911F0100200F054830B9A02F1040CE3
:1048B000CDF82CC011680A1E18BF01228A464FF09D
:1048C000000B41E4169A652A40F3288112980022D1
:1048D00000231B9904F004F8002800F0BE81012396
:1048E0006360DDF8502549F25443C2F200032360AF
:1048F000DDF854350132CDF850250133072ACDF8C3
:104900005435D8BF04F1080300F39B83DDF870250C
:104910001A98824204DB0A9911F0010F3FF449AD65
:1049200001225A60DDF85025DDF8541501321D983A
:104930000131072ACDF854151860CDF8502500F341
:104940005F8508331A994F1E002F7FF732AD102F65
:10495000DFF8348540F3EA8242460DF5A86AA8469E
:1049600010240AF10C0A154603E0103F102F40F303
:10497000DA825C60DDF85025DDF8541501321D60E7
:104980001031072ACDF8541503F10803CDF850254E
:10499000EBDD484631465246FFF736FA0DF59C638B
:1049A00004330028E1D0FFF75DBB7BB90A9911F011
:1049B000010F0BD00DF5A462302304328DF84B3576
:1049C0002732012313921093FFF7F3BB18980021AD
:1049D00010911390FFF7EDBB0F980C99471A002F19
:1049E0007FF784AC102FDFF8A0842EDD43460DF551
:1049F000A86BA8464FF0100A0BF10C0B1D4602E005
:104A0000103F102F1EDDC4F804A0DDF85035DDF88E
:104A10005425013325601032072BCDF8542504F1BD
:104A20000804CDF85035EBDD0DF59C644846314661
:104A30005A460434FFF7E8F900287FF413AB103F1F
:104A4000102FE0DC2B46454698466760DDF8503570
:104A5000C4F800805A1CDDF85435CDF85025DB1918
:104A6000072ACDF8543500F33A8208343EE413990E
:104A70006360DDF850252160DDF854150132CDF872
:104A80005025CB18072ACDF8543500F34985083452
:104A90001D9A0123DDF870756360DDF850352260E2
:104AA000DDF854250133CDF850350132072BCDF810
:104AB0005425D8BF04F1080300F323851398DDF8CB
:104AC0007025C7191A981F60811A5960DDF85415AE
:104AD0008A1ADDF850151218CDF854250131CDF899
:104AE0005015072940F332820DF5A8624846314639
:104AF0000C32FFF789F900287FF4B4AA0DF59C6306
:104B0000043356E40DF5A862484631460C32FFF7EF
:104B10007BF900283FF4B4ACFFF7A4BA1A99012935
:104B20004CDD01236360DDF85035DDF85425013399
:104B300013980132072BCDF854252060CDF850355D
:104B400000F3B281083401236360DDF85035DDF8ED
:104B5000542501331D990132072BCDF854252160CE
:104B6000CDF8503500F392810834129800220023CA
:104B70001B9903F0B5FE002840F01D811A9B139885
:104B80005A1E6260DDF85035411C2160DDF8541575
:104B90000133CDF850358A18072BCDF8542521DC88
:104BA00008341C9B0DF5AC621C9822606360DDF834
:104BB0005035DDF854250133FFF7F0BB0A9A12F0A7
:104BC000010FAED1139A01236360DDF850352260E6
:104BD000DDF854250133CDF850350132072BCDF8DF
:104BE0005425DDDD0DF5A862484631460C32FFF74D
:104BF0000BF900287FF436AA0DF59C640434D0E745
:104C00000DF5A862484631460C32FFF7FDF8002842
:104C10007FF428AA0DF59C640434FFF7B0BB0DF5B2
:104C2000A862484631460C32FFF7EEF800287FF4C0
:104C300019AA0DF59C640434FFF73CBB0DF5A8627E
:104C4000484631460C32FFF7DFF800287FF40AAA05
:104C50000DF59C640434FFF743BBDDF87035002B81
:104C600040F3FD811A998B42FFF601AF139A616000
:104C7000DDF850352260DDF854250133CDF850358C
:104C80005218072BCDF85425D8BF04F1080300F3C0
:104C90002984DDF870451A98241A002C40F3B3815A
:104CA000102CDFF8E48140F39D8142460DF5A86A9F
:104CB000A84610270AF10C0A154603E0103C102CF8
:104CC00040F38D815F60DDF85025DDF85415013229
:104CD0001D601031072ACDF8541503F10803CDF8F3
:104CE0005025EBDD484631465246FFF78DF80DF56D
:104CF0009C6304330028E1D0FFF7B4B9189A1998DF
:104D0000134613920AF00F024FEA1A1141EA0B718F
:104D10004FEA1B1C825C8A46E3465AEA0B0C03F8F6
:104D2000012DEFD118981393C01A1090FFF741BAD4
:104D300009220023524573EB0B00DDF860801FD27F
:104D400023464446B8461F46504659460A22002389
:104D500003F020FE00235046594602F1300C0A228F
:104D600004F801CD03F016FE0922002382468B468B
:104D7000524573EB0B03E7D33B464746A0461C4620
:104D800008F1FF300AF1300A139008F801AC1899C5
:104D9000091A1091FFF70DBA0DF5A8624846314681
:104DA0000C32FFF731F800287FF45CA90DF59C6404
:104DB0000434FFF768BA1A994F1E002F7FF7F1AE3F
:104DC000102FDFF8C4804EDD43460DF5A86BA846D2
:104DD0004FF0100A0BF10C0B1D4602E0103F102F94
:104DE0003EDDC4F804A0DDF85035DDF8542501336C
:104DF00025601032072BCDF8542504F10804CDF8B6
:104E00005035EBDD0DF59C64484631465A46043476
:104E1000FEF7FAFF0028E1D0FFF724B916983021F9
:104E2000DDF828C0012202238DF874154CF0020C25
:104E30008DF87505CDF828C0FFF786B90B98011DD0
:104E400003680B919A464FF0000BFFF773B90B986C
:104E5000011D03680B919A464FEAEA7BFFF7ADBB51
:104E60002B46454698466760DDF85035DDF85425F9
:104E70000133C4F80080D219072BCDF85425CDF8A2
:104E800050357FF78DAEADE6049400200DF5A86295
:104E9000484631460C32FEF7B7FF00287FF4E2A8FF
:104EA0000DF59C64043460E60DF5A8624846314671
:104EB0000C32FEF7A9FF00287FF4D4A80DF59C64FE
:104EC000043440E6302800F0EC821398302300F8D8
:104ED000013D18991390091A1091FFF76AB90DF561
:104EE000A862484631460C32FEF78EFF00287FF458
:104EF000B9A80DF59C640434FFF7F8B9DAF1000A9B
:104F00006BEB4B0B2D235AEA0B0C8DF877350CBF4E
:104F1000002201220123FFF71BB90B992B462A78A7
:104F20000B91FFF72AB82A46454690465F60DDF8A8
:104F30005025DDF854150132C3F80080C919072A3D
:104F4000CDF85415CDF850253FF7CEAD0833FFF717
:104F500030BA0A9810F0400300F0ED810B99134627
:104F60000A1D0B92B1F800A0BAF1000218BF01228D
:104F7000D2464FF0000BFFF7E7B80A9B13F0400F43
:104F800000F0CC810B980123011D0B91B0F800A01B
:104F9000BAF1000218BF0122D2464FF0000BFFF712
:104FA000D3B80A9B13F0100F00F0A4810B9811994D
:104FB00000F1040A03681960FEF79CBF0B98C31D3B
:104FC00023F0070303F108010B91D3F80480D3F811
:104FD00000A0CDF86C80CDF848A0FFF711BB2A46A1
:104FE000454690465C60DDF85025DDF854150132E9
:104FF000C3F800800919072ACDF85415CDF85025BB
:1050000000F3EA8208330A9911F0010F3FF4D1A9A5
:1050100001225A60DDF85025DDF8541501321D9843
:105020000131072ACDF854151860CDF850253FF707
:105030005BAD0833FFF7BDB92D238DF87735FFF74A
:10504000F2BA0DF5A862484631460C32FEF7DCFE96
:1050500000287FF407A80DF59C63043356E4012370
:105060006360DDF8502549F25443C2F20003236027
:10507000DDF854350132CDF850250133072ACDF83B
:105080005435D8BF04F1080300F38781DDF870259B
:105090003AB91A9A2AB9DDF828C01CF0010F3FF47A
:1050A00088A901225A60DDF85025DDF85415013237
:1050B0001D980131072ACDF854151860CDF85025F8
:1050C00000F379810833DDF870757F42002F40F3DB
:1050D000B381102FDFF8508640F3D28142460DF5A0
:1050E000A86AA84610240AF10C0A154603E0103FEE
:1050F000102F40F3C2815C60DDF85025DDF85415B7
:1051000001321D601031072ACDF8541503F1080350
:10511000CDF85025EBDD484631465246FEF774FE89
:105120000DF59C6304330028E1D0FEF79BBF0B997B
:105130006B1C0A9A42F020020A926A780B91FEF7E1
:105140001CBF5046414602F0F3FF002840F0FF80AC
:10515000B7F1FF3F00F051821698672814BF002373
:105160000123472808BF43F0010313B1002F08BFF4
:1051700001270DF5AB60434652460A99C0E900236A
:10518000DDF85C3541F480710A91002BC0F2648235
:10519000002117911698662814BF00230123462882
:1051A00008BF43F001031093002B00F0D181BC46EF
:1051B0000323CDF830A00DF5AE61CDF8348048461C
:1051C000009302910DF5AC61DDE90C230C31CDF8B3
:1051D00004C003910DF5AD61CDF824C0049100F039
:1051E000C7FB169ADDF824C0B2F1670318BF01238C
:1051F000472A0CBF002303F00103139033B90A9B25
:1052000013F0010F08BFDDF868B516D01398109998
:1052100000EB0C0B31B10378302B00F0DA80DDF8B5
:1052200070359B44504600220023414603F058FB52
:10523000002800F0C281CDF868B5169A1398672A45
:1052400014BF00230123472A08BF43F00103C0EB2A
:105250000B001A90002B00F08A81DDF8701511F117
:10526000030F109102DB8F4280F28C81169A023A72
:1052700016921099169A4B1ECDF87035002B8DF8AA
:105280006025C0F234822B228DF86125092B00F3B2
:10529000B6810DF5AC62303304328DF863353023BE
:1052A0008DF862350DF5AC631A981A99D31A18184F
:1052B0001C930129109040F3108210980130109037
:1052C00020EAE0710C911798002800F06E812D23E0
:1052D00000218DF877351791FEF774BF109A4FF0C3
:1052E000000C9DF8773522EAE272CDF85CC00C9292
:1052F000FEF767BF0A9A12F0400F17BF0B980B9A80
:10530000119900F1040A11BF036802F1040A13683D
:10531000119814BF19801860FEF7ECBD0B9A131D8D
:105320000B93116801230A1E18BF01228A464FF011
:10533000000BFEF709BF0B98021D0B9201680A1EB5
:1053400018BF01228A464FF0000BFEF7FDBE49F25E
:10535000344249F230431699C2F20003C2F200020D
:1053600003204729D8BF1A4613920A9A0C9022F0BC
:105370008002CDF85CB00A929DF877351090FEF768
:1053800020BF0DF5A862484631460C32FEF73CFDC1
:1053900000287EF467AEFEF762BE0DF5A8624846AF
:1053A00031460C32FEF730FD00287EF45BAE0DF581
:1053B0009C6304336AE60DF5A862484631460C3218
:1053C000FEF722FD00287EF44DAE0DF59C630433FC
:1053D00079E65046002200234146CDF824C003F070
:1053E0007FFADDF824C000287FF419AFCCF1010367
:1053F000CDF8703515E70F9A52420F92FFF787B834
:105400000DF5A862484631460C32FEF7FDFC002837
:105410007EF428AE0DF59C630433FFF793BA0DF5C7
:10542000A862484631460C32FEF7EEFC00287EF4B6
:1054300019AE0DF59C6304331A9913985960DDF881
:105440005025DDF85415186001321A98CDF8502512
:105450000918072ACDF854153FF746AB0833FEF775
:10546000A8BF00211791FEF79FFC9DF8773520EA31
:10547000E07210900C92FEF7A4BE2A464546904674
:105480005F60DDF85025DDF854150132C3F8008067
:10549000C919072ACDF85415CDF85025BFDC0833BB
:1054A000CAE7189A1399511A1091FEF782BE48461E
:1054B000314600F049F900287EF4D8ADB6F80CC0AA
:1054C0001FFA8CF3FEF7F6BC062F28BF062749F219
:1054D0004C41C2F2000127EAE772109713910C9237
:1054E000FEF7E8BF0DF5A862484631460C32FEF7DC
:1054F0008BFC00287EF4B6AD0DF59C630433FFF7FA
:10550000C8BB0DF5A862484631460C32FEF77CFC5C
:1055100000287EF4A7AD0DF59C630433FFF7CEBAE7
:105520000DF5A862484631460C32FEF76DFC0028A6
:105530007EF498AD0DF59C640434FFF7A9BA10977A
:1055400027EAE77717900C979DF87735FEF739BE75
:105550001699652914BF00230123452908BF43F08C
:105560000103002B46D007F1010C022321E6169B14
:10557000652B76DD169A662A1CBFDDF87035109310
:1055800000F083801A9B109883426EDC0A9911F018
:10559000010F40F08E8020EAE07267230C92169390
:1055A00091E600271D46FEF7E9BC10999DF8773576
:1055B00021EAE1710C91FEF704BEDDF868359B45E8
:1055C00098BF9B467FF639AE302203F8012B9B45EE
:1055D000CDF86835F9D830E60DF5A8624846314671
:1055E0000C32FEF711FC00287EF43CAD0DF59C63F7
:1055F000043308E5BC460233DBE50737B9E546F27C
:10560000676C0DF590610331C6F2666C8CFB03206C
:10561000DA17C2EBA00202EB8200A3EB40001346B4
:105620003030092A01F8010DF0DC3033481EDAB2BF
:1056300001F8012C079B83426AD90DF5AC63033353
:1056400001E011F8012B03F8012C1A46DDF81CC00B
:1056500001338C45F5D825E62D2208F10048179234
:1056600098E5DDF87005109003E6109B1A99002B61
:10567000DABF1098C0F1020301235B186722109370
:1056800023EAE37316920C931DE6DDF870050028FB
:10569000109031DD1FB90A9911F0010F0ED010984A
:1056A00066211691431CDB19109323EAE3720C92D6
:1056B00009E61098672116910130109020EAE072F7
:1056C0000C9200E60B991A780F6804310B91002FA9
:1056D000B8BF4FF0FF37FEF750BC0A9A12F0010F27
:1056E00004BF20EAE0730C933FF4EDADE5E52D2215
:1056F0005B428DF86125C9E577B90A9B13F0010F6C
:105700000AD14FF0010CCDF830C0CDF840C0DAE539
:105710000DF5AC620232C5E50237662127EAE77271
:10572000109716910C92CEE50494002010B449F223
:105730008C64C2F200048C4613460146624620681F
:1057400010BCFEF76FBB00BF70B549F28C65C2F2AA
:10575000000506460C46286810B18369002B36D038
:1057600049F26843C2F200039C4238D049F28843B0
:10577000C2F200039C4241D049F2A843C2F20003A6
:105780009C4204BF2B68DC68A289114693B213F0D7
:10579000080F184618BF226933D01AB313F001015D
:1057A00007D063690021A1605B42A36142B1002080
:1057B00070BD13F0020F08BF6169A160002AF6D125
:1057C000A38913F0800FF2D04FF0FF3070BD01F0CD
:1057D0008BF949F26843C2F200039C42C6D12B68A0
:1057E0005C68D1E703F42071B1F5007FD6D0304674
:1057F000214601F001FDA3892269CFE72B689C684F
:10580000C2E713F0100FDFD013F0040F08BF2269B6
:1058100017D0616B51B104F14403994203D0304673
:1058200001F0E6F9A28990B20023636322694FF682
:10583000DB71C0F20001002300EA01016360A18175
:10584000226041F00803A3819BB2A6E7000000009C
:105850002DE9F84F03690E69824689469E4200F39E
:105860008380F21C01F1140500F11404013E920042
:105870008B18121803F1040859685068013102F0BE
:105880009BFE0746002839D000239C461A46E9585B
:10589000E0581FFA81FE4FEA114B81B20EFB07CE92
:1058A00051180BFB07FC0CEB1E4C1FFA8EFECEEBC7
:1058B00001011FFA8CF24FEA1C4CC2EB10421FFA96
:1058C00081FE02EB21424EEA0241E1500433121400
:1058D00059198845DBD2321D0AEB8203596869B930
:1058E0009C4209D25AF8222012B105E01A681AB96E
:1058F000043B013E9C42F9D3CAF810604946504629
:1059000001F0D0FD00282CDB002301379C46EA582B
:10591000E05891B2120C1FFA80F9C2EB1042C1EBB1
:105920000901614402EB214289B241EA0241E1509E
:1059300004334FEA224C5A199045E8D2321D0AEB43
:105940008203596869B99C4209D25AF8222012B1DF
:1059500005E01A681AB9043B013E9C42F9D3CAF823
:1059600010603846BDE8F88F0020BDE8F88F00BF12
:105970002DE9F04F466AA1B00446904699462D9D08
:10598000002E00F02384326882B1616A4FF0010C6E
:10599000766820460B6856604A6819460CFA02F28F
:1059A0009A6001F0B9FE636A00221A60B9F100063C
:1059B00038DB00232B6040F20003C7F6F0731A4671
:1059C00006EA0303934217D00022002340464946CB
:1059D000CDE9068902F084FF002829D02C98012304
:1059E0002E990360002900F0D080794B581E2E9A22
:1059F000136021B0BDE8F08F2C9842F20F73036062
:105A0000B8F1000F00F0958049F26440C2F2000046
:105A10002E990029EDD0C278C31C002AE7D000F1EE
:105A20000803E4E726F000460123B1462B60C2E7F5
:105A30002046DDE906231EA900911FA9019101F06E
:105A4000BDFEC6F30A558346002D7ED0DDE9060172
:105A5000A5F57E751F9F073D21F07F4323F470035A
:105A600043F07E51002341F4E001199340F200031A
:105A70000022C3F6F873FDF707F94FA3D3E900231B
:105A8000FDF7B6FA4EA3D3E90023FDF7FFF8CDE901
:105A900008012846FDF746FA4BA3D3E90023FDF79A
:105AA000A7FA02460B46DDE90801FDF7EFF8CDE95C
:105AB000080102F047FF002200230646DDE9080145
:105AC00002F018FF40B13046FDF72CFADDE908235B
:105AD00002F006FF00B9013E162E5BD90123189390
